{
	"contracts/FundMe.sol": {
		"FundMe": {
			"abi": [
				{
					"inputs": [
						{
							"internalType": "uint256",
							"name": "_startTime",
							"type": "uint256"
						},
						{
							"internalType": "uint256",
							"name": "_duration",
							"type": "uint256"
						}
					],
					"stateMutability": "nonpayable",
					"type": "constructor"
				},
				{
					"inputs": [],
					"name": "duration",
					"outputs": [
						{
							"internalType": "uint256",
							"name": "",
							"type": "uint256"
						}
					],
					"stateMutability": "view",
					"type": "function"
				},
				{
					"inputs": [],
					"name": "fundMe",
					"outputs": [],
					"stateMutability": "payable",
					"type": "function"
				},
				{
					"inputs": [
						{
							"internalType": "address",
							"name": "",
							"type": "address"
						}
					],
					"name": "funders",
					"outputs": [
						{
							"internalType": "uint256",
							"name": "",
							"type": "uint256"
						}
					],
					"stateMutability": "view",
					"type": "function"
				},
				{
					"inputs": [],
					"name": "getChainlinkDataFeedLatestAnswer",
					"outputs": [
						{
							"internalType": "int256",
							"name": "",
							"type": "int256"
						}
					],
					"stateMutability": "view",
					"type": "function"
				},
				{
					"inputs": [],
					"name": "getFund",
					"outputs": [],
					"stateMutability": "nonpayable",
					"type": "function"
				},
				{
					"inputs": [],
					"name": "owner",
					"outputs": [
						{
							"internalType": "address",
							"name": "",
							"type": "address"
						}
					],
					"stateMutability": "view",
					"type": "function"
				},
				{
					"inputs": [],
					"name": "refund",
					"outputs": [],
					"stateMutability": "nonpayable",
					"type": "function"
				},
				{
					"inputs": [],
					"name": "startTime",
					"outputs": [
						{
							"internalType": "uint256",
							"name": "",
							"type": "uint256"
						}
					],
					"stateMutability": "view",
					"type": "function"
				}
			],
			"devdoc": {
				"kind": "dev",
				"methods": {},
				"version": 1
			},
			"evm": {
				"assembly": "    /* \"contracts/FundMe.sol\":177:2816  contract FundMe {... */\n  mstore(0x40, 0x80)\n    /* \"contracts/FundMe.sol\":510:750  constructor (uint256 _startTime, uint256 _duration) {... */\n  callvalue\n  dup1\n  iszero\n  tag_1\n  jumpi\n  0x00\n  dup1\n  revert\ntag_1:\n  pop\n  mload(0x40)\n  sub(codesize, bytecodeSize)\n  dup1\n  bytecodeSize\n  dup4\n  codecopy\n  dup2\n  dup2\n  add\n  0x40\n  mstore\n  dup2\n  add\n  swap1\n  tag_2\n  swap2\n  swap1\n  tag_3\n  jump\t// in\ntag_2:\n    /* \"contracts/FundMe.sol\":606:648  0x694AA1769357215DE4FAC081bf1f309aDC325306 */\n  0x694aa1769357215de4fac081bf1f309adc325306\n    /* \"contracts/FundMe.sol\":573:581  dataFeed */\n  0x01\n  0x00\n    /* \"contracts/FundMe.sol\":573:649  dataFeed = AggregatorV3Interface(0x694AA1769357215DE4FAC081bf1f309aDC325306) */\n  0x0100\n  exp\n  dup2\n  sload\n  dup2\n  0xffffffffffffffffffffffffffffffffffffffff\n  mul\n  not\n  and\n  swap1\n  dup4\n  0xffffffffffffffffffffffffffffffffffffffff\n  and\n  mul\n  or\n  swap1\n  sstore\n  pop\n    /* \"contracts/FundMe.sol\":672:682  _startTime */\n  dup2\n    /* \"contracts/FundMe.sol\":660:669  startTime */\n  0x02\n    /* \"contracts/FundMe.sol\":660:682  startTime = _startTime */\n  dup2\n  swap1\n  sstore\n  pop\n    /* \"contracts/FundMe.sol\":704:713  _duration */\n  dup1\n    /* \"contracts/FundMe.sol\":693:701  duration */\n  0x03\n    /* \"contracts/FundMe.sol\":693:713  duration = _duration */\n  dup2\n  swap1\n  sstore\n  pop\n    /* \"contracts/FundMe.sol\":732:742  msg.sender */\n  caller\n    /* \"contracts/FundMe.sol\":724:729  owner */\n  0x04\n  0x00\n    /* \"contracts/FundMe.sol\":724:742  owner = msg.sender */\n  0x0100\n  exp\n  dup2\n  sload\n  dup2\n  0xffffffffffffffffffffffffffffffffffffffff\n  mul\n  not\n  and\n  swap1\n  dup4\n  0xffffffffffffffffffffffffffffffffffffffff\n  and\n  mul\n  or\n  swap1\n  sstore\n  pop\n    /* \"contracts/FundMe.sol\":510:750  constructor (uint256 _startTime, uint256 _duration) {... */\n  pop\n  pop\n    /* \"contracts/FundMe.sol\":177:2816  contract FundMe {... */\n  jump(tag_6)\n    /* \"#utility.yul\":88:205   */\ntag_8:\n    /* \"#utility.yul\":197:198   */\n  0x00\n    /* \"#utility.yul\":194:195   */\n  dup1\n    /* \"#utility.yul\":187:199   */\n  revert\n    /* \"#utility.yul\":334:411   */\ntag_10:\n    /* \"#utility.yul\":371:378   */\n  0x00\n    /* \"#utility.yul\":400:405   */\n  dup2\n    /* \"#utility.yul\":389:405   */\n  swap1\n  pop\n    /* \"#utility.yul\":334:411   */\n  swap2\n  swap1\n  pop\n  jump\t// out\n    /* \"#utility.yul\":417:539   */\ntag_11:\n    /* \"#utility.yul\":490:514   */\n  tag_19\n    /* \"#utility.yul\":508:513   */\n  dup2\n    /* \"#utility.yul\":490:514   */\n  tag_10\n  jump\t// in\ntag_19:\n    /* \"#utility.yul\":483:488   */\n  dup2\n    /* \"#utility.yul\":480:515   */\n  eq\n    /* \"#utility.yul\":470:533   */\n  tag_20\n  jumpi\n    /* \"#utility.yul\":529:530   */\n  0x00\n    /* \"#utility.yul\":526:527   */\n  dup1\n    /* \"#utility.yul\":519:531   */\n  revert\n    /* \"#utility.yul\":470:533   */\ntag_20:\n    /* \"#utility.yul\":417:539   */\n  pop\n  jump\t// out\n    /* \"#utility.yul\":545:688   */\ntag_12:\n    /* \"#utility.yul\":602:607   */\n  0x00\n    /* \"#utility.yul\":633:639   */\n  dup2\n    /* \"#utility.yul\":627:640   */\n  mload\n    /* \"#utility.yul\":618:640   */\n  swap1\n  pop\n    /* \"#utility.yul\":649:682   */\n  tag_22\n    /* \"#utility.yul\":676:681   */\n  dup2\n    /* \"#utility.yul\":649:682   */\n  tag_11\n  jump\t// in\ntag_22:\n    /* \"#utility.yul\":545:688   */\n  swap3\n  swap2\n  pop\n  pop\n  jump\t// out\n    /* \"#utility.yul\":694:1201   */\ntag_3:\n    /* \"#utility.yul\":773:779   */\n  0x00\n    /* \"#utility.yul\":781:787   */\n  dup1\n    /* \"#utility.yul\":830:832   */\n  0x40\n    /* \"#utility.yul\":818:827   */\n  dup4\n    /* \"#utility.yul\":809:816   */\n  dup6\n    /* \"#utility.yul\":805:828   */\n  sub\n    /* \"#utility.yul\":801:833   */\n  slt\n    /* \"#utility.yul\":798:917   */\n  iszero\n  tag_24\n  jumpi\n    /* \"#utility.yul\":836:915   */\n  tag_25\n  tag_8\n  jump\t// in\ntag_25:\n    /* \"#utility.yul\":798:917   */\ntag_24:\n    /* \"#utility.yul\":956:957   */\n  0x00\n    /* \"#utility.yul\":981:1045   */\n  tag_26\n    /* \"#utility.yul\":1037:1044   */\n  dup6\n    /* \"#utility.yul\":1028:1034   */\n  dup3\n    /* \"#utility.yul\":1017:1026   */\n  dup7\n    /* \"#utility.yul\":1013:1035   */\n  add\n    /* \"#utility.yul\":981:1045   */\n  tag_12\n  jump\t// in\ntag_26:\n    /* \"#utility.yul\":971:1045   */\n  swap3\n  pop\n    /* \"#utility.yul\":927:1055   */\n  pop\n    /* \"#utility.yul\":1094:1096   */\n  0x20\n    /* \"#utility.yul\":1120:1184   */\n  tag_27\n    /* \"#utility.yul\":1176:1183   */\n  dup6\n    /* \"#utility.yul\":1167:1173   */\n  dup3\n    /* \"#utility.yul\":1156:1165   */\n  dup7\n    /* \"#utility.yul\":1152:1174   */\n  add\n    /* \"#utility.yul\":1120:1184   */\n  tag_12\n  jump\t// in\ntag_27:\n    /* \"#utility.yul\":1110:1184   */\n  swap2\n  pop\n    /* \"#utility.yul\":1065:1194   */\n  pop\n    /* \"#utility.yul\":694:1201   */\n  swap3\n  pop\n  swap3\n  swap1\n  pop\n  jump\t// out\n    /* \"contracts/FundMe.sol\":177:2816  contract FundMe {... */\ntag_6:\n  dataSize(sub_0)\n  dup1\n  dataOffset(sub_0)\n  0x00\n  codecopy\n  0x00\n  return\nstop\n\nsub_0: assembly {\n        /* \"contracts/FundMe.sol\":177:2816  contract FundMe {... */\n      mstore(0x40, 0x80)\n      jumpi(tag_1, lt(calldatasize, 0x04))\n      shr(0xe0, calldataload(0x00))\n      dup1\n      0x8da5cb5b\n      gt\n      tag_10\n      jumpi\n      dup1\n      0x8da5cb5b\n      eq\n      tag_6\n      jumpi\n      dup1\n      0x8edd6eb6\n      eq\n      tag_7\n      jumpi\n      dup1\n      0xb6a324e0\n      eq\n      tag_8\n      jumpi\n      dup1\n      0xbea4dfb5\n      eq\n      tag_9\n      jumpi\n      jump(tag_1)\n    tag_10:\n      dup1\n      0x031b3677\n      eq\n      tag_2\n      jumpi\n      dup1\n      0x0fb5a6b4\n      eq\n      tag_3\n      jumpi\n      dup1\n      0x590e1ae3\n      eq\n      tag_4\n      jumpi\n      dup1\n      0x78e97925\n      eq\n      tag_5\n      jumpi\n    tag_1:\n      0x00\n      dup1\n      revert\n        /* \"contracts/FundMe.sol\":202:245  mapping (address => uint256) public funders */\n    tag_2:\n      callvalue\n      dup1\n      iszero\n      tag_11\n      jumpi\n      0x00\n      dup1\n      revert\n    tag_11:\n      pop\n      tag_12\n      0x04\n      dup1\n      calldatasize\n      sub\n      dup2\n      add\n      swap1\n      tag_13\n      swap2\n      swap1\n      tag_14\n      jump\t// in\n    tag_13:\n      tag_15\n      jump\t// in\n    tag_12:\n      mload(0x40)\n      tag_16\n      swap2\n      swap1\n      tag_17\n      jump\t// in\n    tag_16:\n      mload(0x40)\n      dup1\n      swap2\n      sub\n      swap1\n      return\n        /* \"contracts/FundMe.sol\":449:472  uint256 public duration */\n    tag_3:\n      callvalue\n      dup1\n      iszero\n      tag_18\n      jumpi\n      0x00\n      dup1\n      revert\n    tag_18:\n      pop\n      tag_19\n      tag_20\n      jump\t// in\n    tag_19:\n      mload(0x40)\n      tag_21\n      swap2\n      swap1\n      tag_17\n      jump\t// in\n    tag_21:\n      mload(0x40)\n      dup1\n      swap2\n      sub\n      swap1\n      return\n        /* \"contracts/FundMe.sol\":1756:2046  function refund() external fundIsNotEnd{... */\n    tag_4:\n      callvalue\n      dup1\n      iszero\n      tag_22\n      jumpi\n      0x00\n      dup1\n      revert\n    tag_22:\n      pop\n      tag_23\n      tag_24\n      jump\t// in\n    tag_23:\n      stop\n        /* \"contracts/FundMe.sol\":416:440  uint256 public startTime */\n    tag_5:\n      callvalue\n      dup1\n      iszero\n      tag_25\n      jumpi\n      0x00\n      dup1\n      revert\n    tag_25:\n      pop\n      tag_26\n      tag_27\n      jump\t// in\n    tag_26:\n      mload(0x40)\n      tag_28\n      swap2\n      swap1\n      tag_17\n      jump\t// in\n    tag_28:\n      mload(0x40)\n      dup1\n      swap2\n      sub\n      swap1\n      return\n        /* \"contracts/FundMe.sol\":481:501  address public owner */\n    tag_6:\n      callvalue\n      dup1\n      iszero\n      tag_29\n      jumpi\n      0x00\n      dup1\n      revert\n    tag_29:\n      pop\n      tag_30\n      tag_31\n      jump\t// in\n    tag_30:\n      mload(0x40)\n      tag_32\n      swap2\n      swap1\n      tag_33\n      jump\t// in\n    tag_32:\n      mload(0x40)\n      dup1\n      swap2\n      sub\n      swap1\n      return\n        /* \"contracts/FundMe.sol\":1273:1664  function getFund() external fundIsNotEnd{... */\n    tag_7:\n      callvalue\n      dup1\n      iszero\n      tag_34\n      jumpi\n      0x00\n      dup1\n      revert\n    tag_34:\n      pop\n      tag_35\n      tag_36\n      jump\t// in\n    tag_35:\n      stop\n        /* \"contracts/FundMe.sol\":791:1199  function fundMe() external payable {... */\n    tag_8:\n      tag_37\n      tag_38\n      jump\t// in\n    tag_37:\n      stop\n        /* \"contracts/FundMe.sol\":2328:2676  function getChainlinkDataFeedLatestAnswer() public view returns (int) {... */\n    tag_9:\n      callvalue\n      dup1\n      iszero\n      tag_39\n      jumpi\n      0x00\n      dup1\n      revert\n    tag_39:\n      pop\n      tag_40\n      tag_41\n      jump\t// in\n    tag_40:\n      mload(0x40)\n      tag_42\n      swap2\n      swap1\n      tag_43\n      jump\t// in\n    tag_42:\n      mload(0x40)\n      dup1\n      swap2\n      sub\n      swap1\n      return\n        /* \"contracts/FundMe.sol\":202:245  mapping (address => uint256) public funders */\n    tag_15:\n      mstore(0x20, 0x00)\n      dup1\n      0x00\n      mstore\n      keccak256(0x00, 0x40)\n      0x00\n      swap2\n      pop\n      swap1\n      pop\n      sload\n      dup2\n      jump\t// out\n        /* \"contracts/FundMe.sol\":449:472  uint256 public duration */\n    tag_20:\n      sload(0x03)\n      dup2\n      jump\t// out\n        /* \"contracts/FundMe.sol\":1756:2046  function refund() external fundIsNotEnd{... */\n    tag_24:\n        /* \"contracts/FundMe.sol\":2757:2765  duration */\n      sload(0x03)\n        /* \"contracts/FundMe.sol\":2745:2754  startTime */\n      sload(0x02)\n        /* \"contracts/FundMe.sol\":2745:2765  startTime + duration */\n      tag_45\n      swap2\n      swap1\n      tag_46\n      jump\t// in\n    tag_45:\n        /* \"contracts/FundMe.sol\":2727:2742  block.timestamp */\n      timestamp\n        /* \"contracts/FundMe.sol\":2727:2765  block.timestamp > startTime + duration */\n      gt\n        /* \"contracts/FundMe.sol\":2719:2793  require(block.timestamp > startTime + duration, \"The fund is not end yet\") */\n      tag_47\n      jumpi\n      mload(0x40)\n      0x08c379a000000000000000000000000000000000000000000000000000000000\n      dup2\n      mstore\n      0x04\n      add\n      tag_48\n      swap1\n      tag_49\n      jump\t// in\n    tag_48:\n      mload(0x40)\n      dup1\n      swap2\n      sub\n      swap1\n      revert\n    tag_47:\n        /* \"contracts/FundMe.sol\":1839:1840  0 */\n      0x00\n        /* \"contracts/FundMe.sol\":1816:1823  funders */\n      dup1\n        /* \"contracts/FundMe.sol\":1816:1835  funders[msg.sender] */\n      0x00\n        /* \"contracts/FundMe.sol\":1824:1834  msg.sender */\n      caller\n        /* \"contracts/FundMe.sol\":1816:1835  funders[msg.sender] */\n      0xffffffffffffffffffffffffffffffffffffffff\n      and\n      0xffffffffffffffffffffffffffffffffffffffff\n      and\n      dup2\n      mstore\n      0x20\n      add\n      swap1\n      dup2\n      mstore\n      0x20\n      add\n      0x00\n      keccak256\n      sload\n        /* \"contracts/FundMe.sol\":1816:1840  funders[msg.sender] != 0 */\n      sub\n        /* \"contracts/FundMe.sol\":1808:1862  require(funders[msg.sender] != 0, \"You have not fund\") */\n      tag_51\n      jumpi\n      mload(0x40)\n      0x08c379a000000000000000000000000000000000000000000000000000000000\n      dup2\n      mstore\n      0x04\n      add\n      tag_52\n      swap1\n      tag_53\n      jump\t// in\n    tag_52:\n      mload(0x40)\n      dup1\n      swap2\n      sub\n      swap1\n      revert\n    tag_51:\n        /* \"contracts/FundMe.sol\":1875:1883  bool res */\n      0x00\n        /* \"contracts/FundMe.sol\":1912:1922  msg.sender */\n      caller\n        /* \"contracts/FundMe.sol\":1903:1928  payable (msg.sender).call */\n      0xffffffffffffffffffffffffffffffffffffffff\n      and\n        /* \"contracts/FundMe.sol\":1936:1943  funders */\n      0x00\n        /* \"contracts/FundMe.sol\":1936:1955  funders[msg.sender] */\n      dup1\n        /* \"contracts/FundMe.sol\":1944:1954  msg.sender */\n      caller\n        /* \"contracts/FundMe.sol\":1936:1955  funders[msg.sender] */\n      0xffffffffffffffffffffffffffffffffffffffff\n      and\n      0xffffffffffffffffffffffffffffffffffffffff\n      and\n      dup2\n      mstore\n      0x20\n      add\n      swap1\n      dup2\n      mstore\n      0x20\n      add\n      0x00\n      keccak256\n      sload\n        /* \"contracts/FundMe.sol\":1903:1960  payable (msg.sender).call{value: funders[msg.sender]}(\"\") */\n      mload(0x40)\n      tag_54\n      swap1\n      tag_55\n      jump\t// in\n    tag_54:\n      0x00\n      mload(0x40)\n      dup1\n      dup4\n      sub\n      dup2\n      dup6\n      dup8\n      gas\n      call\n      swap3\n      pop\n      pop\n      pop\n      returndatasize\n      dup1\n      0x00\n      dup2\n      eq\n      tag_58\n      jumpi\n      mload(0x40)\n      swap2\n      pop\n      and(add(returndatasize, 0x3f), not(0x1f))\n      dup3\n      add\n      0x40\n      mstore\n      returndatasize\n      dup3\n      mstore\n      returndatasize\n      0x00\n      0x20\n      dup5\n      add\n      returndatacopy\n      jump(tag_57)\n    tag_58:\n      0x60\n      swap2\n      pop\n    tag_57:\n      pop\n        /* \"contracts/FundMe.sol\":1894:1960  (res,) = payable (msg.sender).call{value: funders[msg.sender]}(\"\") */\n      pop\n      dup1\n      swap2\n      pop\n      pop\n        /* \"contracts/FundMe.sol\":1981:1984  res */\n      dup1\n        /* \"contracts/FundMe.sol\":1973:2002  require(res, \"Refund failed\") */\n      tag_59\n      jumpi\n      mload(0x40)\n      0x08c379a000000000000000000000000000000000000000000000000000000000\n      dup2\n      mstore\n      0x04\n      add\n      tag_60\n      swap1\n      tag_61\n      jump\t// in\n    tag_60:\n      mload(0x40)\n      dup1\n      swap2\n      sub\n      swap1\n      revert\n    tag_59:\n        /* \"contracts/FundMe.sol\":2037:2038  0 */\n      0x00\n        /* \"contracts/FundMe.sol\":2015:2022  funders */\n      dup1\n        /* \"contracts/FundMe.sol\":2015:2034  funders[msg.sender] */\n      0x00\n        /* \"contracts/FundMe.sol\":2023:2033  msg.sender */\n      caller\n        /* \"contracts/FundMe.sol\":2015:2034  funders[msg.sender] */\n      0xffffffffffffffffffffffffffffffffffffffff\n      and\n      0xffffffffffffffffffffffffffffffffffffffff\n      and\n      dup2\n      mstore\n      0x20\n      add\n      swap1\n      dup2\n      mstore\n      0x20\n      add\n      0x00\n      keccak256\n        /* \"contracts/FundMe.sol\":2015:2038  funders[msg.sender] = 0 */\n      dup2\n      swap1\n      sstore\n      pop\n        /* \"contracts/FundMe.sol\":1795:2046  {... */\n      pop\n        /* \"contracts/FundMe.sol\":1756:2046  function refund() external fundIsNotEnd{... */\n      jump\t// out\n        /* \"contracts/FundMe.sol\":416:440  uint256 public startTime */\n    tag_27:\n      sload(0x02)\n      dup2\n      jump\t// out\n        /* \"contracts/FundMe.sol\":481:501  address public owner */\n    tag_31:\n      0x04\n      0x00\n      swap1\n      sload\n      swap1\n      0x0100\n      exp\n      swap1\n      div\n      0xffffffffffffffffffffffffffffffffffffffff\n      and\n      dup2\n      jump\t// out\n        /* \"contracts/FundMe.sol\":1273:1664  function getFund() external fundIsNotEnd{... */\n    tag_36:\n        /* \"contracts/FundMe.sol\":2757:2765  duration */\n      sload(0x03)\n        /* \"contracts/FundMe.sol\":2745:2754  startTime */\n      sload(0x02)\n        /* \"contracts/FundMe.sol\":2745:2765  startTime + duration */\n      tag_63\n      swap2\n      swap1\n      tag_46\n      jump\t// in\n    tag_63:\n        /* \"contracts/FundMe.sol\":2727:2742  block.timestamp */\n      timestamp\n        /* \"contracts/FundMe.sol\":2727:2765  block.timestamp > startTime + duration */\n      gt\n        /* \"contracts/FundMe.sol\":2719:2793  require(block.timestamp > startTime + duration, \"The fund is not end yet\") */\n      tag_64\n      jumpi\n      mload(0x40)\n      0x08c379a000000000000000000000000000000000000000000000000000000000\n      dup2\n      mstore\n      0x04\n      add\n      tag_65\n      swap1\n      tag_49\n      jump\t// in\n    tag_65:\n      mload(0x40)\n      dup1\n      swap2\n      sub\n      swap1\n      revert\n    tag_64:\n        /* \"contracts/FundMe.sol\":1346:1351  owner */\n      0x04\n      0x00\n      swap1\n      sload\n      swap1\n      0x0100\n      exp\n      swap1\n      div\n      0xffffffffffffffffffffffffffffffffffffffff\n      and\n        /* \"contracts/FundMe.sol\":1332:1351  msg.sender == owner */\n      0xffffffffffffffffffffffffffffffffffffffff\n      and\n        /* \"contracts/FundMe.sol\":1332:1342  msg.sender */\n      caller\n        /* \"contracts/FundMe.sol\":1332:1351  msg.sender == owner */\n      0xffffffffffffffffffffffffffffffffffffffff\n      and\n      eq\n        /* \"contracts/FundMe.sol\":1324:1377  require(msg.sender == owner, \"You are not the owner\") */\n      tag_67\n      jumpi\n      mload(0x40)\n      0x08c379a000000000000000000000000000000000000000000000000000000000\n      dup2\n      mstore\n      0x04\n      add\n      tag_68\n      swap1\n      tag_69\n      jump\t// in\n    tag_68:\n      mload(0x40)\n      dup1\n      swap2\n      sub\n      swap1\n      revert\n    tag_67:\n        /* \"contracts/FundMe.sol\":1390:1413  uint256 totalFundAmount */\n      0x00\n        /* \"contracts/FundMe.sol\":1416:1437  address(this).balance */\n      selfbalance\n        /* \"contracts/FundMe.sol\":1390:1437  uint256 totalFundAmount = address(this).balance */\n      swap1\n      pop\n        /* \"contracts/FundMe.sol\":346:359  20 * 10 ** 18 */\n      0x01158e460913d00000\n        /* \"contracts/FundMe.sol\":1458:1473  totalFundAmount */\n      dup2\n        /* \"contracts/FundMe.sol\":1458:1490  totalFundAmount >= MIN_FUND_GOAL */\n      lt\n      iszero\n        /* \"contracts/FundMe.sol\":1450:1518  require(totalFundAmount >= MIN_FUND_GOAL, \"The goal is not reached\") */\n      tag_70\n      jumpi\n      mload(0x40)\n      0x08c379a000000000000000000000000000000000000000000000000000000000\n      dup2\n      mstore\n      0x04\n      add\n      tag_71\n      swap1\n      tag_72\n      jump\t// in\n    tag_71:\n      mload(0x40)\n      dup1\n      swap2\n      sub\n      swap1\n      revert\n    tag_70:\n        /* \"contracts/FundMe.sol\":1531:1539  bool res */\n      0x00\n        /* \"contracts/FundMe.sol\":1568:1578  msg.sender */\n      caller\n        /* \"contracts/FundMe.sol\":1559:1584  payable (msg.sender).call */\n      0xffffffffffffffffffffffffffffffffffffffff\n      and\n        /* \"contracts/FundMe.sol\":1592:1607  totalFundAmount */\n      dup3\n        /* \"contracts/FundMe.sol\":1559:1612  payable (msg.sender).call{value: totalFundAmount}(\"\") */\n      mload(0x40)\n      tag_73\n      swap1\n      tag_55\n      jump\t// in\n    tag_73:\n      0x00\n      mload(0x40)\n      dup1\n      dup4\n      sub\n      dup2\n      dup6\n      dup8\n      gas\n      call\n      swap3\n      pop\n      pop\n      pop\n      returndatasize\n      dup1\n      0x00\n      dup2\n      eq\n      tag_76\n      jumpi\n      mload(0x40)\n      swap2\n      pop\n      and(add(returndatasize, 0x3f), not(0x1f))\n      dup3\n      add\n      0x40\n      mstore\n      returndatasize\n      dup3\n      mstore\n      returndatasize\n      0x00\n      0x20\n      dup5\n      add\n      returndatacopy\n      jump(tag_75)\n    tag_76:\n      0x60\n      swap2\n      pop\n    tag_75:\n      pop\n        /* \"contracts/FundMe.sol\":1550:1612  (res,) = payable (msg.sender).call{value: totalFundAmount}(\"\") */\n      pop\n      dup1\n      swap2\n      pop\n      pop\n        /* \"contracts/FundMe.sol\":1633:1636  res */\n      dup1\n        /* \"contracts/FundMe.sol\":1625:1656  require(res, \"Get fund failed\") */\n      tag_77\n      jumpi\n      mload(0x40)\n      0x08c379a000000000000000000000000000000000000000000000000000000000\n      dup2\n      mstore\n      0x04\n      add\n      tag_78\n      swap1\n      tag_79\n      jump\t// in\n    tag_78:\n      mload(0x40)\n      dup1\n      swap2\n      sub\n      swap1\n      revert\n    tag_77:\n        /* \"contracts/FundMe.sol\":1313:1664  {... */\n      pop\n      pop\n        /* \"contracts/FundMe.sol\":1273:1664  function getFund() external fundIsNotEnd{... */\n      jump\t// out\n        /* \"contracts/FundMe.sol\":791:1199  function fundMe() external payable {... */\n    tag_38:\n        /* \"contracts/FundMe.sol\":863:872  startTime */\n      sload(0x02)\n        /* \"contracts/FundMe.sol\":845:860  block.timestamp */\n      timestamp\n        /* \"contracts/FundMe.sol\":845:872  block.timestamp > startTime */\n      gt\n        /* \"contracts/FundMe.sol\":837:901  require(block.timestamp > startTime, \"The fund has not started\") */\n      tag_81\n      jumpi\n      mload(0x40)\n      0x08c379a000000000000000000000000000000000000000000000000000000000\n      dup2\n      mstore\n      0x04\n      add\n      tag_82\n      swap1\n      tag_83\n      jump\t// in\n    tag_82:\n      mload(0x40)\n      dup1\n      swap2\n      sub\n      swap1\n      revert\n    tag_81:\n        /* \"contracts/FundMe.sol\":953:961  duration */\n      sload(0x03)\n        /* \"contracts/FundMe.sol\":941:950  startTime */\n      sload(0x02)\n        /* \"contracts/FundMe.sol\":941:961  startTime + duration */\n      tag_84\n      swap2\n      swap1\n      tag_46\n      jump\t// in\n    tag_84:\n        /* \"contracts/FundMe.sol\":922:937  block.timestamp */\n      timestamp\n        /* \"contracts/FundMe.sol\":922:961  block.timestamp <= startTime + duration */\n      gt\n      iszero\n        /* \"contracts/FundMe.sol\":914:981  require(block.timestamp <= startTime + duration, \"The fund is end\") */\n      tag_85\n      jumpi\n      mload(0x40)\n      0x08c379a000000000000000000000000000000000000000000000000000000000\n      dup2\n      mstore\n      0x04\n      add\n      tag_86\n      swap1\n      tag_87\n      jump\t// in\n    tag_86:\n      mload(0x40)\n      dup1\n      swap2\n      sub\n      swap1\n      revert\n    tag_85:\n        /* \"contracts/FundMe.sol\":994:1012  uint256 fundAmount */\n      0x00\n        /* \"contracts/FundMe.sol\":1015:1038  convertToUSD(msg.value) */\n      tag_88\n        /* \"contracts/FundMe.sol\":1028:1037  msg.value */\n      callvalue\n        /* \"contracts/FundMe.sol\":1015:1027  convertToUSD */\n      tag_89\n        /* \"contracts/FundMe.sol\":1015:1038  convertToUSD(msg.value) */\n      jump\t// in\n    tag_88:\n        /* \"contracts/FundMe.sol\":994:1038  uint256 fundAmount = convertToUSD(msg.value) */\n      swap1\n      pop\n        /* \"contracts/FundMe.sol\":284:297  10 * 10 ** 18 */\n      0x8ac7230489e80000\n        /* \"contracts/FundMe.sol\":1057:1067  fundAmount */\n      dup2\n        /* \"contracts/FundMe.sol\":1057:1081  fundAmount >= MIN_AMOUNT */\n      lt\n      iszero\n        /* \"contracts/FundMe.sol\":1049:1106  require(fundAmount >= MIN_AMOUNT, \"You need to pay more\") */\n      tag_90\n      jumpi\n      mload(0x40)\n      0x08c379a000000000000000000000000000000000000000000000000000000000\n      dup2\n      mstore\n      0x04\n      add\n      tag_91\n      swap1\n      tag_92\n      jump\t// in\n    tag_91:\n      mload(0x40)\n      dup1\n      swap2\n      sub\n      swap1\n      revert\n    tag_90:\n        /* \"contracts/FundMe.sol\":1181:1191  fundAmount */\n      dup1\n        /* \"contracts/FundMe.sol\":1159:1166  funders */\n      0x00\n        /* \"contracts/FundMe.sol\":1159:1178  funders[msg.sender] */\n      dup1\n        /* \"contracts/FundMe.sol\":1167:1177  msg.sender */\n      caller\n        /* \"contracts/FundMe.sol\":1159:1178  funders[msg.sender] */\n      0xffffffffffffffffffffffffffffffffffffffff\n      and\n      0xffffffffffffffffffffffffffffffffffffffff\n      and\n      dup2\n      mstore\n      0x20\n      add\n      swap1\n      dup2\n      mstore\n      0x20\n      add\n      0x00\n      keccak256\n        /* \"contracts/FundMe.sol\":1159:1191  funders[msg.sender] = fundAmount */\n      dup2\n      swap1\n      sstore\n      pop\n        /* \"contracts/FundMe.sol\":826:1199  {... */\n      pop\n        /* \"contracts/FundMe.sol\":791:1199  function fundMe() external payable {... */\n      jump\t// out\n        /* \"contracts/FundMe.sol\":2328:2676  function getChainlinkDataFeedLatestAnswer() public view returns (int) {... */\n    tag_41:\n        /* \"contracts/FundMe.sol\":2393:2396  int */\n      0x00\n        /* \"contracts/FundMe.sol\":2487:2497  int answer */\n      dup1\n        /* \"contracts/FundMe.sol\":2618:2626  dataFeed */\n      0x01\n      0x00\n      swap1\n      sload\n      swap1\n      0x0100\n      exp\n      swap1\n      div\n      0xffffffffffffffffffffffffffffffffffffffff\n      and\n        /* \"contracts/FundMe.sol\":2618:2642  dataFeed.latestRoundData */\n      0xffffffffffffffffffffffffffffffffffffffff\n      and\n      0xfeaf968c\n        /* \"contracts/FundMe.sol\":2618:2644  dataFeed.latestRoundData() */\n      mload(0x40)\n      dup2\n      0xffffffff\n      and\n      0xe0\n      shl\n      dup2\n      mstore\n      0x04\n      add\n      0xa0\n      mload(0x40)\n      dup1\n      dup4\n      sub\n      dup2\n      dup7\n      gas\n      staticcall\n      iszero\n      dup1\n      iszero\n      tag_95\n      jumpi\n      returndatasize\n      0x00\n      dup1\n      returndatacopy\n      revert(0x00, returndatasize)\n    tag_95:\n      pop\n      pop\n      pop\n      pop\n      mload(0x40)\n      returndatasize\n      not(0x1f)\n      0x1f\n      dup3\n      add\n      and\n      dup3\n      add\n      dup1\n      0x40\n      mstore\n      pop\n      dup2\n      add\n      swap1\n      tag_96\n      swap2\n      swap1\n      tag_97\n      jump\t// in\n    tag_96:\n        /* \"contracts/FundMe.sol\":2437:2644  (... */\n      pop\n      pop\n      pop\n      swap2\n      pop\n      pop\n        /* \"contracts/FundMe.sol\":2662:2668  answer */\n      dup1\n        /* \"contracts/FundMe.sol\":2655:2668  return answer */\n      swap2\n      pop\n      pop\n        /* \"contracts/FundMe.sol\":2328:2676  function getChainlinkDataFeedLatestAnswer() public view returns (int) {... */\n      swap1\n      jump\t// out\n        /* \"contracts/FundMe.sol\":2054:2266  function convertToUSD(uint256 _amount) private view returns (uint256){... */\n    tag_89:\n        /* \"contracts/FundMe.sol\":2115:2122  uint256 */\n      0x00\n        /* \"contracts/FundMe.sol\":2133:2156  uint256 currentEthToUsd */\n      dup1\n        /* \"contracts/FundMe.sol\":2167:2201  getChainlinkDataFeedLatestAnswer() */\n      tag_99\n        /* \"contracts/FundMe.sol\":2167:2199  getChainlinkDataFeedLatestAnswer */\n      tag_41\n        /* \"contracts/FundMe.sol\":2167:2201  getChainlinkDataFeedLatestAnswer() */\n      jump\t// in\n    tag_99:\n        /* \"contracts/FundMe.sol\":2133:2202  uint256 currentEthToUsd = uint256(getChainlinkDataFeedLatestAnswer()) */\n      swap1\n      pop\n        /* \"contracts/FundMe.sol\":2251:2258  _amount */\n      dup3\n        /* \"contracts/FundMe.sol\":2240:2247  10 ** 8 */\n      0x05f5e100\n        /* \"contracts/FundMe.sol\":2222:2237  currentEthToUsd */\n      dup3\n        /* \"contracts/FundMe.sol\":2222:2247  currentEthToUsd / 10 ** 8 */\n      tag_100\n      swap2\n      swap1\n      tag_101\n      jump\t// in\n    tag_100:\n        /* \"contracts/FundMe.sol\":2221:2258  (currentEthToUsd / 10 ** 8) * _amount */\n      tag_102\n      swap2\n      swap1\n      tag_103\n      jump\t// in\n    tag_102:\n        /* \"contracts/FundMe.sol\":2214:2258  return (currentEthToUsd / 10 ** 8) * _amount */\n      swap2\n      pop\n      pop\n        /* \"contracts/FundMe.sol\":2054:2266  function convertToUSD(uint256 _amount) private view returns (uint256){... */\n      swap2\n      swap1\n      pop\n      jump\t// out\n        /* \"#utility.yul\":88:205   */\n    tag_105:\n        /* \"#utility.yul\":197:198   */\n      0x00\n        /* \"#utility.yul\":194:195   */\n      dup1\n        /* \"#utility.yul\":187:199   */\n      revert\n        /* \"#utility.yul\":334:460   */\n    tag_107:\n        /* \"#utility.yul\":371:378   */\n      0x00\n        /* \"#utility.yul\":411:453   */\n      0xffffffffffffffffffffffffffffffffffffffff\n        /* \"#utility.yul\":404:409   */\n      dup3\n        /* \"#utility.yul\":400:454   */\n      and\n        /* \"#utility.yul\":389:454   */\n      swap1\n      pop\n        /* \"#utility.yul\":334:460   */\n      swap2\n      swap1\n      pop\n      jump\t// out\n        /* \"#utility.yul\":466:562   */\n    tag_108:\n        /* \"#utility.yul\":503:510   */\n      0x00\n        /* \"#utility.yul\":532:556   */\n      tag_153\n        /* \"#utility.yul\":550:555   */\n      dup3\n        /* \"#utility.yul\":532:556   */\n      tag_107\n      jump\t// in\n    tag_153:\n        /* \"#utility.yul\":521:556   */\n      swap1\n      pop\n        /* \"#utility.yul\":466:562   */\n      swap2\n      swap1\n      pop\n      jump\t// out\n        /* \"#utility.yul\":568:690   */\n    tag_109:\n        /* \"#utility.yul\":641:665   */\n      tag_155\n        /* \"#utility.yul\":659:664   */\n      dup2\n        /* \"#utility.yul\":641:665   */\n      tag_108\n      jump\t// in\n    tag_155:\n        /* \"#utility.yul\":634:639   */\n      dup2\n        /* \"#utility.yul\":631:666   */\n      eq\n        /* \"#utility.yul\":621:684   */\n      tag_156\n      jumpi\n        /* \"#utility.yul\":680:681   */\n      0x00\n        /* \"#utility.yul\":677:678   */\n      dup1\n        /* \"#utility.yul\":670:682   */\n      revert\n        /* \"#utility.yul\":621:684   */\n    tag_156:\n        /* \"#utility.yul\":568:690   */\n      pop\n      jump\t// out\n        /* \"#utility.yul\":696:835   */\n    tag_110:\n        /* \"#utility.yul\":742:747   */\n      0x00\n        /* \"#utility.yul\":780:786   */\n      dup2\n        /* \"#utility.yul\":767:787   */\n      calldataload\n        /* \"#utility.yul\":758:787   */\n      swap1\n      pop\n        /* \"#utility.yul\":796:829   */\n      tag_158\n        /* \"#utility.yul\":823:828   */\n      dup2\n        /* \"#utility.yul\":796:829   */\n      tag_109\n      jump\t// in\n    tag_158:\n        /* \"#utility.yul\":696:835   */\n      swap3\n      swap2\n      pop\n      pop\n      jump\t// out\n        /* \"#utility.yul\":841:1170   */\n    tag_14:\n        /* \"#utility.yul\":900:906   */\n      0x00\n        /* \"#utility.yul\":949:951   */\n      0x20\n        /* \"#utility.yul\":937:946   */\n      dup3\n        /* \"#utility.yul\":928:935   */\n      dup5\n        /* \"#utility.yul\":924:947   */\n      sub\n        /* \"#utility.yul\":920:952   */\n      slt\n        /* \"#utility.yul\":917:1036   */\n      iszero\n      tag_160\n      jumpi\n        /* \"#utility.yul\":955:1034   */\n      tag_161\n      tag_105\n      jump\t// in\n    tag_161:\n        /* \"#utility.yul\":917:1036   */\n    tag_160:\n        /* \"#utility.yul\":1075:1076   */\n      0x00\n        /* \"#utility.yul\":1100:1153   */\n      tag_162\n        /* \"#utility.yul\":1145:1152   */\n      dup5\n        /* \"#utility.yul\":1136:1142   */\n      dup3\n        /* \"#utility.yul\":1125:1134   */\n      dup6\n        /* \"#utility.yul\":1121:1143   */\n      add\n        /* \"#utility.yul\":1100:1153   */\n      tag_110\n      jump\t// in\n    tag_162:\n        /* \"#utility.yul\":1090:1153   */\n      swap2\n      pop\n        /* \"#utility.yul\":1046:1163   */\n      pop\n        /* \"#utility.yul\":841:1170   */\n      swap3\n      swap2\n      pop\n      pop\n      jump\t// out\n        /* \"#utility.yul\":1176:1253   */\n    tag_111:\n        /* \"#utility.yul\":1213:1220   */\n      0x00\n        /* \"#utility.yul\":1242:1247   */\n      dup2\n        /* \"#utility.yul\":1231:1247   */\n      swap1\n      pop\n        /* \"#utility.yul\":1176:1253   */\n      swap2\n      swap1\n      pop\n      jump\t// out\n        /* \"#utility.yul\":1259:1377   */\n    tag_112:\n        /* \"#utility.yul\":1346:1370   */\n      tag_165\n        /* \"#utility.yul\":1364:1369   */\n      dup2\n        /* \"#utility.yul\":1346:1370   */\n      tag_111\n      jump\t// in\n    tag_165:\n        /* \"#utility.yul\":1341:1344   */\n      dup3\n        /* \"#utility.yul\":1334:1371   */\n      mstore\n        /* \"#utility.yul\":1259:1377   */\n      pop\n      pop\n      jump\t// out\n        /* \"#utility.yul\":1383:1605   */\n    tag_17:\n        /* \"#utility.yul\":1476:1480   */\n      0x00\n        /* \"#utility.yul\":1514:1516   */\n      0x20\n        /* \"#utility.yul\":1503:1512   */\n      dup3\n        /* \"#utility.yul\":1499:1517   */\n      add\n        /* \"#utility.yul\":1491:1517   */\n      swap1\n      pop\n        /* \"#utility.yul\":1527:1598   */\n      tag_167\n        /* \"#utility.yul\":1595:1596   */\n      0x00\n        /* \"#utility.yul\":1584:1593   */\n      dup4\n        /* \"#utility.yul\":1580:1597   */\n      add\n        /* \"#utility.yul\":1571:1577   */\n      dup5\n        /* \"#utility.yul\":1527:1598   */\n      tag_112\n      jump\t// in\n    tag_167:\n        /* \"#utility.yul\":1383:1605   */\n      swap3\n      swap2\n      pop\n      pop\n      jump\t// out\n        /* \"#utility.yul\":1611:1729   */\n    tag_113:\n        /* \"#utility.yul\":1698:1722   */\n      tag_169\n        /* \"#utility.yul\":1716:1721   */\n      dup2\n        /* \"#utility.yul\":1698:1722   */\n      tag_108\n      jump\t// in\n    tag_169:\n        /* \"#utility.yul\":1693:1696   */\n      dup3\n        /* \"#utility.yul\":1686:1723   */\n      mstore\n        /* \"#utility.yul\":1611:1729   */\n      pop\n      pop\n      jump\t// out\n        /* \"#utility.yul\":1735:1957   */\n    tag_33:\n        /* \"#utility.yul\":1828:1832   */\n      0x00\n        /* \"#utility.yul\":1866:1868   */\n      0x20\n        /* \"#utility.yul\":1855:1864   */\n      dup3\n        /* \"#utility.yul\":1851:1869   */\n      add\n        /* \"#utility.yul\":1843:1869   */\n      swap1\n      pop\n        /* \"#utility.yul\":1879:1950   */\n      tag_171\n        /* \"#utility.yul\":1947:1948   */\n      0x00\n        /* \"#utility.yul\":1936:1945   */\n      dup4\n        /* \"#utility.yul\":1932:1949   */\n      add\n        /* \"#utility.yul\":1923:1929   */\n      dup5\n        /* \"#utility.yul\":1879:1950   */\n      tag_113\n      jump\t// in\n    tag_171:\n        /* \"#utility.yul\":1735:1957   */\n      swap3\n      swap2\n      pop\n      pop\n      jump\t// out\n        /* \"#utility.yul\":1963:2039   */\n    tag_114:\n        /* \"#utility.yul\":1999:2006   */\n      0x00\n        /* \"#utility.yul\":2028:2033   */\n      dup2\n        /* \"#utility.yul\":2017:2033   */\n      swap1\n      pop\n        /* \"#utility.yul\":1963:2039   */\n      swap2\n      swap1\n      pop\n      jump\t// out\n        /* \"#utility.yul\":2045:2160   */\n    tag_115:\n        /* \"#utility.yul\":2130:2153   */\n      tag_174\n        /* \"#utility.yul\":2147:2152   */\n      dup2\n        /* \"#utility.yul\":2130:2153   */\n      tag_114\n      jump\t// in\n    tag_174:\n        /* \"#utility.yul\":2125:2128   */\n      dup3\n        /* \"#utility.yul\":2118:2154   */\n      mstore\n        /* \"#utility.yul\":2045:2160   */\n      pop\n      pop\n      jump\t// out\n        /* \"#utility.yul\":2166:2384   */\n    tag_43:\n        /* \"#utility.yul\":2257:2261   */\n      0x00\n        /* \"#utility.yul\":2295:2297   */\n      0x20\n        /* \"#utility.yul\":2284:2293   */\n      dup3\n        /* \"#utility.yul\":2280:2298   */\n      add\n        /* \"#utility.yul\":2272:2298   */\n      swap1\n      pop\n        /* \"#utility.yul\":2308:2377   */\n      tag_176\n        /* \"#utility.yul\":2374:2375   */\n      0x00\n        /* \"#utility.yul\":2363:2372   */\n      dup4\n        /* \"#utility.yul\":2359:2376   */\n      add\n        /* \"#utility.yul\":2350:2356   */\n      dup5\n        /* \"#utility.yul\":2308:2377   */\n      tag_115\n      jump\t// in\n    tag_176:\n        /* \"#utility.yul\":2166:2384   */\n      swap3\n      swap2\n      pop\n      pop\n      jump\t// out\n        /* \"#utility.yul\":2390:2570   */\n    tag_116:\n        /* \"#utility.yul\":2438:2515   */\n      0x4e487b7100000000000000000000000000000000000000000000000000000000\n        /* \"#utility.yul\":2435:2436   */\n      0x00\n        /* \"#utility.yul\":2428:2516   */\n      mstore\n        /* \"#utility.yul\":2535:2539   */\n      0x11\n        /* \"#utility.yul\":2532:2533   */\n      0x04\n        /* \"#utility.yul\":2525:2540   */\n      mstore\n        /* \"#utility.yul\":2559:2563   */\n      0x24\n        /* \"#utility.yul\":2556:2557   */\n      0x00\n        /* \"#utility.yul\":2549:2564   */\n      revert\n        /* \"#utility.yul\":2576:2767   */\n    tag_46:\n        /* \"#utility.yul\":2616:2619   */\n      0x00\n        /* \"#utility.yul\":2635:2655   */\n      tag_179\n        /* \"#utility.yul\":2653:2654   */\n      dup3\n        /* \"#utility.yul\":2635:2655   */\n      tag_111\n      jump\t// in\n    tag_179:\n        /* \"#utility.yul\":2630:2655   */\n      swap2\n      pop\n        /* \"#utility.yul\":2669:2689   */\n      tag_180\n        /* \"#utility.yul\":2687:2688   */\n      dup4\n        /* \"#utility.yul\":2669:2689   */\n      tag_111\n      jump\t// in\n    tag_180:\n        /* \"#utility.yul\":2664:2689   */\n      swap3\n      pop\n        /* \"#utility.yul\":2712:2713   */\n      dup3\n        /* \"#utility.yul\":2709:2710   */\n      dup3\n        /* \"#utility.yul\":2705:2714   */\n      add\n        /* \"#utility.yul\":2698:2714   */\n      swap1\n      pop\n        /* \"#utility.yul\":2733:2736   */\n      dup1\n        /* \"#utility.yul\":2730:2731   */\n      dup3\n        /* \"#utility.yul\":2727:2737   */\n      gt\n        /* \"#utility.yul\":2724:2760   */\n      iszero\n      tag_181\n      jumpi\n        /* \"#utility.yul\":2740:2758   */\n      tag_182\n      tag_116\n      jump\t// in\n    tag_182:\n        /* \"#utility.yul\":2724:2760   */\n    tag_181:\n        /* \"#utility.yul\":2576:2767   */\n      swap3\n      swap2\n      pop\n      pop\n      jump\t// out\n        /* \"#utility.yul\":2773:2942   */\n    tag_117:\n        /* \"#utility.yul\":2857:2868   */\n      0x00\n        /* \"#utility.yul\":2891:2897   */\n      dup3\n        /* \"#utility.yul\":2886:2889   */\n      dup3\n        /* \"#utility.yul\":2879:2898   */\n      mstore\n        /* \"#utility.yul\":2931:2935   */\n      0x20\n        /* \"#utility.yul\":2926:2929   */\n      dup3\n        /* \"#utility.yul\":2922:2936   */\n      add\n        /* \"#utility.yul\":2907:2936   */\n      swap1\n      pop\n        /* \"#utility.yul\":2773:2942   */\n      swap3\n      swap2\n      pop\n      pop\n      jump\t// out\n        /* \"#utility.yul\":2948:3121   */\n    tag_118:\n        /* \"#utility.yul\":3088:3113   */\n      0x5468652066756e64206973206e6f7420656e6420796574000000000000000000\n        /* \"#utility.yul\":3084:3085   */\n      0x00\n        /* \"#utility.yul\":3076:3082   */\n      dup3\n        /* \"#utility.yul\":3072:3086   */\n      add\n        /* \"#utility.yul\":3065:3114   */\n      mstore\n        /* \"#utility.yul\":2948:3121   */\n      pop\n      jump\t// out\n        /* \"#utility.yul\":3127:3493   */\n    tag_119:\n        /* \"#utility.yul\":3269:3272   */\n      0x00\n        /* \"#utility.yul\":3290:3357   */\n      tag_186\n        /* \"#utility.yul\":3354:3356   */\n      0x17\n        /* \"#utility.yul\":3349:3352   */\n      dup4\n        /* \"#utility.yul\":3290:3357   */\n      tag_117\n      jump\t// in\n    tag_186:\n        /* \"#utility.yul\":3283:3357   */\n      swap2\n      pop\n        /* \"#utility.yul\":3366:3459   */\n      tag_187\n        /* \"#utility.yul\":3455:3458   */\n      dup3\n        /* \"#utility.yul\":3366:3459   */\n      tag_118\n      jump\t// in\n    tag_187:\n        /* \"#utility.yul\":3484:3486   */\n      0x20\n        /* \"#utility.yul\":3479:3482   */\n      dup3\n        /* \"#utility.yul\":3475:3487   */\n      add\n        /* \"#utility.yul\":3468:3487   */\n      swap1\n      pop\n        /* \"#utility.yul\":3127:3493   */\n      swap2\n      swap1\n      pop\n      jump\t// out\n        /* \"#utility.yul\":3499:3918   */\n    tag_49:\n        /* \"#utility.yul\":3665:3669   */\n      0x00\n        /* \"#utility.yul\":3703:3705   */\n      0x20\n        /* \"#utility.yul\":3692:3701   */\n      dup3\n        /* \"#utility.yul\":3688:3706   */\n      add\n        /* \"#utility.yul\":3680:3706   */\n      swap1\n      pop\n        /* \"#utility.yul\":3752:3761   */\n      dup2\n        /* \"#utility.yul\":3746:3750   */\n      dup2\n        /* \"#utility.yul\":3742:3762   */\n      sub\n        /* \"#utility.yul\":3738:3739   */\n      0x00\n        /* \"#utility.yul\":3727:3736   */\n      dup4\n        /* \"#utility.yul\":3723:3740   */\n      add\n        /* \"#utility.yul\":3716:3763   */\n      mstore\n        /* \"#utility.yul\":3780:3911   */\n      tag_189\n        /* \"#utility.yul\":3906:3910   */\n      dup2\n        /* \"#utility.yul\":3780:3911   */\n      tag_119\n      jump\t// in\n    tag_189:\n        /* \"#utility.yul\":3772:3911   */\n      swap1\n      pop\n        /* \"#utility.yul\":3499:3918   */\n      swap2\n      swap1\n      pop\n      jump\t// out\n        /* \"#utility.yul\":3924:4091   */\n    tag_120:\n        /* \"#utility.yul\":4064:4083   */\n      0x596f752068617665206e6f742066756e64000000000000000000000000000000\n        /* \"#utility.yul\":4060:4061   */\n      0x00\n        /* \"#utility.yul\":4052:4058   */\n      dup3\n        /* \"#utility.yul\":4048:4062   */\n      add\n        /* \"#utility.yul\":4041:4084   */\n      mstore\n        /* \"#utility.yul\":3924:4091   */\n      pop\n      jump\t// out\n        /* \"#utility.yul\":4097:4463   */\n    tag_121:\n        /* \"#utility.yul\":4239:4242   */\n      0x00\n        /* \"#utility.yul\":4260:4327   */\n      tag_192\n        /* \"#utility.yul\":4324:4326   */\n      0x11\n        /* \"#utility.yul\":4319:4322   */\n      dup4\n        /* \"#utility.yul\":4260:4327   */\n      tag_117\n      jump\t// in\n    tag_192:\n        /* \"#utility.yul\":4253:4327   */\n      swap2\n      pop\n        /* \"#utility.yul\":4336:4429   */\n      tag_193\n        /* \"#utility.yul\":4425:4428   */\n      dup3\n        /* \"#utility.yul\":4336:4429   */\n      tag_120\n      jump\t// in\n    tag_193:\n        /* \"#utility.yul\":4454:4456   */\n      0x20\n        /* \"#utility.yul\":4449:4452   */\n      dup3\n        /* \"#utility.yul\":4445:4457   */\n      add\n        /* \"#utility.yul\":4438:4457   */\n      swap1\n      pop\n        /* \"#utility.yul\":4097:4463   */\n      swap2\n      swap1\n      pop\n      jump\t// out\n        /* \"#utility.yul\":4469:4888   */\n    tag_53:\n        /* \"#utility.yul\":4635:4639   */\n      0x00\n        /* \"#utility.yul\":4673:4675   */\n      0x20\n        /* \"#utility.yul\":4662:4671   */\n      dup3\n        /* \"#utility.yul\":4658:4676   */\n      add\n        /* \"#utility.yul\":4650:4676   */\n      swap1\n      pop\n        /* \"#utility.yul\":4722:4731   */\n      dup2\n        /* \"#utility.yul\":4716:4720   */\n      dup2\n        /* \"#utility.yul\":4712:4732   */\n      sub\n        /* \"#utility.yul\":4708:4709   */\n      0x00\n        /* \"#utility.yul\":4697:4706   */\n      dup4\n        /* \"#utility.yul\":4693:4710   */\n      add\n        /* \"#utility.yul\":4686:4733   */\n      mstore\n        /* \"#utility.yul\":4750:4881   */\n      tag_195\n        /* \"#utility.yul\":4876:4880   */\n      dup2\n        /* \"#utility.yul\":4750:4881   */\n      tag_121\n      jump\t// in\n    tag_195:\n        /* \"#utility.yul\":4742:4881   */\n      swap1\n      pop\n        /* \"#utility.yul\":4469:4888   */\n      swap2\n      swap1\n      pop\n      jump\t// out\n        /* \"#utility.yul\":4894:5041   */\n    tag_122:\n        /* \"#utility.yul\":4995:5006   */\n      0x00\n        /* \"#utility.yul\":5032:5035   */\n      dup2\n        /* \"#utility.yul\":5017:5035   */\n      swap1\n      pop\n        /* \"#utility.yul\":4894:5041   */\n      swap3\n      swap2\n      pop\n      pop\n      jump\t// out\n        /* \"#utility.yul\":5047:5161   */\n    tag_123:\n      pop\n      jump\t// out\n        /* \"#utility.yul\":5167:5565   */\n    tag_124:\n        /* \"#utility.yul\":5326:5329   */\n      0x00\n        /* \"#utility.yul\":5347:5430   */\n      tag_199\n        /* \"#utility.yul\":5428:5429   */\n      0x00\n        /* \"#utility.yul\":5423:5426   */\n      dup4\n        /* \"#utility.yul\":5347:5430   */\n      tag_122\n      jump\t// in\n    tag_199:\n        /* \"#utility.yul\":5340:5430   */\n      swap2\n      pop\n        /* \"#utility.yul\":5439:5532   */\n      tag_200\n        /* \"#utility.yul\":5528:5531   */\n      dup3\n        /* \"#utility.yul\":5439:5532   */\n      tag_123\n      jump\t// in\n    tag_200:\n        /* \"#utility.yul\":5557:5558   */\n      0x00\n        /* \"#utility.yul\":5552:5555   */\n      dup3\n        /* \"#utility.yul\":5548:5559   */\n      add\n        /* \"#utility.yul\":5541:5559   */\n      swap1\n      pop\n        /* \"#utility.yul\":5167:5565   */\n      swap2\n      swap1\n      pop\n      jump\t// out\n        /* \"#utility.yul\":5571:5950   */\n    tag_55:\n        /* \"#utility.yul\":5755:5758   */\n      0x00\n        /* \"#utility.yul\":5777:5924   */\n      tag_202\n        /* \"#utility.yul\":5920:5923   */\n      dup3\n        /* \"#utility.yul\":5777:5924   */\n      tag_124\n      jump\t// in\n    tag_202:\n        /* \"#utility.yul\":5770:5924   */\n      swap2\n      pop\n        /* \"#utility.yul\":5941:5944   */\n      dup2\n        /* \"#utility.yul\":5934:5944   */\n      swap1\n      pop\n        /* \"#utility.yul\":5571:5950   */\n      swap2\n      swap1\n      pop\n      jump\t// out\n        /* \"#utility.yul\":5956:6119   */\n    tag_125:\n        /* \"#utility.yul\":6096:6111   */\n      0x526566756e64206661696c656400000000000000000000000000000000000000\n        /* \"#utility.yul\":6092:6093   */\n      0x00\n        /* \"#utility.yul\":6084:6090   */\n      dup3\n        /* \"#utility.yul\":6080:6094   */\n      add\n        /* \"#utility.yul\":6073:6112   */\n      mstore\n        /* \"#utility.yul\":5956:6119   */\n      pop\n      jump\t// out\n        /* \"#utility.yul\":6125:6491   */\n    tag_126:\n        /* \"#utility.yul\":6267:6270   */\n      0x00\n        /* \"#utility.yul\":6288:6355   */\n      tag_205\n        /* \"#utility.yul\":6352:6354   */\n      0x0d\n        /* \"#utility.yul\":6347:6350   */\n      dup4\n        /* \"#utility.yul\":6288:6355   */\n      tag_117\n      jump\t// in\n    tag_205:\n        /* \"#utility.yul\":6281:6355   */\n      swap2\n      pop\n        /* \"#utility.yul\":6364:6457   */\n      tag_206\n        /* \"#utility.yul\":6453:6456   */\n      dup3\n        /* \"#utility.yul\":6364:6457   */\n      tag_125\n      jump\t// in\n    tag_206:\n        /* \"#utility.yul\":6482:6484   */\n      0x20\n        /* \"#utility.yul\":6477:6480   */\n      dup3\n        /* \"#utility.yul\":6473:6485   */\n      add\n        /* \"#utility.yul\":6466:6485   */\n      swap1\n      pop\n        /* \"#utility.yul\":6125:6491   */\n      swap2\n      swap1\n      pop\n      jump\t// out\n        /* \"#utility.yul\":6497:6916   */\n    tag_61:\n        /* \"#utility.yul\":6663:6667   */\n      0x00\n        /* \"#utility.yul\":6701:6703   */\n      0x20\n        /* \"#utility.yul\":6690:6699   */\n      dup3\n        /* \"#utility.yul\":6686:6704   */\n      add\n        /* \"#utility.yul\":6678:6704   */\n      swap1\n      pop\n        /* \"#utility.yul\":6750:6759   */\n      dup2\n        /* \"#utility.yul\":6744:6748   */\n      dup2\n        /* \"#utility.yul\":6740:6760   */\n      sub\n        /* \"#utility.yul\":6736:6737   */\n      0x00\n        /* \"#utility.yul\":6725:6734   */\n      dup4\n        /* \"#utility.yul\":6721:6738   */\n      add\n        /* \"#utility.yul\":6714:6761   */\n      mstore\n        /* \"#utility.yul\":6778:6909   */\n      tag_208\n        /* \"#utility.yul\":6904:6908   */\n      dup2\n        /* \"#utility.yul\":6778:6909   */\n      tag_126\n      jump\t// in\n    tag_208:\n        /* \"#utility.yul\":6770:6909   */\n      swap1\n      pop\n        /* \"#utility.yul\":6497:6916   */\n      swap2\n      swap1\n      pop\n      jump\t// out\n        /* \"#utility.yul\":6922:7093   */\n    tag_127:\n        /* \"#utility.yul\":7062:7085   */\n      0x596f7520617265206e6f7420746865206f776e65720000000000000000000000\n        /* \"#utility.yul\":7058:7059   */\n      0x00\n        /* \"#utility.yul\":7050:7056   */\n      dup3\n        /* \"#utility.yul\":7046:7060   */\n      add\n        /* \"#utility.yul\":7039:7086   */\n      mstore\n        /* \"#utility.yul\":6922:7093   */\n      pop\n      jump\t// out\n        /* \"#utility.yul\":7099:7465   */\n    tag_128:\n        /* \"#utility.yul\":7241:7244   */\n      0x00\n        /* \"#utility.yul\":7262:7329   */\n      tag_211\n        /* \"#utility.yul\":7326:7328   */\n      0x15\n        /* \"#utility.yul\":7321:7324   */\n      dup4\n        /* \"#utility.yul\":7262:7329   */\n      tag_117\n      jump\t// in\n    tag_211:\n        /* \"#utility.yul\":7255:7329   */\n      swap2\n      pop\n        /* \"#utility.yul\":7338:7431   */\n      tag_212\n        /* \"#utility.yul\":7427:7430   */\n      dup3\n        /* \"#utility.yul\":7338:7431   */\n      tag_127\n      jump\t// in\n    tag_212:\n        /* \"#utility.yul\":7456:7458   */\n      0x20\n        /* \"#utility.yul\":7451:7454   */\n      dup3\n        /* \"#utility.yul\":7447:7459   */\n      add\n        /* \"#utility.yul\":7440:7459   */\n      swap1\n      pop\n        /* \"#utility.yul\":7099:7465   */\n      swap2\n      swap1\n      pop\n      jump\t// out\n        /* \"#utility.yul\":7471:7890   */\n    tag_69:\n        /* \"#utility.yul\":7637:7641   */\n      0x00\n        /* \"#utility.yul\":7675:7677   */\n      0x20\n        /* \"#utility.yul\":7664:7673   */\n      dup3\n        /* \"#utility.yul\":7660:7678   */\n      add\n        /* \"#utility.yul\":7652:7678   */\n      swap1\n      pop\n        /* \"#utility.yul\":7724:7733   */\n      dup2\n        /* \"#utility.yul\":7718:7722   */\n      dup2\n        /* \"#utility.yul\":7714:7734   */\n      sub\n        /* \"#utility.yul\":7710:7711   */\n      0x00\n        /* \"#utility.yul\":7699:7708   */\n      dup4\n        /* \"#utility.yul\":7695:7712   */\n      add\n        /* \"#utility.yul\":7688:7735   */\n      mstore\n        /* \"#utility.yul\":7752:7883   */\n      tag_214\n        /* \"#utility.yul\":7878:7882   */\n      dup2\n        /* \"#utility.yul\":7752:7883   */\n      tag_128\n      jump\t// in\n    tag_214:\n        /* \"#utility.yul\":7744:7883   */\n      swap1\n      pop\n        /* \"#utility.yul\":7471:7890   */\n      swap2\n      swap1\n      pop\n      jump\t// out\n        /* \"#utility.yul\":7896:8069   */\n    tag_129:\n        /* \"#utility.yul\":8036:8061   */\n      0x54686520676f616c206973206e6f742072656163686564000000000000000000\n        /* \"#utility.yul\":8032:8033   */\n      0x00\n        /* \"#utility.yul\":8024:8030   */\n      dup3\n        /* \"#utility.yul\":8020:8034   */\n      add\n        /* \"#utility.yul\":8013:8062   */\n      mstore\n        /* \"#utility.yul\":7896:8069   */\n      pop\n      jump\t// out\n        /* \"#utility.yul\":8075:8441   */\n    tag_130:\n        /* \"#utility.yul\":8217:8220   */\n      0x00\n        /* \"#utility.yul\":8238:8305   */\n      tag_217\n        /* \"#utility.yul\":8302:8304   */\n      0x17\n        /* \"#utility.yul\":8297:8300   */\n      dup4\n        /* \"#utility.yul\":8238:8305   */\n      tag_117\n      jump\t// in\n    tag_217:\n        /* \"#utility.yul\":8231:8305   */\n      swap2\n      pop\n        /* \"#utility.yul\":8314:8407   */\n      tag_218\n        /* \"#utility.yul\":8403:8406   */\n      dup3\n        /* \"#utility.yul\":8314:8407   */\n      tag_129\n      jump\t// in\n    tag_218:\n        /* \"#utility.yul\":8432:8434   */\n      0x20\n        /* \"#utility.yul\":8427:8430   */\n      dup3\n        /* \"#utility.yul\":8423:8435   */\n      add\n        /* \"#utility.yul\":8416:8435   */\n      swap1\n      pop\n        /* \"#utility.yul\":8075:8441   */\n      swap2\n      swap1\n      pop\n      jump\t// out\n        /* \"#utility.yul\":8447:8866   */\n    tag_72:\n        /* \"#utility.yul\":8613:8617   */\n      0x00\n        /* \"#utility.yul\":8651:8653   */\n      0x20\n        /* \"#utility.yul\":8640:8649   */\n      dup3\n        /* \"#utility.yul\":8636:8654   */\n      add\n        /* \"#utility.yul\":8628:8654   */\n      swap1\n      pop\n        /* \"#utility.yul\":8700:8709   */\n      dup2\n        /* \"#utility.yul\":8694:8698   */\n      dup2\n        /* \"#utility.yul\":8690:8710   */\n      sub\n        /* \"#utility.yul\":8686:8687   */\n      0x00\n        /* \"#utility.yul\":8675:8684   */\n      dup4\n        /* \"#utility.yul\":8671:8688   */\n      add\n        /* \"#utility.yul\":8664:8711   */\n      mstore\n        /* \"#utility.yul\":8728:8859   */\n      tag_220\n        /* \"#utility.yul\":8854:8858   */\n      dup2\n        /* \"#utility.yul\":8728:8859   */\n      tag_130\n      jump\t// in\n    tag_220:\n        /* \"#utility.yul\":8720:8859   */\n      swap1\n      pop\n        /* \"#utility.yul\":8447:8866   */\n      swap2\n      swap1\n      pop\n      jump\t// out\n        /* \"#utility.yul\":8872:9037   */\n    tag_131:\n        /* \"#utility.yul\":9012:9029   */\n      0x4765742066756e64206661696c65640000000000000000000000000000000000\n        /* \"#utility.yul\":9008:9009   */\n      0x00\n        /* \"#utility.yul\":9000:9006   */\n      dup3\n        /* \"#utility.yul\":8996:9010   */\n      add\n        /* \"#utility.yul\":8989:9030   */\n      mstore\n        /* \"#utility.yul\":8872:9037   */\n      pop\n      jump\t// out\n        /* \"#utility.yul\":9043:9409   */\n    tag_132:\n        /* \"#utility.yul\":9185:9188   */\n      0x00\n        /* \"#utility.yul\":9206:9273   */\n      tag_223\n        /* \"#utility.yul\":9270:9272   */\n      0x0f\n        /* \"#utility.yul\":9265:9268   */\n      dup4\n        /* \"#utility.yul\":9206:9273   */\n      tag_117\n      jump\t// in\n    tag_223:\n        /* \"#utility.yul\":9199:9273   */\n      swap2\n      pop\n        /* \"#utility.yul\":9282:9375   */\n      tag_224\n        /* \"#utility.yul\":9371:9374   */\n      dup3\n        /* \"#utility.yul\":9282:9375   */\n      tag_131\n      jump\t// in\n    tag_224:\n        /* \"#utility.yul\":9400:9402   */\n      0x20\n        /* \"#utility.yul\":9395:9398   */\n      dup3\n        /* \"#utility.yul\":9391:9403   */\n      add\n        /* \"#utility.yul\":9384:9403   */\n      swap1\n      pop\n        /* \"#utility.yul\":9043:9409   */\n      swap2\n      swap1\n      pop\n      jump\t// out\n        /* \"#utility.yul\":9415:9834   */\n    tag_79:\n        /* \"#utility.yul\":9581:9585   */\n      0x00\n        /* \"#utility.yul\":9619:9621   */\n      0x20\n        /* \"#utility.yul\":9608:9617   */\n      dup3\n        /* \"#utility.yul\":9604:9622   */\n      add\n        /* \"#utility.yul\":9596:9622   */\n      swap1\n      pop\n        /* \"#utility.yul\":9668:9677   */\n      dup2\n        /* \"#utility.yul\":9662:9666   */\n      dup2\n        /* \"#utility.yul\":9658:9678   */\n      sub\n        /* \"#utility.yul\":9654:9655   */\n      0x00\n        /* \"#utility.yul\":9643:9652   */\n      dup4\n        /* \"#utility.yul\":9639:9656   */\n      add\n        /* \"#utility.yul\":9632:9679   */\n      mstore\n        /* \"#utility.yul\":9696:9827   */\n      tag_226\n        /* \"#utility.yul\":9822:9826   */\n      dup2\n        /* \"#utility.yul\":9696:9827   */\n      tag_132\n      jump\t// in\n    tag_226:\n        /* \"#utility.yul\":9688:9827   */\n      swap1\n      pop\n        /* \"#utility.yul\":9415:9834   */\n      swap2\n      swap1\n      pop\n      jump\t// out\n        /* \"#utility.yul\":9840:10014   */\n    tag_133:\n        /* \"#utility.yul\":9980:10006   */\n      0x5468652066756e6420686173206e6f7420737461727465640000000000000000\n        /* \"#utility.yul\":9976:9977   */\n      0x00\n        /* \"#utility.yul\":9968:9974   */\n      dup3\n        /* \"#utility.yul\":9964:9978   */\n      add\n        /* \"#utility.yul\":9957:10007   */\n      mstore\n        /* \"#utility.yul\":9840:10014   */\n      pop\n      jump\t// out\n        /* \"#utility.yul\":10020:10386   */\n    tag_134:\n        /* \"#utility.yul\":10162:10165   */\n      0x00\n        /* \"#utility.yul\":10183:10250   */\n      tag_229\n        /* \"#utility.yul\":10247:10249   */\n      0x18\n        /* \"#utility.yul\":10242:10245   */\n      dup4\n        /* \"#utility.yul\":10183:10250   */\n      tag_117\n      jump\t// in\n    tag_229:\n        /* \"#utility.yul\":10176:10250   */\n      swap2\n      pop\n        /* \"#utility.yul\":10259:10352   */\n      tag_230\n        /* \"#utility.yul\":10348:10351   */\n      dup3\n        /* \"#utility.yul\":10259:10352   */\n      tag_133\n      jump\t// in\n    tag_230:\n        /* \"#utility.yul\":10377:10379   */\n      0x20\n        /* \"#utility.yul\":10372:10375   */\n      dup3\n        /* \"#utility.yul\":10368:10380   */\n      add\n        /* \"#utility.yul\":10361:10380   */\n      swap1\n      pop\n        /* \"#utility.yul\":10020:10386   */\n      swap2\n      swap1\n      pop\n      jump\t// out\n        /* \"#utility.yul\":10392:10811   */\n    tag_83:\n        /* \"#utility.yul\":10558:10562   */\n      0x00\n        /* \"#utility.yul\":10596:10598   */\n      0x20\n        /* \"#utility.yul\":10585:10594   */\n      dup3\n        /* \"#utility.yul\":10581:10599   */\n      add\n        /* \"#utility.yul\":10573:10599   */\n      swap1\n      pop\n        /* \"#utility.yul\":10645:10654   */\n      dup2\n        /* \"#utility.yul\":10639:10643   */\n      dup2\n        /* \"#utility.yul\":10635:10655   */\n      sub\n        /* \"#utility.yul\":10631:10632   */\n      0x00\n        /* \"#utility.yul\":10620:10629   */\n      dup4\n        /* \"#utility.yul\":10616:10633   */\n      add\n        /* \"#utility.yul\":10609:10656   */\n      mstore\n        /* \"#utility.yul\":10673:10804   */\n      tag_232\n        /* \"#utility.yul\":10799:10803   */\n      dup2\n        /* \"#utility.yul\":10673:10804   */\n      tag_134\n      jump\t// in\n    tag_232:\n        /* \"#utility.yul\":10665:10804   */\n      swap1\n      pop\n        /* \"#utility.yul\":10392:10811   */\n      swap2\n      swap1\n      pop\n      jump\t// out\n        /* \"#utility.yul\":10817:10982   */\n    tag_135:\n        /* \"#utility.yul\":10957:10974   */\n      0x5468652066756e6420697320656e640000000000000000000000000000000000\n        /* \"#utility.yul\":10953:10954   */\n      0x00\n        /* \"#utility.yul\":10945:10951   */\n      dup3\n        /* \"#utility.yul\":10941:10955   */\n      add\n        /* \"#utility.yul\":10934:10975   */\n      mstore\n        /* \"#utility.yul\":10817:10982   */\n      pop\n      jump\t// out\n        /* \"#utility.yul\":10988:11354   */\n    tag_136:\n        /* \"#utility.yul\":11130:11133   */\n      0x00\n        /* \"#utility.yul\":11151:11218   */\n      tag_235\n        /* \"#utility.yul\":11215:11217   */\n      0x0f\n        /* \"#utility.yul\":11210:11213   */\n      dup4\n        /* \"#utility.yul\":11151:11218   */\n      tag_117\n      jump\t// in\n    tag_235:\n        /* \"#utility.yul\":11144:11218   */\n      swap2\n      pop\n        /* \"#utility.yul\":11227:11320   */\n      tag_236\n        /* \"#utility.yul\":11316:11319   */\n      dup3\n        /* \"#utility.yul\":11227:11320   */\n      tag_135\n      jump\t// in\n    tag_236:\n        /* \"#utility.yul\":11345:11347   */\n      0x20\n        /* \"#utility.yul\":11340:11343   */\n      dup3\n        /* \"#utility.yul\":11336:11348   */\n      add\n        /* \"#utility.yul\":11329:11348   */\n      swap1\n      pop\n        /* \"#utility.yul\":10988:11354   */\n      swap2\n      swap1\n      pop\n      jump\t// out\n        /* \"#utility.yul\":11360:11779   */\n    tag_87:\n        /* \"#utility.yul\":11526:11530   */\n      0x00\n        /* \"#utility.yul\":11564:11566   */\n      0x20\n        /* \"#utility.yul\":11553:11562   */\n      dup3\n        /* \"#utility.yul\":11549:11567   */\n      add\n        /* \"#utility.yul\":11541:11567   */\n      swap1\n      pop\n        /* \"#utility.yul\":11613:11622   */\n      dup2\n        /* \"#utility.yul\":11607:11611   */\n      dup2\n        /* \"#utility.yul\":11603:11623   */\n      sub\n        /* \"#utility.yul\":11599:11600   */\n      0x00\n        /* \"#utility.yul\":11588:11597   */\n      dup4\n        /* \"#utility.yul\":11584:11601   */\n      add\n        /* \"#utility.yul\":11577:11624   */\n      mstore\n        /* \"#utility.yul\":11641:11772   */\n      tag_238\n        /* \"#utility.yul\":11767:11771   */\n      dup2\n        /* \"#utility.yul\":11641:11772   */\n      tag_136\n      jump\t// in\n    tag_238:\n        /* \"#utility.yul\":11633:11772   */\n      swap1\n      pop\n        /* \"#utility.yul\":11360:11779   */\n      swap2\n      swap1\n      pop\n      jump\t// out\n        /* \"#utility.yul\":11785:11955   */\n    tag_137:\n        /* \"#utility.yul\":11925:11947   */\n      0x596f75206e65656420746f20706179206d6f7265000000000000000000000000\n        /* \"#utility.yul\":11921:11922   */\n      0x00\n        /* \"#utility.yul\":11913:11919   */\n      dup3\n        /* \"#utility.yul\":11909:11923   */\n      add\n        /* \"#utility.yul\":11902:11948   */\n      mstore\n        /* \"#utility.yul\":11785:11955   */\n      pop\n      jump\t// out\n        /* \"#utility.yul\":11961:12327   */\n    tag_138:\n        /* \"#utility.yul\":12103:12106   */\n      0x00\n        /* \"#utility.yul\":12124:12191   */\n      tag_241\n        /* \"#utility.yul\":12188:12190   */\n      0x14\n        /* \"#utility.yul\":12183:12186   */\n      dup4\n        /* \"#utility.yul\":12124:12191   */\n      tag_117\n      jump\t// in\n    tag_241:\n        /* \"#utility.yul\":12117:12191   */\n      swap2\n      pop\n        /* \"#utility.yul\":12200:12293   */\n      tag_242\n        /* \"#utility.yul\":12289:12292   */\n      dup3\n        /* \"#utility.yul\":12200:12293   */\n      tag_137\n      jump\t// in\n    tag_242:\n        /* \"#utility.yul\":12318:12320   */\n      0x20\n        /* \"#utility.yul\":12313:12316   */\n      dup3\n        /* \"#utility.yul\":12309:12321   */\n      add\n        /* \"#utility.yul\":12302:12321   */\n      swap1\n      pop\n        /* \"#utility.yul\":11961:12327   */\n      swap2\n      swap1\n      pop\n      jump\t// out\n        /* \"#utility.yul\":12333:12752   */\n    tag_92:\n        /* \"#utility.yul\":12499:12503   */\n      0x00\n        /* \"#utility.yul\":12537:12539   */\n      0x20\n        /* \"#utility.yul\":12526:12535   */\n      dup3\n        /* \"#utility.yul\":12522:12540   */\n      add\n        /* \"#utility.yul\":12514:12540   */\n      swap1\n      pop\n        /* \"#utility.yul\":12586:12595   */\n      dup2\n        /* \"#utility.yul\":12580:12584   */\n      dup2\n        /* \"#utility.yul\":12576:12596   */\n      sub\n        /* \"#utility.yul\":12572:12573   */\n      0x00\n        /* \"#utility.yul\":12561:12570   */\n      dup4\n        /* \"#utility.yul\":12557:12574   */\n      add\n        /* \"#utility.yul\":12550:12597   */\n      mstore\n        /* \"#utility.yul\":12614:12745   */\n      tag_244\n        /* \"#utility.yul\":12740:12744   */\n      dup2\n        /* \"#utility.yul\":12614:12745   */\n      tag_138\n      jump\t// in\n    tag_244:\n        /* \"#utility.yul\":12606:12745   */\n      swap1\n      pop\n        /* \"#utility.yul\":12333:12752   */\n      swap2\n      swap1\n      pop\n      jump\t// out\n        /* \"#utility.yul\":12758:12863   */\n    tag_139:\n        /* \"#utility.yul\":12794:12801   */\n      0x00\n        /* \"#utility.yul\":12834:12856   */\n      0xffffffffffffffffffff\n        /* \"#utility.yul\":12827:12832   */\n      dup3\n        /* \"#utility.yul\":12823:12857   */\n      and\n        /* \"#utility.yul\":12812:12857   */\n      swap1\n      pop\n        /* \"#utility.yul\":12758:12863   */\n      swap2\n      swap1\n      pop\n      jump\t// out\n        /* \"#utility.yul\":12869:12989   */\n    tag_140:\n        /* \"#utility.yul\":12941:12964   */\n      tag_247\n        /* \"#utility.yul\":12958:12963   */\n      dup2\n        /* \"#utility.yul\":12941:12964   */\n      tag_139\n      jump\t// in\n    tag_247:\n        /* \"#utility.yul\":12934:12939   */\n      dup2\n        /* \"#utility.yul\":12931:12965   */\n      eq\n        /* \"#utility.yul\":12921:12983   */\n      tag_248\n      jumpi\n        /* \"#utility.yul\":12979:12980   */\n      0x00\n        /* \"#utility.yul\":12976:12977   */\n      dup1\n        /* \"#utility.yul\":12969:12981   */\n      revert\n        /* \"#utility.yul\":12921:12983   */\n    tag_248:\n        /* \"#utility.yul\":12869:12989   */\n      pop\n      jump\t// out\n        /* \"#utility.yul\":12995:13136   */\n    tag_141:\n        /* \"#utility.yul\":13051:13056   */\n      0x00\n        /* \"#utility.yul\":13082:13088   */\n      dup2\n        /* \"#utility.yul\":13076:13089   */\n      mload\n        /* \"#utility.yul\":13067:13089   */\n      swap1\n      pop\n        /* \"#utility.yul\":13098:13130   */\n      tag_250\n        /* \"#utility.yul\":13124:13129   */\n      dup2\n        /* \"#utility.yul\":13098:13130   */\n      tag_140\n      jump\t// in\n    tag_250:\n        /* \"#utility.yul\":12995:13136   */\n      swap3\n      swap2\n      pop\n      pop\n      jump\t// out\n        /* \"#utility.yul\":13142:13262   */\n    tag_142:\n        /* \"#utility.yul\":13214:13237   */\n      tag_252\n        /* \"#utility.yul\":13231:13236   */\n      dup2\n        /* \"#utility.yul\":13214:13237   */\n      tag_114\n      jump\t// in\n    tag_252:\n        /* \"#utility.yul\":13207:13212   */\n      dup2\n        /* \"#utility.yul\":13204:13238   */\n      eq\n        /* \"#utility.yul\":13194:13256   */\n      tag_253\n      jumpi\n        /* \"#utility.yul\":13252:13253   */\n      0x00\n        /* \"#utility.yul\":13249:13250   */\n      dup1\n        /* \"#utility.yul\":13242:13254   */\n      revert\n        /* \"#utility.yul\":13194:13256   */\n    tag_253:\n        /* \"#utility.yul\":13142:13262   */\n      pop\n      jump\t// out\n        /* \"#utility.yul\":13268:13409   */\n    tag_143:\n        /* \"#utility.yul\":13324:13329   */\n      0x00\n        /* \"#utility.yul\":13355:13361   */\n      dup2\n        /* \"#utility.yul\":13349:13362   */\n      mload\n        /* \"#utility.yul\":13340:13362   */\n      swap1\n      pop\n        /* \"#utility.yul\":13371:13403   */\n      tag_255\n        /* \"#utility.yul\":13397:13402   */\n      dup2\n        /* \"#utility.yul\":13371:13403   */\n      tag_142\n      jump\t// in\n    tag_255:\n        /* \"#utility.yul\":13268:13409   */\n      swap3\n      swap2\n      pop\n      pop\n      jump\t// out\n        /* \"#utility.yul\":13415:13537   */\n    tag_144:\n        /* \"#utility.yul\":13488:13512   */\n      tag_257\n        /* \"#utility.yul\":13506:13511   */\n      dup2\n        /* \"#utility.yul\":13488:13512   */\n      tag_111\n      jump\t// in\n    tag_257:\n        /* \"#utility.yul\":13481:13486   */\n      dup2\n        /* \"#utility.yul\":13478:13513   */\n      eq\n        /* \"#utility.yul\":13468:13531   */\n      tag_258\n      jumpi\n        /* \"#utility.yul\":13527:13528   */\n      0x00\n        /* \"#utility.yul\":13524:13525   */\n      dup1\n        /* \"#utility.yul\":13517:13529   */\n      revert\n        /* \"#utility.yul\":13468:13531   */\n    tag_258:\n        /* \"#utility.yul\":13415:13537   */\n      pop\n      jump\t// out\n        /* \"#utility.yul\":13543:13686   */\n    tag_145:\n        /* \"#utility.yul\":13600:13605   */\n      0x00\n        /* \"#utility.yul\":13631:13637   */\n      dup2\n        /* \"#utility.yul\":13625:13638   */\n      mload\n        /* \"#utility.yul\":13616:13638   */\n      swap1\n      pop\n        /* \"#utility.yul\":13647:13680   */\n      tag_260\n        /* \"#utility.yul\":13674:13679   */\n      dup2\n        /* \"#utility.yul\":13647:13680   */\n      tag_144\n      jump\t// in\n    tag_260:\n        /* \"#utility.yul\":13543:13686   */\n      swap3\n      swap2\n      pop\n      pop\n      jump\t// out\n        /* \"#utility.yul\":13692:14663   */\n    tag_97:\n        /* \"#utility.yul\":13795:13801   */\n      0x00\n        /* \"#utility.yul\":13803:13809   */\n      dup1\n        /* \"#utility.yul\":13811:13817   */\n      0x00\n        /* \"#utility.yul\":13819:13825   */\n      dup1\n        /* \"#utility.yul\":13827:13833   */\n      0x00\n        /* \"#utility.yul\":13876:13879   */\n      0xa0\n        /* \"#utility.yul\":13864:13873   */\n      dup7\n        /* \"#utility.yul\":13855:13862   */\n      dup9\n        /* \"#utility.yul\":13851:13874   */\n      sub\n        /* \"#utility.yul\":13847:13880   */\n      slt\n        /* \"#utility.yul\":13844:13964   */\n      iszero\n      tag_262\n      jumpi\n        /* \"#utility.yul\":13883:13962   */\n      tag_263\n      tag_105\n      jump\t// in\n    tag_263:\n        /* \"#utility.yul\":13844:13964   */\n    tag_262:\n        /* \"#utility.yul\":14003:14004   */\n      0x00\n        /* \"#utility.yul\":14028:14091   */\n      tag_264\n        /* \"#utility.yul\":14083:14090   */\n      dup9\n        /* \"#utility.yul\":14074:14080   */\n      dup3\n        /* \"#utility.yul\":14063:14072   */\n      dup10\n        /* \"#utility.yul\":14059:14081   */\n      add\n        /* \"#utility.yul\":14028:14091   */\n      tag_141\n      jump\t// in\n    tag_264:\n        /* \"#utility.yul\":14018:14091   */\n      swap6\n      pop\n        /* \"#utility.yul\":13974:14101   */\n      pop\n        /* \"#utility.yul\":14140:14142   */\n      0x20\n        /* \"#utility.yul\":14166:14229   */\n      tag_265\n        /* \"#utility.yul\":14221:14228   */\n      dup9\n        /* \"#utility.yul\":14212:14218   */\n      dup3\n        /* \"#utility.yul\":14201:14210   */\n      dup10\n        /* \"#utility.yul\":14197:14219   */\n      add\n        /* \"#utility.yul\":14166:14229   */\n      tag_143\n      jump\t// in\n    tag_265:\n        /* \"#utility.yul\":14156:14229   */\n      swap5\n      pop\n        /* \"#utility.yul\":14111:14239   */\n      pop\n        /* \"#utility.yul\":14278:14280   */\n      0x40\n        /* \"#utility.yul\":14304:14368   */\n      tag_266\n        /* \"#utility.yul\":14360:14367   */\n      dup9\n        /* \"#utility.yul\":14351:14357   */\n      dup3\n        /* \"#utility.yul\":14340:14349   */\n      dup10\n        /* \"#utility.yul\":14336:14358   */\n      add\n        /* \"#utility.yul\":14304:14368   */\n      tag_145\n      jump\t// in\n    tag_266:\n        /* \"#utility.yul\":14294:14368   */\n      swap4\n      pop\n        /* \"#utility.yul\":14249:14378   */\n      pop\n        /* \"#utility.yul\":14417:14419   */\n      0x60\n        /* \"#utility.yul\":14443:14507   */\n      tag_267\n        /* \"#utility.yul\":14499:14506   */\n      dup9\n        /* \"#utility.yul\":14490:14496   */\n      dup3\n        /* \"#utility.yul\":14479:14488   */\n      dup10\n        /* \"#utility.yul\":14475:14497   */\n      add\n        /* \"#utility.yul\":14443:14507   */\n      tag_145\n      jump\t// in\n    tag_267:\n        /* \"#utility.yul\":14433:14507   */\n      swap3\n      pop\n        /* \"#utility.yul\":14388:14517   */\n      pop\n        /* \"#utility.yul\":14556:14559   */\n      0x80\n        /* \"#utility.yul\":14583:14646   */\n      tag_268\n        /* \"#utility.yul\":14638:14645   */\n      dup9\n        /* \"#utility.yul\":14629:14635   */\n      dup3\n        /* \"#utility.yul\":14618:14627   */\n      dup10\n        /* \"#utility.yul\":14614:14636   */\n      add\n        /* \"#utility.yul\":14583:14646   */\n      tag_141\n      jump\t// in\n    tag_268:\n        /* \"#utility.yul\":14573:14646   */\n      swap2\n      pop\n        /* \"#utility.yul\":14527:14656   */\n      pop\n        /* \"#utility.yul\":13692:14663   */\n      swap3\n      swap6\n      pop\n      swap3\n      swap6\n      swap1\n      swap4\n      pop\n      jump\t// out\n        /* \"#utility.yul\":14669:14849   */\n    tag_146:\n        /* \"#utility.yul\":14717:14794   */\n      0x4e487b7100000000000000000000000000000000000000000000000000000000\n        /* \"#utility.yul\":14714:14715   */\n      0x00\n        /* \"#utility.yul\":14707:14795   */\n      mstore\n        /* \"#utility.yul\":14814:14818   */\n      0x12\n        /* \"#utility.yul\":14811:14812   */\n      0x04\n        /* \"#utility.yul\":14804:14819   */\n      mstore\n        /* \"#utility.yul\":14838:14842   */\n      0x24\n        /* \"#utility.yul\":14835:14836   */\n      0x00\n        /* \"#utility.yul\":14828:14843   */\n      revert\n        /* \"#utility.yul\":14855:15040   */\n    tag_101:\n        /* \"#utility.yul\":14895:14896   */\n      0x00\n        /* \"#utility.yul\":14912:14932   */\n      tag_271\n        /* \"#utility.yul\":14930:14931   */\n      dup3\n        /* \"#utility.yul\":14912:14932   */\n      tag_111\n      jump\t// in\n    tag_271:\n        /* \"#utility.yul\":14907:14932   */\n      swap2\n      pop\n        /* \"#utility.yul\":14946:14966   */\n      tag_272\n        /* \"#utility.yul\":14964:14965   */\n      dup4\n        /* \"#utility.yul\":14946:14966   */\n      tag_111\n      jump\t// in\n    tag_272:\n        /* \"#utility.yul\":14941:14966   */\n      swap3\n      pop\n        /* \"#utility.yul\":14985:14986   */\n      dup3\n        /* \"#utility.yul\":14975:15010   */\n      tag_273\n      jumpi\n        /* \"#utility.yul\":14990:15008   */\n      tag_274\n      tag_146\n      jump\t// in\n    tag_274:\n        /* \"#utility.yul\":14975:15010   */\n    tag_273:\n        /* \"#utility.yul\":15032:15033   */\n      dup3\n        /* \"#utility.yul\":15029:15030   */\n      dup3\n        /* \"#utility.yul\":15025:15034   */\n      div\n        /* \"#utility.yul\":15020:15034   */\n      swap1\n      pop\n        /* \"#utility.yul\":14855:15040   */\n      swap3\n      swap2\n      pop\n      pop\n      jump\t// out\n        /* \"#utility.yul\":15046:15456   */\n    tag_103:\n        /* \"#utility.yul\":15086:15093   */\n      0x00\n        /* \"#utility.yul\":15109:15129   */\n      tag_276\n        /* \"#utility.yul\":15127:15128   */\n      dup3\n        /* \"#utility.yul\":15109:15129   */\n      tag_111\n      jump\t// in\n    tag_276:\n        /* \"#utility.yul\":15104:15129   */\n      swap2\n      pop\n        /* \"#utility.yul\":15143:15163   */\n      tag_277\n        /* \"#utility.yul\":15161:15162   */\n      dup4\n        /* \"#utility.yul\":15143:15163   */\n      tag_111\n      jump\t// in\n    tag_277:\n        /* \"#utility.yul\":15138:15163   */\n      swap3\n      pop\n        /* \"#utility.yul\":15198:15199   */\n      dup3\n        /* \"#utility.yul\":15195:15196   */\n      dup3\n        /* \"#utility.yul\":15191:15200   */\n      mul\n        /* \"#utility.yul\":15220:15250   */\n      tag_278\n        /* \"#utility.yul\":15238:15249   */\n      dup2\n        /* \"#utility.yul\":15220:15250   */\n      tag_111\n      jump\t// in\n    tag_278:\n        /* \"#utility.yul\":15209:15250   */\n      swap2\n      pop\n        /* \"#utility.yul\":15399:15400   */\n      dup3\n        /* \"#utility.yul\":15390:15397   */\n      dup3\n        /* \"#utility.yul\":15386:15401   */\n      div\n        /* \"#utility.yul\":15383:15384   */\n      dup5\n        /* \"#utility.yul\":15380:15402   */\n      eq\n        /* \"#utility.yul\":15360:15361   */\n      dup4\n        /* \"#utility.yul\":15353:15362   */\n      iszero\n        /* \"#utility.yul\":15333:15416   */\n      or\n        /* \"#utility.yul\":15310:15449   */\n      tag_279\n      jumpi\n        /* \"#utility.yul\":15429:15447   */\n      tag_280\n      tag_116\n      jump\t// in\n    tag_280:\n        /* \"#utility.yul\":15310:15449   */\n    tag_279:\n        /* \"#utility.yul\":15094:15456   */\n      pop\n        /* \"#utility.yul\":15046:15456   */\n      swap3\n      swap2\n      pop\n      pop\n      jump\t// out\n\n    auxdata: 0xa26469706673582212205b01534fa7c12e53957c8fb870e937f5671715194d867cf3ede94788ec9c088b64736f6c634300081a0033\n}\n",
				"bytecode": {
					"linkReferences": {},
					"object": "608060405234801561000f575f80fd5b5060405161105738038061105783398181016040528101906100319190610111565b73694aa1769357215de4fac081bf1f309adc32530660015f6101000a81548173ffffffffffffffffffffffffffffffffffffffff021916908373ffffffffffffffffffffffffffffffffffffffff16021790555081600281905550806003819055503360045f6101000a81548173ffffffffffffffffffffffffffffffffffffffff021916908373ffffffffffffffffffffffffffffffffffffffff160217905550505061014f565b5f80fd5b5f819050919050565b6100f0816100de565b81146100fa575f80fd5b50565b5f8151905061010b816100e7565b92915050565b5f8060408385031215610127576101266100da565b5b5f610134858286016100fd565b9250506020610145858286016100fd565b9150509250929050565b610efb8061015c5f395ff3fe60806040526004361061007a575f3560e01c80638da5cb5b1161004d5780638da5cb5b146101245780638edd6eb61461014e578063b6a324e014610164578063bea4dfb51461016e5761007a565b8063031b36771461007e5780630fb5a6b4146100ba578063590e1ae3146100e457806378e97925146100fa575b5f80fd5b348015610089575f80fd5b506100a4600480360381019061009f919061080f565b610198565b6040516100b19190610852565b60405180910390f35b3480156100c5575f80fd5b506100ce6101ac565b6040516100db9190610852565b60405180910390f35b3480156100ef575f80fd5b506100f86101b2565b005b348015610105575f80fd5b5061010e6103ab565b60405161011b9190610852565b60405180910390f35b34801561012f575f80fd5b506101386103b1565b604051610145919061087a565b60405180910390f35b348015610159575f80fd5b506101626103d6565b005b61016c6105b4565b005b348015610179575f80fd5b506101826106e5565b60405161018f91906108ab565b60405180910390f35b5f602052805f5260405f205f915090505481565b60035481565b6003546002546101c291906108f1565b4211610203576040517f08c379a00000000000000000000000000000000000000000000000000000000081526004016101fa9061097e565b60405180910390fd5b5f805f3373ffffffffffffffffffffffffffffffffffffffff1673ffffffffffffffffffffffffffffffffffffffff1681526020019081526020015f205403610281576040517f08c379a0000000000000000000000000000000000000000000000000000000008152600401610278906109e6565b60405180910390fd5b5f3373ffffffffffffffffffffffffffffffffffffffff165f803373ffffffffffffffffffffffffffffffffffffffff1673ffffffffffffffffffffffffffffffffffffffff1681526020019081526020015f20546040516102e290610a31565b5f6040518083038185875af1925050503d805f811461031c576040519150601f19603f3d011682016040523d82523d5f602084013e610321565b606091505b50508091505080610367576040517f08c379a000000000000000000000000000000000000000000000000000000000815260040161035e90610a8f565b60405180910390fd5b5f805f3373ffffffffffffffffffffffffffffffffffffffff1673ffffffffffffffffffffffffffffffffffffffff1681526020019081526020015f208190555050565b60025481565b60045f9054906101000a900473ffffffffffffffffffffffffffffffffffffffff1681565b6003546002546103e691906108f1565b4211610427576040517f08c379a000000000000000000000000000000000000000000000000000000000815260040161041e9061097e565b60405180910390fd5b60045f9054906101000a900473ffffffffffffffffffffffffffffffffffffffff1673ffffffffffffffffffffffffffffffffffffffff163373ffffffffffffffffffffffffffffffffffffffff16146104b6576040517f08c379a00000000000000000000000000000000000000000000000000000000081526004016104ad90610af7565b60405180910390fd5b5f4790506801158e460913d00000811015610506576040517f08c379a00000000000000000000000000000000000000000000000000000000081526004016104fd90610b5f565b60405180910390fd5b5f3373ffffffffffffffffffffffffffffffffffffffff168260405161052b90610a31565b5f6040518083038185875af1925050503d805f8114610565576040519150601f19603f3d011682016040523d82523d5f602084013e61056a565b606091505b505080915050806105b0576040517f08c379a00000000000000000000000000000000000000000000000000000000081526004016105a790610bc7565b60405180910390fd5b5050565b60025442116105f8576040517f08c379a00000000000000000000000000000000000000000000000000000000081526004016105ef90610c2f565b60405180910390fd5b60035460025461060891906108f1565b42111561064a576040517f08c379a000000000000000000000000000000000000000000000000000000000815260040161064190610c97565b60405180910390fd5b5f61065434610782565b9050678ac7230489e800008110156106a1576040517f08c379a000000000000000000000000000000000000000000000000000000000815260040161069890610cff565b60405180910390fd5b805f803373ffffffffffffffffffffffffffffffffffffffff1673ffffffffffffffffffffffffffffffffffffffff1681526020019081526020015f208190555050565b5f8060015f9054906101000a900473ffffffffffffffffffffffffffffffffffffffff1673ffffffffffffffffffffffffffffffffffffffff1663feaf968c6040518163ffffffff1660e01b815260040160a060405180830381865afa158015610751573d5f803e3d5ffd5b505050506040513d601f19601f820116820180604052508101906107759190610db0565b5050509150508091505090565b5f8061078c6106e5565b9050826305f5e1008261079f9190610e54565b6107a99190610e84565b915050919050565b5f80fd5b5f73ffffffffffffffffffffffffffffffffffffffff82169050919050565b5f6107de826107b5565b9050919050565b6107ee816107d4565b81146107f8575f80fd5b50565b5f81359050610809816107e5565b92915050565b5f60208284031215610824576108236107b1565b5b5f610831848285016107fb565b91505092915050565b5f819050919050565b61084c8161083a565b82525050565b5f6020820190506108655f830184610843565b92915050565b610874816107d4565b82525050565b5f60208201905061088d5f83018461086b565b92915050565b5f819050919050565b6108a581610893565b82525050565b5f6020820190506108be5f83018461089c565b92915050565b7f4e487b71000000000000000000000000000000000000000000000000000000005f52601160045260245ffd5b5f6108fb8261083a565b91506109068361083a565b925082820190508082111561091e5761091d6108c4565b5b92915050565b5f82825260208201905092915050565b7f5468652066756e64206973206e6f7420656e64207965740000000000000000005f82015250565b5f610968601783610924565b915061097382610934565b602082019050919050565b5f6020820190508181035f8301526109958161095c565b9050919050565b7f596f752068617665206e6f742066756e640000000000000000000000000000005f82015250565b5f6109d0601183610924565b91506109db8261099c565b602082019050919050565b5f6020820190508181035f8301526109fd816109c4565b9050919050565b5f81905092915050565b50565b5f610a1c5f83610a04565b9150610a2782610a0e565b5f82019050919050565b5f610a3b82610a11565b9150819050919050565b7f526566756e64206661696c6564000000000000000000000000000000000000005f82015250565b5f610a79600d83610924565b9150610a8482610a45565b602082019050919050565b5f6020820190508181035f830152610aa681610a6d565b9050919050565b7f596f7520617265206e6f7420746865206f776e657200000000000000000000005f82015250565b5f610ae1601583610924565b9150610aec82610aad565b602082019050919050565b5f6020820190508181035f830152610b0e81610ad5565b9050919050565b7f54686520676f616c206973206e6f7420726561636865640000000000000000005f82015250565b5f610b49601783610924565b9150610b5482610b15565b602082019050919050565b5f6020820190508181035f830152610b7681610b3d565b9050919050565b7f4765742066756e64206661696c656400000000000000000000000000000000005f82015250565b5f610bb1600f83610924565b9150610bbc82610b7d565b602082019050919050565b5f6020820190508181035f830152610bde81610ba5565b9050919050565b7f5468652066756e6420686173206e6f74207374617274656400000000000000005f82015250565b5f610c19601883610924565b9150610c2482610be5565b602082019050919050565b5f6020820190508181035f830152610c4681610c0d565b9050919050565b7f5468652066756e6420697320656e6400000000000000000000000000000000005f82015250565b5f610c81600f83610924565b9150610c8c82610c4d565b602082019050919050565b5f6020820190508181035f830152610cae81610c75565b9050919050565b7f596f75206e65656420746f20706179206d6f72650000000000000000000000005f82015250565b5f610ce9601483610924565b9150610cf482610cb5565b602082019050919050565b5f6020820190508181035f830152610d1681610cdd565b9050919050565b5f69ffffffffffffffffffff82169050919050565b610d3b81610d1d565b8114610d45575f80fd5b50565b5f81519050610d5681610d32565b92915050565b610d6581610893565b8114610d6f575f80fd5b50565b5f81519050610d8081610d5c565b92915050565b610d8f8161083a565b8114610d99575f80fd5b50565b5f81519050610daa81610d86565b92915050565b5f805f805f60a08688031215610dc957610dc86107b1565b5b5f610dd688828901610d48565b9550506020610de788828901610d72565b9450506040610df888828901610d9c565b9350506060610e0988828901610d9c565b9250506080610e1a88828901610d48565b9150509295509295909350565b7f4e487b71000000000000000000000000000000000000000000000000000000005f52601260045260245ffd5b5f610e5e8261083a565b9150610e698361083a565b925082610e7957610e78610e27565b5b828204905092915050565b5f610e8e8261083a565b9150610e998361083a565b9250828202610ea78161083a565b91508282048414831517610ebe57610ebd6108c4565b5b509291505056fea26469706673582212205b01534fa7c12e53957c8fb870e937f5671715194d867cf3ede94788ec9c088b64736f6c634300081a0033",
					"opcodes": "PUSH1 0x80 PUSH1 0x40 MSTORE CALLVALUE DUP1 ISZERO PUSH2 0xF JUMPI PUSH0 DUP1 REVERT JUMPDEST POP PUSH1 0x40 MLOAD PUSH2 0x1057 CODESIZE SUB DUP1 PUSH2 0x1057 DUP4 CODECOPY DUP2 DUP2 ADD PUSH1 0x40 MSTORE DUP2 ADD SWAP1 PUSH2 0x31 SWAP2 SWAP1 PUSH2 0x111 JUMP JUMPDEST PUSH20 0x694AA1769357215DE4FAC081BF1F309ADC325306 PUSH1 0x1 PUSH0 PUSH2 0x100 EXP DUP2 SLOAD DUP2 PUSH20 0xFFFFFFFFFFFFFFFFFFFFFFFFFFFFFFFFFFFFFFFF MUL NOT AND SWAP1 DUP4 PUSH20 0xFFFFFFFFFFFFFFFFFFFFFFFFFFFFFFFFFFFFFFFF AND MUL OR SWAP1 SSTORE POP DUP2 PUSH1 0x2 DUP2 SWAP1 SSTORE POP DUP1 PUSH1 0x3 DUP2 SWAP1 SSTORE POP CALLER PUSH1 0x4 PUSH0 PUSH2 0x100 EXP DUP2 SLOAD DUP2 PUSH20 0xFFFFFFFFFFFFFFFFFFFFFFFFFFFFFFFFFFFFFFFF MUL NOT AND SWAP1 DUP4 PUSH20 0xFFFFFFFFFFFFFFFFFFFFFFFFFFFFFFFFFFFFFFFF AND MUL OR SWAP1 SSTORE POP POP POP PUSH2 0x14F JUMP JUMPDEST PUSH0 DUP1 REVERT JUMPDEST PUSH0 DUP2 SWAP1 POP SWAP2 SWAP1 POP JUMP JUMPDEST PUSH2 0xF0 DUP2 PUSH2 0xDE JUMP JUMPDEST DUP2 EQ PUSH2 0xFA JUMPI PUSH0 DUP1 REVERT JUMPDEST POP JUMP JUMPDEST PUSH0 DUP2 MLOAD SWAP1 POP PUSH2 0x10B DUP2 PUSH2 0xE7 JUMP JUMPDEST SWAP3 SWAP2 POP POP JUMP JUMPDEST PUSH0 DUP1 PUSH1 0x40 DUP4 DUP6 SUB SLT ISZERO PUSH2 0x127 JUMPI PUSH2 0x126 PUSH2 0xDA JUMP JUMPDEST JUMPDEST PUSH0 PUSH2 0x134 DUP6 DUP3 DUP7 ADD PUSH2 0xFD JUMP JUMPDEST SWAP3 POP POP PUSH1 0x20 PUSH2 0x145 DUP6 DUP3 DUP7 ADD PUSH2 0xFD JUMP JUMPDEST SWAP2 POP POP SWAP3 POP SWAP3 SWAP1 POP JUMP JUMPDEST PUSH2 0xEFB DUP1 PUSH2 0x15C PUSH0 CODECOPY PUSH0 RETURN INVALID PUSH1 0x80 PUSH1 0x40 MSTORE PUSH1 0x4 CALLDATASIZE LT PUSH2 0x7A JUMPI PUSH0 CALLDATALOAD PUSH1 0xE0 SHR DUP1 PUSH4 0x8DA5CB5B GT PUSH2 0x4D JUMPI DUP1 PUSH4 0x8DA5CB5B EQ PUSH2 0x124 JUMPI DUP1 PUSH4 0x8EDD6EB6 EQ PUSH2 0x14E JUMPI DUP1 PUSH4 0xB6A324E0 EQ PUSH2 0x164 JUMPI DUP1 PUSH4 0xBEA4DFB5 EQ PUSH2 0x16E JUMPI PUSH2 0x7A JUMP JUMPDEST DUP1 PUSH4 0x31B3677 EQ PUSH2 0x7E JUMPI DUP1 PUSH4 0xFB5A6B4 EQ PUSH2 0xBA JUMPI DUP1 PUSH4 0x590E1AE3 EQ PUSH2 0xE4 JUMPI DUP1 PUSH4 0x78E97925 EQ PUSH2 0xFA JUMPI JUMPDEST PUSH0 DUP1 REVERT JUMPDEST CALLVALUE DUP1 ISZERO PUSH2 0x89 JUMPI PUSH0 DUP1 REVERT JUMPDEST POP PUSH2 0xA4 PUSH1 0x4 DUP1 CALLDATASIZE SUB DUP2 ADD SWAP1 PUSH2 0x9F SWAP2 SWAP1 PUSH2 0x80F JUMP JUMPDEST PUSH2 0x198 JUMP JUMPDEST PUSH1 0x40 MLOAD PUSH2 0xB1 SWAP2 SWAP1 PUSH2 0x852 JUMP JUMPDEST PUSH1 0x40 MLOAD DUP1 SWAP2 SUB SWAP1 RETURN JUMPDEST CALLVALUE DUP1 ISZERO PUSH2 0xC5 JUMPI PUSH0 DUP1 REVERT JUMPDEST POP PUSH2 0xCE PUSH2 0x1AC JUMP JUMPDEST PUSH1 0x40 MLOAD PUSH2 0xDB SWAP2 SWAP1 PUSH2 0x852 JUMP JUMPDEST PUSH1 0x40 MLOAD DUP1 SWAP2 SUB SWAP1 RETURN JUMPDEST CALLVALUE DUP1 ISZERO PUSH2 0xEF JUMPI PUSH0 DUP1 REVERT JUMPDEST POP PUSH2 0xF8 PUSH2 0x1B2 JUMP JUMPDEST STOP JUMPDEST CALLVALUE DUP1 ISZERO PUSH2 0x105 JUMPI PUSH0 DUP1 REVERT JUMPDEST POP PUSH2 0x10E PUSH2 0x3AB JUMP JUMPDEST PUSH1 0x40 MLOAD PUSH2 0x11B SWAP2 SWAP1 PUSH2 0x852 JUMP JUMPDEST PUSH1 0x40 MLOAD DUP1 SWAP2 SUB SWAP1 RETURN JUMPDEST CALLVALUE DUP1 ISZERO PUSH2 0x12F JUMPI PUSH0 DUP1 REVERT JUMPDEST POP PUSH2 0x138 PUSH2 0x3B1 JUMP JUMPDEST PUSH1 0x40 MLOAD PUSH2 0x145 SWAP2 SWAP1 PUSH2 0x87A JUMP JUMPDEST PUSH1 0x40 MLOAD DUP1 SWAP2 SUB SWAP1 RETURN JUMPDEST CALLVALUE DUP1 ISZERO PUSH2 0x159 JUMPI PUSH0 DUP1 REVERT JUMPDEST POP PUSH2 0x162 PUSH2 0x3D6 JUMP JUMPDEST STOP JUMPDEST PUSH2 0x16C PUSH2 0x5B4 JUMP JUMPDEST STOP JUMPDEST CALLVALUE DUP1 ISZERO PUSH2 0x179 JUMPI PUSH0 DUP1 REVERT JUMPDEST POP PUSH2 0x182 PUSH2 0x6E5 JUMP JUMPDEST PUSH1 0x40 MLOAD PUSH2 0x18F SWAP2 SWAP1 PUSH2 0x8AB JUMP JUMPDEST PUSH1 0x40 MLOAD DUP1 SWAP2 SUB SWAP1 RETURN JUMPDEST PUSH0 PUSH1 0x20 MSTORE DUP1 PUSH0 MSTORE PUSH1 0x40 PUSH0 KECCAK256 PUSH0 SWAP2 POP SWAP1 POP SLOAD DUP2 JUMP JUMPDEST PUSH1 0x3 SLOAD DUP2 JUMP JUMPDEST PUSH1 0x3 SLOAD PUSH1 0x2 SLOAD PUSH2 0x1C2 SWAP2 SWAP1 PUSH2 0x8F1 JUMP JUMPDEST TIMESTAMP GT PUSH2 0x203 JUMPI PUSH1 0x40 MLOAD PUSH32 0x8C379A000000000000000000000000000000000000000000000000000000000 DUP2 MSTORE PUSH1 0x4 ADD PUSH2 0x1FA SWAP1 PUSH2 0x97E JUMP JUMPDEST PUSH1 0x40 MLOAD DUP1 SWAP2 SUB SWAP1 REVERT JUMPDEST PUSH0 DUP1 PUSH0 CALLER PUSH20 0xFFFFFFFFFFFFFFFFFFFFFFFFFFFFFFFFFFFFFFFF AND PUSH20 0xFFFFFFFFFFFFFFFFFFFFFFFFFFFFFFFFFFFFFFFF AND DUP2 MSTORE PUSH1 0x20 ADD SWAP1 DUP2 MSTORE PUSH1 0x20 ADD PUSH0 KECCAK256 SLOAD SUB PUSH2 0x281 JUMPI PUSH1 0x40 MLOAD PUSH32 0x8C379A000000000000000000000000000000000000000000000000000000000 DUP2 MSTORE PUSH1 0x4 ADD PUSH2 0x278 SWAP1 PUSH2 0x9E6 JUMP JUMPDEST PUSH1 0x40 MLOAD DUP1 SWAP2 SUB SWAP1 REVERT JUMPDEST PUSH0 CALLER PUSH20 0xFFFFFFFFFFFFFFFFFFFFFFFFFFFFFFFFFFFFFFFF AND PUSH0 DUP1 CALLER PUSH20 0xFFFFFFFFFFFFFFFFFFFFFFFFFFFFFFFFFFFFFFFF AND PUSH20 0xFFFFFFFFFFFFFFFFFFFFFFFFFFFFFFFFFFFFFFFF AND DUP2 MSTORE PUSH1 0x20 ADD SWAP1 DUP2 MSTORE PUSH1 0x20 ADD PUSH0 KECCAK256 SLOAD PUSH1 0x40 MLOAD PUSH2 0x2E2 SWAP1 PUSH2 0xA31 JUMP JUMPDEST PUSH0 PUSH1 0x40 MLOAD DUP1 DUP4 SUB DUP2 DUP6 DUP8 GAS CALL SWAP3 POP POP POP RETURNDATASIZE DUP1 PUSH0 DUP2 EQ PUSH2 0x31C JUMPI PUSH1 0x40 MLOAD SWAP2 POP PUSH1 0x1F NOT PUSH1 0x3F RETURNDATASIZE ADD AND DUP3 ADD PUSH1 0x40 MSTORE RETURNDATASIZE DUP3 MSTORE RETURNDATASIZE PUSH0 PUSH1 0x20 DUP5 ADD RETURNDATACOPY PUSH2 0x321 JUMP JUMPDEST PUSH1 0x60 SWAP2 POP JUMPDEST POP POP DUP1 SWAP2 POP POP DUP1 PUSH2 0x367 JUMPI PUSH1 0x40 MLOAD PUSH32 0x8C379A000000000000000000000000000000000000000000000000000000000 DUP2 MSTORE PUSH1 0x4 ADD PUSH2 0x35E SWAP1 PUSH2 0xA8F JUMP JUMPDEST PUSH1 0x40 MLOAD DUP1 SWAP2 SUB SWAP1 REVERT JUMPDEST PUSH0 DUP1 PUSH0 CALLER PUSH20 0xFFFFFFFFFFFFFFFFFFFFFFFFFFFFFFFFFFFFFFFF AND PUSH20 0xFFFFFFFFFFFFFFFFFFFFFFFFFFFFFFFFFFFFFFFF AND DUP2 MSTORE PUSH1 0x20 ADD SWAP1 DUP2 MSTORE PUSH1 0x20 ADD PUSH0 KECCAK256 DUP2 SWAP1 SSTORE POP POP JUMP JUMPDEST PUSH1 0x2 SLOAD DUP2 JUMP JUMPDEST PUSH1 0x4 PUSH0 SWAP1 SLOAD SWAP1 PUSH2 0x100 EXP SWAP1 DIV PUSH20 0xFFFFFFFFFFFFFFFFFFFFFFFFFFFFFFFFFFFFFFFF AND DUP2 JUMP JUMPDEST PUSH1 0x3 SLOAD PUSH1 0x2 SLOAD PUSH2 0x3E6 SWAP2 SWAP1 PUSH2 0x8F1 JUMP JUMPDEST TIMESTAMP GT PUSH2 0x427 JUMPI PUSH1 0x40 MLOAD PUSH32 0x8C379A000000000000000000000000000000000000000000000000000000000 DUP2 MSTORE PUSH1 0x4 ADD PUSH2 0x41E SWAP1 PUSH2 0x97E JUMP JUMPDEST PUSH1 0x40 MLOAD DUP1 SWAP2 SUB SWAP1 REVERT JUMPDEST PUSH1 0x4 PUSH0 SWAP1 SLOAD SWAP1 PUSH2 0x100 EXP SWAP1 DIV PUSH20 0xFFFFFFFFFFFFFFFFFFFFFFFFFFFFFFFFFFFFFFFF AND PUSH20 0xFFFFFFFFFFFFFFFFFFFFFFFFFFFFFFFFFFFFFFFF AND CALLER PUSH20 0xFFFFFFFFFFFFFFFFFFFFFFFFFFFFFFFFFFFFFFFF AND EQ PUSH2 0x4B6 JUMPI PUSH1 0x40 MLOAD PUSH32 0x8C379A000000000000000000000000000000000000000000000000000000000 DUP2 MSTORE PUSH1 0x4 ADD PUSH2 0x4AD SWAP1 PUSH2 0xAF7 JUMP JUMPDEST PUSH1 0x40 MLOAD DUP1 SWAP2 SUB SWAP1 REVERT JUMPDEST PUSH0 SELFBALANCE SWAP1 POP PUSH9 0x1158E460913D00000 DUP2 LT ISZERO PUSH2 0x506 JUMPI PUSH1 0x40 MLOAD PUSH32 0x8C379A000000000000000000000000000000000000000000000000000000000 DUP2 MSTORE PUSH1 0x4 ADD PUSH2 0x4FD SWAP1 PUSH2 0xB5F JUMP JUMPDEST PUSH1 0x40 MLOAD DUP1 SWAP2 SUB SWAP1 REVERT JUMPDEST PUSH0 CALLER PUSH20 0xFFFFFFFFFFFFFFFFFFFFFFFFFFFFFFFFFFFFFFFF AND DUP3 PUSH1 0x40 MLOAD PUSH2 0x52B SWAP1 PUSH2 0xA31 JUMP JUMPDEST PUSH0 PUSH1 0x40 MLOAD DUP1 DUP4 SUB DUP2 DUP6 DUP8 GAS CALL SWAP3 POP POP POP RETURNDATASIZE DUP1 PUSH0 DUP2 EQ PUSH2 0x565 JUMPI PUSH1 0x40 MLOAD SWAP2 POP PUSH1 0x1F NOT PUSH1 0x3F RETURNDATASIZE ADD AND DUP3 ADD PUSH1 0x40 MSTORE RETURNDATASIZE DUP3 MSTORE RETURNDATASIZE PUSH0 PUSH1 0x20 DUP5 ADD RETURNDATACOPY PUSH2 0x56A JUMP JUMPDEST PUSH1 0x60 SWAP2 POP JUMPDEST POP POP DUP1 SWAP2 POP POP DUP1 PUSH2 0x5B0 JUMPI PUSH1 0x40 MLOAD PUSH32 0x8C379A000000000000000000000000000000000000000000000000000000000 DUP2 MSTORE PUSH1 0x4 ADD PUSH2 0x5A7 SWAP1 PUSH2 0xBC7 JUMP JUMPDEST PUSH1 0x40 MLOAD DUP1 SWAP2 SUB SWAP1 REVERT JUMPDEST POP POP JUMP JUMPDEST PUSH1 0x2 SLOAD TIMESTAMP GT PUSH2 0x5F8 JUMPI PUSH1 0x40 MLOAD PUSH32 0x8C379A000000000000000000000000000000000000000000000000000000000 DUP2 MSTORE PUSH1 0x4 ADD PUSH2 0x5EF SWAP1 PUSH2 0xC2F JUMP JUMPDEST PUSH1 0x40 MLOAD DUP1 SWAP2 SUB SWAP1 REVERT JUMPDEST PUSH1 0x3 SLOAD PUSH1 0x2 SLOAD PUSH2 0x608 SWAP2 SWAP1 PUSH2 0x8F1 JUMP JUMPDEST TIMESTAMP GT ISZERO PUSH2 0x64A JUMPI PUSH1 0x40 MLOAD PUSH32 0x8C379A000000000000000000000000000000000000000000000000000000000 DUP2 MSTORE PUSH1 0x4 ADD PUSH2 0x641 SWAP1 PUSH2 0xC97 JUMP JUMPDEST PUSH1 0x40 MLOAD DUP1 SWAP2 SUB SWAP1 REVERT JUMPDEST PUSH0 PUSH2 0x654 CALLVALUE PUSH2 0x782 JUMP JUMPDEST SWAP1 POP PUSH8 0x8AC7230489E80000 DUP2 LT ISZERO PUSH2 0x6A1 JUMPI PUSH1 0x40 MLOAD PUSH32 0x8C379A000000000000000000000000000000000000000000000000000000000 DUP2 MSTORE PUSH1 0x4 ADD PUSH2 0x698 SWAP1 PUSH2 0xCFF JUMP JUMPDEST PUSH1 0x40 MLOAD DUP1 SWAP2 SUB SWAP1 REVERT JUMPDEST DUP1 PUSH0 DUP1 CALLER PUSH20 0xFFFFFFFFFFFFFFFFFFFFFFFFFFFFFFFFFFFFFFFF AND PUSH20 0xFFFFFFFFFFFFFFFFFFFFFFFFFFFFFFFFFFFFFFFF AND DUP2 MSTORE PUSH1 0x20 ADD SWAP1 DUP2 MSTORE PUSH1 0x20 ADD PUSH0 KECCAK256 DUP2 SWAP1 SSTORE POP POP JUMP JUMPDEST PUSH0 DUP1 PUSH1 0x1 PUSH0 SWAP1 SLOAD SWAP1 PUSH2 0x100 EXP SWAP1 DIV PUSH20 0xFFFFFFFFFFFFFFFFFFFFFFFFFFFFFFFFFFFFFFFF AND PUSH20 0xFFFFFFFFFFFFFFFFFFFFFFFFFFFFFFFFFFFFFFFF AND PUSH4 0xFEAF968C PUSH1 0x40 MLOAD DUP2 PUSH4 0xFFFFFFFF AND PUSH1 0xE0 SHL DUP2 MSTORE PUSH1 0x4 ADD PUSH1 0xA0 PUSH1 0x40 MLOAD DUP1 DUP4 SUB DUP2 DUP7 GAS STATICCALL ISZERO DUP1 ISZERO PUSH2 0x751 JUMPI RETURNDATASIZE PUSH0 DUP1 RETURNDATACOPY RETURNDATASIZE PUSH0 REVERT JUMPDEST POP POP POP POP PUSH1 0x40 MLOAD RETURNDATASIZE PUSH1 0x1F NOT PUSH1 0x1F DUP3 ADD AND DUP3 ADD DUP1 PUSH1 0x40 MSTORE POP DUP2 ADD SWAP1 PUSH2 0x775 SWAP2 SWAP1 PUSH2 0xDB0 JUMP JUMPDEST POP POP POP SWAP2 POP POP DUP1 SWAP2 POP POP SWAP1 JUMP JUMPDEST PUSH0 DUP1 PUSH2 0x78C PUSH2 0x6E5 JUMP JUMPDEST SWAP1 POP DUP3 PUSH4 0x5F5E100 DUP3 PUSH2 0x79F SWAP2 SWAP1 PUSH2 0xE54 JUMP JUMPDEST PUSH2 0x7A9 SWAP2 SWAP1 PUSH2 0xE84 JUMP JUMPDEST SWAP2 POP POP SWAP2 SWAP1 POP JUMP JUMPDEST PUSH0 DUP1 REVERT JUMPDEST PUSH0 PUSH20 0xFFFFFFFFFFFFFFFFFFFFFFFFFFFFFFFFFFFFFFFF DUP3 AND SWAP1 POP SWAP2 SWAP1 POP JUMP JUMPDEST PUSH0 PUSH2 0x7DE DUP3 PUSH2 0x7B5 JUMP JUMPDEST SWAP1 POP SWAP2 SWAP1 POP JUMP JUMPDEST PUSH2 0x7EE DUP2 PUSH2 0x7D4 JUMP JUMPDEST DUP2 EQ PUSH2 0x7F8 JUMPI PUSH0 DUP1 REVERT JUMPDEST POP JUMP JUMPDEST PUSH0 DUP2 CALLDATALOAD SWAP1 POP PUSH2 0x809 DUP2 PUSH2 0x7E5 JUMP JUMPDEST SWAP3 SWAP2 POP POP JUMP JUMPDEST PUSH0 PUSH1 0x20 DUP3 DUP5 SUB SLT ISZERO PUSH2 0x824 JUMPI PUSH2 0x823 PUSH2 0x7B1 JUMP JUMPDEST JUMPDEST PUSH0 PUSH2 0x831 DUP5 DUP3 DUP6 ADD PUSH2 0x7FB JUMP JUMPDEST SWAP2 POP POP SWAP3 SWAP2 POP POP JUMP JUMPDEST PUSH0 DUP2 SWAP1 POP SWAP2 SWAP1 POP JUMP JUMPDEST PUSH2 0x84C DUP2 PUSH2 0x83A JUMP JUMPDEST DUP3 MSTORE POP POP JUMP JUMPDEST PUSH0 PUSH1 0x20 DUP3 ADD SWAP1 POP PUSH2 0x865 PUSH0 DUP4 ADD DUP5 PUSH2 0x843 JUMP JUMPDEST SWAP3 SWAP2 POP POP JUMP JUMPDEST PUSH2 0x874 DUP2 PUSH2 0x7D4 JUMP JUMPDEST DUP3 MSTORE POP POP JUMP JUMPDEST PUSH0 PUSH1 0x20 DUP3 ADD SWAP1 POP PUSH2 0x88D PUSH0 DUP4 ADD DUP5 PUSH2 0x86B JUMP JUMPDEST SWAP3 SWAP2 POP POP JUMP JUMPDEST PUSH0 DUP2 SWAP1 POP SWAP2 SWAP1 POP JUMP JUMPDEST PUSH2 0x8A5 DUP2 PUSH2 0x893 JUMP JUMPDEST DUP3 MSTORE POP POP JUMP JUMPDEST PUSH0 PUSH1 0x20 DUP3 ADD SWAP1 POP PUSH2 0x8BE PUSH0 DUP4 ADD DUP5 PUSH2 0x89C JUMP JUMPDEST SWAP3 SWAP2 POP POP JUMP JUMPDEST PUSH32 0x4E487B7100000000000000000000000000000000000000000000000000000000 PUSH0 MSTORE PUSH1 0x11 PUSH1 0x4 MSTORE PUSH1 0x24 PUSH0 REVERT JUMPDEST PUSH0 PUSH2 0x8FB DUP3 PUSH2 0x83A JUMP JUMPDEST SWAP2 POP PUSH2 0x906 DUP4 PUSH2 0x83A JUMP JUMPDEST SWAP3 POP DUP3 DUP3 ADD SWAP1 POP DUP1 DUP3 GT ISZERO PUSH2 0x91E JUMPI PUSH2 0x91D PUSH2 0x8C4 JUMP JUMPDEST JUMPDEST SWAP3 SWAP2 POP POP JUMP JUMPDEST PUSH0 DUP3 DUP3 MSTORE PUSH1 0x20 DUP3 ADD SWAP1 POP SWAP3 SWAP2 POP POP JUMP JUMPDEST PUSH32 0x5468652066756E64206973206E6F7420656E6420796574000000000000000000 PUSH0 DUP3 ADD MSTORE POP JUMP JUMPDEST PUSH0 PUSH2 0x968 PUSH1 0x17 DUP4 PUSH2 0x924 JUMP JUMPDEST SWAP2 POP PUSH2 0x973 DUP3 PUSH2 0x934 JUMP JUMPDEST PUSH1 0x20 DUP3 ADD SWAP1 POP SWAP2 SWAP1 POP JUMP JUMPDEST PUSH0 PUSH1 0x20 DUP3 ADD SWAP1 POP DUP2 DUP2 SUB PUSH0 DUP4 ADD MSTORE PUSH2 0x995 DUP2 PUSH2 0x95C JUMP JUMPDEST SWAP1 POP SWAP2 SWAP1 POP JUMP JUMPDEST PUSH32 0x596F752068617665206E6F742066756E64000000000000000000000000000000 PUSH0 DUP3 ADD MSTORE POP JUMP JUMPDEST PUSH0 PUSH2 0x9D0 PUSH1 0x11 DUP4 PUSH2 0x924 JUMP JUMPDEST SWAP2 POP PUSH2 0x9DB DUP3 PUSH2 0x99C JUMP JUMPDEST PUSH1 0x20 DUP3 ADD SWAP1 POP SWAP2 SWAP1 POP JUMP JUMPDEST PUSH0 PUSH1 0x20 DUP3 ADD SWAP1 POP DUP2 DUP2 SUB PUSH0 DUP4 ADD MSTORE PUSH2 0x9FD DUP2 PUSH2 0x9C4 JUMP JUMPDEST SWAP1 POP SWAP2 SWAP1 POP JUMP JUMPDEST PUSH0 DUP2 SWAP1 POP SWAP3 SWAP2 POP POP JUMP JUMPDEST POP JUMP JUMPDEST PUSH0 PUSH2 0xA1C PUSH0 DUP4 PUSH2 0xA04 JUMP JUMPDEST SWAP2 POP PUSH2 0xA27 DUP3 PUSH2 0xA0E JUMP JUMPDEST PUSH0 DUP3 ADD SWAP1 POP SWAP2 SWAP1 POP JUMP JUMPDEST PUSH0 PUSH2 0xA3B DUP3 PUSH2 0xA11 JUMP JUMPDEST SWAP2 POP DUP2 SWAP1 POP SWAP2 SWAP1 POP JUMP JUMPDEST PUSH32 0x526566756E64206661696C656400000000000000000000000000000000000000 PUSH0 DUP3 ADD MSTORE POP JUMP JUMPDEST PUSH0 PUSH2 0xA79 PUSH1 0xD DUP4 PUSH2 0x924 JUMP JUMPDEST SWAP2 POP PUSH2 0xA84 DUP3 PUSH2 0xA45 JUMP JUMPDEST PUSH1 0x20 DUP3 ADD SWAP1 POP SWAP2 SWAP1 POP JUMP JUMPDEST PUSH0 PUSH1 0x20 DUP3 ADD SWAP1 POP DUP2 DUP2 SUB PUSH0 DUP4 ADD MSTORE PUSH2 0xAA6 DUP2 PUSH2 0xA6D JUMP JUMPDEST SWAP1 POP SWAP2 SWAP1 POP JUMP JUMPDEST PUSH32 0x596F7520617265206E6F7420746865206F776E65720000000000000000000000 PUSH0 DUP3 ADD MSTORE POP JUMP JUMPDEST PUSH0 PUSH2 0xAE1 PUSH1 0x15 DUP4 PUSH2 0x924 JUMP JUMPDEST SWAP2 POP PUSH2 0xAEC DUP3 PUSH2 0xAAD JUMP JUMPDEST PUSH1 0x20 DUP3 ADD SWAP1 POP SWAP2 SWAP1 POP JUMP JUMPDEST PUSH0 PUSH1 0x20 DUP3 ADD SWAP1 POP DUP2 DUP2 SUB PUSH0 DUP4 ADD MSTORE PUSH2 0xB0E DUP2 PUSH2 0xAD5 JUMP JUMPDEST SWAP1 POP SWAP2 SWAP1 POP JUMP JUMPDEST PUSH32 0x54686520676F616C206973206E6F742072656163686564000000000000000000 PUSH0 DUP3 ADD MSTORE POP JUMP JUMPDEST PUSH0 PUSH2 0xB49 PUSH1 0x17 DUP4 PUSH2 0x924 JUMP JUMPDEST SWAP2 POP PUSH2 0xB54 DUP3 PUSH2 0xB15 JUMP JUMPDEST PUSH1 0x20 DUP3 ADD SWAP1 POP SWAP2 SWAP1 POP JUMP JUMPDEST PUSH0 PUSH1 0x20 DUP3 ADD SWAP1 POP DUP2 DUP2 SUB PUSH0 DUP4 ADD MSTORE PUSH2 0xB76 DUP2 PUSH2 0xB3D JUMP JUMPDEST SWAP1 POP SWAP2 SWAP1 POP JUMP JUMPDEST PUSH32 0x4765742066756E64206661696C65640000000000000000000000000000000000 PUSH0 DUP3 ADD MSTORE POP JUMP JUMPDEST PUSH0 PUSH2 0xBB1 PUSH1 0xF DUP4 PUSH2 0x924 JUMP JUMPDEST SWAP2 POP PUSH2 0xBBC DUP3 PUSH2 0xB7D JUMP JUMPDEST PUSH1 0x20 DUP3 ADD SWAP1 POP SWAP2 SWAP1 POP JUMP JUMPDEST PUSH0 PUSH1 0x20 DUP3 ADD SWAP1 POP DUP2 DUP2 SUB PUSH0 DUP4 ADD MSTORE PUSH2 0xBDE DUP2 PUSH2 0xBA5 JUMP JUMPDEST SWAP1 POP SWAP2 SWAP1 POP JUMP JUMPDEST PUSH32 0x5468652066756E6420686173206E6F7420737461727465640000000000000000 PUSH0 DUP3 ADD MSTORE POP JUMP JUMPDEST PUSH0 PUSH2 0xC19 PUSH1 0x18 DUP4 PUSH2 0x924 JUMP JUMPDEST SWAP2 POP PUSH2 0xC24 DUP3 PUSH2 0xBE5 JUMP JUMPDEST PUSH1 0x20 DUP3 ADD SWAP1 POP SWAP2 SWAP1 POP JUMP JUMPDEST PUSH0 PUSH1 0x20 DUP3 ADD SWAP1 POP DUP2 DUP2 SUB PUSH0 DUP4 ADD MSTORE PUSH2 0xC46 DUP2 PUSH2 0xC0D JUMP JUMPDEST SWAP1 POP SWAP2 SWAP1 POP JUMP JUMPDEST PUSH32 0x5468652066756E6420697320656E640000000000000000000000000000000000 PUSH0 DUP3 ADD MSTORE POP JUMP JUMPDEST PUSH0 PUSH2 0xC81 PUSH1 0xF DUP4 PUSH2 0x924 JUMP JUMPDEST SWAP2 POP PUSH2 0xC8C DUP3 PUSH2 0xC4D JUMP JUMPDEST PUSH1 0x20 DUP3 ADD SWAP1 POP SWAP2 SWAP1 POP JUMP JUMPDEST PUSH0 PUSH1 0x20 DUP3 ADD SWAP1 POP DUP2 DUP2 SUB PUSH0 DUP4 ADD MSTORE PUSH2 0xCAE DUP2 PUSH2 0xC75 JUMP JUMPDEST SWAP1 POP SWAP2 SWAP1 POP JUMP JUMPDEST PUSH32 0x596F75206E65656420746F20706179206D6F7265000000000000000000000000 PUSH0 DUP3 ADD MSTORE POP JUMP JUMPDEST PUSH0 PUSH2 0xCE9 PUSH1 0x14 DUP4 PUSH2 0x924 JUMP JUMPDEST SWAP2 POP PUSH2 0xCF4 DUP3 PUSH2 0xCB5 JUMP JUMPDEST PUSH1 0x20 DUP3 ADD SWAP1 POP SWAP2 SWAP1 POP JUMP JUMPDEST PUSH0 PUSH1 0x20 DUP3 ADD SWAP1 POP DUP2 DUP2 SUB PUSH0 DUP4 ADD MSTORE PUSH2 0xD16 DUP2 PUSH2 0xCDD JUMP JUMPDEST SWAP1 POP SWAP2 SWAP1 POP JUMP JUMPDEST PUSH0 PUSH10 0xFFFFFFFFFFFFFFFFFFFF DUP3 AND SWAP1 POP SWAP2 SWAP1 POP JUMP JUMPDEST PUSH2 0xD3B DUP2 PUSH2 0xD1D JUMP JUMPDEST DUP2 EQ PUSH2 0xD45 JUMPI PUSH0 DUP1 REVERT JUMPDEST POP JUMP JUMPDEST PUSH0 DUP2 MLOAD SWAP1 POP PUSH2 0xD56 DUP2 PUSH2 0xD32 JUMP JUMPDEST SWAP3 SWAP2 POP POP JUMP JUMPDEST PUSH2 0xD65 DUP2 PUSH2 0x893 JUMP JUMPDEST DUP2 EQ PUSH2 0xD6F JUMPI PUSH0 DUP1 REVERT JUMPDEST POP JUMP JUMPDEST PUSH0 DUP2 MLOAD SWAP1 POP PUSH2 0xD80 DUP2 PUSH2 0xD5C JUMP JUMPDEST SWAP3 SWAP2 POP POP JUMP JUMPDEST PUSH2 0xD8F DUP2 PUSH2 0x83A JUMP JUMPDEST DUP2 EQ PUSH2 0xD99 JUMPI PUSH0 DUP1 REVERT JUMPDEST POP JUMP JUMPDEST PUSH0 DUP2 MLOAD SWAP1 POP PUSH2 0xDAA DUP2 PUSH2 0xD86 JUMP JUMPDEST SWAP3 SWAP2 POP POP JUMP JUMPDEST PUSH0 DUP1 PUSH0 DUP1 PUSH0 PUSH1 0xA0 DUP7 DUP9 SUB SLT ISZERO PUSH2 0xDC9 JUMPI PUSH2 0xDC8 PUSH2 0x7B1 JUMP JUMPDEST JUMPDEST PUSH0 PUSH2 0xDD6 DUP9 DUP3 DUP10 ADD PUSH2 0xD48 JUMP JUMPDEST SWAP6 POP POP PUSH1 0x20 PUSH2 0xDE7 DUP9 DUP3 DUP10 ADD PUSH2 0xD72 JUMP JUMPDEST SWAP5 POP POP PUSH1 0x40 PUSH2 0xDF8 DUP9 DUP3 DUP10 ADD PUSH2 0xD9C JUMP JUMPDEST SWAP4 POP POP PUSH1 0x60 PUSH2 0xE09 DUP9 DUP3 DUP10 ADD PUSH2 0xD9C JUMP JUMPDEST SWAP3 POP POP PUSH1 0x80 PUSH2 0xE1A DUP9 DUP3 DUP10 ADD PUSH2 0xD48 JUMP JUMPDEST SWAP2 POP POP SWAP3 SWAP6 POP SWAP3 SWAP6 SWAP1 SWAP4 POP JUMP JUMPDEST PUSH32 0x4E487B7100000000000000000000000000000000000000000000000000000000 PUSH0 MSTORE PUSH1 0x12 PUSH1 0x4 MSTORE PUSH1 0x24 PUSH0 REVERT JUMPDEST PUSH0 PUSH2 0xE5E DUP3 PUSH2 0x83A JUMP JUMPDEST SWAP2 POP PUSH2 0xE69 DUP4 PUSH2 0x83A JUMP JUMPDEST SWAP3 POP DUP3 PUSH2 0xE79 JUMPI PUSH2 0xE78 PUSH2 0xE27 JUMP JUMPDEST JUMPDEST DUP3 DUP3 DIV SWAP1 POP SWAP3 SWAP2 POP POP JUMP JUMPDEST PUSH0 PUSH2 0xE8E DUP3 PUSH2 0x83A JUMP JUMPDEST SWAP2 POP PUSH2 0xE99 DUP4 PUSH2 0x83A JUMP JUMPDEST SWAP3 POP DUP3 DUP3 MUL PUSH2 0xEA7 DUP2 PUSH2 0x83A JUMP JUMPDEST SWAP2 POP DUP3 DUP3 DIV DUP5 EQ DUP4 ISZERO OR PUSH2 0xEBE JUMPI PUSH2 0xEBD PUSH2 0x8C4 JUMP JUMPDEST JUMPDEST POP SWAP3 SWAP2 POP POP JUMP INVALID LOG2 PUSH5 0x6970667358 0x22 SLT KECCAK256 JUMPDEST ADD MSTORE8 0x4F 0xA7 0xC1 0x2E MSTORE8 SWAP6 PUSH29 0x8FB870E937F5671715194D867CF3EDE94788EC9C088B64736F6C634300 ADDMOD BYTE STOP CALLER "
				},
				"gasEstimates": {
					"creation": {
						"codeDepositCost": "767000",
						"executionCost": "infinite",
						"totalCost": "infinite"
					},
					"external": {
						"duration()": "2448",
						"fundMe()": "infinite",
						"funders(address)": "2802",
						"getChainlinkDataFeedLatestAnswer()": "infinite",
						"getFund()": "infinite",
						"owner()": "2508",
						"refund()": "infinite",
						"startTime()": "2492"
					},
					"internal": {
						"convertToUSD(uint256)": "infinite"
					}
				},
				"methodIdentifiers": {
					"duration()": "0fb5a6b4",
					"fundMe()": "b6a324e0",
					"funders(address)": "031b3677",
					"getChainlinkDataFeedLatestAnswer()": "bea4dfb5",
					"getFund()": "8edd6eb6",
					"owner()": "8da5cb5b",
					"refund()": "590e1ae3",
					"startTime()": "78e97925"
				}
			},
			"storageLayout": {
				"storage": [
					{
						"astId": 53,
						"contract": "contracts/FundMe.sol:FundMe",
						"label": "funders",
						"offset": 0,
						"slot": "0",
						"type": "t_mapping(t_address,t_uint256)"
					},
					{
						"astId": 70,
						"contract": "contracts/FundMe.sol:FundMe",
						"label": "dataFeed",
						"offset": 0,
						"slot": "1",
						"type": "t_contract(AggregatorV3Interface)45"
					},
					{
						"astId": 72,
						"contract": "contracts/FundMe.sol:FundMe",
						"label": "startTime",
						"offset": 0,
						"slot": "2",
						"type": "t_uint256"
					},
					{
						"astId": 74,
						"contract": "contracts/FundMe.sol:FundMe",
						"label": "duration",
						"offset": 0,
						"slot": "3",
						"type": "t_uint256"
					},
					{
						"astId": 76,
						"contract": "contracts/FundMe.sol:FundMe",
						"label": "owner",
						"offset": 0,
						"slot": "4",
						"type": "t_address"
					}
				],
				"types": {
					"t_address": {
						"encoding": "inplace",
						"label": "address",
						"numberOfBytes": "20"
					},
					"t_contract(AggregatorV3Interface)45": {
						"encoding": "inplace",
						"label": "contract AggregatorV3Interface",
						"numberOfBytes": "20"
					},
					"t_mapping(t_address,t_uint256)": {
						"encoding": "mapping",
						"key": "t_address",
						"label": "mapping(address => uint256)",
						"numberOfBytes": "32",
						"value": "t_uint256"
					},
					"t_uint256": {
						"encoding": "inplace",
						"label": "uint256",
						"numberOfBytes": "32"
					}
				}
			},
			"userdoc": {
				"kind": "user",
				"methods": {
					"getChainlinkDataFeedLatestAnswer()": {
						"notice": "Returns the latest answer."
					}
				},
				"version": 1
			}
		}
	}
}