{
	"contracts/FundMe.sol": {
		"FundMe": {
			"abi": [
				{
					"inputs": [
						{
							"internalType": "uint256",
							"name": "_startTime",
							"type": "uint256"
						},
						{
							"internalType": "uint256",
							"name": "_duration",
							"type": "uint256"
						}
					],
					"stateMutability": "nonpayable",
					"type": "constructor"
				},
				{
					"inputs": [],
					"name": "duration",
					"outputs": [
						{
							"internalType": "uint256",
							"name": "",
							"type": "uint256"
						}
					],
					"stateMutability": "view",
					"type": "function"
				},
				{
					"inputs": [],
					"name": "fundMe",
					"outputs": [],
					"stateMutability": "payable",
					"type": "function"
				},
				{
					"inputs": [
						{
							"internalType": "address",
							"name": "",
							"type": "address"
						}
					],
					"name": "funders",
					"outputs": [
						{
							"internalType": "uint256",
							"name": "",
							"type": "uint256"
						}
					],
					"stateMutability": "view",
					"type": "function"
				},
				{
					"inputs": [],
					"name": "getChainlinkDataFeedLatestAnswer",
					"outputs": [
						{
							"internalType": "int256",
							"name": "",
							"type": "int256"
						}
					],
					"stateMutability": "view",
					"type": "function"
				},
				{
					"inputs": [],
					"name": "getFund",
					"outputs": [],
					"stateMutability": "nonpayable",
					"type": "function"
				},
				{
					"inputs": [],
					"name": "getFundResult",
					"outputs": [
						{
							"internalType": "bool",
							"name": "",
							"type": "bool"
						}
					],
					"stateMutability": "view",
					"type": "function"
				},
				{
					"inputs": [],
					"name": "owner",
					"outputs": [
						{
							"internalType": "address",
							"name": "",
							"type": "address"
						}
					],
					"stateMutability": "view",
					"type": "function"
				},
				{
					"inputs": [],
					"name": "refund",
					"outputs": [],
					"stateMutability": "nonpayable",
					"type": "function"
				},
				{
					"inputs": [
						{
							"internalType": "address",
							"name": "_erc20Addr",
							"type": "address"
						}
					],
					"name": "setErc20Addr",
					"outputs": [],
					"stateMutability": "nonpayable",
					"type": "function"
				},
				{
					"inputs": [
						{
							"internalType": "address",
							"name": "_funder",
							"type": "address"
						},
						{
							"internalType": "uint256",
							"name": "existedfundAmount",
							"type": "uint256"
						}
					],
					"name": "setFundAmount",
					"outputs": [],
					"stateMutability": "nonpayable",
					"type": "function"
				},
				{
					"inputs": [],
					"name": "startTime",
					"outputs": [
						{
							"internalType": "uint256",
							"name": "",
							"type": "uint256"
						}
					],
					"stateMutability": "view",
					"type": "function"
				}
			],
			"devdoc": {
				"kind": "dev",
				"methods": {},
				"version": 1
			},
			"evm": {
				"assembly": "    /* \"contracts/FundMe.sol\":177:3466  contract FundMe {... */\n  mstore(0x40, 0x80)\n    /* \"contracts/FundMe.sol\":578:818  constructor (uint256 _startTime, uint256 _duration) {... */\n  callvalue\n  dup1\n  iszero\n  tag_1\n  jumpi\n  0x00\n  dup1\n  revert\ntag_1:\n  pop\n  mload(0x40)\n  sub(codesize, bytecodeSize)\n  dup1\n  bytecodeSize\n  dup4\n  codecopy\n  dup2\n  dup2\n  add\n  0x40\n  mstore\n  dup2\n  add\n  swap1\n  tag_2\n  swap2\n  swap1\n  tag_3\n  jump\t// in\ntag_2:\n    /* \"contracts/FundMe.sol\":674:716  0x694AA1769357215DE4FAC081bf1f309aDC325306 */\n  0x694aa1769357215de4fac081bf1f309adc325306\n    /* \"contracts/FundMe.sol\":641:649  dataFeed */\n  0x01\n  0x00\n    /* \"contracts/FundMe.sol\":641:717  dataFeed = AggregatorV3Interface(0x694AA1769357215DE4FAC081bf1f309aDC325306) */\n  0x0100\n  exp\n  dup2\n  sload\n  dup2\n  0xffffffffffffffffffffffffffffffffffffffff\n  mul\n  not\n  and\n  swap1\n  dup4\n  0xffffffffffffffffffffffffffffffffffffffff\n  and\n  mul\n  or\n  swap1\n  sstore\n  pop\n    /* \"contracts/FundMe.sol\":740:750  _startTime */\n  dup2\n    /* \"contracts/FundMe.sol\":728:737  startTime */\n  0x03\n    /* \"contracts/FundMe.sol\":728:750  startTime = _startTime */\n  dup2\n  swap1\n  sstore\n  pop\n    /* \"contracts/FundMe.sol\":772:781  _duration */\n  dup1\n    /* \"contracts/FundMe.sol\":761:769  duration */\n  0x04\n    /* \"contracts/FundMe.sol\":761:781  duration = _duration */\n  dup2\n  swap1\n  sstore\n  pop\n    /* \"contracts/FundMe.sol\":800:810  msg.sender */\n  caller\n    /* \"contracts/FundMe.sol\":792:797  owner */\n  0x05\n  0x00\n    /* \"contracts/FundMe.sol\":792:810  owner = msg.sender */\n  0x0100\n  exp\n  dup2\n  sload\n  dup2\n  0xffffffffffffffffffffffffffffffffffffffff\n  mul\n  not\n  and\n  swap1\n  dup4\n  0xffffffffffffffffffffffffffffffffffffffff\n  and\n  mul\n  or\n  swap1\n  sstore\n  pop\n    /* \"contracts/FundMe.sol\":578:818  constructor (uint256 _startTime, uint256 _duration) {... */\n  pop\n  pop\n    /* \"contracts/FundMe.sol\":177:3466  contract FundMe {... */\n  jump(tag_6)\n    /* \"#utility.yul\":88:205   */\ntag_8:\n    /* \"#utility.yul\":197:198   */\n  0x00\n    /* \"#utility.yul\":194:195   */\n  dup1\n    /* \"#utility.yul\":187:199   */\n  revert\n    /* \"#utility.yul\":334:411   */\ntag_10:\n    /* \"#utility.yul\":371:378   */\n  0x00\n    /* \"#utility.yul\":400:405   */\n  dup2\n    /* \"#utility.yul\":389:405   */\n  swap1\n  pop\n    /* \"#utility.yul\":334:411   */\n  swap2\n  swap1\n  pop\n  jump\t// out\n    /* \"#utility.yul\":417:539   */\ntag_11:\n    /* \"#utility.yul\":490:514   */\n  tag_19\n    /* \"#utility.yul\":508:513   */\n  dup2\n    /* \"#utility.yul\":490:514   */\n  tag_10\n  jump\t// in\ntag_19:\n    /* \"#utility.yul\":483:488   */\n  dup2\n    /* \"#utility.yul\":480:515   */\n  eq\n    /* \"#utility.yul\":470:533   */\n  tag_20\n  jumpi\n    /* \"#utility.yul\":529:530   */\n  0x00\n    /* \"#utility.yul\":526:527   */\n  dup1\n    /* \"#utility.yul\":519:531   */\n  revert\n    /* \"#utility.yul\":470:533   */\ntag_20:\n    /* \"#utility.yul\":417:539   */\n  pop\n  jump\t// out\n    /* \"#utility.yul\":545:688   */\ntag_12:\n    /* \"#utility.yul\":602:607   */\n  0x00\n    /* \"#utility.yul\":633:639   */\n  dup2\n    /* \"#utility.yul\":627:640   */\n  mload\n    /* \"#utility.yul\":618:640   */\n  swap1\n  pop\n    /* \"#utility.yul\":649:682   */\n  tag_22\n    /* \"#utility.yul\":676:681   */\n  dup2\n    /* \"#utility.yul\":649:682   */\n  tag_11\n  jump\t// in\ntag_22:\n    /* \"#utility.yul\":545:688   */\n  swap3\n  swap2\n  pop\n  pop\n  jump\t// out\n    /* \"#utility.yul\":694:1201   */\ntag_3:\n    /* \"#utility.yul\":773:779   */\n  0x00\n    /* \"#utility.yul\":781:787   */\n  dup1\n    /* \"#utility.yul\":830:832   */\n  0x40\n    /* \"#utility.yul\":818:827   */\n  dup4\n    /* \"#utility.yul\":809:816   */\n  dup6\n    /* \"#utility.yul\":805:828   */\n  sub\n    /* \"#utility.yul\":801:833   */\n  slt\n    /* \"#utility.yul\":798:917   */\n  iszero\n  tag_24\n  jumpi\n    /* \"#utility.yul\":836:915   */\n  tag_25\n  tag_8\n  jump\t// in\ntag_25:\n    /* \"#utility.yul\":798:917   */\ntag_24:\n    /* \"#utility.yul\":956:957   */\n  0x00\n    /* \"#utility.yul\":981:1045   */\n  tag_26\n    /* \"#utility.yul\":1037:1044   */\n  dup6\n    /* \"#utility.yul\":1028:1034   */\n  dup3\n    /* \"#utility.yul\":1017:1026   */\n  dup7\n    /* \"#utility.yul\":1013:1035   */\n  add\n    /* \"#utility.yul\":981:1045   */\n  tag_12\n  jump\t// in\ntag_26:\n    /* \"#utility.yul\":971:1045   */\n  swap3\n  pop\n    /* \"#utility.yul\":927:1055   */\n  pop\n    /* \"#utility.yul\":1094:1096   */\n  0x20\n    /* \"#utility.yul\":1120:1184   */\n  tag_27\n    /* \"#utility.yul\":1176:1183   */\n  dup6\n    /* \"#utility.yul\":1167:1173   */\n  dup3\n    /* \"#utility.yul\":1156:1165   */\n  dup7\n    /* \"#utility.yul\":1152:1174   */\n  add\n    /* \"#utility.yul\":1120:1184   */\n  tag_12\n  jump\t// in\ntag_27:\n    /* \"#utility.yul\":1110:1184   */\n  swap2\n  pop\n    /* \"#utility.yul\":1065:1194   */\n  pop\n    /* \"#utility.yul\":694:1201   */\n  swap3\n  pop\n  swap3\n  swap1\n  pop\n  jump\t// out\n    /* \"contracts/FundMe.sol\":177:3466  contract FundMe {... */\ntag_6:\n  dataSize(sub_0)\n  dup1\n  dataOffset(sub_0)\n  0x00\n  codecopy\n  0x00\n  return\nstop\n\nsub_0: assembly {\n        /* \"contracts/FundMe.sol\":177:3466  contract FundMe {... */\n      mstore(0x40, 0x80)\n      jumpi(tag_1, lt(calldatasize, 0x04))\n      shr(0xe0, calldataload(0x00))\n      dup1\n      0x8da5cb5b\n      gt\n      tag_13\n      jumpi\n      dup1\n      0x8da5cb5b\n      eq\n      tag_7\n      jumpi\n      dup1\n      0x8edd6eb6\n      eq\n      tag_8\n      jumpi\n      dup1\n      0x95e26801\n      eq\n      tag_9\n      jumpi\n      dup1\n      0xa2a99196\n      eq\n      tag_10\n      jumpi\n      dup1\n      0xb6a324e0\n      eq\n      tag_11\n      jumpi\n      dup1\n      0xbea4dfb5\n      eq\n      tag_12\n      jumpi\n      jump(tag_1)\n    tag_13:\n      dup1\n      0x031b3677\n      eq\n      tag_2\n      jumpi\n      dup1\n      0x0fb5a6b4\n      eq\n      tag_3\n      jumpi\n      dup1\n      0x13ffff01\n      eq\n      tag_4\n      jumpi\n      dup1\n      0x590e1ae3\n      eq\n      tag_5\n      jumpi\n      dup1\n      0x78e97925\n      eq\n      tag_6\n      jumpi\n    tag_1:\n      0x00\n      dup1\n      revert\n        /* \"contracts/FundMe.sol\":398:441  mapping (address => uint256) public funders */\n    tag_2:\n      callvalue\n      dup1\n      iszero\n      tag_14\n      jumpi\n      0x00\n      dup1\n      revert\n    tag_14:\n      pop\n      tag_15\n      0x04\n      dup1\n      calldatasize\n      sub\n      dup2\n      add\n      swap1\n      tag_16\n      swap2\n      swap1\n      tag_17\n      jump\t// in\n    tag_16:\n      tag_18\n      jump\t// in\n    tag_15:\n      mload(0x40)\n      tag_19\n      swap2\n      swap1\n      tag_20\n      jump\t// in\n    tag_19:\n      mload(0x40)\n      dup1\n      swap2\n      sub\n      swap1\n      return\n        /* \"contracts/FundMe.sol\":483:506  uint256 public duration */\n    tag_3:\n      callvalue\n      dup1\n      iszero\n      tag_21\n      jumpi\n      0x00\n      dup1\n      revert\n    tag_21:\n      pop\n      tag_22\n      tag_23\n      jump\t// in\n    tag_22:\n      mload(0x40)\n      tag_24\n      swap2\n      swap1\n      tag_20\n      jump\t// in\n    tag_24:\n      mload(0x40)\n      dup1\n      swap2\n      sub\n      swap1\n      return\n        /* \"contracts/FundMe.sol\":2532:2696  function setErc20Addr(address _erc20Addr) public {... */\n    tag_4:\n      callvalue\n      dup1\n      iszero\n      tag_25\n      jumpi\n      0x00\n      dup1\n      revert\n    tag_25:\n      pop\n      tag_26\n      0x04\n      dup1\n      calldatasize\n      sub\n      dup2\n      add\n      swap1\n      tag_27\n      swap2\n      swap1\n      tag_17\n      jump\t// in\n    tag_27:\n      tag_28\n      jump\t// in\n    tag_26:\n      stop\n        /* \"contracts/FundMe.sol\":1874:2310  function refund() external fundIsNotEnd{... */\n    tag_5:\n      callvalue\n      dup1\n      iszero\n      tag_29\n      jumpi\n      0x00\n      dup1\n      revert\n    tag_29:\n      pop\n      tag_30\n      tag_31\n      jump\t// in\n    tag_30:\n      stop\n        /* \"contracts/FundMe.sol\":450:474  uint256 public startTime */\n    tag_6:\n      callvalue\n      dup1\n      iszero\n      tag_32\n      jumpi\n      0x00\n      dup1\n      revert\n    tag_32:\n      pop\n      tag_33\n      tag_34\n      jump\t// in\n    tag_33:\n      mload(0x40)\n      tag_35\n      swap2\n      swap1\n      tag_20\n      jump\t// in\n    tag_35:\n      mload(0x40)\n      dup1\n      swap2\n      sub\n      swap1\n      return\n        /* \"contracts/FundMe.sol\":515:535  address public owner */\n    tag_7:\n      callvalue\n      dup1\n      iszero\n      tag_36\n      jumpi\n      0x00\n      dup1\n      revert\n    tag_36:\n      pop\n      tag_37\n      tag_38\n      jump\t// in\n    tag_37:\n      mload(0x40)\n      tag_39\n      swap2\n      swap1\n      tag_40\n      jump\t// in\n    tag_39:\n      mload(0x40)\n      dup1\n      swap2\n      sub\n      swap1\n      return\n        /* \"contracts/FundMe.sol\":1344:1782  function getFund() external fundIsNotEnd{... */\n    tag_8:\n      callvalue\n      dup1\n      iszero\n      tag_41\n      jumpi\n      0x00\n      dup1\n      revert\n    tag_41:\n      pop\n      tag_42\n      tag_43\n      jump\t// in\n    tag_42:\n      stop\n        /* \"contracts/FundMe.sol\":2318:2524  function setFundAmount(address _funder, uint256 existedfundAmount) public  {... */\n    tag_9:\n      callvalue\n      dup1\n      iszero\n      tag_44\n      jumpi\n      0x00\n      dup1\n      revert\n    tag_44:\n      pop\n      tag_45\n      0x04\n      dup1\n      calldatasize\n      sub\n      dup2\n      add\n      swap1\n      tag_46\n      swap2\n      swap1\n      tag_47\n      jump\t// in\n    tag_46:\n      tag_48\n      jump\t// in\n    tag_45:\n      stop\n        /* \"contracts/FundMe.sol\":544:569  bool public getFundResult */\n    tag_10:\n      callvalue\n      dup1\n      iszero\n      tag_49\n      jumpi\n      0x00\n      dup1\n      revert\n    tag_49:\n      pop\n      tag_50\n      tag_51\n      jump\t// in\n    tag_50:\n      mload(0x40)\n      tag_52\n      swap2\n      swap1\n      tag_53\n      jump\t// in\n    tag_52:\n      mload(0x40)\n      dup1\n      swap2\n      sub\n      swap1\n      return\n        /* \"contracts/FundMe.sol\":859:1270  function fundMe() external payable {... */\n    tag_11:\n      tag_54\n      tag_55\n      jump\t// in\n    tag_54:\n      stop\n        /* \"contracts/FundMe.sol\":2978:3326  function getChainlinkDataFeedLatestAnswer() public view returns (int) {... */\n    tag_12:\n      callvalue\n      dup1\n      iszero\n      tag_56\n      jumpi\n      0x00\n      dup1\n      revert\n    tag_56:\n      pop\n      tag_57\n      tag_58\n      jump\t// in\n    tag_57:\n      mload(0x40)\n      tag_59\n      swap2\n      swap1\n      tag_60\n      jump\t// in\n    tag_59:\n      mload(0x40)\n      dup1\n      swap2\n      sub\n      swap1\n      return\n        /* \"contracts/FundMe.sol\":398:441  mapping (address => uint256) public funders */\n    tag_18:\n      mstore(0x20, 0x02)\n      dup1\n      0x00\n      mstore\n      keccak256(0x00, 0x40)\n      0x00\n      swap2\n      pop\n      swap1\n      pop\n      sload\n      dup2\n      jump\t// out\n        /* \"contracts/FundMe.sol\":483:506  uint256 public duration */\n    tag_23:\n      sload(0x04)\n      dup2\n      jump\t// out\n        /* \"contracts/FundMe.sol\":2532:2696  function setErc20Addr(address _erc20Addr) public {... */\n    tag_28:\n        /* \"contracts/FundMe.sol\":2614:2619  owner */\n      0x05\n      0x00\n      swap1\n      sload\n      swap1\n      0x0100\n      exp\n      swap1\n      div\n      0xffffffffffffffffffffffffffffffffffffffff\n      and\n        /* \"contracts/FundMe.sol\":2600:2619  msg.sender == owner */\n      0xffffffffffffffffffffffffffffffffffffffff\n      and\n        /* \"contracts/FundMe.sol\":2600:2610  msg.sender */\n      caller\n        /* \"contracts/FundMe.sol\":2600:2619  msg.sender == owner */\n      0xffffffffffffffffffffffffffffffffffffffff\n      and\n      eq\n        /* \"contracts/FundMe.sol\":2592:2645  require(msg.sender == owner, \"You are not the owner\") */\n      tag_62\n      jumpi\n      mload(0x40)\n      0x08c379a000000000000000000000000000000000000000000000000000000000\n      dup2\n      mstore\n      0x04\n      add\n      tag_63\n      swap1\n      tag_64\n      jump\t// in\n    tag_63:\n      mload(0x40)\n      dup1\n      swap2\n      sub\n      swap1\n      revert\n    tag_62:\n        /* \"contracts/FundMe.sol\":2678:2688  _erc20Addr */\n      dup1\n        /* \"contracts/FundMe.sol\":2666:2675  erc20Addr */\n      0x00\n      dup1\n        /* \"contracts/FundMe.sol\":2666:2688  erc20Addr = _erc20Addr */\n      0x0100\n      exp\n      dup2\n      sload\n      dup2\n      0xffffffffffffffffffffffffffffffffffffffff\n      mul\n      not\n      and\n      swap1\n      dup4\n      0xffffffffffffffffffffffffffffffffffffffff\n      and\n      mul\n      or\n      swap1\n      sstore\n      pop\n        /* \"contracts/FundMe.sol\":2532:2696  function setErc20Addr(address _erc20Addr) public {... */\n      pop\n      jump\t// out\n        /* \"contracts/FundMe.sol\":1874:2310  function refund() external fundIsNotEnd{... */\n    tag_31:\n        /* \"contracts/FundMe.sol\":3407:3415  duration */\n      sload(0x04)\n        /* \"contracts/FundMe.sol\":3395:3404  startTime */\n      sload(0x03)\n        /* \"contracts/FundMe.sol\":3395:3415  startTime + duration */\n      tag_66\n      swap2\n      swap1\n      tag_67\n      jump\t// in\n    tag_66:\n        /* \"contracts/FundMe.sol\":3377:3392  block.timestamp */\n      timestamp\n        /* \"contracts/FundMe.sol\":3377:3415  block.timestamp > startTime + duration */\n      gt\n        /* \"contracts/FundMe.sol\":3369:3443  require(block.timestamp > startTime + duration, \"The fund is not end yet\") */\n      tag_68\n      jumpi\n      mload(0x40)\n      0x08c379a000000000000000000000000000000000000000000000000000000000\n      dup2\n      mstore\n      0x04\n      add\n      tag_69\n      swap1\n      tag_70\n      jump\t// in\n    tag_69:\n      mload(0x40)\n      dup1\n      swap2\n      sub\n      swap1\n      revert\n    tag_68:\n        /* \"contracts/FundMe.sol\":1924:1947  uint256 totalFundAmount */\n      0x00\n        /* \"contracts/FundMe.sol\":1950:1971  address(this).balance */\n      selfbalance\n        /* \"contracts/FundMe.sol\":1924:1971  uint256 totalFundAmount = address(this).balance */\n      swap1\n      pop\n        /* \"contracts/FundMe.sol\":294:307  20 * 10 ** 18 */\n      0x01158e460913d00000\n        /* \"contracts/FundMe.sol\":1990:2019  convertToUSD(totalFundAmount) */\n      tag_72\n        /* \"contracts/FundMe.sol\":2003:2018  totalFundAmount */\n      dup3\n        /* \"contracts/FundMe.sol\":1990:2002  convertToUSD */\n      tag_73\n        /* \"contracts/FundMe.sol\":1990:2019  convertToUSD(totalFundAmount) */\n      jump\t// in\n    tag_72:\n        /* \"contracts/FundMe.sol\":1990:2035  convertToUSD(totalFundAmount) < MIN_FUND_GOAL */\n      lt\n        /* \"contracts/FundMe.sol\":1982:2059  require(convertToUSD(totalFundAmount) < MIN_FUND_GOAL, \"The goal is reached\") */\n      tag_74\n      jumpi\n      mload(0x40)\n      0x08c379a000000000000000000000000000000000000000000000000000000000\n      dup2\n      mstore\n      0x04\n      add\n      tag_75\n      swap1\n      tag_76\n      jump\t// in\n    tag_75:\n      mload(0x40)\n      dup1\n      swap2\n      sub\n      swap1\n      revert\n    tag_74:\n        /* \"contracts/FundMe.sol\":2103:2104  0 */\n      0x00\n        /* \"contracts/FundMe.sol\":2080:2087  funders */\n      0x02\n        /* \"contracts/FundMe.sol\":2080:2099  funders[msg.sender] */\n      0x00\n        /* \"contracts/FundMe.sol\":2088:2098  msg.sender */\n      caller\n        /* \"contracts/FundMe.sol\":2080:2099  funders[msg.sender] */\n      0xffffffffffffffffffffffffffffffffffffffff\n      and\n      0xffffffffffffffffffffffffffffffffffffffff\n      and\n      dup2\n      mstore\n      0x20\n      add\n      swap1\n      dup2\n      mstore\n      0x20\n      add\n      0x00\n      keccak256\n      sload\n        /* \"contracts/FundMe.sol\":2080:2104  funders[msg.sender] != 0 */\n      sub\n        /* \"contracts/FundMe.sol\":2072:2126  require(funders[msg.sender] != 0, \"You have not fund\") */\n      tag_77\n      jumpi\n      mload(0x40)\n      0x08c379a000000000000000000000000000000000000000000000000000000000\n      dup2\n      mstore\n      0x04\n      add\n      tag_78\n      swap1\n      tag_79\n      jump\t// in\n    tag_78:\n      mload(0x40)\n      dup1\n      swap2\n      sub\n      swap1\n      revert\n    tag_77:\n        /* \"contracts/FundMe.sol\":2139:2147  bool res */\n      0x00\n        /* \"contracts/FundMe.sol\":2176:2186  msg.sender */\n      caller\n        /* \"contracts/FundMe.sol\":2167:2192  payable (msg.sender).call */\n      0xffffffffffffffffffffffffffffffffffffffff\n      and\n        /* \"contracts/FundMe.sol\":2200:2207  funders */\n      0x02\n        /* \"contracts/FundMe.sol\":2200:2219  funders[msg.sender] */\n      0x00\n        /* \"contracts/FundMe.sol\":2208:2218  msg.sender */\n      caller\n        /* \"contracts/FundMe.sol\":2200:2219  funders[msg.sender] */\n      0xffffffffffffffffffffffffffffffffffffffff\n      and\n      0xffffffffffffffffffffffffffffffffffffffff\n      and\n      dup2\n      mstore\n      0x20\n      add\n      swap1\n      dup2\n      mstore\n      0x20\n      add\n      0x00\n      keccak256\n      sload\n        /* \"contracts/FundMe.sol\":2167:2224  payable (msg.sender).call{value: funders[msg.sender]}(\"\") */\n      mload(0x40)\n      tag_80\n      swap1\n      tag_81\n      jump\t// in\n    tag_80:\n      0x00\n      mload(0x40)\n      dup1\n      dup4\n      sub\n      dup2\n      dup6\n      dup8\n      gas\n      call\n      swap3\n      pop\n      pop\n      pop\n      returndatasize\n      dup1\n      0x00\n      dup2\n      eq\n      tag_84\n      jumpi\n      mload(0x40)\n      swap2\n      pop\n      and(add(returndatasize, 0x3f), not(0x1f))\n      dup3\n      add\n      0x40\n      mstore\n      returndatasize\n      dup3\n      mstore\n      returndatasize\n      0x00\n      0x20\n      dup5\n      add\n      returndatacopy\n      jump(tag_83)\n    tag_84:\n      0x60\n      swap2\n      pop\n    tag_83:\n      pop\n        /* \"contracts/FundMe.sol\":2158:2224  (res,) = payable (msg.sender).call{value: funders[msg.sender]}(\"\") */\n      pop\n      dup1\n      swap2\n      pop\n      pop\n        /* \"contracts/FundMe.sol\":2245:2248  res */\n      dup1\n        /* \"contracts/FundMe.sol\":2237:2266  require(res, \"Refund failed\") */\n      tag_85\n      jumpi\n      mload(0x40)\n      0x08c379a000000000000000000000000000000000000000000000000000000000\n      dup2\n      mstore\n      0x04\n      add\n      tag_86\n      swap1\n      tag_87\n      jump\t// in\n    tag_86:\n      mload(0x40)\n      dup1\n      swap2\n      sub\n      swap1\n      revert\n    tag_85:\n        /* \"contracts/FundMe.sol\":2301:2302  0 */\n      0x00\n        /* \"contracts/FundMe.sol\":2279:2286  funders */\n      0x02\n        /* \"contracts/FundMe.sol\":2279:2298  funders[msg.sender] */\n      0x00\n        /* \"contracts/FundMe.sol\":2287:2297  msg.sender */\n      caller\n        /* \"contracts/FundMe.sol\":2279:2298  funders[msg.sender] */\n      0xffffffffffffffffffffffffffffffffffffffff\n      and\n      0xffffffffffffffffffffffffffffffffffffffff\n      and\n      dup2\n      mstore\n      0x20\n      add\n      swap1\n      dup2\n      mstore\n      0x20\n      add\n      0x00\n      keccak256\n        /* \"contracts/FundMe.sol\":2279:2302  funders[msg.sender] = 0 */\n      dup2\n      swap1\n      sstore\n      pop\n        /* \"contracts/FundMe.sol\":1913:2310  {... */\n      pop\n      pop\n        /* \"contracts/FundMe.sol\":1874:2310  function refund() external fundIsNotEnd{... */\n      jump\t// out\n        /* \"contracts/FundMe.sol\":450:474  uint256 public startTime */\n    tag_34:\n      sload(0x03)\n      dup2\n      jump\t// out\n        /* \"contracts/FundMe.sol\":515:535  address public owner */\n    tag_38:\n      0x05\n      0x00\n      swap1\n      sload\n      swap1\n      0x0100\n      exp\n      swap1\n      div\n      0xffffffffffffffffffffffffffffffffffffffff\n      and\n      dup2\n      jump\t// out\n        /* \"contracts/FundMe.sol\":1344:1782  function getFund() external fundIsNotEnd{... */\n    tag_43:\n        /* \"contracts/FundMe.sol\":3407:3415  duration */\n      sload(0x04)\n        /* \"contracts/FundMe.sol\":3395:3404  startTime */\n      sload(0x03)\n        /* \"contracts/FundMe.sol\":3395:3415  startTime + duration */\n      tag_89\n      swap2\n      swap1\n      tag_67\n      jump\t// in\n    tag_89:\n        /* \"contracts/FundMe.sol\":3377:3392  block.timestamp */\n      timestamp\n        /* \"contracts/FundMe.sol\":3377:3415  block.timestamp > startTime + duration */\n      gt\n        /* \"contracts/FundMe.sol\":3369:3443  require(block.timestamp > startTime + duration, \"The fund is not end yet\") */\n      tag_90\n      jumpi\n      mload(0x40)\n      0x08c379a000000000000000000000000000000000000000000000000000000000\n      dup2\n      mstore\n      0x04\n      add\n      tag_91\n      swap1\n      tag_70\n      jump\t// in\n    tag_91:\n      mload(0x40)\n      dup1\n      swap2\n      sub\n      swap1\n      revert\n    tag_90:\n        /* \"contracts/FundMe.sol\":1417:1422  owner */\n      0x05\n      0x00\n      swap1\n      sload\n      swap1\n      0x0100\n      exp\n      swap1\n      div\n      0xffffffffffffffffffffffffffffffffffffffff\n      and\n        /* \"contracts/FundMe.sol\":1403:1422  msg.sender == owner */\n      0xffffffffffffffffffffffffffffffffffffffff\n      and\n        /* \"contracts/FundMe.sol\":1403:1413  msg.sender */\n      caller\n        /* \"contracts/FundMe.sol\":1403:1422  msg.sender == owner */\n      0xffffffffffffffffffffffffffffffffffffffff\n      and\n      eq\n        /* \"contracts/FundMe.sol\":1395:1448  require(msg.sender == owner, \"You are not the owner\") */\n      tag_93\n      jumpi\n      mload(0x40)\n      0x08c379a000000000000000000000000000000000000000000000000000000000\n      dup2\n      mstore\n      0x04\n      add\n      tag_94\n      swap1\n      tag_64\n      jump\t// in\n    tag_94:\n      mload(0x40)\n      dup1\n      swap2\n      sub\n      swap1\n      revert\n    tag_93:\n        /* \"contracts/FundMe.sol\":1461:1484  uint256 totalFundAmount */\n      0x00\n        /* \"contracts/FundMe.sol\":1487:1508  address(this).balance */\n      selfbalance\n        /* \"contracts/FundMe.sol\":1461:1508  uint256 totalFundAmount = address(this).balance */\n      swap1\n      pop\n        /* \"contracts/FundMe.sol\":294:307  20 * 10 ** 18 */\n      0x01158e460913d00000\n        /* \"contracts/FundMe.sol\":1529:1558  convertToUSD(totalFundAmount) */\n      tag_95\n        /* \"contracts/FundMe.sol\":1542:1557  totalFundAmount */\n      dup3\n        /* \"contracts/FundMe.sol\":1529:1541  convertToUSD */\n      tag_73\n        /* \"contracts/FundMe.sol\":1529:1558  convertToUSD(totalFundAmount) */\n      jump\t// in\n    tag_95:\n        /* \"contracts/FundMe.sol\":1529:1575  convertToUSD(totalFundAmount) >= MIN_FUND_GOAL */\n      lt\n      iszero\n        /* \"contracts/FundMe.sol\":1521:1603  require(convertToUSD(totalFundAmount) >= MIN_FUND_GOAL, \"The goal is not reached\") */\n      tag_96\n      jumpi\n      mload(0x40)\n      0x08c379a000000000000000000000000000000000000000000000000000000000\n      dup2\n      mstore\n      0x04\n      add\n      tag_97\n      swap1\n      tag_98\n      jump\t// in\n    tag_97:\n      mload(0x40)\n      dup1\n      swap2\n      sub\n      swap1\n      revert\n    tag_96:\n        /* \"contracts/FundMe.sol\":1616:1624  bool res */\n      0x00\n        /* \"contracts/FundMe.sol\":1653:1663  msg.sender */\n      caller\n        /* \"contracts/FundMe.sol\":1644:1669  payable (msg.sender).call */\n      0xffffffffffffffffffffffffffffffffffffffff\n      and\n        /* \"contracts/FundMe.sol\":1677:1692  totalFundAmount */\n      dup3\n        /* \"contracts/FundMe.sol\":1644:1697  payable (msg.sender).call{value: totalFundAmount}(\"\") */\n      mload(0x40)\n      tag_99\n      swap1\n      tag_81\n      jump\t// in\n    tag_99:\n      0x00\n      mload(0x40)\n      dup1\n      dup4\n      sub\n      dup2\n      dup6\n      dup8\n      gas\n      call\n      swap3\n      pop\n      pop\n      pop\n      returndatasize\n      dup1\n      0x00\n      dup2\n      eq\n      tag_102\n      jumpi\n      mload(0x40)\n      swap2\n      pop\n      and(add(returndatasize, 0x3f), not(0x1f))\n      dup3\n      add\n      0x40\n      mstore\n      returndatasize\n      dup3\n      mstore\n      returndatasize\n      0x00\n      0x20\n      dup5\n      add\n      returndatacopy\n      jump(tag_101)\n    tag_102:\n      0x60\n      swap2\n      pop\n    tag_101:\n      pop\n        /* \"contracts/FundMe.sol\":1635:1697  (res,) = payable (msg.sender).call{value: totalFundAmount}(\"\") */\n      pop\n      dup1\n      swap2\n      pop\n      pop\n        /* \"contracts/FundMe.sol\":1718:1721  res */\n      dup1\n        /* \"contracts/FundMe.sol\":1710:1741  require(res, \"Get fund failed\") */\n      tag_103\n      jumpi\n      mload(0x40)\n      0x08c379a000000000000000000000000000000000000000000000000000000000\n      dup2\n      mstore\n      0x04\n      add\n      tag_104\n      swap1\n      tag_105\n      jump\t// in\n    tag_104:\n      mload(0x40)\n      dup1\n      swap2\n      sub\n      swap1\n      revert\n    tag_103:\n        /* \"contracts/FundMe.sol\":1770:1774  true */\n      0x01\n        /* \"contracts/FundMe.sol\":1754:1767  getFundResult */\n      0x05\n      0x14\n        /* \"contracts/FundMe.sol\":1754:1774  getFundResult = true */\n      0x0100\n      exp\n      dup2\n      sload\n      dup2\n      0xff\n      mul\n      not\n      and\n      swap1\n      dup4\n      iszero\n      iszero\n      mul\n      or\n      swap1\n      sstore\n      pop\n        /* \"contracts/FundMe.sol\":1384:1782  {... */\n      pop\n      pop\n        /* \"contracts/FundMe.sol\":1344:1782  function getFund() external fundIsNotEnd{... */\n      jump\t// out\n        /* \"contracts/FundMe.sol\":2318:2524  function setFundAmount(address _funder, uint256 existedfundAmount) public  {... */\n    tag_48:\n        /* \"contracts/FundMe.sol\":2426:2435  erc20Addr */\n      0x00\n      dup1\n      sload\n      swap1\n      0x0100\n      exp\n      swap1\n      div\n      0xffffffffffffffffffffffffffffffffffffffff\n      and\n        /* \"contracts/FundMe.sol\":2412:2435  msg.sender == erc20Addr */\n      0xffffffffffffffffffffffffffffffffffffffff\n      and\n        /* \"contracts/FundMe.sol\":2412:2422  msg.sender */\n      caller\n        /* \"contracts/FundMe.sol\":2412:2435  msg.sender == erc20Addr */\n      0xffffffffffffffffffffffffffffffffffffffff\n      and\n      eq\n        /* \"contracts/FundMe.sol\":2404:2467  require(msg.sender == erc20Addr, \"You can not invoke this api\") */\n      tag_107\n      jumpi\n      mload(0x40)\n      0x08c379a000000000000000000000000000000000000000000000000000000000\n      dup2\n      mstore\n      0x04\n      add\n      tag_108\n      swap1\n      tag_109\n      jump\t// in\n    tag_108:\n      mload(0x40)\n      dup1\n      swap2\n      sub\n      swap1\n      revert\n    tag_107:\n        /* \"contracts/FundMe.sol\":2499:2516  existedfundAmount */\n      dup1\n        /* \"contracts/FundMe.sol\":2480:2487  funders */\n      0x02\n        /* \"contracts/FundMe.sol\":2480:2496  funders[_funder] */\n      0x00\n        /* \"contracts/FundMe.sol\":2488:2495  _funder */\n      dup5\n        /* \"contracts/FundMe.sol\":2480:2496  funders[_funder] */\n      0xffffffffffffffffffffffffffffffffffffffff\n      and\n      0xffffffffffffffffffffffffffffffffffffffff\n      and\n      dup2\n      mstore\n      0x20\n      add\n      swap1\n      dup2\n      mstore\n      0x20\n      add\n      0x00\n      keccak256\n        /* \"contracts/FundMe.sol\":2480:2516  funders[_funder] = existedfundAmount */\n      dup2\n      swap1\n      sstore\n      pop\n        /* \"contracts/FundMe.sol\":2318:2524  function setFundAmount(address _funder, uint256 existedfundAmount) public  {... */\n      pop\n      pop\n      jump\t// out\n        /* \"contracts/FundMe.sol\":544:569  bool public getFundResult */\n    tag_51:\n      0x05\n      0x14\n      swap1\n      sload\n      swap1\n      0x0100\n      exp\n      swap1\n      div\n      0xff\n      and\n      dup2\n      jump\t// out\n        /* \"contracts/FundMe.sol\":859:1270  function fundMe() external payable {... */\n    tag_55:\n        /* \"contracts/FundMe.sol\":931:940  startTime */\n      sload(0x03)\n        /* \"contracts/FundMe.sol\":913:928  block.timestamp */\n      timestamp\n        /* \"contracts/FundMe.sol\":913:940  block.timestamp > startTime */\n      gt\n        /* \"contracts/FundMe.sol\":905:969  require(block.timestamp > startTime, \"The fund has not started\") */\n      tag_111\n      jumpi\n      mload(0x40)\n      0x08c379a000000000000000000000000000000000000000000000000000000000\n      dup2\n      mstore\n      0x04\n      add\n      tag_112\n      swap1\n      tag_113\n      jump\t// in\n    tag_112:\n      mload(0x40)\n      dup1\n      swap2\n      sub\n      swap1\n      revert\n    tag_111:\n        /* \"contracts/FundMe.sol\":1021:1029  duration */\n      sload(0x04)\n        /* \"contracts/FundMe.sol\":1009:1018  startTime */\n      sload(0x03)\n        /* \"contracts/FundMe.sol\":1009:1029  startTime + duration */\n      tag_114\n      swap2\n      swap1\n      tag_67\n      jump\t// in\n    tag_114:\n        /* \"contracts/FundMe.sol\":990:1005  block.timestamp */\n      timestamp\n        /* \"contracts/FundMe.sol\":990:1029  block.timestamp <= startTime + duration */\n      gt\n      iszero\n        /* \"contracts/FundMe.sol\":982:1049  require(block.timestamp <= startTime + duration, \"The fund is end\") */\n      tag_115\n      jumpi\n      mload(0x40)\n      0x08c379a000000000000000000000000000000000000000000000000000000000\n      dup2\n      mstore\n      0x04\n      add\n      tag_116\n      swap1\n      tag_117\n      jump\t// in\n    tag_116:\n      mload(0x40)\n      dup1\n      swap2\n      sub\n      swap1\n      revert\n    tag_115:\n        /* \"contracts/FundMe.sol\":1062:1080  uint256 fundAmount */\n      0x00\n        /* \"contracts/FundMe.sol\":1083:1106  convertToUSD(msg.value) */\n      tag_118\n        /* \"contracts/FundMe.sol\":1096:1105  msg.value */\n      callvalue\n        /* \"contracts/FundMe.sol\":1083:1095  convertToUSD */\n      tag_73\n        /* \"contracts/FundMe.sol\":1083:1106  convertToUSD(msg.value) */\n      jump\t// in\n    tag_118:\n        /* \"contracts/FundMe.sol\":1062:1106  uint256 fundAmount = convertToUSD(msg.value) */\n      swap1\n      pop\n        /* \"contracts/FundMe.sol\":232:245  10 * 10 ** 18 */\n      0x8ac7230489e80000\n        /* \"contracts/FundMe.sol\":1125:1135  fundAmount */\n      dup2\n        /* \"contracts/FundMe.sol\":1125:1149  fundAmount >= MIN_AMOUNT */\n      lt\n      iszero\n        /* \"contracts/FundMe.sol\":1117:1178  require(fundAmount >= MIN_AMOUNT, \"You need to pay more ETH\") */\n      tag_119\n      jumpi\n      mload(0x40)\n      0x08c379a000000000000000000000000000000000000000000000000000000000\n      dup2\n      mstore\n      0x04\n      add\n      tag_120\n      swap1\n      tag_121\n      jump\t// in\n    tag_120:\n      mload(0x40)\n      dup1\n      swap2\n      sub\n      swap1\n      revert\n    tag_119:\n        /* \"contracts/FundMe.sol\":1253:1262  msg.value */\n      callvalue\n        /* \"contracts/FundMe.sol\":1231:1238  funders */\n      0x02\n        /* \"contracts/FundMe.sol\":1231:1250  funders[msg.sender] */\n      0x00\n        /* \"contracts/FundMe.sol\":1239:1249  msg.sender */\n      caller\n        /* \"contracts/FundMe.sol\":1231:1250  funders[msg.sender] */\n      0xffffffffffffffffffffffffffffffffffffffff\n      and\n      0xffffffffffffffffffffffffffffffffffffffff\n      and\n      dup2\n      mstore\n      0x20\n      add\n      swap1\n      dup2\n      mstore\n      0x20\n      add\n      0x00\n      keccak256\n        /* \"contracts/FundMe.sol\":1231:1262  funders[msg.sender] = msg.value */\n      dup2\n      swap1\n      sstore\n      pop\n        /* \"contracts/FundMe.sol\":894:1270  {... */\n      pop\n        /* \"contracts/FundMe.sol\":859:1270  function fundMe() external payable {... */\n      jump\t// out\n        /* \"contracts/FundMe.sol\":2978:3326  function getChainlinkDataFeedLatestAnswer() public view returns (int) {... */\n    tag_58:\n        /* \"contracts/FundMe.sol\":3043:3046  int */\n      0x00\n        /* \"contracts/FundMe.sol\":3137:3147  int answer */\n      dup1\n        /* \"contracts/FundMe.sol\":3268:3276  dataFeed */\n      0x01\n      0x00\n      swap1\n      sload\n      swap1\n      0x0100\n      exp\n      swap1\n      div\n      0xffffffffffffffffffffffffffffffffffffffff\n      and\n        /* \"contracts/FundMe.sol\":3268:3292  dataFeed.latestRoundData */\n      0xffffffffffffffffffffffffffffffffffffffff\n      and\n      0xfeaf968c\n        /* \"contracts/FundMe.sol\":3268:3294  dataFeed.latestRoundData() */\n      mload(0x40)\n      dup2\n      0xffffffff\n      and\n      0xe0\n      shl\n      dup2\n      mstore\n      0x04\n      add\n      0xa0\n      mload(0x40)\n      dup1\n      dup4\n      sub\n      dup2\n      dup7\n      gas\n      staticcall\n      iszero\n      dup1\n      iszero\n      tag_124\n      jumpi\n      returndatasize\n      0x00\n      dup1\n      returndatacopy\n      revert(0x00, returndatasize)\n    tag_124:\n      pop\n      pop\n      pop\n      pop\n      mload(0x40)\n      returndatasize\n      not(0x1f)\n      0x1f\n      dup3\n      add\n      and\n      dup3\n      add\n      dup1\n      0x40\n      mstore\n      pop\n      dup2\n      add\n      swap1\n      tag_125\n      swap2\n      swap1\n      tag_126\n      jump\t// in\n    tag_125:\n        /* \"contracts/FundMe.sol\":3087:3294  (... */\n      pop\n      pop\n      pop\n      swap2\n      pop\n      pop\n        /* \"contracts/FundMe.sol\":3312:3318  answer */\n      dup1\n        /* \"contracts/FundMe.sol\":3305:3318  return answer */\n      swap2\n      pop\n      pop\n        /* \"contracts/FundMe.sol\":2978:3326  function getChainlinkDataFeedLatestAnswer() public view returns (int) {... */\n      swap1\n      jump\t// out\n        /* \"contracts/FundMe.sol\":2704:2916  function convertToUSD(uint256 _amount) private view returns (uint256){... */\n    tag_73:\n        /* \"contracts/FundMe.sol\":2765:2772  uint256 */\n      0x00\n        /* \"contracts/FundMe.sol\":2783:2806  uint256 currentEthToUsd */\n      dup1\n        /* \"contracts/FundMe.sol\":2817:2851  getChainlinkDataFeedLatestAnswer() */\n      tag_128\n        /* \"contracts/FundMe.sol\":2817:2849  getChainlinkDataFeedLatestAnswer */\n      tag_58\n        /* \"contracts/FundMe.sol\":2817:2851  getChainlinkDataFeedLatestAnswer() */\n      jump\t// in\n    tag_128:\n        /* \"contracts/FundMe.sol\":2783:2852  uint256 currentEthToUsd = uint256(getChainlinkDataFeedLatestAnswer()) */\n      swap1\n      pop\n        /* \"contracts/FundMe.sol\":2901:2908  _amount */\n      dup3\n        /* \"contracts/FundMe.sol\":2890:2897  10 ** 8 */\n      0x05f5e100\n        /* \"contracts/FundMe.sol\":2872:2887  currentEthToUsd */\n      dup3\n        /* \"contracts/FundMe.sol\":2872:2897  currentEthToUsd / 10 ** 8 */\n      tag_129\n      swap2\n      swap1\n      tag_130\n      jump\t// in\n    tag_129:\n        /* \"contracts/FundMe.sol\":2871:2908  (currentEthToUsd / 10 ** 8) * _amount */\n      tag_131\n      swap2\n      swap1\n      tag_132\n      jump\t// in\n    tag_131:\n        /* \"contracts/FundMe.sol\":2864:2908  return (currentEthToUsd / 10 ** 8) * _amount */\n      swap2\n      pop\n      pop\n        /* \"contracts/FundMe.sol\":2704:2916  function convertToUSD(uint256 _amount) private view returns (uint256){... */\n      swap2\n      swap1\n      pop\n      jump\t// out\n        /* \"#utility.yul\":88:205   */\n    tag_134:\n        /* \"#utility.yul\":197:198   */\n      0x00\n        /* \"#utility.yul\":194:195   */\n      dup1\n        /* \"#utility.yul\":187:199   */\n      revert\n        /* \"#utility.yul\":334:460   */\n    tag_136:\n        /* \"#utility.yul\":371:378   */\n      0x00\n        /* \"#utility.yul\":411:453   */\n      0xffffffffffffffffffffffffffffffffffffffff\n        /* \"#utility.yul\":404:409   */\n      dup3\n        /* \"#utility.yul\":400:454   */\n      and\n        /* \"#utility.yul\":389:454   */\n      swap1\n      pop\n        /* \"#utility.yul\":334:460   */\n      swap2\n      swap1\n      pop\n      jump\t// out\n        /* \"#utility.yul\":466:562   */\n    tag_137:\n        /* \"#utility.yul\":503:510   */\n      0x00\n        /* \"#utility.yul\":532:556   */\n      tag_189\n        /* \"#utility.yul\":550:555   */\n      dup3\n        /* \"#utility.yul\":532:556   */\n      tag_136\n      jump\t// in\n    tag_189:\n        /* \"#utility.yul\":521:556   */\n      swap1\n      pop\n        /* \"#utility.yul\":466:562   */\n      swap2\n      swap1\n      pop\n      jump\t// out\n        /* \"#utility.yul\":568:690   */\n    tag_138:\n        /* \"#utility.yul\":641:665   */\n      tag_191\n        /* \"#utility.yul\":659:664   */\n      dup2\n        /* \"#utility.yul\":641:665   */\n      tag_137\n      jump\t// in\n    tag_191:\n        /* \"#utility.yul\":634:639   */\n      dup2\n        /* \"#utility.yul\":631:666   */\n      eq\n        /* \"#utility.yul\":621:684   */\n      tag_192\n      jumpi\n        /* \"#utility.yul\":680:681   */\n      0x00\n        /* \"#utility.yul\":677:678   */\n      dup1\n        /* \"#utility.yul\":670:682   */\n      revert\n        /* \"#utility.yul\":621:684   */\n    tag_192:\n        /* \"#utility.yul\":568:690   */\n      pop\n      jump\t// out\n        /* \"#utility.yul\":696:835   */\n    tag_139:\n        /* \"#utility.yul\":742:747   */\n      0x00\n        /* \"#utility.yul\":780:786   */\n      dup2\n        /* \"#utility.yul\":767:787   */\n      calldataload\n        /* \"#utility.yul\":758:787   */\n      swap1\n      pop\n        /* \"#utility.yul\":796:829   */\n      tag_194\n        /* \"#utility.yul\":823:828   */\n      dup2\n        /* \"#utility.yul\":796:829   */\n      tag_138\n      jump\t// in\n    tag_194:\n        /* \"#utility.yul\":696:835   */\n      swap3\n      swap2\n      pop\n      pop\n      jump\t// out\n        /* \"#utility.yul\":841:1170   */\n    tag_17:\n        /* \"#utility.yul\":900:906   */\n      0x00\n        /* \"#utility.yul\":949:951   */\n      0x20\n        /* \"#utility.yul\":937:946   */\n      dup3\n        /* \"#utility.yul\":928:935   */\n      dup5\n        /* \"#utility.yul\":924:947   */\n      sub\n        /* \"#utility.yul\":920:952   */\n      slt\n        /* \"#utility.yul\":917:1036   */\n      iszero\n      tag_196\n      jumpi\n        /* \"#utility.yul\":955:1034   */\n      tag_197\n      tag_134\n      jump\t// in\n    tag_197:\n        /* \"#utility.yul\":917:1036   */\n    tag_196:\n        /* \"#utility.yul\":1075:1076   */\n      0x00\n        /* \"#utility.yul\":1100:1153   */\n      tag_198\n        /* \"#utility.yul\":1145:1152   */\n      dup5\n        /* \"#utility.yul\":1136:1142   */\n      dup3\n        /* \"#utility.yul\":1125:1134   */\n      dup6\n        /* \"#utility.yul\":1121:1143   */\n      add\n        /* \"#utility.yul\":1100:1153   */\n      tag_139\n      jump\t// in\n    tag_198:\n        /* \"#utility.yul\":1090:1153   */\n      swap2\n      pop\n        /* \"#utility.yul\":1046:1163   */\n      pop\n        /* \"#utility.yul\":841:1170   */\n      swap3\n      swap2\n      pop\n      pop\n      jump\t// out\n        /* \"#utility.yul\":1176:1253   */\n    tag_140:\n        /* \"#utility.yul\":1213:1220   */\n      0x00\n        /* \"#utility.yul\":1242:1247   */\n      dup2\n        /* \"#utility.yul\":1231:1247   */\n      swap1\n      pop\n        /* \"#utility.yul\":1176:1253   */\n      swap2\n      swap1\n      pop\n      jump\t// out\n        /* \"#utility.yul\":1259:1377   */\n    tag_141:\n        /* \"#utility.yul\":1346:1370   */\n      tag_201\n        /* \"#utility.yul\":1364:1369   */\n      dup2\n        /* \"#utility.yul\":1346:1370   */\n      tag_140\n      jump\t// in\n    tag_201:\n        /* \"#utility.yul\":1341:1344   */\n      dup3\n        /* \"#utility.yul\":1334:1371   */\n      mstore\n        /* \"#utility.yul\":1259:1377   */\n      pop\n      pop\n      jump\t// out\n        /* \"#utility.yul\":1383:1605   */\n    tag_20:\n        /* \"#utility.yul\":1476:1480   */\n      0x00\n        /* \"#utility.yul\":1514:1516   */\n      0x20\n        /* \"#utility.yul\":1503:1512   */\n      dup3\n        /* \"#utility.yul\":1499:1517   */\n      add\n        /* \"#utility.yul\":1491:1517   */\n      swap1\n      pop\n        /* \"#utility.yul\":1527:1598   */\n      tag_203\n        /* \"#utility.yul\":1595:1596   */\n      0x00\n        /* \"#utility.yul\":1584:1593   */\n      dup4\n        /* \"#utility.yul\":1580:1597   */\n      add\n        /* \"#utility.yul\":1571:1577   */\n      dup5\n        /* \"#utility.yul\":1527:1598   */\n      tag_141\n      jump\t// in\n    tag_203:\n        /* \"#utility.yul\":1383:1605   */\n      swap3\n      swap2\n      pop\n      pop\n      jump\t// out\n        /* \"#utility.yul\":1611:1729   */\n    tag_142:\n        /* \"#utility.yul\":1698:1722   */\n      tag_205\n        /* \"#utility.yul\":1716:1721   */\n      dup2\n        /* \"#utility.yul\":1698:1722   */\n      tag_137\n      jump\t// in\n    tag_205:\n        /* \"#utility.yul\":1693:1696   */\n      dup3\n        /* \"#utility.yul\":1686:1723   */\n      mstore\n        /* \"#utility.yul\":1611:1729   */\n      pop\n      pop\n      jump\t// out\n        /* \"#utility.yul\":1735:1957   */\n    tag_40:\n        /* \"#utility.yul\":1828:1832   */\n      0x00\n        /* \"#utility.yul\":1866:1868   */\n      0x20\n        /* \"#utility.yul\":1855:1864   */\n      dup3\n        /* \"#utility.yul\":1851:1869   */\n      add\n        /* \"#utility.yul\":1843:1869   */\n      swap1\n      pop\n        /* \"#utility.yul\":1879:1950   */\n      tag_207\n        /* \"#utility.yul\":1947:1948   */\n      0x00\n        /* \"#utility.yul\":1936:1945   */\n      dup4\n        /* \"#utility.yul\":1932:1949   */\n      add\n        /* \"#utility.yul\":1923:1929   */\n      dup5\n        /* \"#utility.yul\":1879:1950   */\n      tag_142\n      jump\t// in\n    tag_207:\n        /* \"#utility.yul\":1735:1957   */\n      swap3\n      swap2\n      pop\n      pop\n      jump\t// out\n        /* \"#utility.yul\":1963:2085   */\n    tag_143:\n        /* \"#utility.yul\":2036:2060   */\n      tag_209\n        /* \"#utility.yul\":2054:2059   */\n      dup2\n        /* \"#utility.yul\":2036:2060   */\n      tag_140\n      jump\t// in\n    tag_209:\n        /* \"#utility.yul\":2029:2034   */\n      dup2\n        /* \"#utility.yul\":2026:2061   */\n      eq\n        /* \"#utility.yul\":2016:2079   */\n      tag_210\n      jumpi\n        /* \"#utility.yul\":2075:2076   */\n      0x00\n        /* \"#utility.yul\":2072:2073   */\n      dup1\n        /* \"#utility.yul\":2065:2077   */\n      revert\n        /* \"#utility.yul\":2016:2079   */\n    tag_210:\n        /* \"#utility.yul\":1963:2085   */\n      pop\n      jump\t// out\n        /* \"#utility.yul\":2091:2230   */\n    tag_144:\n        /* \"#utility.yul\":2137:2142   */\n      0x00\n        /* \"#utility.yul\":2175:2181   */\n      dup2\n        /* \"#utility.yul\":2162:2182   */\n      calldataload\n        /* \"#utility.yul\":2153:2182   */\n      swap1\n      pop\n        /* \"#utility.yul\":2191:2224   */\n      tag_212\n        /* \"#utility.yul\":2218:2223   */\n      dup2\n        /* \"#utility.yul\":2191:2224   */\n      tag_143\n      jump\t// in\n    tag_212:\n        /* \"#utility.yul\":2091:2230   */\n      swap3\n      swap2\n      pop\n      pop\n      jump\t// out\n        /* \"#utility.yul\":2236:2710   */\n    tag_47:\n        /* \"#utility.yul\":2304:2310   */\n      0x00\n        /* \"#utility.yul\":2312:2318   */\n      dup1\n        /* \"#utility.yul\":2361:2363   */\n      0x40\n        /* \"#utility.yul\":2349:2358   */\n      dup4\n        /* \"#utility.yul\":2340:2347   */\n      dup6\n        /* \"#utility.yul\":2336:2359   */\n      sub\n        /* \"#utility.yul\":2332:2364   */\n      slt\n        /* \"#utility.yul\":2329:2448   */\n      iszero\n      tag_214\n      jumpi\n        /* \"#utility.yul\":2367:2446   */\n      tag_215\n      tag_134\n      jump\t// in\n    tag_215:\n        /* \"#utility.yul\":2329:2448   */\n    tag_214:\n        /* \"#utility.yul\":2487:2488   */\n      0x00\n        /* \"#utility.yul\":2512:2565   */\n      tag_216\n        /* \"#utility.yul\":2557:2564   */\n      dup6\n        /* \"#utility.yul\":2548:2554   */\n      dup3\n        /* \"#utility.yul\":2537:2546   */\n      dup7\n        /* \"#utility.yul\":2533:2555   */\n      add\n        /* \"#utility.yul\":2512:2565   */\n      tag_139\n      jump\t// in\n    tag_216:\n        /* \"#utility.yul\":2502:2565   */\n      swap3\n      pop\n        /* \"#utility.yul\":2458:2575   */\n      pop\n        /* \"#utility.yul\":2614:2616   */\n      0x20\n        /* \"#utility.yul\":2640:2693   */\n      tag_217\n        /* \"#utility.yul\":2685:2692   */\n      dup6\n        /* \"#utility.yul\":2676:2682   */\n      dup3\n        /* \"#utility.yul\":2665:2674   */\n      dup7\n        /* \"#utility.yul\":2661:2683   */\n      add\n        /* \"#utility.yul\":2640:2693   */\n      tag_144\n      jump\t// in\n    tag_217:\n        /* \"#utility.yul\":2630:2693   */\n      swap2\n      pop\n        /* \"#utility.yul\":2585:2703   */\n      pop\n        /* \"#utility.yul\":2236:2710   */\n      swap3\n      pop\n      swap3\n      swap1\n      pop\n      jump\t// out\n        /* \"#utility.yul\":2716:2806   */\n    tag_145:\n        /* \"#utility.yul\":2750:2757   */\n      0x00\n        /* \"#utility.yul\":2793:2798   */\n      dup2\n        /* \"#utility.yul\":2786:2799   */\n      iszero\n        /* \"#utility.yul\":2779:2800   */\n      iszero\n        /* \"#utility.yul\":2768:2800   */\n      swap1\n      pop\n        /* \"#utility.yul\":2716:2806   */\n      swap2\n      swap1\n      pop\n      jump\t// out\n        /* \"#utility.yul\":2812:2921   */\n    tag_146:\n        /* \"#utility.yul\":2893:2914   */\n      tag_220\n        /* \"#utility.yul\":2908:2913   */\n      dup2\n        /* \"#utility.yul\":2893:2914   */\n      tag_145\n      jump\t// in\n    tag_220:\n        /* \"#utility.yul\":2888:2891   */\n      dup3\n        /* \"#utility.yul\":2881:2915   */\n      mstore\n        /* \"#utility.yul\":2812:2921   */\n      pop\n      pop\n      jump\t// out\n        /* \"#utility.yul\":2927:3137   */\n    tag_53:\n        /* \"#utility.yul\":3014:3018   */\n      0x00\n        /* \"#utility.yul\":3052:3054   */\n      0x20\n        /* \"#utility.yul\":3041:3050   */\n      dup3\n        /* \"#utility.yul\":3037:3055   */\n      add\n        /* \"#utility.yul\":3029:3055   */\n      swap1\n      pop\n        /* \"#utility.yul\":3065:3130   */\n      tag_222\n        /* \"#utility.yul\":3127:3128   */\n      0x00\n        /* \"#utility.yul\":3116:3125   */\n      dup4\n        /* \"#utility.yul\":3112:3129   */\n      add\n        /* \"#utility.yul\":3103:3109   */\n      dup5\n        /* \"#utility.yul\":3065:3130   */\n      tag_146\n      jump\t// in\n    tag_222:\n        /* \"#utility.yul\":2927:3137   */\n      swap3\n      swap2\n      pop\n      pop\n      jump\t// out\n        /* \"#utility.yul\":3143:3219   */\n    tag_147:\n        /* \"#utility.yul\":3179:3186   */\n      0x00\n        /* \"#utility.yul\":3208:3213   */\n      dup2\n        /* \"#utility.yul\":3197:3213   */\n      swap1\n      pop\n        /* \"#utility.yul\":3143:3219   */\n      swap2\n      swap1\n      pop\n      jump\t// out\n        /* \"#utility.yul\":3225:3340   */\n    tag_148:\n        /* \"#utility.yul\":3310:3333   */\n      tag_225\n        /* \"#utility.yul\":3327:3332   */\n      dup2\n        /* \"#utility.yul\":3310:3333   */\n      tag_147\n      jump\t// in\n    tag_225:\n        /* \"#utility.yul\":3305:3308   */\n      dup3\n        /* \"#utility.yul\":3298:3334   */\n      mstore\n        /* \"#utility.yul\":3225:3340   */\n      pop\n      pop\n      jump\t// out\n        /* \"#utility.yul\":3346:3564   */\n    tag_60:\n        /* \"#utility.yul\":3437:3441   */\n      0x00\n        /* \"#utility.yul\":3475:3477   */\n      0x20\n        /* \"#utility.yul\":3464:3473   */\n      dup3\n        /* \"#utility.yul\":3460:3478   */\n      add\n        /* \"#utility.yul\":3452:3478   */\n      swap1\n      pop\n        /* \"#utility.yul\":3488:3557   */\n      tag_227\n        /* \"#utility.yul\":3554:3555   */\n      0x00\n        /* \"#utility.yul\":3543:3552   */\n      dup4\n        /* \"#utility.yul\":3539:3556   */\n      add\n        /* \"#utility.yul\":3530:3536   */\n      dup5\n        /* \"#utility.yul\":3488:3557   */\n      tag_148\n      jump\t// in\n    tag_227:\n        /* \"#utility.yul\":3346:3564   */\n      swap3\n      swap2\n      pop\n      pop\n      jump\t// out\n        /* \"#utility.yul\":3570:3739   */\n    tag_149:\n        /* \"#utility.yul\":3654:3665   */\n      0x00\n        /* \"#utility.yul\":3688:3694   */\n      dup3\n        /* \"#utility.yul\":3683:3686   */\n      dup3\n        /* \"#utility.yul\":3676:3695   */\n      mstore\n        /* \"#utility.yul\":3728:3732   */\n      0x20\n        /* \"#utility.yul\":3723:3726   */\n      dup3\n        /* \"#utility.yul\":3719:3733   */\n      add\n        /* \"#utility.yul\":3704:3733   */\n      swap1\n      pop\n        /* \"#utility.yul\":3570:3739   */\n      swap3\n      swap2\n      pop\n      pop\n      jump\t// out\n        /* \"#utility.yul\":3745:3916   */\n    tag_150:\n        /* \"#utility.yul\":3885:3908   */\n      0x596f7520617265206e6f7420746865206f776e65720000000000000000000000\n        /* \"#utility.yul\":3881:3882   */\n      0x00\n        /* \"#utility.yul\":3873:3879   */\n      dup3\n        /* \"#utility.yul\":3869:3883   */\n      add\n        /* \"#utility.yul\":3862:3909   */\n      mstore\n        /* \"#utility.yul\":3745:3916   */\n      pop\n      jump\t// out\n        /* \"#utility.yul\":3922:4288   */\n    tag_151:\n        /* \"#utility.yul\":4064:4067   */\n      0x00\n        /* \"#utility.yul\":4085:4152   */\n      tag_231\n        /* \"#utility.yul\":4149:4151   */\n      0x15\n        /* \"#utility.yul\":4144:4147   */\n      dup4\n        /* \"#utility.yul\":4085:4152   */\n      tag_149\n      jump\t// in\n    tag_231:\n        /* \"#utility.yul\":4078:4152   */\n      swap2\n      pop\n        /* \"#utility.yul\":4161:4254   */\n      tag_232\n        /* \"#utility.yul\":4250:4253   */\n      dup3\n        /* \"#utility.yul\":4161:4254   */\n      tag_150\n      jump\t// in\n    tag_232:\n        /* \"#utility.yul\":4279:4281   */\n      0x20\n        /* \"#utility.yul\":4274:4277   */\n      dup3\n        /* \"#utility.yul\":4270:4282   */\n      add\n        /* \"#utility.yul\":4263:4282   */\n      swap1\n      pop\n        /* \"#utility.yul\":3922:4288   */\n      swap2\n      swap1\n      pop\n      jump\t// out\n        /* \"#utility.yul\":4294:4713   */\n    tag_64:\n        /* \"#utility.yul\":4460:4464   */\n      0x00\n        /* \"#utility.yul\":4498:4500   */\n      0x20\n        /* \"#utility.yul\":4487:4496   */\n      dup3\n        /* \"#utility.yul\":4483:4501   */\n      add\n        /* \"#utility.yul\":4475:4501   */\n      swap1\n      pop\n        /* \"#utility.yul\":4547:4556   */\n      dup2\n        /* \"#utility.yul\":4541:4545   */\n      dup2\n        /* \"#utility.yul\":4537:4557   */\n      sub\n        /* \"#utility.yul\":4533:4534   */\n      0x00\n        /* \"#utility.yul\":4522:4531   */\n      dup4\n        /* \"#utility.yul\":4518:4535   */\n      add\n        /* \"#utility.yul\":4511:4558   */\n      mstore\n        /* \"#utility.yul\":4575:4706   */\n      tag_234\n        /* \"#utility.yul\":4701:4705   */\n      dup2\n        /* \"#utility.yul\":4575:4706   */\n      tag_151\n      jump\t// in\n    tag_234:\n        /* \"#utility.yul\":4567:4706   */\n      swap1\n      pop\n        /* \"#utility.yul\":4294:4713   */\n      swap2\n      swap1\n      pop\n      jump\t// out\n        /* \"#utility.yul\":4719:4899   */\n    tag_152:\n        /* \"#utility.yul\":4767:4844   */\n      0x4e487b7100000000000000000000000000000000000000000000000000000000\n        /* \"#utility.yul\":4764:4765   */\n      0x00\n        /* \"#utility.yul\":4757:4845   */\n      mstore\n        /* \"#utility.yul\":4864:4868   */\n      0x11\n        /* \"#utility.yul\":4861:4862   */\n      0x04\n        /* \"#utility.yul\":4854:4869   */\n      mstore\n        /* \"#utility.yul\":4888:4892   */\n      0x24\n        /* \"#utility.yul\":4885:4886   */\n      0x00\n        /* \"#utility.yul\":4878:4893   */\n      revert\n        /* \"#utility.yul\":4905:5096   */\n    tag_67:\n        /* \"#utility.yul\":4945:4948   */\n      0x00\n        /* \"#utility.yul\":4964:4984   */\n      tag_237\n        /* \"#utility.yul\":4982:4983   */\n      dup3\n        /* \"#utility.yul\":4964:4984   */\n      tag_140\n      jump\t// in\n    tag_237:\n        /* \"#utility.yul\":4959:4984   */\n      swap2\n      pop\n        /* \"#utility.yul\":4998:5018   */\n      tag_238\n        /* \"#utility.yul\":5016:5017   */\n      dup4\n        /* \"#utility.yul\":4998:5018   */\n      tag_140\n      jump\t// in\n    tag_238:\n        /* \"#utility.yul\":4993:5018   */\n      swap3\n      pop\n        /* \"#utility.yul\":5041:5042   */\n      dup3\n        /* \"#utility.yul\":5038:5039   */\n      dup3\n        /* \"#utility.yul\":5034:5043   */\n      add\n        /* \"#utility.yul\":5027:5043   */\n      swap1\n      pop\n        /* \"#utility.yul\":5062:5065   */\n      dup1\n        /* \"#utility.yul\":5059:5060   */\n      dup3\n        /* \"#utility.yul\":5056:5066   */\n      gt\n        /* \"#utility.yul\":5053:5089   */\n      iszero\n      tag_239\n      jumpi\n        /* \"#utility.yul\":5069:5087   */\n      tag_240\n      tag_152\n      jump\t// in\n    tag_240:\n        /* \"#utility.yul\":5053:5089   */\n    tag_239:\n        /* \"#utility.yul\":4905:5096   */\n      swap3\n      swap2\n      pop\n      pop\n      jump\t// out\n        /* \"#utility.yul\":5102:5275   */\n    tag_153:\n        /* \"#utility.yul\":5242:5267   */\n      0x5468652066756e64206973206e6f7420656e6420796574000000000000000000\n        /* \"#utility.yul\":5238:5239   */\n      0x00\n        /* \"#utility.yul\":5230:5236   */\n      dup3\n        /* \"#utility.yul\":5226:5240   */\n      add\n        /* \"#utility.yul\":5219:5268   */\n      mstore\n        /* \"#utility.yul\":5102:5275   */\n      pop\n      jump\t// out\n        /* \"#utility.yul\":5281:5647   */\n    tag_154:\n        /* \"#utility.yul\":5423:5426   */\n      0x00\n        /* \"#utility.yul\":5444:5511   */\n      tag_243\n        /* \"#utility.yul\":5508:5510   */\n      0x17\n        /* \"#utility.yul\":5503:5506   */\n      dup4\n        /* \"#utility.yul\":5444:5511   */\n      tag_149\n      jump\t// in\n    tag_243:\n        /* \"#utility.yul\":5437:5511   */\n      swap2\n      pop\n        /* \"#utility.yul\":5520:5613   */\n      tag_244\n        /* \"#utility.yul\":5609:5612   */\n      dup3\n        /* \"#utility.yul\":5520:5613   */\n      tag_153\n      jump\t// in\n    tag_244:\n        /* \"#utility.yul\":5638:5640   */\n      0x20\n        /* \"#utility.yul\":5633:5636   */\n      dup3\n        /* \"#utility.yul\":5629:5641   */\n      add\n        /* \"#utility.yul\":5622:5641   */\n      swap1\n      pop\n        /* \"#utility.yul\":5281:5647   */\n      swap2\n      swap1\n      pop\n      jump\t// out\n        /* \"#utility.yul\":5653:6072   */\n    tag_70:\n        /* \"#utility.yul\":5819:5823   */\n      0x00\n        /* \"#utility.yul\":5857:5859   */\n      0x20\n        /* \"#utility.yul\":5846:5855   */\n      dup3\n        /* \"#utility.yul\":5842:5860   */\n      add\n        /* \"#utility.yul\":5834:5860   */\n      swap1\n      pop\n        /* \"#utility.yul\":5906:5915   */\n      dup2\n        /* \"#utility.yul\":5900:5904   */\n      dup2\n        /* \"#utility.yul\":5896:5916   */\n      sub\n        /* \"#utility.yul\":5892:5893   */\n      0x00\n        /* \"#utility.yul\":5881:5890   */\n      dup4\n        /* \"#utility.yul\":5877:5894   */\n      add\n        /* \"#utility.yul\":5870:5917   */\n      mstore\n        /* \"#utility.yul\":5934:6065   */\n      tag_246\n        /* \"#utility.yul\":6060:6064   */\n      dup2\n        /* \"#utility.yul\":5934:6065   */\n      tag_154\n      jump\t// in\n    tag_246:\n        /* \"#utility.yul\":5926:6065   */\n      swap1\n      pop\n        /* \"#utility.yul\":5653:6072   */\n      swap2\n      swap1\n      pop\n      jump\t// out\n        /* \"#utility.yul\":6078:6247   */\n    tag_155:\n        /* \"#utility.yul\":6218:6239   */\n      0x54686520676f616c206973207265616368656400000000000000000000000000\n        /* \"#utility.yul\":6214:6215   */\n      0x00\n        /* \"#utility.yul\":6206:6212   */\n      dup3\n        /* \"#utility.yul\":6202:6216   */\n      add\n        /* \"#utility.yul\":6195:6240   */\n      mstore\n        /* \"#utility.yul\":6078:6247   */\n      pop\n      jump\t// out\n        /* \"#utility.yul\":6253:6619   */\n    tag_156:\n        /* \"#utility.yul\":6395:6398   */\n      0x00\n        /* \"#utility.yul\":6416:6483   */\n      tag_249\n        /* \"#utility.yul\":6480:6482   */\n      0x13\n        /* \"#utility.yul\":6475:6478   */\n      dup4\n        /* \"#utility.yul\":6416:6483   */\n      tag_149\n      jump\t// in\n    tag_249:\n        /* \"#utility.yul\":6409:6483   */\n      swap2\n      pop\n        /* \"#utility.yul\":6492:6585   */\n      tag_250\n        /* \"#utility.yul\":6581:6584   */\n      dup3\n        /* \"#utility.yul\":6492:6585   */\n      tag_155\n      jump\t// in\n    tag_250:\n        /* \"#utility.yul\":6610:6612   */\n      0x20\n        /* \"#utility.yul\":6605:6608   */\n      dup3\n        /* \"#utility.yul\":6601:6613   */\n      add\n        /* \"#utility.yul\":6594:6613   */\n      swap1\n      pop\n        /* \"#utility.yul\":6253:6619   */\n      swap2\n      swap1\n      pop\n      jump\t// out\n        /* \"#utility.yul\":6625:7044   */\n    tag_76:\n        /* \"#utility.yul\":6791:6795   */\n      0x00\n        /* \"#utility.yul\":6829:6831   */\n      0x20\n        /* \"#utility.yul\":6818:6827   */\n      dup3\n        /* \"#utility.yul\":6814:6832   */\n      add\n        /* \"#utility.yul\":6806:6832   */\n      swap1\n      pop\n        /* \"#utility.yul\":6878:6887   */\n      dup2\n        /* \"#utility.yul\":6872:6876   */\n      dup2\n        /* \"#utility.yul\":6868:6888   */\n      sub\n        /* \"#utility.yul\":6864:6865   */\n      0x00\n        /* \"#utility.yul\":6853:6862   */\n      dup4\n        /* \"#utility.yul\":6849:6866   */\n      add\n        /* \"#utility.yul\":6842:6889   */\n      mstore\n        /* \"#utility.yul\":6906:7037   */\n      tag_252\n        /* \"#utility.yul\":7032:7036   */\n      dup2\n        /* \"#utility.yul\":6906:7037   */\n      tag_156\n      jump\t// in\n    tag_252:\n        /* \"#utility.yul\":6898:7037   */\n      swap1\n      pop\n        /* \"#utility.yul\":6625:7044   */\n      swap2\n      swap1\n      pop\n      jump\t// out\n        /* \"#utility.yul\":7050:7217   */\n    tag_157:\n        /* \"#utility.yul\":7190:7209   */\n      0x596f752068617665206e6f742066756e64000000000000000000000000000000\n        /* \"#utility.yul\":7186:7187   */\n      0x00\n        /* \"#utility.yul\":7178:7184   */\n      dup3\n        /* \"#utility.yul\":7174:7188   */\n      add\n        /* \"#utility.yul\":7167:7210   */\n      mstore\n        /* \"#utility.yul\":7050:7217   */\n      pop\n      jump\t// out\n        /* \"#utility.yul\":7223:7589   */\n    tag_158:\n        /* \"#utility.yul\":7365:7368   */\n      0x00\n        /* \"#utility.yul\":7386:7453   */\n      tag_255\n        /* \"#utility.yul\":7450:7452   */\n      0x11\n        /* \"#utility.yul\":7445:7448   */\n      dup4\n        /* \"#utility.yul\":7386:7453   */\n      tag_149\n      jump\t// in\n    tag_255:\n        /* \"#utility.yul\":7379:7453   */\n      swap2\n      pop\n        /* \"#utility.yul\":7462:7555   */\n      tag_256\n        /* \"#utility.yul\":7551:7554   */\n      dup3\n        /* \"#utility.yul\":7462:7555   */\n      tag_157\n      jump\t// in\n    tag_256:\n        /* \"#utility.yul\":7580:7582   */\n      0x20\n        /* \"#utility.yul\":7575:7578   */\n      dup3\n        /* \"#utility.yul\":7571:7583   */\n      add\n        /* \"#utility.yul\":7564:7583   */\n      swap1\n      pop\n        /* \"#utility.yul\":7223:7589   */\n      swap2\n      swap1\n      pop\n      jump\t// out\n        /* \"#utility.yul\":7595:8014   */\n    tag_79:\n        /* \"#utility.yul\":7761:7765   */\n      0x00\n        /* \"#utility.yul\":7799:7801   */\n      0x20\n        /* \"#utility.yul\":7788:7797   */\n      dup3\n        /* \"#utility.yul\":7784:7802   */\n      add\n        /* \"#utility.yul\":7776:7802   */\n      swap1\n      pop\n        /* \"#utility.yul\":7848:7857   */\n      dup2\n        /* \"#utility.yul\":7842:7846   */\n      dup2\n        /* \"#utility.yul\":7838:7858   */\n      sub\n        /* \"#utility.yul\":7834:7835   */\n      0x00\n        /* \"#utility.yul\":7823:7832   */\n      dup4\n        /* \"#utility.yul\":7819:7836   */\n      add\n        /* \"#utility.yul\":7812:7859   */\n      mstore\n        /* \"#utility.yul\":7876:8007   */\n      tag_258\n        /* \"#utility.yul\":8002:8006   */\n      dup2\n        /* \"#utility.yul\":7876:8007   */\n      tag_158\n      jump\t// in\n    tag_258:\n        /* \"#utility.yul\":7868:8007   */\n      swap1\n      pop\n        /* \"#utility.yul\":7595:8014   */\n      swap2\n      swap1\n      pop\n      jump\t// out\n        /* \"#utility.yul\":8020:8167   */\n    tag_159:\n        /* \"#utility.yul\":8121:8132   */\n      0x00\n        /* \"#utility.yul\":8158:8161   */\n      dup2\n        /* \"#utility.yul\":8143:8161   */\n      swap1\n      pop\n        /* \"#utility.yul\":8020:8167   */\n      swap3\n      swap2\n      pop\n      pop\n      jump\t// out\n        /* \"#utility.yul\":8173:8287   */\n    tag_160:\n      pop\n      jump\t// out\n        /* \"#utility.yul\":8293:8691   */\n    tag_161:\n        /* \"#utility.yul\":8452:8455   */\n      0x00\n        /* \"#utility.yul\":8473:8556   */\n      tag_262\n        /* \"#utility.yul\":8554:8555   */\n      0x00\n        /* \"#utility.yul\":8549:8552   */\n      dup4\n        /* \"#utility.yul\":8473:8556   */\n      tag_159\n      jump\t// in\n    tag_262:\n        /* \"#utility.yul\":8466:8556   */\n      swap2\n      pop\n        /* \"#utility.yul\":8565:8658   */\n      tag_263\n        /* \"#utility.yul\":8654:8657   */\n      dup3\n        /* \"#utility.yul\":8565:8658   */\n      tag_160\n      jump\t// in\n    tag_263:\n        /* \"#utility.yul\":8683:8684   */\n      0x00\n        /* \"#utility.yul\":8678:8681   */\n      dup3\n        /* \"#utility.yul\":8674:8685   */\n      add\n        /* \"#utility.yul\":8667:8685   */\n      swap1\n      pop\n        /* \"#utility.yul\":8293:8691   */\n      swap2\n      swap1\n      pop\n      jump\t// out\n        /* \"#utility.yul\":8697:9076   */\n    tag_81:\n        /* \"#utility.yul\":8881:8884   */\n      0x00\n        /* \"#utility.yul\":8903:9050   */\n      tag_265\n        /* \"#utility.yul\":9046:9049   */\n      dup3\n        /* \"#utility.yul\":8903:9050   */\n      tag_161\n      jump\t// in\n    tag_265:\n        /* \"#utility.yul\":8896:9050   */\n      swap2\n      pop\n        /* \"#utility.yul\":9067:9070   */\n      dup2\n        /* \"#utility.yul\":9060:9070   */\n      swap1\n      pop\n        /* \"#utility.yul\":8697:9076   */\n      swap2\n      swap1\n      pop\n      jump\t// out\n        /* \"#utility.yul\":9082:9245   */\n    tag_162:\n        /* \"#utility.yul\":9222:9237   */\n      0x526566756e64206661696c656400000000000000000000000000000000000000\n        /* \"#utility.yul\":9218:9219   */\n      0x00\n        /* \"#utility.yul\":9210:9216   */\n      dup3\n        /* \"#utility.yul\":9206:9220   */\n      add\n        /* \"#utility.yul\":9199:9238   */\n      mstore\n        /* \"#utility.yul\":9082:9245   */\n      pop\n      jump\t// out\n        /* \"#utility.yul\":9251:9617   */\n    tag_163:\n        /* \"#utility.yul\":9393:9396   */\n      0x00\n        /* \"#utility.yul\":9414:9481   */\n      tag_268\n        /* \"#utility.yul\":9478:9480   */\n      0x0d\n        /* \"#utility.yul\":9473:9476   */\n      dup4\n        /* \"#utility.yul\":9414:9481   */\n      tag_149\n      jump\t// in\n    tag_268:\n        /* \"#utility.yul\":9407:9481   */\n      swap2\n      pop\n        /* \"#utility.yul\":9490:9583   */\n      tag_269\n        /* \"#utility.yul\":9579:9582   */\n      dup3\n        /* \"#utility.yul\":9490:9583   */\n      tag_162\n      jump\t// in\n    tag_269:\n        /* \"#utility.yul\":9608:9610   */\n      0x20\n        /* \"#utility.yul\":9603:9606   */\n      dup3\n        /* \"#utility.yul\":9599:9611   */\n      add\n        /* \"#utility.yul\":9592:9611   */\n      swap1\n      pop\n        /* \"#utility.yul\":9251:9617   */\n      swap2\n      swap1\n      pop\n      jump\t// out\n        /* \"#utility.yul\":9623:10042   */\n    tag_87:\n        /* \"#utility.yul\":9789:9793   */\n      0x00\n        /* \"#utility.yul\":9827:9829   */\n      0x20\n        /* \"#utility.yul\":9816:9825   */\n      dup3\n        /* \"#utility.yul\":9812:9830   */\n      add\n        /* \"#utility.yul\":9804:9830   */\n      swap1\n      pop\n        /* \"#utility.yul\":9876:9885   */\n      dup2\n        /* \"#utility.yul\":9870:9874   */\n      dup2\n        /* \"#utility.yul\":9866:9886   */\n      sub\n        /* \"#utility.yul\":9862:9863   */\n      0x00\n        /* \"#utility.yul\":9851:9860   */\n      dup4\n        /* \"#utility.yul\":9847:9864   */\n      add\n        /* \"#utility.yul\":9840:9887   */\n      mstore\n        /* \"#utility.yul\":9904:10035   */\n      tag_271\n        /* \"#utility.yul\":10030:10034   */\n      dup2\n        /* \"#utility.yul\":9904:10035   */\n      tag_163\n      jump\t// in\n    tag_271:\n        /* \"#utility.yul\":9896:10035   */\n      swap1\n      pop\n        /* \"#utility.yul\":9623:10042   */\n      swap2\n      swap1\n      pop\n      jump\t// out\n        /* \"#utility.yul\":10048:10221   */\n    tag_164:\n        /* \"#utility.yul\":10188:10213   */\n      0x54686520676f616c206973206e6f742072656163686564000000000000000000\n        /* \"#utility.yul\":10184:10185   */\n      0x00\n        /* \"#utility.yul\":10176:10182   */\n      dup3\n        /* \"#utility.yul\":10172:10186   */\n      add\n        /* \"#utility.yul\":10165:10214   */\n      mstore\n        /* \"#utility.yul\":10048:10221   */\n      pop\n      jump\t// out\n        /* \"#utility.yul\":10227:10593   */\n    tag_165:\n        /* \"#utility.yul\":10369:10372   */\n      0x00\n        /* \"#utility.yul\":10390:10457   */\n      tag_274\n        /* \"#utility.yul\":10454:10456   */\n      0x17\n        /* \"#utility.yul\":10449:10452   */\n      dup4\n        /* \"#utility.yul\":10390:10457   */\n      tag_149\n      jump\t// in\n    tag_274:\n        /* \"#utility.yul\":10383:10457   */\n      swap2\n      pop\n        /* \"#utility.yul\":10466:10559   */\n      tag_275\n        /* \"#utility.yul\":10555:10558   */\n      dup3\n        /* \"#utility.yul\":10466:10559   */\n      tag_164\n      jump\t// in\n    tag_275:\n        /* \"#utility.yul\":10584:10586   */\n      0x20\n        /* \"#utility.yul\":10579:10582   */\n      dup3\n        /* \"#utility.yul\":10575:10587   */\n      add\n        /* \"#utility.yul\":10568:10587   */\n      swap1\n      pop\n        /* \"#utility.yul\":10227:10593   */\n      swap2\n      swap1\n      pop\n      jump\t// out\n        /* \"#utility.yul\":10599:11018   */\n    tag_98:\n        /* \"#utility.yul\":10765:10769   */\n      0x00\n        /* \"#utility.yul\":10803:10805   */\n      0x20\n        /* \"#utility.yul\":10792:10801   */\n      dup3\n        /* \"#utility.yul\":10788:10806   */\n      add\n        /* \"#utility.yul\":10780:10806   */\n      swap1\n      pop\n        /* \"#utility.yul\":10852:10861   */\n      dup2\n        /* \"#utility.yul\":10846:10850   */\n      dup2\n        /* \"#utility.yul\":10842:10862   */\n      sub\n        /* \"#utility.yul\":10838:10839   */\n      0x00\n        /* \"#utility.yul\":10827:10836   */\n      dup4\n        /* \"#utility.yul\":10823:10840   */\n      add\n        /* \"#utility.yul\":10816:10863   */\n      mstore\n        /* \"#utility.yul\":10880:11011   */\n      tag_277\n        /* \"#utility.yul\":11006:11010   */\n      dup2\n        /* \"#utility.yul\":10880:11011   */\n      tag_165\n      jump\t// in\n    tag_277:\n        /* \"#utility.yul\":10872:11011   */\n      swap1\n      pop\n        /* \"#utility.yul\":10599:11018   */\n      swap2\n      swap1\n      pop\n      jump\t// out\n        /* \"#utility.yul\":11024:11189   */\n    tag_166:\n        /* \"#utility.yul\":11164:11181   */\n      0x4765742066756e64206661696c65640000000000000000000000000000000000\n        /* \"#utility.yul\":11160:11161   */\n      0x00\n        /* \"#utility.yul\":11152:11158   */\n      dup3\n        /* \"#utility.yul\":11148:11162   */\n      add\n        /* \"#utility.yul\":11141:11182   */\n      mstore\n        /* \"#utility.yul\":11024:11189   */\n      pop\n      jump\t// out\n        /* \"#utility.yul\":11195:11561   */\n    tag_167:\n        /* \"#utility.yul\":11337:11340   */\n      0x00\n        /* \"#utility.yul\":11358:11425   */\n      tag_280\n        /* \"#utility.yul\":11422:11424   */\n      0x0f\n        /* \"#utility.yul\":11417:11420   */\n      dup4\n        /* \"#utility.yul\":11358:11425   */\n      tag_149\n      jump\t// in\n    tag_280:\n        /* \"#utility.yul\":11351:11425   */\n      swap2\n      pop\n        /* \"#utility.yul\":11434:11527   */\n      tag_281\n        /* \"#utility.yul\":11523:11526   */\n      dup3\n        /* \"#utility.yul\":11434:11527   */\n      tag_166\n      jump\t// in\n    tag_281:\n        /* \"#utility.yul\":11552:11554   */\n      0x20\n        /* \"#utility.yul\":11547:11550   */\n      dup3\n        /* \"#utility.yul\":11543:11555   */\n      add\n        /* \"#utility.yul\":11536:11555   */\n      swap1\n      pop\n        /* \"#utility.yul\":11195:11561   */\n      swap2\n      swap1\n      pop\n      jump\t// out\n        /* \"#utility.yul\":11567:11986   */\n    tag_105:\n        /* \"#utility.yul\":11733:11737   */\n      0x00\n        /* \"#utility.yul\":11771:11773   */\n      0x20\n        /* \"#utility.yul\":11760:11769   */\n      dup3\n        /* \"#utility.yul\":11756:11774   */\n      add\n        /* \"#utility.yul\":11748:11774   */\n      swap1\n      pop\n        /* \"#utility.yul\":11820:11829   */\n      dup2\n        /* \"#utility.yul\":11814:11818   */\n      dup2\n        /* \"#utility.yul\":11810:11830   */\n      sub\n        /* \"#utility.yul\":11806:11807   */\n      0x00\n        /* \"#utility.yul\":11795:11804   */\n      dup4\n        /* \"#utility.yul\":11791:11808   */\n      add\n        /* \"#utility.yul\":11784:11831   */\n      mstore\n        /* \"#utility.yul\":11848:11979   */\n      tag_283\n        /* \"#utility.yul\":11974:11978   */\n      dup2\n        /* \"#utility.yul\":11848:11979   */\n      tag_167\n      jump\t// in\n    tag_283:\n        /* \"#utility.yul\":11840:11979   */\n      swap1\n      pop\n        /* \"#utility.yul\":11567:11986   */\n      swap2\n      swap1\n      pop\n      jump\t// out\n        /* \"#utility.yul\":11992:12169   */\n    tag_168:\n        /* \"#utility.yul\":12132:12161   */\n      0x596f752063616e206e6f7420696e766f6b652074686973206170690000000000\n        /* \"#utility.yul\":12128:12129   */\n      0x00\n        /* \"#utility.yul\":12120:12126   */\n      dup3\n        /* \"#utility.yul\":12116:12130   */\n      add\n        /* \"#utility.yul\":12109:12162   */\n      mstore\n        /* \"#utility.yul\":11992:12169   */\n      pop\n      jump\t// out\n        /* \"#utility.yul\":12175:12541   */\n    tag_169:\n        /* \"#utility.yul\":12317:12320   */\n      0x00\n        /* \"#utility.yul\":12338:12405   */\n      tag_286\n        /* \"#utility.yul\":12402:12404   */\n      0x1b\n        /* \"#utility.yul\":12397:12400   */\n      dup4\n        /* \"#utility.yul\":12338:12405   */\n      tag_149\n      jump\t// in\n    tag_286:\n        /* \"#utility.yul\":12331:12405   */\n      swap2\n      pop\n        /* \"#utility.yul\":12414:12507   */\n      tag_287\n        /* \"#utility.yul\":12503:12506   */\n      dup3\n        /* \"#utility.yul\":12414:12507   */\n      tag_168\n      jump\t// in\n    tag_287:\n        /* \"#utility.yul\":12532:12534   */\n      0x20\n        /* \"#utility.yul\":12527:12530   */\n      dup3\n        /* \"#utility.yul\":12523:12535   */\n      add\n        /* \"#utility.yul\":12516:12535   */\n      swap1\n      pop\n        /* \"#utility.yul\":12175:12541   */\n      swap2\n      swap1\n      pop\n      jump\t// out\n        /* \"#utility.yul\":12547:12966   */\n    tag_109:\n        /* \"#utility.yul\":12713:12717   */\n      0x00\n        /* \"#utility.yul\":12751:12753   */\n      0x20\n        /* \"#utility.yul\":12740:12749   */\n      dup3\n        /* \"#utility.yul\":12736:12754   */\n      add\n        /* \"#utility.yul\":12728:12754   */\n      swap1\n      pop\n        /* \"#utility.yul\":12800:12809   */\n      dup2\n        /* \"#utility.yul\":12794:12798   */\n      dup2\n        /* \"#utility.yul\":12790:12810   */\n      sub\n        /* \"#utility.yul\":12786:12787   */\n      0x00\n        /* \"#utility.yul\":12775:12784   */\n      dup4\n        /* \"#utility.yul\":12771:12788   */\n      add\n        /* \"#utility.yul\":12764:12811   */\n      mstore\n        /* \"#utility.yul\":12828:12959   */\n      tag_289\n        /* \"#utility.yul\":12954:12958   */\n      dup2\n        /* \"#utility.yul\":12828:12959   */\n      tag_169\n      jump\t// in\n    tag_289:\n        /* \"#utility.yul\":12820:12959   */\n      swap1\n      pop\n        /* \"#utility.yul\":12547:12966   */\n      swap2\n      swap1\n      pop\n      jump\t// out\n        /* \"#utility.yul\":12972:13146   */\n    tag_170:\n        /* \"#utility.yul\":13112:13138   */\n      0x5468652066756e6420686173206e6f7420737461727465640000000000000000\n        /* \"#utility.yul\":13108:13109   */\n      0x00\n        /* \"#utility.yul\":13100:13106   */\n      dup3\n        /* \"#utility.yul\":13096:13110   */\n      add\n        /* \"#utility.yul\":13089:13139   */\n      mstore\n        /* \"#utility.yul\":12972:13146   */\n      pop\n      jump\t// out\n        /* \"#utility.yul\":13152:13518   */\n    tag_171:\n        /* \"#utility.yul\":13294:13297   */\n      0x00\n        /* \"#utility.yul\":13315:13382   */\n      tag_292\n        /* \"#utility.yul\":13379:13381   */\n      0x18\n        /* \"#utility.yul\":13374:13377   */\n      dup4\n        /* \"#utility.yul\":13315:13382   */\n      tag_149\n      jump\t// in\n    tag_292:\n        /* \"#utility.yul\":13308:13382   */\n      swap2\n      pop\n        /* \"#utility.yul\":13391:13484   */\n      tag_293\n        /* \"#utility.yul\":13480:13483   */\n      dup3\n        /* \"#utility.yul\":13391:13484   */\n      tag_170\n      jump\t// in\n    tag_293:\n        /* \"#utility.yul\":13509:13511   */\n      0x20\n        /* \"#utility.yul\":13504:13507   */\n      dup3\n        /* \"#utility.yul\":13500:13512   */\n      add\n        /* \"#utility.yul\":13493:13512   */\n      swap1\n      pop\n        /* \"#utility.yul\":13152:13518   */\n      swap2\n      swap1\n      pop\n      jump\t// out\n        /* \"#utility.yul\":13524:13943   */\n    tag_113:\n        /* \"#utility.yul\":13690:13694   */\n      0x00\n        /* \"#utility.yul\":13728:13730   */\n      0x20\n        /* \"#utility.yul\":13717:13726   */\n      dup3\n        /* \"#utility.yul\":13713:13731   */\n      add\n        /* \"#utility.yul\":13705:13731   */\n      swap1\n      pop\n        /* \"#utility.yul\":13777:13786   */\n      dup2\n        /* \"#utility.yul\":13771:13775   */\n      dup2\n        /* \"#utility.yul\":13767:13787   */\n      sub\n        /* \"#utility.yul\":13763:13764   */\n      0x00\n        /* \"#utility.yul\":13752:13761   */\n      dup4\n        /* \"#utility.yul\":13748:13765   */\n      add\n        /* \"#utility.yul\":13741:13788   */\n      mstore\n        /* \"#utility.yul\":13805:13936   */\n      tag_295\n        /* \"#utility.yul\":13931:13935   */\n      dup2\n        /* \"#utility.yul\":13805:13936   */\n      tag_171\n      jump\t// in\n    tag_295:\n        /* \"#utility.yul\":13797:13936   */\n      swap1\n      pop\n        /* \"#utility.yul\":13524:13943   */\n      swap2\n      swap1\n      pop\n      jump\t// out\n        /* \"#utility.yul\":13949:14114   */\n    tag_172:\n        /* \"#utility.yul\":14089:14106   */\n      0x5468652066756e6420697320656e640000000000000000000000000000000000\n        /* \"#utility.yul\":14085:14086   */\n      0x00\n        /* \"#utility.yul\":14077:14083   */\n      dup3\n        /* \"#utility.yul\":14073:14087   */\n      add\n        /* \"#utility.yul\":14066:14107   */\n      mstore\n        /* \"#utility.yul\":13949:14114   */\n      pop\n      jump\t// out\n        /* \"#utility.yul\":14120:14486   */\n    tag_173:\n        /* \"#utility.yul\":14262:14265   */\n      0x00\n        /* \"#utility.yul\":14283:14350   */\n      tag_298\n        /* \"#utility.yul\":14347:14349   */\n      0x0f\n        /* \"#utility.yul\":14342:14345   */\n      dup4\n        /* \"#utility.yul\":14283:14350   */\n      tag_149\n      jump\t// in\n    tag_298:\n        /* \"#utility.yul\":14276:14350   */\n      swap2\n      pop\n        /* \"#utility.yul\":14359:14452   */\n      tag_299\n        /* \"#utility.yul\":14448:14451   */\n      dup3\n        /* \"#utility.yul\":14359:14452   */\n      tag_172\n      jump\t// in\n    tag_299:\n        /* \"#utility.yul\":14477:14479   */\n      0x20\n        /* \"#utility.yul\":14472:14475   */\n      dup3\n        /* \"#utility.yul\":14468:14480   */\n      add\n        /* \"#utility.yul\":14461:14480   */\n      swap1\n      pop\n        /* \"#utility.yul\":14120:14486   */\n      swap2\n      swap1\n      pop\n      jump\t// out\n        /* \"#utility.yul\":14492:14911   */\n    tag_117:\n        /* \"#utility.yul\":14658:14662   */\n      0x00\n        /* \"#utility.yul\":14696:14698   */\n      0x20\n        /* \"#utility.yul\":14685:14694   */\n      dup3\n        /* \"#utility.yul\":14681:14699   */\n      add\n        /* \"#utility.yul\":14673:14699   */\n      swap1\n      pop\n        /* \"#utility.yul\":14745:14754   */\n      dup2\n        /* \"#utility.yul\":14739:14743   */\n      dup2\n        /* \"#utility.yul\":14735:14755   */\n      sub\n        /* \"#utility.yul\":14731:14732   */\n      0x00\n        /* \"#utility.yul\":14720:14729   */\n      dup4\n        /* \"#utility.yul\":14716:14733   */\n      add\n        /* \"#utility.yul\":14709:14756   */\n      mstore\n        /* \"#utility.yul\":14773:14904   */\n      tag_301\n        /* \"#utility.yul\":14899:14903   */\n      dup2\n        /* \"#utility.yul\":14773:14904   */\n      tag_173\n      jump\t// in\n    tag_301:\n        /* \"#utility.yul\":14765:14904   */\n      swap1\n      pop\n        /* \"#utility.yul\":14492:14911   */\n      swap2\n      swap1\n      pop\n      jump\t// out\n        /* \"#utility.yul\":14917:15091   */\n    tag_174:\n        /* \"#utility.yul\":15057:15083   */\n      0x596f75206e65656420746f20706179206d6f7265204554480000000000000000\n        /* \"#utility.yul\":15053:15054   */\n      0x00\n        /* \"#utility.yul\":15045:15051   */\n      dup3\n        /* \"#utility.yul\":15041:15055   */\n      add\n        /* \"#utility.yul\":15034:15084   */\n      mstore\n        /* \"#utility.yul\":14917:15091   */\n      pop\n      jump\t// out\n        /* \"#utility.yul\":15097:15463   */\n    tag_175:\n        /* \"#utility.yul\":15239:15242   */\n      0x00\n        /* \"#utility.yul\":15260:15327   */\n      tag_304\n        /* \"#utility.yul\":15324:15326   */\n      0x18\n        /* \"#utility.yul\":15319:15322   */\n      dup4\n        /* \"#utility.yul\":15260:15327   */\n      tag_149\n      jump\t// in\n    tag_304:\n        /* \"#utility.yul\":15253:15327   */\n      swap2\n      pop\n        /* \"#utility.yul\":15336:15429   */\n      tag_305\n        /* \"#utility.yul\":15425:15428   */\n      dup3\n        /* \"#utility.yul\":15336:15429   */\n      tag_174\n      jump\t// in\n    tag_305:\n        /* \"#utility.yul\":15454:15456   */\n      0x20\n        /* \"#utility.yul\":15449:15452   */\n      dup3\n        /* \"#utility.yul\":15445:15457   */\n      add\n        /* \"#utility.yul\":15438:15457   */\n      swap1\n      pop\n        /* \"#utility.yul\":15097:15463   */\n      swap2\n      swap1\n      pop\n      jump\t// out\n        /* \"#utility.yul\":15469:15888   */\n    tag_121:\n        /* \"#utility.yul\":15635:15639   */\n      0x00\n        /* \"#utility.yul\":15673:15675   */\n      0x20\n        /* \"#utility.yul\":15662:15671   */\n      dup3\n        /* \"#utility.yul\":15658:15676   */\n      add\n        /* \"#utility.yul\":15650:15676   */\n      swap1\n      pop\n        /* \"#utility.yul\":15722:15731   */\n      dup2\n        /* \"#utility.yul\":15716:15720   */\n      dup2\n        /* \"#utility.yul\":15712:15732   */\n      sub\n        /* \"#utility.yul\":15708:15709   */\n      0x00\n        /* \"#utility.yul\":15697:15706   */\n      dup4\n        /* \"#utility.yul\":15693:15710   */\n      add\n        /* \"#utility.yul\":15686:15733   */\n      mstore\n        /* \"#utility.yul\":15750:15881   */\n      tag_307\n        /* \"#utility.yul\":15876:15880   */\n      dup2\n        /* \"#utility.yul\":15750:15881   */\n      tag_175\n      jump\t// in\n    tag_307:\n        /* \"#utility.yul\":15742:15881   */\n      swap1\n      pop\n        /* \"#utility.yul\":15469:15888   */\n      swap2\n      swap1\n      pop\n      jump\t// out\n        /* \"#utility.yul\":15894:15999   */\n    tag_176:\n        /* \"#utility.yul\":15930:15937   */\n      0x00\n        /* \"#utility.yul\":15970:15992   */\n      0xffffffffffffffffffff\n        /* \"#utility.yul\":15963:15968   */\n      dup3\n        /* \"#utility.yul\":15959:15993   */\n      and\n        /* \"#utility.yul\":15948:15993   */\n      swap1\n      pop\n        /* \"#utility.yul\":15894:15999   */\n      swap2\n      swap1\n      pop\n      jump\t// out\n        /* \"#utility.yul\":16005:16125   */\n    tag_177:\n        /* \"#utility.yul\":16077:16100   */\n      tag_310\n        /* \"#utility.yul\":16094:16099   */\n      dup2\n        /* \"#utility.yul\":16077:16100   */\n      tag_176\n      jump\t// in\n    tag_310:\n        /* \"#utility.yul\":16070:16075   */\n      dup2\n        /* \"#utility.yul\":16067:16101   */\n      eq\n        /* \"#utility.yul\":16057:16119   */\n      tag_311\n      jumpi\n        /* \"#utility.yul\":16115:16116   */\n      0x00\n        /* \"#utility.yul\":16112:16113   */\n      dup1\n        /* \"#utility.yul\":16105:16117   */\n      revert\n        /* \"#utility.yul\":16057:16119   */\n    tag_311:\n        /* \"#utility.yul\":16005:16125   */\n      pop\n      jump\t// out\n        /* \"#utility.yul\":16131:16272   */\n    tag_178:\n        /* \"#utility.yul\":16187:16192   */\n      0x00\n        /* \"#utility.yul\":16218:16224   */\n      dup2\n        /* \"#utility.yul\":16212:16225   */\n      mload\n        /* \"#utility.yul\":16203:16225   */\n      swap1\n      pop\n        /* \"#utility.yul\":16234:16266   */\n      tag_313\n        /* \"#utility.yul\":16260:16265   */\n      dup2\n        /* \"#utility.yul\":16234:16266   */\n      tag_177\n      jump\t// in\n    tag_313:\n        /* \"#utility.yul\":16131:16272   */\n      swap3\n      swap2\n      pop\n      pop\n      jump\t// out\n        /* \"#utility.yul\":16278:16398   */\n    tag_179:\n        /* \"#utility.yul\":16350:16373   */\n      tag_315\n        /* \"#utility.yul\":16367:16372   */\n      dup2\n        /* \"#utility.yul\":16350:16373   */\n      tag_147\n      jump\t// in\n    tag_315:\n        /* \"#utility.yul\":16343:16348   */\n      dup2\n        /* \"#utility.yul\":16340:16374   */\n      eq\n        /* \"#utility.yul\":16330:16392   */\n      tag_316\n      jumpi\n        /* \"#utility.yul\":16388:16389   */\n      0x00\n        /* \"#utility.yul\":16385:16386   */\n      dup1\n        /* \"#utility.yul\":16378:16390   */\n      revert\n        /* \"#utility.yul\":16330:16392   */\n    tag_316:\n        /* \"#utility.yul\":16278:16398   */\n      pop\n      jump\t// out\n        /* \"#utility.yul\":16404:16545   */\n    tag_180:\n        /* \"#utility.yul\":16460:16465   */\n      0x00\n        /* \"#utility.yul\":16491:16497   */\n      dup2\n        /* \"#utility.yul\":16485:16498   */\n      mload\n        /* \"#utility.yul\":16476:16498   */\n      swap1\n      pop\n        /* \"#utility.yul\":16507:16539   */\n      tag_318\n        /* \"#utility.yul\":16533:16538   */\n      dup2\n        /* \"#utility.yul\":16507:16539   */\n      tag_179\n      jump\t// in\n    tag_318:\n        /* \"#utility.yul\":16404:16545   */\n      swap3\n      swap2\n      pop\n      pop\n      jump\t// out\n        /* \"#utility.yul\":16551:16694   */\n    tag_181:\n        /* \"#utility.yul\":16608:16613   */\n      0x00\n        /* \"#utility.yul\":16639:16645   */\n      dup2\n        /* \"#utility.yul\":16633:16646   */\n      mload\n        /* \"#utility.yul\":16624:16646   */\n      swap1\n      pop\n        /* \"#utility.yul\":16655:16688   */\n      tag_320\n        /* \"#utility.yul\":16682:16687   */\n      dup2\n        /* \"#utility.yul\":16655:16688   */\n      tag_143\n      jump\t// in\n    tag_320:\n        /* \"#utility.yul\":16551:16694   */\n      swap3\n      swap2\n      pop\n      pop\n      jump\t// out\n        /* \"#utility.yul\":16700:17671   */\n    tag_126:\n        /* \"#utility.yul\":16803:16809   */\n      0x00\n        /* \"#utility.yul\":16811:16817   */\n      dup1\n        /* \"#utility.yul\":16819:16825   */\n      0x00\n        /* \"#utility.yul\":16827:16833   */\n      dup1\n        /* \"#utility.yul\":16835:16841   */\n      0x00\n        /* \"#utility.yul\":16884:16887   */\n      0xa0\n        /* \"#utility.yul\":16872:16881   */\n      dup7\n        /* \"#utility.yul\":16863:16870   */\n      dup9\n        /* \"#utility.yul\":16859:16882   */\n      sub\n        /* \"#utility.yul\":16855:16888   */\n      slt\n        /* \"#utility.yul\":16852:16972   */\n      iszero\n      tag_322\n      jumpi\n        /* \"#utility.yul\":16891:16970   */\n      tag_323\n      tag_134\n      jump\t// in\n    tag_323:\n        /* \"#utility.yul\":16852:16972   */\n    tag_322:\n        /* \"#utility.yul\":17011:17012   */\n      0x00\n        /* \"#utility.yul\":17036:17099   */\n      tag_324\n        /* \"#utility.yul\":17091:17098   */\n      dup9\n        /* \"#utility.yul\":17082:17088   */\n      dup3\n        /* \"#utility.yul\":17071:17080   */\n      dup10\n        /* \"#utility.yul\":17067:17089   */\n      add\n        /* \"#utility.yul\":17036:17099   */\n      tag_178\n      jump\t// in\n    tag_324:\n        /* \"#utility.yul\":17026:17099   */\n      swap6\n      pop\n        /* \"#utility.yul\":16982:17109   */\n      pop\n        /* \"#utility.yul\":17148:17150   */\n      0x20\n        /* \"#utility.yul\":17174:17237   */\n      tag_325\n        /* \"#utility.yul\":17229:17236   */\n      dup9\n        /* \"#utility.yul\":17220:17226   */\n      dup3\n        /* \"#utility.yul\":17209:17218   */\n      dup10\n        /* \"#utility.yul\":17205:17227   */\n      add\n        /* \"#utility.yul\":17174:17237   */\n      tag_180\n      jump\t// in\n    tag_325:\n        /* \"#utility.yul\":17164:17237   */\n      swap5\n      pop\n        /* \"#utility.yul\":17119:17247   */\n      pop\n        /* \"#utility.yul\":17286:17288   */\n      0x40\n        /* \"#utility.yul\":17312:17376   */\n      tag_326\n        /* \"#utility.yul\":17368:17375   */\n      dup9\n        /* \"#utility.yul\":17359:17365   */\n      dup3\n        /* \"#utility.yul\":17348:17357   */\n      dup10\n        /* \"#utility.yul\":17344:17366   */\n      add\n        /* \"#utility.yul\":17312:17376   */\n      tag_181\n      jump\t// in\n    tag_326:\n        /* \"#utility.yul\":17302:17376   */\n      swap4\n      pop\n        /* \"#utility.yul\":17257:17386   */\n      pop\n        /* \"#utility.yul\":17425:17427   */\n      0x60\n        /* \"#utility.yul\":17451:17515   */\n      tag_327\n        /* \"#utility.yul\":17507:17514   */\n      dup9\n        /* \"#utility.yul\":17498:17504   */\n      dup3\n        /* \"#utility.yul\":17487:17496   */\n      dup10\n        /* \"#utility.yul\":17483:17505   */\n      add\n        /* \"#utility.yul\":17451:17515   */\n      tag_181\n      jump\t// in\n    tag_327:\n        /* \"#utility.yul\":17441:17515   */\n      swap3\n      pop\n        /* \"#utility.yul\":17396:17525   */\n      pop\n        /* \"#utility.yul\":17564:17567   */\n      0x80\n        /* \"#utility.yul\":17591:17654   */\n      tag_328\n        /* \"#utility.yul\":17646:17653   */\n      dup9\n        /* \"#utility.yul\":17637:17643   */\n      dup3\n        /* \"#utility.yul\":17626:17635   */\n      dup10\n        /* \"#utility.yul\":17622:17644   */\n      add\n        /* \"#utility.yul\":17591:17654   */\n      tag_178\n      jump\t// in\n    tag_328:\n        /* \"#utility.yul\":17581:17654   */\n      swap2\n      pop\n        /* \"#utility.yul\":17535:17664   */\n      pop\n        /* \"#utility.yul\":16700:17671   */\n      swap3\n      swap6\n      pop\n      swap3\n      swap6\n      swap1\n      swap4\n      pop\n      jump\t// out\n        /* \"#utility.yul\":17677:17857   */\n    tag_182:\n        /* \"#utility.yul\":17725:17802   */\n      0x4e487b7100000000000000000000000000000000000000000000000000000000\n        /* \"#utility.yul\":17722:17723   */\n      0x00\n        /* \"#utility.yul\":17715:17803   */\n      mstore\n        /* \"#utility.yul\":17822:17826   */\n      0x12\n        /* \"#utility.yul\":17819:17820   */\n      0x04\n        /* \"#utility.yul\":17812:17827   */\n      mstore\n        /* \"#utility.yul\":17846:17850   */\n      0x24\n        /* \"#utility.yul\":17843:17844   */\n      0x00\n        /* \"#utility.yul\":17836:17851   */\n      revert\n        /* \"#utility.yul\":17863:18048   */\n    tag_130:\n        /* \"#utility.yul\":17903:17904   */\n      0x00\n        /* \"#utility.yul\":17920:17940   */\n      tag_331\n        /* \"#utility.yul\":17938:17939   */\n      dup3\n        /* \"#utility.yul\":17920:17940   */\n      tag_140\n      jump\t// in\n    tag_331:\n        /* \"#utility.yul\":17915:17940   */\n      swap2\n      pop\n        /* \"#utility.yul\":17954:17974   */\n      tag_332\n        /* \"#utility.yul\":17972:17973   */\n      dup4\n        /* \"#utility.yul\":17954:17974   */\n      tag_140\n      jump\t// in\n    tag_332:\n        /* \"#utility.yul\":17949:17974   */\n      swap3\n      pop\n        /* \"#utility.yul\":17993:17994   */\n      dup3\n        /* \"#utility.yul\":17983:18018   */\n      tag_333\n      jumpi\n        /* \"#utility.yul\":17998:18016   */\n      tag_334\n      tag_182\n      jump\t// in\n    tag_334:\n        /* \"#utility.yul\":17983:18018   */\n    tag_333:\n        /* \"#utility.yul\":18040:18041   */\n      dup3\n        /* \"#utility.yul\":18037:18038   */\n      dup3\n        /* \"#utility.yul\":18033:18042   */\n      div\n        /* \"#utility.yul\":18028:18042   */\n      swap1\n      pop\n        /* \"#utility.yul\":17863:18048   */\n      swap3\n      swap2\n      pop\n      pop\n      jump\t// out\n        /* \"#utility.yul\":18054:18464   */\n    tag_132:\n        /* \"#utility.yul\":18094:18101   */\n      0x00\n        /* \"#utility.yul\":18117:18137   */\n      tag_336\n        /* \"#utility.yul\":18135:18136   */\n      dup3\n        /* \"#utility.yul\":18117:18137   */\n      tag_140\n      jump\t// in\n    tag_336:\n        /* \"#utility.yul\":18112:18137   */\n      swap2\n      pop\n        /* \"#utility.yul\":18151:18171   */\n      tag_337\n        /* \"#utility.yul\":18169:18170   */\n      dup4\n        /* \"#utility.yul\":18151:18171   */\n      tag_140\n      jump\t// in\n    tag_337:\n        /* \"#utility.yul\":18146:18171   */\n      swap3\n      pop\n        /* \"#utility.yul\":18206:18207   */\n      dup3\n        /* \"#utility.yul\":18203:18204   */\n      dup3\n        /* \"#utility.yul\":18199:18208   */\n      mul\n        /* \"#utility.yul\":18228:18258   */\n      tag_338\n        /* \"#utility.yul\":18246:18257   */\n      dup2\n        /* \"#utility.yul\":18228:18258   */\n      tag_140\n      jump\t// in\n    tag_338:\n        /* \"#utility.yul\":18217:18258   */\n      swap2\n      pop\n        /* \"#utility.yul\":18407:18408   */\n      dup3\n        /* \"#utility.yul\":18398:18405   */\n      dup3\n        /* \"#utility.yul\":18394:18409   */\n      div\n        /* \"#utility.yul\":18391:18392   */\n      dup5\n        /* \"#utility.yul\":18388:18410   */\n      eq\n        /* \"#utility.yul\":18368:18369   */\n      dup4\n        /* \"#utility.yul\":18361:18370   */\n      iszero\n        /* \"#utility.yul\":18341:18424   */\n      or\n        /* \"#utility.yul\":18318:18457   */\n      tag_339\n      jumpi\n        /* \"#utility.yul\":18437:18455   */\n      tag_340\n      tag_152\n      jump\t// in\n    tag_340:\n        /* \"#utility.yul\":18318:18457   */\n    tag_339:\n        /* \"#utility.yul\":18102:18464   */\n      pop\n        /* \"#utility.yul\":18054:18464   */\n      swap3\n      swap2\n      pop\n      pop\n      jump\t// out\n\n    auxdata: 0xa26469706673582212200de3e05cc0adf6dffd76f29f4fad1df03e0e95b4fdf81861aa44db7f3b46032964736f6c634300081a0033\n}\n",
				"bytecode": {
					"linkReferences": {},
					"object": "608060405234801561000f575f80fd5b5060405161147e38038061147e83398181016040528101906100319190610111565b73694aa1769357215de4fac081bf1f309adc32530660015f6101000a81548173ffffffffffffffffffffffffffffffffffffffff021916908373ffffffffffffffffffffffffffffffffffffffff16021790555081600381905550806004819055503360055f6101000a81548173ffffffffffffffffffffffffffffffffffffffff021916908373ffffffffffffffffffffffffffffffffffffffff160217905550505061014f565b5f80fd5b5f819050919050565b6100f0816100de565b81146100fa575f80fd5b50565b5f8151905061010b816100e7565b92915050565b5f8060408385031215610127576101266100da565b5b5f610134858286016100fd565b9250506020610145858286016100fd565b9150509250929050565b6113228061015c5f395ff3fe60806040526004361061009b575f3560e01c80638da5cb5b116100635780638da5cb5b1461016d5780638edd6eb61461019757806395e26801146101ad578063a2a99196146101d5578063b6a324e0146101ff578063bea4dfb5146102095761009b565b8063031b36771461009f5780630fb5a6b4146100db57806313ffff0114610105578063590e1ae31461012d57806378e9792514610143575b5f80fd5b3480156100aa575f80fd5b506100c560048036038101906100c09190610ae1565b610233565b6040516100d29190610b24565b60405180910390f35b3480156100e6575f80fd5b506100ef610248565b6040516100fc9190610b24565b60405180910390f35b348015610110575f80fd5b5061012b60048036038101906101269190610ae1565b61024e565b005b348015610138575f80fd5b5061014161031f565b005b34801561014e575f80fd5b50610157610573565b6040516101649190610b24565b60405180910390f35b348015610178575f80fd5b50610181610579565b60405161018e9190610b4c565b60405180910390f35b3480156101a2575f80fd5b506101ab61059e565b005b3480156101b8575f80fd5b506101d360048036038101906101ce9190610b8f565b61079f565b005b3480156101e0575f80fd5b506101e9610872565b6040516101f69190610be7565b60405180910390f35b610207610885565b005b348015610214575f80fd5b5061021d6109b7565b60405161022a9190610c18565b60405180910390f35b6002602052805f5260405f205f915090505481565b60045481565b60055f9054906101000a900473ffffffffffffffffffffffffffffffffffffffff1673ffffffffffffffffffffffffffffffffffffffff163373ffffffffffffffffffffffffffffffffffffffff16146102dd576040517f08c379a00000000000000000000000000000000000000000000000000000000081526004016102d490610c8b565b60405180910390fd5b805f806101000a81548173ffffffffffffffffffffffffffffffffffffffff021916908373ffffffffffffffffffffffffffffffffffffffff16021790555050565b60045460035461032f9190610cd6565b4211610370576040517f08c379a000000000000000000000000000000000000000000000000000000000815260040161036790610d53565b60405180910390fd5b5f4790506801158e460913d0000061038782610a54565b106103c7576040517f08c379a00000000000000000000000000000000000000000000000000000000081526004016103be90610dbb565b60405180910390fd5b5f60025f3373ffffffffffffffffffffffffffffffffffffffff1673ffffffffffffffffffffffffffffffffffffffff1681526020019081526020015f205403610446576040517f08c379a000000000000000000000000000000000000000000000000000000000815260040161043d90610e23565b60405180910390fd5b5f3373ffffffffffffffffffffffffffffffffffffffff1660025f3373ffffffffffffffffffffffffffffffffffffffff1673ffffffffffffffffffffffffffffffffffffffff1681526020019081526020015f20546040516104a890610e6e565b5f6040518083038185875af1925050503d805f81146104e2576040519150601f19603f3d011682016040523d82523d5f602084013e6104e7565b606091505b5050809150508061052d576040517f08c379a000000000000000000000000000000000000000000000000000000000815260040161052490610ecc565b60405180910390fd5b5f60025f3373ffffffffffffffffffffffffffffffffffffffff1673ffffffffffffffffffffffffffffffffffffffff1681526020019081526020015f20819055505050565b60035481565b60055f9054906101000a900473ffffffffffffffffffffffffffffffffffffffff1681565b6004546003546105ae9190610cd6565b42116105ef576040517f08c379a00000000000000000000000000000000000000000000000000000000081526004016105e690610d53565b60405180910390fd5b60055f9054906101000a900473ffffffffffffffffffffffffffffffffffffffff1673ffffffffffffffffffffffffffffffffffffffff163373ffffffffffffffffffffffffffffffffffffffff161461067e576040517f08c379a000000000000000000000000000000000000000000000000000000000815260040161067590610c8b565b60405180910390fd5b5f4790506801158e460913d0000061069582610a54565b10156106d6576040517f08c379a00000000000000000000000000000000000000000000000000000000081526004016106cd90610f34565b60405180910390fd5b5f3373ffffffffffffffffffffffffffffffffffffffff16826040516106fb90610e6e565b5f6040518083038185875af1925050503d805f8114610735576040519150601f19603f3d011682016040523d82523d5f602084013e61073a565b606091505b50508091505080610780576040517f08c379a000000000000000000000000000000000000000000000000000000000815260040161077790610f9c565b60405180910390fd5b6001600560146101000a81548160ff0219169083151502179055505050565b5f8054906101000a900473ffffffffffffffffffffffffffffffffffffffff1673ffffffffffffffffffffffffffffffffffffffff163373ffffffffffffffffffffffffffffffffffffffff161461082c576040517f08c379a000000000000000000000000000000000000000000000000000000000815260040161082390611004565b60405180910390fd5b8060025f8473ffffffffffffffffffffffffffffffffffffffff1673ffffffffffffffffffffffffffffffffffffffff1681526020019081526020015f20819055505050565b600560149054906101000a900460ff1681565b60035442116108c9576040517f08c379a00000000000000000000000000000000000000000000000000000000081526004016108c09061106c565b60405180910390fd5b6004546003546108d99190610cd6565b42111561091b576040517f08c379a0000000000000000000000000000000000000000000000000000000008152600401610912906110d4565b60405180910390fd5b5f61092534610a54565b9050678ac7230489e80000811015610972576040517f08c379a00000000000000000000000000000000000000000000000000000000081526004016109699061113c565b60405180910390fd5b3460025f3373ffffffffffffffffffffffffffffffffffffffff1673ffffffffffffffffffffffffffffffffffffffff1681526020019081526020015f208190555050565b5f8060015f9054906101000a900473ffffffffffffffffffffffffffffffffffffffff1673ffffffffffffffffffffffffffffffffffffffff1663feaf968c6040518163ffffffff1660e01b815260040160a060405180830381865afa158015610a23573d5f803e3d5ffd5b505050506040513d601f19601f82011682018060405250810190610a4791906111d7565b5050509150508091505090565b5f80610a5e6109b7565b9050826305f5e10082610a71919061127b565b610a7b91906112ab565b915050919050565b5f80fd5b5f73ffffffffffffffffffffffffffffffffffffffff82169050919050565b5f610ab082610a87565b9050919050565b610ac081610aa6565b8114610aca575f80fd5b50565b5f81359050610adb81610ab7565b92915050565b5f60208284031215610af657610af5610a83565b5b5f610b0384828501610acd565b91505092915050565b5f819050919050565b610b1e81610b0c565b82525050565b5f602082019050610b375f830184610b15565b92915050565b610b4681610aa6565b82525050565b5f602082019050610b5f5f830184610b3d565b92915050565b610b6e81610b0c565b8114610b78575f80fd5b50565b5f81359050610b8981610b65565b92915050565b5f8060408385031215610ba557610ba4610a83565b5b5f610bb285828601610acd565b9250506020610bc385828601610b7b565b9150509250929050565b5f8115159050919050565b610be181610bcd565b82525050565b5f602082019050610bfa5f830184610bd8565b92915050565b5f819050919050565b610c1281610c00565b82525050565b5f602082019050610c2b5f830184610c09565b92915050565b5f82825260208201905092915050565b7f596f7520617265206e6f7420746865206f776e657200000000000000000000005f82015250565b5f610c75601583610c31565b9150610c8082610c41565b602082019050919050565b5f6020820190508181035f830152610ca281610c69565b9050919050565b7f4e487b71000000000000000000000000000000000000000000000000000000005f52601160045260245ffd5b5f610ce082610b0c565b9150610ceb83610b0c565b9250828201905080821115610d0357610d02610ca9565b5b92915050565b7f5468652066756e64206973206e6f7420656e64207965740000000000000000005f82015250565b5f610d3d601783610c31565b9150610d4882610d09565b602082019050919050565b5f6020820190508181035f830152610d6a81610d31565b9050919050565b7f54686520676f616c2069732072656163686564000000000000000000000000005f82015250565b5f610da5601383610c31565b9150610db082610d71565b602082019050919050565b5f6020820190508181035f830152610dd281610d99565b9050919050565b7f596f752068617665206e6f742066756e640000000000000000000000000000005f82015250565b5f610e0d601183610c31565b9150610e1882610dd9565b602082019050919050565b5f6020820190508181035f830152610e3a81610e01565b9050919050565b5f81905092915050565b50565b5f610e595f83610e41565b9150610e6482610e4b565b5f82019050919050565b5f610e7882610e4e565b9150819050919050565b7f526566756e64206661696c6564000000000000000000000000000000000000005f82015250565b5f610eb6600d83610c31565b9150610ec182610e82565b602082019050919050565b5f6020820190508181035f830152610ee381610eaa565b9050919050565b7f54686520676f616c206973206e6f7420726561636865640000000000000000005f82015250565b5f610f1e601783610c31565b9150610f2982610eea565b602082019050919050565b5f6020820190508181035f830152610f4b81610f12565b9050919050565b7f4765742066756e64206661696c656400000000000000000000000000000000005f82015250565b5f610f86600f83610c31565b9150610f9182610f52565b602082019050919050565b5f6020820190508181035f830152610fb381610f7a565b9050919050565b7f596f752063616e206e6f7420696e766f6b6520746869732061706900000000005f82015250565b5f610fee601b83610c31565b9150610ff982610fba565b602082019050919050565b5f6020820190508181035f83015261101b81610fe2565b9050919050565b7f5468652066756e6420686173206e6f74207374617274656400000000000000005f82015250565b5f611056601883610c31565b915061106182611022565b602082019050919050565b5f6020820190508181035f8301526110838161104a565b9050919050565b7f5468652066756e6420697320656e6400000000000000000000000000000000005f82015250565b5f6110be600f83610c31565b91506110c98261108a565b602082019050919050565b5f6020820190508181035f8301526110eb816110b2565b9050919050565b7f596f75206e65656420746f20706179206d6f72652045544800000000000000005f82015250565b5f611126601883610c31565b9150611131826110f2565b602082019050919050565b5f6020820190508181035f8301526111538161111a565b9050919050565b5f69ffffffffffffffffffff82169050919050565b6111788161115a565b8114611182575f80fd5b50565b5f815190506111938161116f565b92915050565b6111a281610c00565b81146111ac575f80fd5b50565b5f815190506111bd81611199565b92915050565b5f815190506111d181610b65565b92915050565b5f805f805f60a086880312156111f0576111ef610a83565b5b5f6111fd88828901611185565b955050602061120e888289016111af565b945050604061121f888289016111c3565b9350506060611230888289016111c3565b925050608061124188828901611185565b9150509295509295909350565b7f4e487b71000000000000000000000000000000000000000000000000000000005f52601260045260245ffd5b5f61128582610b0c565b915061129083610b0c565b9250826112a05761129f61124e565b5b828204905092915050565b5f6112b582610b0c565b91506112c083610b0c565b92508282026112ce81610b0c565b915082820484148315176112e5576112e4610ca9565b5b509291505056fea26469706673582212200de3e05cc0adf6dffd76f29f4fad1df03e0e95b4fdf81861aa44db7f3b46032964736f6c634300081a0033",
					"opcodes": "PUSH1 0x80 PUSH1 0x40 MSTORE CALLVALUE DUP1 ISZERO PUSH2 0xF JUMPI PUSH0 DUP1 REVERT JUMPDEST POP PUSH1 0x40 MLOAD PUSH2 0x147E CODESIZE SUB DUP1 PUSH2 0x147E DUP4 CODECOPY DUP2 DUP2 ADD PUSH1 0x40 MSTORE DUP2 ADD SWAP1 PUSH2 0x31 SWAP2 SWAP1 PUSH2 0x111 JUMP JUMPDEST PUSH20 0x694AA1769357215DE4FAC081BF1F309ADC325306 PUSH1 0x1 PUSH0 PUSH2 0x100 EXP DUP2 SLOAD DUP2 PUSH20 0xFFFFFFFFFFFFFFFFFFFFFFFFFFFFFFFFFFFFFFFF MUL NOT AND SWAP1 DUP4 PUSH20 0xFFFFFFFFFFFFFFFFFFFFFFFFFFFFFFFFFFFFFFFF AND MUL OR SWAP1 SSTORE POP DUP2 PUSH1 0x3 DUP2 SWAP1 SSTORE POP DUP1 PUSH1 0x4 DUP2 SWAP1 SSTORE POP CALLER PUSH1 0x5 PUSH0 PUSH2 0x100 EXP DUP2 SLOAD DUP2 PUSH20 0xFFFFFFFFFFFFFFFFFFFFFFFFFFFFFFFFFFFFFFFF MUL NOT AND SWAP1 DUP4 PUSH20 0xFFFFFFFFFFFFFFFFFFFFFFFFFFFFFFFFFFFFFFFF AND MUL OR SWAP1 SSTORE POP POP POP PUSH2 0x14F JUMP JUMPDEST PUSH0 DUP1 REVERT JUMPDEST PUSH0 DUP2 SWAP1 POP SWAP2 SWAP1 POP JUMP JUMPDEST PUSH2 0xF0 DUP2 PUSH2 0xDE JUMP JUMPDEST DUP2 EQ PUSH2 0xFA JUMPI PUSH0 DUP1 REVERT JUMPDEST POP JUMP JUMPDEST PUSH0 DUP2 MLOAD SWAP1 POP PUSH2 0x10B DUP2 PUSH2 0xE7 JUMP JUMPDEST SWAP3 SWAP2 POP POP JUMP JUMPDEST PUSH0 DUP1 PUSH1 0x40 DUP4 DUP6 SUB SLT ISZERO PUSH2 0x127 JUMPI PUSH2 0x126 PUSH2 0xDA JUMP JUMPDEST JUMPDEST PUSH0 PUSH2 0x134 DUP6 DUP3 DUP7 ADD PUSH2 0xFD JUMP JUMPDEST SWAP3 POP POP PUSH1 0x20 PUSH2 0x145 DUP6 DUP3 DUP7 ADD PUSH2 0xFD JUMP JUMPDEST SWAP2 POP POP SWAP3 POP SWAP3 SWAP1 POP JUMP JUMPDEST PUSH2 0x1322 DUP1 PUSH2 0x15C PUSH0 CODECOPY PUSH0 RETURN INVALID PUSH1 0x80 PUSH1 0x40 MSTORE PUSH1 0x4 CALLDATASIZE LT PUSH2 0x9B JUMPI PUSH0 CALLDATALOAD PUSH1 0xE0 SHR DUP1 PUSH4 0x8DA5CB5B GT PUSH2 0x63 JUMPI DUP1 PUSH4 0x8DA5CB5B EQ PUSH2 0x16D JUMPI DUP1 PUSH4 0x8EDD6EB6 EQ PUSH2 0x197 JUMPI DUP1 PUSH4 0x95E26801 EQ PUSH2 0x1AD JUMPI DUP1 PUSH4 0xA2A99196 EQ PUSH2 0x1D5 JUMPI DUP1 PUSH4 0xB6A324E0 EQ PUSH2 0x1FF JUMPI DUP1 PUSH4 0xBEA4DFB5 EQ PUSH2 0x209 JUMPI PUSH2 0x9B JUMP JUMPDEST DUP1 PUSH4 0x31B3677 EQ PUSH2 0x9F JUMPI DUP1 PUSH4 0xFB5A6B4 EQ PUSH2 0xDB JUMPI DUP1 PUSH4 0x13FFFF01 EQ PUSH2 0x105 JUMPI DUP1 PUSH4 0x590E1AE3 EQ PUSH2 0x12D JUMPI DUP1 PUSH4 0x78E97925 EQ PUSH2 0x143 JUMPI JUMPDEST PUSH0 DUP1 REVERT JUMPDEST CALLVALUE DUP1 ISZERO PUSH2 0xAA JUMPI PUSH0 DUP1 REVERT JUMPDEST POP PUSH2 0xC5 PUSH1 0x4 DUP1 CALLDATASIZE SUB DUP2 ADD SWAP1 PUSH2 0xC0 SWAP2 SWAP1 PUSH2 0xAE1 JUMP JUMPDEST PUSH2 0x233 JUMP JUMPDEST PUSH1 0x40 MLOAD PUSH2 0xD2 SWAP2 SWAP1 PUSH2 0xB24 JUMP JUMPDEST PUSH1 0x40 MLOAD DUP1 SWAP2 SUB SWAP1 RETURN JUMPDEST CALLVALUE DUP1 ISZERO PUSH2 0xE6 JUMPI PUSH0 DUP1 REVERT JUMPDEST POP PUSH2 0xEF PUSH2 0x248 JUMP JUMPDEST PUSH1 0x40 MLOAD PUSH2 0xFC SWAP2 SWAP1 PUSH2 0xB24 JUMP JUMPDEST PUSH1 0x40 MLOAD DUP1 SWAP2 SUB SWAP1 RETURN JUMPDEST CALLVALUE DUP1 ISZERO PUSH2 0x110 JUMPI PUSH0 DUP1 REVERT JUMPDEST POP PUSH2 0x12B PUSH1 0x4 DUP1 CALLDATASIZE SUB DUP2 ADD SWAP1 PUSH2 0x126 SWAP2 SWAP1 PUSH2 0xAE1 JUMP JUMPDEST PUSH2 0x24E JUMP JUMPDEST STOP JUMPDEST CALLVALUE DUP1 ISZERO PUSH2 0x138 JUMPI PUSH0 DUP1 REVERT JUMPDEST POP PUSH2 0x141 PUSH2 0x31F JUMP JUMPDEST STOP JUMPDEST CALLVALUE DUP1 ISZERO PUSH2 0x14E JUMPI PUSH0 DUP1 REVERT JUMPDEST POP PUSH2 0x157 PUSH2 0x573 JUMP JUMPDEST PUSH1 0x40 MLOAD PUSH2 0x164 SWAP2 SWAP1 PUSH2 0xB24 JUMP JUMPDEST PUSH1 0x40 MLOAD DUP1 SWAP2 SUB SWAP1 RETURN JUMPDEST CALLVALUE DUP1 ISZERO PUSH2 0x178 JUMPI PUSH0 DUP1 REVERT JUMPDEST POP PUSH2 0x181 PUSH2 0x579 JUMP JUMPDEST PUSH1 0x40 MLOAD PUSH2 0x18E SWAP2 SWAP1 PUSH2 0xB4C JUMP JUMPDEST PUSH1 0x40 MLOAD DUP1 SWAP2 SUB SWAP1 RETURN JUMPDEST CALLVALUE DUP1 ISZERO PUSH2 0x1A2 JUMPI PUSH0 DUP1 REVERT JUMPDEST POP PUSH2 0x1AB PUSH2 0x59E JUMP JUMPDEST STOP JUMPDEST CALLVALUE DUP1 ISZERO PUSH2 0x1B8 JUMPI PUSH0 DUP1 REVERT JUMPDEST POP PUSH2 0x1D3 PUSH1 0x4 DUP1 CALLDATASIZE SUB DUP2 ADD SWAP1 PUSH2 0x1CE SWAP2 SWAP1 PUSH2 0xB8F JUMP JUMPDEST PUSH2 0x79F JUMP JUMPDEST STOP JUMPDEST CALLVALUE DUP1 ISZERO PUSH2 0x1E0 JUMPI PUSH0 DUP1 REVERT JUMPDEST POP PUSH2 0x1E9 PUSH2 0x872 JUMP JUMPDEST PUSH1 0x40 MLOAD PUSH2 0x1F6 SWAP2 SWAP1 PUSH2 0xBE7 JUMP JUMPDEST PUSH1 0x40 MLOAD DUP1 SWAP2 SUB SWAP1 RETURN JUMPDEST PUSH2 0x207 PUSH2 0x885 JUMP JUMPDEST STOP JUMPDEST CALLVALUE DUP1 ISZERO PUSH2 0x214 JUMPI PUSH0 DUP1 REVERT JUMPDEST POP PUSH2 0x21D PUSH2 0x9B7 JUMP JUMPDEST PUSH1 0x40 MLOAD PUSH2 0x22A SWAP2 SWAP1 PUSH2 0xC18 JUMP JUMPDEST PUSH1 0x40 MLOAD DUP1 SWAP2 SUB SWAP1 RETURN JUMPDEST PUSH1 0x2 PUSH1 0x20 MSTORE DUP1 PUSH0 MSTORE PUSH1 0x40 PUSH0 KECCAK256 PUSH0 SWAP2 POP SWAP1 POP SLOAD DUP2 JUMP JUMPDEST PUSH1 0x4 SLOAD DUP2 JUMP JUMPDEST PUSH1 0x5 PUSH0 SWAP1 SLOAD SWAP1 PUSH2 0x100 EXP SWAP1 DIV PUSH20 0xFFFFFFFFFFFFFFFFFFFFFFFFFFFFFFFFFFFFFFFF AND PUSH20 0xFFFFFFFFFFFFFFFFFFFFFFFFFFFFFFFFFFFFFFFF AND CALLER PUSH20 0xFFFFFFFFFFFFFFFFFFFFFFFFFFFFFFFFFFFFFFFF AND EQ PUSH2 0x2DD JUMPI PUSH1 0x40 MLOAD PUSH32 0x8C379A000000000000000000000000000000000000000000000000000000000 DUP2 MSTORE PUSH1 0x4 ADD PUSH2 0x2D4 SWAP1 PUSH2 0xC8B JUMP JUMPDEST PUSH1 0x40 MLOAD DUP1 SWAP2 SUB SWAP1 REVERT JUMPDEST DUP1 PUSH0 DUP1 PUSH2 0x100 EXP DUP2 SLOAD DUP2 PUSH20 0xFFFFFFFFFFFFFFFFFFFFFFFFFFFFFFFFFFFFFFFF MUL NOT AND SWAP1 DUP4 PUSH20 0xFFFFFFFFFFFFFFFFFFFFFFFFFFFFFFFFFFFFFFFF AND MUL OR SWAP1 SSTORE POP POP JUMP JUMPDEST PUSH1 0x4 SLOAD PUSH1 0x3 SLOAD PUSH2 0x32F SWAP2 SWAP1 PUSH2 0xCD6 JUMP JUMPDEST TIMESTAMP GT PUSH2 0x370 JUMPI PUSH1 0x40 MLOAD PUSH32 0x8C379A000000000000000000000000000000000000000000000000000000000 DUP2 MSTORE PUSH1 0x4 ADD PUSH2 0x367 SWAP1 PUSH2 0xD53 JUMP JUMPDEST PUSH1 0x40 MLOAD DUP1 SWAP2 SUB SWAP1 REVERT JUMPDEST PUSH0 SELFBALANCE SWAP1 POP PUSH9 0x1158E460913D00000 PUSH2 0x387 DUP3 PUSH2 0xA54 JUMP JUMPDEST LT PUSH2 0x3C7 JUMPI PUSH1 0x40 MLOAD PUSH32 0x8C379A000000000000000000000000000000000000000000000000000000000 DUP2 MSTORE PUSH1 0x4 ADD PUSH2 0x3BE SWAP1 PUSH2 0xDBB JUMP JUMPDEST PUSH1 0x40 MLOAD DUP1 SWAP2 SUB SWAP1 REVERT JUMPDEST PUSH0 PUSH1 0x2 PUSH0 CALLER PUSH20 0xFFFFFFFFFFFFFFFFFFFFFFFFFFFFFFFFFFFFFFFF AND PUSH20 0xFFFFFFFFFFFFFFFFFFFFFFFFFFFFFFFFFFFFFFFF AND DUP2 MSTORE PUSH1 0x20 ADD SWAP1 DUP2 MSTORE PUSH1 0x20 ADD PUSH0 KECCAK256 SLOAD SUB PUSH2 0x446 JUMPI PUSH1 0x40 MLOAD PUSH32 0x8C379A000000000000000000000000000000000000000000000000000000000 DUP2 MSTORE PUSH1 0x4 ADD PUSH2 0x43D SWAP1 PUSH2 0xE23 JUMP JUMPDEST PUSH1 0x40 MLOAD DUP1 SWAP2 SUB SWAP1 REVERT JUMPDEST PUSH0 CALLER PUSH20 0xFFFFFFFFFFFFFFFFFFFFFFFFFFFFFFFFFFFFFFFF AND PUSH1 0x2 PUSH0 CALLER PUSH20 0xFFFFFFFFFFFFFFFFFFFFFFFFFFFFFFFFFFFFFFFF AND PUSH20 0xFFFFFFFFFFFFFFFFFFFFFFFFFFFFFFFFFFFFFFFF AND DUP2 MSTORE PUSH1 0x20 ADD SWAP1 DUP2 MSTORE PUSH1 0x20 ADD PUSH0 KECCAK256 SLOAD PUSH1 0x40 MLOAD PUSH2 0x4A8 SWAP1 PUSH2 0xE6E JUMP JUMPDEST PUSH0 PUSH1 0x40 MLOAD DUP1 DUP4 SUB DUP2 DUP6 DUP8 GAS CALL SWAP3 POP POP POP RETURNDATASIZE DUP1 PUSH0 DUP2 EQ PUSH2 0x4E2 JUMPI PUSH1 0x40 MLOAD SWAP2 POP PUSH1 0x1F NOT PUSH1 0x3F RETURNDATASIZE ADD AND DUP3 ADD PUSH1 0x40 MSTORE RETURNDATASIZE DUP3 MSTORE RETURNDATASIZE PUSH0 PUSH1 0x20 DUP5 ADD RETURNDATACOPY PUSH2 0x4E7 JUMP JUMPDEST PUSH1 0x60 SWAP2 POP JUMPDEST POP POP DUP1 SWAP2 POP POP DUP1 PUSH2 0x52D JUMPI PUSH1 0x40 MLOAD PUSH32 0x8C379A000000000000000000000000000000000000000000000000000000000 DUP2 MSTORE PUSH1 0x4 ADD PUSH2 0x524 SWAP1 PUSH2 0xECC JUMP JUMPDEST PUSH1 0x40 MLOAD DUP1 SWAP2 SUB SWAP1 REVERT JUMPDEST PUSH0 PUSH1 0x2 PUSH0 CALLER PUSH20 0xFFFFFFFFFFFFFFFFFFFFFFFFFFFFFFFFFFFFFFFF AND PUSH20 0xFFFFFFFFFFFFFFFFFFFFFFFFFFFFFFFFFFFFFFFF AND DUP2 MSTORE PUSH1 0x20 ADD SWAP1 DUP2 MSTORE PUSH1 0x20 ADD PUSH0 KECCAK256 DUP2 SWAP1 SSTORE POP POP POP JUMP JUMPDEST PUSH1 0x3 SLOAD DUP2 JUMP JUMPDEST PUSH1 0x5 PUSH0 SWAP1 SLOAD SWAP1 PUSH2 0x100 EXP SWAP1 DIV PUSH20 0xFFFFFFFFFFFFFFFFFFFFFFFFFFFFFFFFFFFFFFFF AND DUP2 JUMP JUMPDEST PUSH1 0x4 SLOAD PUSH1 0x3 SLOAD PUSH2 0x5AE SWAP2 SWAP1 PUSH2 0xCD6 JUMP JUMPDEST TIMESTAMP GT PUSH2 0x5EF JUMPI PUSH1 0x40 MLOAD PUSH32 0x8C379A000000000000000000000000000000000000000000000000000000000 DUP2 MSTORE PUSH1 0x4 ADD PUSH2 0x5E6 SWAP1 PUSH2 0xD53 JUMP JUMPDEST PUSH1 0x40 MLOAD DUP1 SWAP2 SUB SWAP1 REVERT JUMPDEST PUSH1 0x5 PUSH0 SWAP1 SLOAD SWAP1 PUSH2 0x100 EXP SWAP1 DIV PUSH20 0xFFFFFFFFFFFFFFFFFFFFFFFFFFFFFFFFFFFFFFFF AND PUSH20 0xFFFFFFFFFFFFFFFFFFFFFFFFFFFFFFFFFFFFFFFF AND CALLER PUSH20 0xFFFFFFFFFFFFFFFFFFFFFFFFFFFFFFFFFFFFFFFF AND EQ PUSH2 0x67E JUMPI PUSH1 0x40 MLOAD PUSH32 0x8C379A000000000000000000000000000000000000000000000000000000000 DUP2 MSTORE PUSH1 0x4 ADD PUSH2 0x675 SWAP1 PUSH2 0xC8B JUMP JUMPDEST PUSH1 0x40 MLOAD DUP1 SWAP2 SUB SWAP1 REVERT JUMPDEST PUSH0 SELFBALANCE SWAP1 POP PUSH9 0x1158E460913D00000 PUSH2 0x695 DUP3 PUSH2 0xA54 JUMP JUMPDEST LT ISZERO PUSH2 0x6D6 JUMPI PUSH1 0x40 MLOAD PUSH32 0x8C379A000000000000000000000000000000000000000000000000000000000 DUP2 MSTORE PUSH1 0x4 ADD PUSH2 0x6CD SWAP1 PUSH2 0xF34 JUMP JUMPDEST PUSH1 0x40 MLOAD DUP1 SWAP2 SUB SWAP1 REVERT JUMPDEST PUSH0 CALLER PUSH20 0xFFFFFFFFFFFFFFFFFFFFFFFFFFFFFFFFFFFFFFFF AND DUP3 PUSH1 0x40 MLOAD PUSH2 0x6FB SWAP1 PUSH2 0xE6E JUMP JUMPDEST PUSH0 PUSH1 0x40 MLOAD DUP1 DUP4 SUB DUP2 DUP6 DUP8 GAS CALL SWAP3 POP POP POP RETURNDATASIZE DUP1 PUSH0 DUP2 EQ PUSH2 0x735 JUMPI PUSH1 0x40 MLOAD SWAP2 POP PUSH1 0x1F NOT PUSH1 0x3F RETURNDATASIZE ADD AND DUP3 ADD PUSH1 0x40 MSTORE RETURNDATASIZE DUP3 MSTORE RETURNDATASIZE PUSH0 PUSH1 0x20 DUP5 ADD RETURNDATACOPY PUSH2 0x73A JUMP JUMPDEST PUSH1 0x60 SWAP2 POP JUMPDEST POP POP DUP1 SWAP2 POP POP DUP1 PUSH2 0x780 JUMPI PUSH1 0x40 MLOAD PUSH32 0x8C379A000000000000000000000000000000000000000000000000000000000 DUP2 MSTORE PUSH1 0x4 ADD PUSH2 0x777 SWAP1 PUSH2 0xF9C JUMP JUMPDEST PUSH1 0x40 MLOAD DUP1 SWAP2 SUB SWAP1 REVERT JUMPDEST PUSH1 0x1 PUSH1 0x5 PUSH1 0x14 PUSH2 0x100 EXP DUP2 SLOAD DUP2 PUSH1 0xFF MUL NOT AND SWAP1 DUP4 ISZERO ISZERO MUL OR SWAP1 SSTORE POP POP POP JUMP JUMPDEST PUSH0 DUP1 SLOAD SWAP1 PUSH2 0x100 EXP SWAP1 DIV PUSH20 0xFFFFFFFFFFFFFFFFFFFFFFFFFFFFFFFFFFFFFFFF AND PUSH20 0xFFFFFFFFFFFFFFFFFFFFFFFFFFFFFFFFFFFFFFFF AND CALLER PUSH20 0xFFFFFFFFFFFFFFFFFFFFFFFFFFFFFFFFFFFFFFFF AND EQ PUSH2 0x82C JUMPI PUSH1 0x40 MLOAD PUSH32 0x8C379A000000000000000000000000000000000000000000000000000000000 DUP2 MSTORE PUSH1 0x4 ADD PUSH2 0x823 SWAP1 PUSH2 0x1004 JUMP JUMPDEST PUSH1 0x40 MLOAD DUP1 SWAP2 SUB SWAP1 REVERT JUMPDEST DUP1 PUSH1 0x2 PUSH0 DUP5 PUSH20 0xFFFFFFFFFFFFFFFFFFFFFFFFFFFFFFFFFFFFFFFF AND PUSH20 0xFFFFFFFFFFFFFFFFFFFFFFFFFFFFFFFFFFFFFFFF AND DUP2 MSTORE PUSH1 0x20 ADD SWAP1 DUP2 MSTORE PUSH1 0x20 ADD PUSH0 KECCAK256 DUP2 SWAP1 SSTORE POP POP POP JUMP JUMPDEST PUSH1 0x5 PUSH1 0x14 SWAP1 SLOAD SWAP1 PUSH2 0x100 EXP SWAP1 DIV PUSH1 0xFF AND DUP2 JUMP JUMPDEST PUSH1 0x3 SLOAD TIMESTAMP GT PUSH2 0x8C9 JUMPI PUSH1 0x40 MLOAD PUSH32 0x8C379A000000000000000000000000000000000000000000000000000000000 DUP2 MSTORE PUSH1 0x4 ADD PUSH2 0x8C0 SWAP1 PUSH2 0x106C JUMP JUMPDEST PUSH1 0x40 MLOAD DUP1 SWAP2 SUB SWAP1 REVERT JUMPDEST PUSH1 0x4 SLOAD PUSH1 0x3 SLOAD PUSH2 0x8D9 SWAP2 SWAP1 PUSH2 0xCD6 JUMP JUMPDEST TIMESTAMP GT ISZERO PUSH2 0x91B JUMPI PUSH1 0x40 MLOAD PUSH32 0x8C379A000000000000000000000000000000000000000000000000000000000 DUP2 MSTORE PUSH1 0x4 ADD PUSH2 0x912 SWAP1 PUSH2 0x10D4 JUMP JUMPDEST PUSH1 0x40 MLOAD DUP1 SWAP2 SUB SWAP1 REVERT JUMPDEST PUSH0 PUSH2 0x925 CALLVALUE PUSH2 0xA54 JUMP JUMPDEST SWAP1 POP PUSH8 0x8AC7230489E80000 DUP2 LT ISZERO PUSH2 0x972 JUMPI PUSH1 0x40 MLOAD PUSH32 0x8C379A000000000000000000000000000000000000000000000000000000000 DUP2 MSTORE PUSH1 0x4 ADD PUSH2 0x969 SWAP1 PUSH2 0x113C JUMP JUMPDEST PUSH1 0x40 MLOAD DUP1 SWAP2 SUB SWAP1 REVERT JUMPDEST CALLVALUE PUSH1 0x2 PUSH0 CALLER PUSH20 0xFFFFFFFFFFFFFFFFFFFFFFFFFFFFFFFFFFFFFFFF AND PUSH20 0xFFFFFFFFFFFFFFFFFFFFFFFFFFFFFFFFFFFFFFFF AND DUP2 MSTORE PUSH1 0x20 ADD SWAP1 DUP2 MSTORE PUSH1 0x20 ADD PUSH0 KECCAK256 DUP2 SWAP1 SSTORE POP POP JUMP JUMPDEST PUSH0 DUP1 PUSH1 0x1 PUSH0 SWAP1 SLOAD SWAP1 PUSH2 0x100 EXP SWAP1 DIV PUSH20 0xFFFFFFFFFFFFFFFFFFFFFFFFFFFFFFFFFFFFFFFF AND PUSH20 0xFFFFFFFFFFFFFFFFFFFFFFFFFFFFFFFFFFFFFFFF AND PUSH4 0xFEAF968C PUSH1 0x40 MLOAD DUP2 PUSH4 0xFFFFFFFF AND PUSH1 0xE0 SHL DUP2 MSTORE PUSH1 0x4 ADD PUSH1 0xA0 PUSH1 0x40 MLOAD DUP1 DUP4 SUB DUP2 DUP7 GAS STATICCALL ISZERO DUP1 ISZERO PUSH2 0xA23 JUMPI RETURNDATASIZE PUSH0 DUP1 RETURNDATACOPY RETURNDATASIZE PUSH0 REVERT JUMPDEST POP POP POP POP PUSH1 0x40 MLOAD RETURNDATASIZE PUSH1 0x1F NOT PUSH1 0x1F DUP3 ADD AND DUP3 ADD DUP1 PUSH1 0x40 MSTORE POP DUP2 ADD SWAP1 PUSH2 0xA47 SWAP2 SWAP1 PUSH2 0x11D7 JUMP JUMPDEST POP POP POP SWAP2 POP POP DUP1 SWAP2 POP POP SWAP1 JUMP JUMPDEST PUSH0 DUP1 PUSH2 0xA5E PUSH2 0x9B7 JUMP JUMPDEST SWAP1 POP DUP3 PUSH4 0x5F5E100 DUP3 PUSH2 0xA71 SWAP2 SWAP1 PUSH2 0x127B JUMP JUMPDEST PUSH2 0xA7B SWAP2 SWAP1 PUSH2 0x12AB JUMP JUMPDEST SWAP2 POP POP SWAP2 SWAP1 POP JUMP JUMPDEST PUSH0 DUP1 REVERT JUMPDEST PUSH0 PUSH20 0xFFFFFFFFFFFFFFFFFFFFFFFFFFFFFFFFFFFFFFFF DUP3 AND SWAP1 POP SWAP2 SWAP1 POP JUMP JUMPDEST PUSH0 PUSH2 0xAB0 DUP3 PUSH2 0xA87 JUMP JUMPDEST SWAP1 POP SWAP2 SWAP1 POP JUMP JUMPDEST PUSH2 0xAC0 DUP2 PUSH2 0xAA6 JUMP JUMPDEST DUP2 EQ PUSH2 0xACA JUMPI PUSH0 DUP1 REVERT JUMPDEST POP JUMP JUMPDEST PUSH0 DUP2 CALLDATALOAD SWAP1 POP PUSH2 0xADB DUP2 PUSH2 0xAB7 JUMP JUMPDEST SWAP3 SWAP2 POP POP JUMP JUMPDEST PUSH0 PUSH1 0x20 DUP3 DUP5 SUB SLT ISZERO PUSH2 0xAF6 JUMPI PUSH2 0xAF5 PUSH2 0xA83 JUMP JUMPDEST JUMPDEST PUSH0 PUSH2 0xB03 DUP5 DUP3 DUP6 ADD PUSH2 0xACD JUMP JUMPDEST SWAP2 POP POP SWAP3 SWAP2 POP POP JUMP JUMPDEST PUSH0 DUP2 SWAP1 POP SWAP2 SWAP1 POP JUMP JUMPDEST PUSH2 0xB1E DUP2 PUSH2 0xB0C JUMP JUMPDEST DUP3 MSTORE POP POP JUMP JUMPDEST PUSH0 PUSH1 0x20 DUP3 ADD SWAP1 POP PUSH2 0xB37 PUSH0 DUP4 ADD DUP5 PUSH2 0xB15 JUMP JUMPDEST SWAP3 SWAP2 POP POP JUMP JUMPDEST PUSH2 0xB46 DUP2 PUSH2 0xAA6 JUMP JUMPDEST DUP3 MSTORE POP POP JUMP JUMPDEST PUSH0 PUSH1 0x20 DUP3 ADD SWAP1 POP PUSH2 0xB5F PUSH0 DUP4 ADD DUP5 PUSH2 0xB3D JUMP JUMPDEST SWAP3 SWAP2 POP POP JUMP JUMPDEST PUSH2 0xB6E DUP2 PUSH2 0xB0C JUMP JUMPDEST DUP2 EQ PUSH2 0xB78 JUMPI PUSH0 DUP1 REVERT JUMPDEST POP JUMP JUMPDEST PUSH0 DUP2 CALLDATALOAD SWAP1 POP PUSH2 0xB89 DUP2 PUSH2 0xB65 JUMP JUMPDEST SWAP3 SWAP2 POP POP JUMP JUMPDEST PUSH0 DUP1 PUSH1 0x40 DUP4 DUP6 SUB SLT ISZERO PUSH2 0xBA5 JUMPI PUSH2 0xBA4 PUSH2 0xA83 JUMP JUMPDEST JUMPDEST PUSH0 PUSH2 0xBB2 DUP6 DUP3 DUP7 ADD PUSH2 0xACD JUMP JUMPDEST SWAP3 POP POP PUSH1 0x20 PUSH2 0xBC3 DUP6 DUP3 DUP7 ADD PUSH2 0xB7B JUMP JUMPDEST SWAP2 POP POP SWAP3 POP SWAP3 SWAP1 POP JUMP JUMPDEST PUSH0 DUP2 ISZERO ISZERO SWAP1 POP SWAP2 SWAP1 POP JUMP JUMPDEST PUSH2 0xBE1 DUP2 PUSH2 0xBCD JUMP JUMPDEST DUP3 MSTORE POP POP JUMP JUMPDEST PUSH0 PUSH1 0x20 DUP3 ADD SWAP1 POP PUSH2 0xBFA PUSH0 DUP4 ADD DUP5 PUSH2 0xBD8 JUMP JUMPDEST SWAP3 SWAP2 POP POP JUMP JUMPDEST PUSH0 DUP2 SWAP1 POP SWAP2 SWAP1 POP JUMP JUMPDEST PUSH2 0xC12 DUP2 PUSH2 0xC00 JUMP JUMPDEST DUP3 MSTORE POP POP JUMP JUMPDEST PUSH0 PUSH1 0x20 DUP3 ADD SWAP1 POP PUSH2 0xC2B PUSH0 DUP4 ADD DUP5 PUSH2 0xC09 JUMP JUMPDEST SWAP3 SWAP2 POP POP JUMP JUMPDEST PUSH0 DUP3 DUP3 MSTORE PUSH1 0x20 DUP3 ADD SWAP1 POP SWAP3 SWAP2 POP POP JUMP JUMPDEST PUSH32 0x596F7520617265206E6F7420746865206F776E65720000000000000000000000 PUSH0 DUP3 ADD MSTORE POP JUMP JUMPDEST PUSH0 PUSH2 0xC75 PUSH1 0x15 DUP4 PUSH2 0xC31 JUMP JUMPDEST SWAP2 POP PUSH2 0xC80 DUP3 PUSH2 0xC41 JUMP JUMPDEST PUSH1 0x20 DUP3 ADD SWAP1 POP SWAP2 SWAP1 POP JUMP JUMPDEST PUSH0 PUSH1 0x20 DUP3 ADD SWAP1 POP DUP2 DUP2 SUB PUSH0 DUP4 ADD MSTORE PUSH2 0xCA2 DUP2 PUSH2 0xC69 JUMP JUMPDEST SWAP1 POP SWAP2 SWAP1 POP JUMP JUMPDEST PUSH32 0x4E487B7100000000000000000000000000000000000000000000000000000000 PUSH0 MSTORE PUSH1 0x11 PUSH1 0x4 MSTORE PUSH1 0x24 PUSH0 REVERT JUMPDEST PUSH0 PUSH2 0xCE0 DUP3 PUSH2 0xB0C JUMP JUMPDEST SWAP2 POP PUSH2 0xCEB DUP4 PUSH2 0xB0C JUMP JUMPDEST SWAP3 POP DUP3 DUP3 ADD SWAP1 POP DUP1 DUP3 GT ISZERO PUSH2 0xD03 JUMPI PUSH2 0xD02 PUSH2 0xCA9 JUMP JUMPDEST JUMPDEST SWAP3 SWAP2 POP POP JUMP JUMPDEST PUSH32 0x5468652066756E64206973206E6F7420656E6420796574000000000000000000 PUSH0 DUP3 ADD MSTORE POP JUMP JUMPDEST PUSH0 PUSH2 0xD3D PUSH1 0x17 DUP4 PUSH2 0xC31 JUMP JUMPDEST SWAP2 POP PUSH2 0xD48 DUP3 PUSH2 0xD09 JUMP JUMPDEST PUSH1 0x20 DUP3 ADD SWAP1 POP SWAP2 SWAP1 POP JUMP JUMPDEST PUSH0 PUSH1 0x20 DUP3 ADD SWAP1 POP DUP2 DUP2 SUB PUSH0 DUP4 ADD MSTORE PUSH2 0xD6A DUP2 PUSH2 0xD31 JUMP JUMPDEST SWAP1 POP SWAP2 SWAP1 POP JUMP JUMPDEST PUSH32 0x54686520676F616C206973207265616368656400000000000000000000000000 PUSH0 DUP3 ADD MSTORE POP JUMP JUMPDEST PUSH0 PUSH2 0xDA5 PUSH1 0x13 DUP4 PUSH2 0xC31 JUMP JUMPDEST SWAP2 POP PUSH2 0xDB0 DUP3 PUSH2 0xD71 JUMP JUMPDEST PUSH1 0x20 DUP3 ADD SWAP1 POP SWAP2 SWAP1 POP JUMP JUMPDEST PUSH0 PUSH1 0x20 DUP3 ADD SWAP1 POP DUP2 DUP2 SUB PUSH0 DUP4 ADD MSTORE PUSH2 0xDD2 DUP2 PUSH2 0xD99 JUMP JUMPDEST SWAP1 POP SWAP2 SWAP1 POP JUMP JUMPDEST PUSH32 0x596F752068617665206E6F742066756E64000000000000000000000000000000 PUSH0 DUP3 ADD MSTORE POP JUMP JUMPDEST PUSH0 PUSH2 0xE0D PUSH1 0x11 DUP4 PUSH2 0xC31 JUMP JUMPDEST SWAP2 POP PUSH2 0xE18 DUP3 PUSH2 0xDD9 JUMP JUMPDEST PUSH1 0x20 DUP3 ADD SWAP1 POP SWAP2 SWAP1 POP JUMP JUMPDEST PUSH0 PUSH1 0x20 DUP3 ADD SWAP1 POP DUP2 DUP2 SUB PUSH0 DUP4 ADD MSTORE PUSH2 0xE3A DUP2 PUSH2 0xE01 JUMP JUMPDEST SWAP1 POP SWAP2 SWAP1 POP JUMP JUMPDEST PUSH0 DUP2 SWAP1 POP SWAP3 SWAP2 POP POP JUMP JUMPDEST POP JUMP JUMPDEST PUSH0 PUSH2 0xE59 PUSH0 DUP4 PUSH2 0xE41 JUMP JUMPDEST SWAP2 POP PUSH2 0xE64 DUP3 PUSH2 0xE4B JUMP JUMPDEST PUSH0 DUP3 ADD SWAP1 POP SWAP2 SWAP1 POP JUMP JUMPDEST PUSH0 PUSH2 0xE78 DUP3 PUSH2 0xE4E JUMP JUMPDEST SWAP2 POP DUP2 SWAP1 POP SWAP2 SWAP1 POP JUMP JUMPDEST PUSH32 0x526566756E64206661696C656400000000000000000000000000000000000000 PUSH0 DUP3 ADD MSTORE POP JUMP JUMPDEST PUSH0 PUSH2 0xEB6 PUSH1 0xD DUP4 PUSH2 0xC31 JUMP JUMPDEST SWAP2 POP PUSH2 0xEC1 DUP3 PUSH2 0xE82 JUMP JUMPDEST PUSH1 0x20 DUP3 ADD SWAP1 POP SWAP2 SWAP1 POP JUMP JUMPDEST PUSH0 PUSH1 0x20 DUP3 ADD SWAP1 POP DUP2 DUP2 SUB PUSH0 DUP4 ADD MSTORE PUSH2 0xEE3 DUP2 PUSH2 0xEAA JUMP JUMPDEST SWAP1 POP SWAP2 SWAP1 POP JUMP JUMPDEST PUSH32 0x54686520676F616C206973206E6F742072656163686564000000000000000000 PUSH0 DUP3 ADD MSTORE POP JUMP JUMPDEST PUSH0 PUSH2 0xF1E PUSH1 0x17 DUP4 PUSH2 0xC31 JUMP JUMPDEST SWAP2 POP PUSH2 0xF29 DUP3 PUSH2 0xEEA JUMP JUMPDEST PUSH1 0x20 DUP3 ADD SWAP1 POP SWAP2 SWAP1 POP JUMP JUMPDEST PUSH0 PUSH1 0x20 DUP3 ADD SWAP1 POP DUP2 DUP2 SUB PUSH0 DUP4 ADD MSTORE PUSH2 0xF4B DUP2 PUSH2 0xF12 JUMP JUMPDEST SWAP1 POP SWAP2 SWAP1 POP JUMP JUMPDEST PUSH32 0x4765742066756E64206661696C65640000000000000000000000000000000000 PUSH0 DUP3 ADD MSTORE POP JUMP JUMPDEST PUSH0 PUSH2 0xF86 PUSH1 0xF DUP4 PUSH2 0xC31 JUMP JUMPDEST SWAP2 POP PUSH2 0xF91 DUP3 PUSH2 0xF52 JUMP JUMPDEST PUSH1 0x20 DUP3 ADD SWAP1 POP SWAP2 SWAP1 POP JUMP JUMPDEST PUSH0 PUSH1 0x20 DUP3 ADD SWAP1 POP DUP2 DUP2 SUB PUSH0 DUP4 ADD MSTORE PUSH2 0xFB3 DUP2 PUSH2 0xF7A JUMP JUMPDEST SWAP1 POP SWAP2 SWAP1 POP JUMP JUMPDEST PUSH32 0x596F752063616E206E6F7420696E766F6B652074686973206170690000000000 PUSH0 DUP3 ADD MSTORE POP JUMP JUMPDEST PUSH0 PUSH2 0xFEE PUSH1 0x1B DUP4 PUSH2 0xC31 JUMP JUMPDEST SWAP2 POP PUSH2 0xFF9 DUP3 PUSH2 0xFBA JUMP JUMPDEST PUSH1 0x20 DUP3 ADD SWAP1 POP SWAP2 SWAP1 POP JUMP JUMPDEST PUSH0 PUSH1 0x20 DUP3 ADD SWAP1 POP DUP2 DUP2 SUB PUSH0 DUP4 ADD MSTORE PUSH2 0x101B DUP2 PUSH2 0xFE2 JUMP JUMPDEST SWAP1 POP SWAP2 SWAP1 POP JUMP JUMPDEST PUSH32 0x5468652066756E6420686173206E6F7420737461727465640000000000000000 PUSH0 DUP3 ADD MSTORE POP JUMP JUMPDEST PUSH0 PUSH2 0x1056 PUSH1 0x18 DUP4 PUSH2 0xC31 JUMP JUMPDEST SWAP2 POP PUSH2 0x1061 DUP3 PUSH2 0x1022 JUMP JUMPDEST PUSH1 0x20 DUP3 ADD SWAP1 POP SWAP2 SWAP1 POP JUMP JUMPDEST PUSH0 PUSH1 0x20 DUP3 ADD SWAP1 POP DUP2 DUP2 SUB PUSH0 DUP4 ADD MSTORE PUSH2 0x1083 DUP2 PUSH2 0x104A JUMP JUMPDEST SWAP1 POP SWAP2 SWAP1 POP JUMP JUMPDEST PUSH32 0x5468652066756E6420697320656E640000000000000000000000000000000000 PUSH0 DUP3 ADD MSTORE POP JUMP JUMPDEST PUSH0 PUSH2 0x10BE PUSH1 0xF DUP4 PUSH2 0xC31 JUMP JUMPDEST SWAP2 POP PUSH2 0x10C9 DUP3 PUSH2 0x108A JUMP JUMPDEST PUSH1 0x20 DUP3 ADD SWAP1 POP SWAP2 SWAP1 POP JUMP JUMPDEST PUSH0 PUSH1 0x20 DUP3 ADD SWAP1 POP DUP2 DUP2 SUB PUSH0 DUP4 ADD MSTORE PUSH2 0x10EB DUP2 PUSH2 0x10B2 JUMP JUMPDEST SWAP1 POP SWAP2 SWAP1 POP JUMP JUMPDEST PUSH32 0x596F75206E65656420746F20706179206D6F7265204554480000000000000000 PUSH0 DUP3 ADD MSTORE POP JUMP JUMPDEST PUSH0 PUSH2 0x1126 PUSH1 0x18 DUP4 PUSH2 0xC31 JUMP JUMPDEST SWAP2 POP PUSH2 0x1131 DUP3 PUSH2 0x10F2 JUMP JUMPDEST PUSH1 0x20 DUP3 ADD SWAP1 POP SWAP2 SWAP1 POP JUMP JUMPDEST PUSH0 PUSH1 0x20 DUP3 ADD SWAP1 POP DUP2 DUP2 SUB PUSH0 DUP4 ADD MSTORE PUSH2 0x1153 DUP2 PUSH2 0x111A JUMP JUMPDEST SWAP1 POP SWAP2 SWAP1 POP JUMP JUMPDEST PUSH0 PUSH10 0xFFFFFFFFFFFFFFFFFFFF DUP3 AND SWAP1 POP SWAP2 SWAP1 POP JUMP JUMPDEST PUSH2 0x1178 DUP2 PUSH2 0x115A JUMP JUMPDEST DUP2 EQ PUSH2 0x1182 JUMPI PUSH0 DUP1 REVERT JUMPDEST POP JUMP JUMPDEST PUSH0 DUP2 MLOAD SWAP1 POP PUSH2 0x1193 DUP2 PUSH2 0x116F JUMP JUMPDEST SWAP3 SWAP2 POP POP JUMP JUMPDEST PUSH2 0x11A2 DUP2 PUSH2 0xC00 JUMP JUMPDEST DUP2 EQ PUSH2 0x11AC JUMPI PUSH0 DUP1 REVERT JUMPDEST POP JUMP JUMPDEST PUSH0 DUP2 MLOAD SWAP1 POP PUSH2 0x11BD DUP2 PUSH2 0x1199 JUMP JUMPDEST SWAP3 SWAP2 POP POP JUMP JUMPDEST PUSH0 DUP2 MLOAD SWAP1 POP PUSH2 0x11D1 DUP2 PUSH2 0xB65 JUMP JUMPDEST SWAP3 SWAP2 POP POP JUMP JUMPDEST PUSH0 DUP1 PUSH0 DUP1 PUSH0 PUSH1 0xA0 DUP7 DUP9 SUB SLT ISZERO PUSH2 0x11F0 JUMPI PUSH2 0x11EF PUSH2 0xA83 JUMP JUMPDEST JUMPDEST PUSH0 PUSH2 0x11FD DUP9 DUP3 DUP10 ADD PUSH2 0x1185 JUMP JUMPDEST SWAP6 POP POP PUSH1 0x20 PUSH2 0x120E DUP9 DUP3 DUP10 ADD PUSH2 0x11AF JUMP JUMPDEST SWAP5 POP POP PUSH1 0x40 PUSH2 0x121F DUP9 DUP3 DUP10 ADD PUSH2 0x11C3 JUMP JUMPDEST SWAP4 POP POP PUSH1 0x60 PUSH2 0x1230 DUP9 DUP3 DUP10 ADD PUSH2 0x11C3 JUMP JUMPDEST SWAP3 POP POP PUSH1 0x80 PUSH2 0x1241 DUP9 DUP3 DUP10 ADD PUSH2 0x1185 JUMP JUMPDEST SWAP2 POP POP SWAP3 SWAP6 POP SWAP3 SWAP6 SWAP1 SWAP4 POP JUMP JUMPDEST PUSH32 0x4E487B7100000000000000000000000000000000000000000000000000000000 PUSH0 MSTORE PUSH1 0x12 PUSH1 0x4 MSTORE PUSH1 0x24 PUSH0 REVERT JUMPDEST PUSH0 PUSH2 0x1285 DUP3 PUSH2 0xB0C JUMP JUMPDEST SWAP2 POP PUSH2 0x1290 DUP4 PUSH2 0xB0C JUMP JUMPDEST SWAP3 POP DUP3 PUSH2 0x12A0 JUMPI PUSH2 0x129F PUSH2 0x124E JUMP JUMPDEST JUMPDEST DUP3 DUP3 DIV SWAP1 POP SWAP3 SWAP2 POP POP JUMP JUMPDEST PUSH0 PUSH2 0x12B5 DUP3 PUSH2 0xB0C JUMP JUMPDEST SWAP2 POP PUSH2 0x12C0 DUP4 PUSH2 0xB0C JUMP JUMPDEST SWAP3 POP DUP3 DUP3 MUL PUSH2 0x12CE DUP2 PUSH2 0xB0C JUMP JUMPDEST SWAP2 POP DUP3 DUP3 DIV DUP5 EQ DUP4 ISZERO OR PUSH2 0x12E5 JUMPI PUSH2 0x12E4 PUSH2 0xCA9 JUMP JUMPDEST JUMPDEST POP SWAP3 SWAP2 POP POP JUMP INVALID LOG2 PUSH5 0x6970667358 0x22 SLT KECCAK256 0xD 0xE3 0xE0 TLOAD 0xC0 0xAD 0xF6 0xDF REVERT PUSH23 0xF29F4FAD1DF03E0E95B4FDF81861AA44DB7F3B46032964 PUSH20 0x6F6C634300081A00330000000000000000000000 "
				},
				"gasEstimates": {
					"creation": {
						"codeDepositCost": "979600",
						"executionCost": "infinite",
						"totalCost": "infinite"
					},
					"external": {
						"duration()": "2448",
						"fundMe()": "infinite",
						"funders(address)": "2803",
						"getChainlinkDataFeedLatestAnswer()": "infinite",
						"getFund()": "infinite",
						"getFundResult()": "2583",
						"owner()": "2508",
						"refund()": "infinite",
						"setErc20Addr(address)": "26929",
						"setFundAmount(address,uint256)": "25032",
						"startTime()": "2514"
					},
					"internal": {
						"convertToUSD(uint256)": "infinite"
					}
				},
				"methodIdentifiers": {
					"duration()": "0fb5a6b4",
					"fundMe()": "b6a324e0",
					"funders(address)": "031b3677",
					"getChainlinkDataFeedLatestAnswer()": "bea4dfb5",
					"getFund()": "8edd6eb6",
					"getFundResult()": "a2a99196",
					"owner()": "8da5cb5b",
					"refund()": "590e1ae3",
					"setErc20Addr(address)": "13ffff01",
					"setFundAmount(address,uint256)": "95e26801",
					"startTime()": "78e97925"
				}
			},
			"storageLayout": {
				"storage": [
					{
						"astId": 65,
						"contract": "contracts/FundMe.sol:FundMe",
						"label": "erc20Addr",
						"offset": 0,
						"slot": "0",
						"type": "t_address"
					},
					{
						"astId": 68,
						"contract": "contracts/FundMe.sol:FundMe",
						"label": "dataFeed",
						"offset": 0,
						"slot": "1",
						"type": "t_contract(AggregatorV3Interface)45"
					},
					{
						"astId": 72,
						"contract": "contracts/FundMe.sol:FundMe",
						"label": "funders",
						"offset": 0,
						"slot": "2",
						"type": "t_mapping(t_address,t_uint256)"
					},
					{
						"astId": 74,
						"contract": "contracts/FundMe.sol:FundMe",
						"label": "startTime",
						"offset": 0,
						"slot": "3",
						"type": "t_uint256"
					},
					{
						"astId": 76,
						"contract": "contracts/FundMe.sol:FundMe",
						"label": "duration",
						"offset": 0,
						"slot": "4",
						"type": "t_uint256"
					},
					{
						"astId": 78,
						"contract": "contracts/FundMe.sol:FundMe",
						"label": "owner",
						"offset": 0,
						"slot": "5",
						"type": "t_address"
					},
					{
						"astId": 80,
						"contract": "contracts/FundMe.sol:FundMe",
						"label": "getFundResult",
						"offset": 20,
						"slot": "5",
						"type": "t_bool"
					}
				],
				"types": {
					"t_address": {
						"encoding": "inplace",
						"label": "address",
						"numberOfBytes": "20"
					},
					"t_bool": {
						"encoding": "inplace",
						"label": "bool",
						"numberOfBytes": "1"
					},
					"t_contract(AggregatorV3Interface)45": {
						"encoding": "inplace",
						"label": "contract AggregatorV3Interface",
						"numberOfBytes": "20"
					},
					"t_mapping(t_address,t_uint256)": {
						"encoding": "mapping",
						"key": "t_address",
						"label": "mapping(address => uint256)",
						"numberOfBytes": "32",
						"value": "t_uint256"
					},
					"t_uint256": {
						"encoding": "inplace",
						"label": "uint256",
						"numberOfBytes": "32"
					}
				}
			},
			"userdoc": {
				"kind": "user",
				"methods": {
					"getChainlinkDataFeedLatestAnswer()": {
						"notice": "Returns the latest answer."
					}
				},
				"version": 1
			}
		}
	}
}