{
	"contracts/NFTLockAndRelease.sol": {
		"Messenger": {
			"abi": [
				{
					"inputs": [
						{
							"internalType": "address",
							"name": "_router",
							"type": "address"
						},
						{
							"internalType": "address",
							"name": "_link",
							"type": "address"
						}
					],
					"stateMutability": "nonpayable",
					"type": "constructor"
				},
				{
					"inputs": [
						{
							"internalType": "uint64",
							"name": "destinationChainSelector",
							"type": "uint64"
						}
					],
					"name": "DestinationChainNotAllowlisted",
					"type": "error"
				},
				{
					"inputs": [
						{
							"internalType": "address",
							"name": "owner",
							"type": "address"
						},
						{
							"internalType": "address",
							"name": "target",
							"type": "address"
						},
						{
							"internalType": "uint256",
							"name": "value",
							"type": "uint256"
						}
					],
					"name": "FailedToWithdrawEth",
					"type": "error"
				},
				{
					"inputs": [],
					"name": "InvalidReceiverAddress",
					"type": "error"
				},
				{
					"inputs": [
						{
							"internalType": "address",
							"name": "router",
							"type": "address"
						}
					],
					"name": "InvalidRouter",
					"type": "error"
				},
				{
					"inputs": [
						{
							"internalType": "uint256",
							"name": "currentBalance",
							"type": "uint256"
						},
						{
							"internalType": "uint256",
							"name": "calculatedFees",
							"type": "uint256"
						}
					],
					"name": "NotEnoughBalance",
					"type": "error"
				},
				{
					"inputs": [],
					"name": "NothingToWithdraw",
					"type": "error"
				},
				{
					"inputs": [
						{
							"internalType": "address",
							"name": "sender",
							"type": "address"
						}
					],
					"name": "SenderNotAllowlisted",
					"type": "error"
				},
				{
					"inputs": [
						{
							"internalType": "uint64",
							"name": "sourceChainSelector",
							"type": "uint64"
						}
					],
					"name": "SourceChainNotAllowlisted",
					"type": "error"
				},
				{
					"anonymous": false,
					"inputs": [
						{
							"indexed": true,
							"internalType": "bytes32",
							"name": "messageId",
							"type": "bytes32"
						},
						{
							"indexed": true,
							"internalType": "uint64",
							"name": "sourceChainSelector",
							"type": "uint64"
						},
						{
							"indexed": false,
							"internalType": "address",
							"name": "sender",
							"type": "address"
						},
						{
							"indexed": false,
							"internalType": "string",
							"name": "text",
							"type": "string"
						}
					],
					"name": "MessageReceived",
					"type": "event"
				},
				{
					"anonymous": false,
					"inputs": [
						{
							"indexed": true,
							"internalType": "bytes32",
							"name": "messageId",
							"type": "bytes32"
						},
						{
							"indexed": true,
							"internalType": "uint64",
							"name": "destinationChainSelector",
							"type": "uint64"
						},
						{
							"indexed": false,
							"internalType": "address",
							"name": "receiver",
							"type": "address"
						},
						{
							"indexed": false,
							"internalType": "string",
							"name": "text",
							"type": "string"
						},
						{
							"indexed": false,
							"internalType": "address",
							"name": "feeToken",
							"type": "address"
						},
						{
							"indexed": false,
							"internalType": "uint256",
							"name": "fees",
							"type": "uint256"
						}
					],
					"name": "MessageSent",
					"type": "event"
				},
				{
					"anonymous": false,
					"inputs": [
						{
							"indexed": true,
							"internalType": "address",
							"name": "from",
							"type": "address"
						},
						{
							"indexed": true,
							"internalType": "address",
							"name": "to",
							"type": "address"
						}
					],
					"name": "OwnershipTransferRequested",
					"type": "event"
				},
				{
					"anonymous": false,
					"inputs": [
						{
							"indexed": true,
							"internalType": "address",
							"name": "from",
							"type": "address"
						},
						{
							"indexed": true,
							"internalType": "address",
							"name": "to",
							"type": "address"
						}
					],
					"name": "OwnershipTransferred",
					"type": "event"
				},
				{
					"inputs": [],
					"name": "acceptOwnership",
					"outputs": [],
					"stateMutability": "nonpayable",
					"type": "function"
				},
				{
					"inputs": [
						{
							"internalType": "uint64",
							"name": "_destinationChainSelector",
							"type": "uint64"
						},
						{
							"internalType": "bool",
							"name": "allowed",
							"type": "bool"
						}
					],
					"name": "allowlistDestinationChain",
					"outputs": [],
					"stateMutability": "nonpayable",
					"type": "function"
				},
				{
					"inputs": [
						{
							"internalType": "address",
							"name": "_sender",
							"type": "address"
						},
						{
							"internalType": "bool",
							"name": "allowed",
							"type": "bool"
						}
					],
					"name": "allowlistSender",
					"outputs": [],
					"stateMutability": "nonpayable",
					"type": "function"
				},
				{
					"inputs": [
						{
							"internalType": "uint64",
							"name": "_sourceChainSelector",
							"type": "uint64"
						},
						{
							"internalType": "bool",
							"name": "allowed",
							"type": "bool"
						}
					],
					"name": "allowlistSourceChain",
					"outputs": [],
					"stateMutability": "nonpayable",
					"type": "function"
				},
				{
					"inputs": [
						{
							"internalType": "uint64",
							"name": "",
							"type": "uint64"
						}
					],
					"name": "allowlistedDestinationChains",
					"outputs": [
						{
							"internalType": "bool",
							"name": "",
							"type": "bool"
						}
					],
					"stateMutability": "view",
					"type": "function"
				},
				{
					"inputs": [
						{
							"internalType": "address",
							"name": "",
							"type": "address"
						}
					],
					"name": "allowlistedSenders",
					"outputs": [
						{
							"internalType": "bool",
							"name": "",
							"type": "bool"
						}
					],
					"stateMutability": "view",
					"type": "function"
				},
				{
					"inputs": [
						{
							"internalType": "uint64",
							"name": "",
							"type": "uint64"
						}
					],
					"name": "allowlistedSourceChains",
					"outputs": [
						{
							"internalType": "bool",
							"name": "",
							"type": "bool"
						}
					],
					"stateMutability": "view",
					"type": "function"
				},
				{
					"inputs": [
						{
							"components": [
								{
									"internalType": "bytes32",
									"name": "messageId",
									"type": "bytes32"
								},
								{
									"internalType": "uint64",
									"name": "sourceChainSelector",
									"type": "uint64"
								},
								{
									"internalType": "bytes",
									"name": "sender",
									"type": "bytes"
								},
								{
									"internalType": "bytes",
									"name": "data",
									"type": "bytes"
								},
								{
									"components": [
										{
											"internalType": "address",
											"name": "token",
											"type": "address"
										},
										{
											"internalType": "uint256",
											"name": "amount",
											"type": "uint256"
										}
									],
									"internalType": "struct Client.EVMTokenAmount[]",
									"name": "destTokenAmounts",
									"type": "tuple[]"
								}
							],
							"internalType": "struct Client.Any2EVMMessage",
							"name": "message",
							"type": "tuple"
						}
					],
					"name": "ccipReceive",
					"outputs": [],
					"stateMutability": "nonpayable",
					"type": "function"
				},
				{
					"inputs": [],
					"name": "getRouter",
					"outputs": [
						{
							"internalType": "address",
							"name": "",
							"type": "address"
						}
					],
					"stateMutability": "view",
					"type": "function"
				},
				{
					"inputs": [],
					"name": "owner",
					"outputs": [
						{
							"internalType": "address",
							"name": "",
							"type": "address"
						}
					],
					"stateMutability": "view",
					"type": "function"
				},
				{
					"inputs": [
						{
							"internalType": "uint64",
							"name": "_destinationChainSelector",
							"type": "uint64"
						},
						{
							"internalType": "address",
							"name": "_receiver",
							"type": "address"
						},
						{
							"internalType": "string",
							"name": "_text",
							"type": "string"
						}
					],
					"name": "sendMessagePayLINK",
					"outputs": [
						{
							"internalType": "bytes32",
							"name": "messageId",
							"type": "bytes32"
						}
					],
					"stateMutability": "nonpayable",
					"type": "function"
				},
				{
					"inputs": [
						{
							"internalType": "bytes4",
							"name": "interfaceId",
							"type": "bytes4"
						}
					],
					"name": "supportsInterface",
					"outputs": [
						{
							"internalType": "bool",
							"name": "",
							"type": "bool"
						}
					],
					"stateMutability": "view",
					"type": "function"
				},
				{
					"inputs": [
						{
							"internalType": "address",
							"name": "to",
							"type": "address"
						}
					],
					"name": "transferOwnership",
					"outputs": [],
					"stateMutability": "nonpayable",
					"type": "function"
				}
			],
			"devdoc": {
				"kind": "dev",
				"methods": {
					"allowlistDestinationChain(uint64,bool)": {
						"details": "Updates the allowlist status of a destination chain for transactions."
					},
					"allowlistSender(address,bool)": {
						"details": "Updates the allowlist status of a sender for transactions."
					},
					"allowlistSourceChain(uint64,bool)": {
						"details": "Updates the allowlist status of a source chain for transactions."
					},
					"ccipReceive((bytes32,uint64,bytes,bytes,(address,uint256)[]))": {
						"details": "Note ensure you check the msg.sender is the OffRampRouter",
						"params": {
							"message": "CCIP Message"
						}
					},
					"constructor": {
						"params": {
							"_link": "The address of the link contract.",
							"_router": "The address of the router contract."
						}
					},
					"getRouter()": {
						"returns": {
							"_0": "CCIP router address"
						}
					},
					"sendMessagePayLINK(uint64,address,string)": {
						"details": "Assumes your contract has sufficient LINK.",
						"params": {
							"_destinationChainSelector": "The identifier (aka selector) for the destination blockchain.",
							"_receiver": "The address of the recipient on the destination blockchain.",
							"_text": "The text to be sent."
						},
						"returns": {
							"messageId": "The ID of the CCIP message that was sent."
						}
					},
					"supportsInterface(bytes4)": {
						"details": "Should indicate whether the contract implements IAny2EVMMessageReceiver e.g. return interfaceId == type(IAny2EVMMessageReceiver).interfaceId || interfaceId == type(IERC165).interfaceId This allows CCIP to check if ccipReceive is available before calling it. If this returns false or reverts, only tokens are transferred to the receiver. If this returns true, tokens are transferred and ccipReceive is called atomically. Additionally, if the receiver address does not have code associated with it at the time of execution (EXTCODESIZE returns 0), only tokens will be transferred.",
						"params": {
							"interfaceId": "The interfaceId to check"
						},
						"returns": {
							"_0": "true if the interfaceId is supported"
						}
					}
				},
				"version": 1
			},
			"evm": {
				"assembly": "    /* \"contracts/NFTLockAndRelease.sol\":722:10871  contract Messenger is CCIPReceiver, OwnerIsCreator {... */\n  mstore(0x40, 0xa0)\n    /* \"contracts/NFTLockAndRelease.sol\":3432:3544  constructor(address _router, address _link) CCIPReceiver(_router) {... */\n  callvalue\n  dup1\n  iszero\n  tag_1\n  jumpi\n  0x00\n  dup1\n  revert\ntag_1:\n  pop\n  mload(0x40)\n  sub(codesize, bytecodeSize)\n  dup1\n  bytecodeSize\n  dup4\n  codecopy\n  dup2\n  dup2\n  add\n  0x40\n  mstore\n  dup2\n  add\n  swap1\n  tag_2\n  swap2\n  swap1\n  tag_3\n  jump\t// in\ntag_2:\n    /* \"@chainlink/contracts-ccip/src/v0.8/shared/access/OwnerIsCreator.sol\":291:301  msg.sender */\n  caller\n    /* \"@chainlink/contracts-ccip/src/v0.8/shared/access/ConfirmedOwner.sol\":355:363  newOwner */\n  dup1\n    /* \"@chainlink/contracts-ccip/src/v0.8/shared/access/ConfirmedOwner.sol\":373:374  0 */\n  0x00\n    /* \"contracts/NFTLockAndRelease.sol\":3489:3496  _router */\n  dup5\n    /* \"@chainlink/contracts-ccip/src/v0.8/ccip/applications/CCIPReceiver.sol\":560:561  0 */\n  0x00\n    /* \"@chainlink/contracts-ccip/src/v0.8/ccip/applications/CCIPReceiver.sol\":542:562  router == address(0) */\n  0xffffffffffffffffffffffffffffffffffffffff\n  and\n    /* \"@chainlink/contracts-ccip/src/v0.8/ccip/applications/CCIPReceiver.sol\":542:548  router */\n  dup2\n    /* \"@chainlink/contracts-ccip/src/v0.8/ccip/applications/CCIPReceiver.sol\":542:562  router == address(0) */\n  0xffffffffffffffffffffffffffffffffffffffff\n  and\n  sub\n    /* \"@chainlink/contracts-ccip/src/v0.8/ccip/applications/CCIPReceiver.sol\":538:596  if (router == address(0)) revert InvalidRouter(address(0)) */\n  tag_10\n  jumpi\n    /* \"@chainlink/contracts-ccip/src/v0.8/ccip/applications/CCIPReceiver.sol\":593:594  0 */\n  0x00\n    /* \"@chainlink/contracts-ccip/src/v0.8/ccip/applications/CCIPReceiver.sol\":571:596  InvalidRouter(address(0)) */\n  mload(0x40)\n  0xd7f7333400000000000000000000000000000000000000000000000000000000\n  dup2\n  mstore\n  0x04\n  add\n  tag_11\n  swap2\n  swap1\n  tag_12\n  jump\t// in\ntag_11:\n  mload(0x40)\n  dup1\n  swap2\n  sub\n  swap1\n  revert\n    /* \"@chainlink/contracts-ccip/src/v0.8/ccip/applications/CCIPReceiver.sol\":538:596  if (router == address(0)) revert InvalidRouter(address(0)) */\ntag_10:\n    /* \"@chainlink/contracts-ccip/src/v0.8/ccip/applications/CCIPReceiver.sol\":617:623  router */\n  dup1\n    /* \"@chainlink/contracts-ccip/src/v0.8/ccip/applications/CCIPReceiver.sol\":602:623  i_ccipRouter = router */\n  0xffffffffffffffffffffffffffffffffffffffff\n  and\n  0x80\n  dup2\n  0xffffffffffffffffffffffffffffffffffffffff\n  and\n  dup2\n  mstore\n  pop\n  pop\n    /* \"@chainlink/contracts-ccip/src/v0.8/ccip/applications/CCIPReceiver.sol\":504:628  constructor(address router) {... */\n  pop\n    /* \"@chainlink/contracts-ccip/src/v0.8/shared/access/ConfirmedOwnerWithProposal.sol\":618:619  0 */\n  0x00\n    /* \"@chainlink/contracts-ccip/src/v0.8/shared/access/ConfirmedOwnerWithProposal.sol\":598:620  newOwner != address(0) */\n  0xffffffffffffffffffffffffffffffffffffffff\n  and\n    /* \"@chainlink/contracts-ccip/src/v0.8/shared/access/ConfirmedOwnerWithProposal.sol\":598:606  newOwner */\n  dup3\n    /* \"@chainlink/contracts-ccip/src/v0.8/shared/access/ConfirmedOwnerWithProposal.sol\":598:620  newOwner != address(0) */\n  0xffffffffffffffffffffffffffffffffffffffff\n  and\n  sub\n    /* \"@chainlink/contracts-ccip/src/v0.8/shared/access/ConfirmedOwnerWithProposal.sol\":590:649  require(newOwner != address(0), \"Cannot set owner to zero\") */\n  tag_14\n  jumpi\n  mload(0x40)\n  0x08c379a000000000000000000000000000000000000000000000000000000000\n  dup2\n  mstore\n  0x04\n  add\n  tag_15\n  swap1\n  tag_16\n  jump\t// in\ntag_15:\n  mload(0x40)\n  dup1\n  swap2\n  sub\n  swap1\n  revert\ntag_14:\n    /* \"@chainlink/contracts-ccip/src/v0.8/shared/access/ConfirmedOwnerWithProposal.sol\":666:674  newOwner */\n  dup2\n    /* \"@chainlink/contracts-ccip/src/v0.8/shared/access/ConfirmedOwnerWithProposal.sol\":656:663  s_owner */\n  0x00\n  dup1\n    /* \"@chainlink/contracts-ccip/src/v0.8/shared/access/ConfirmedOwnerWithProposal.sol\":656:674  s_owner = newOwner */\n  0x0100\n  exp\n  dup2\n  sload\n  dup2\n  0xffffffffffffffffffffffffffffffffffffffff\n  mul\n  not\n  and\n  swap1\n  dup4\n  0xffffffffffffffffffffffffffffffffffffffff\n  and\n  mul\n  or\n  swap1\n  sstore\n  pop\n    /* \"@chainlink/contracts-ccip/src/v0.8/shared/access/ConfirmedOwnerWithProposal.sol\":708:709  0 */\n  0x00\n    /* \"@chainlink/contracts-ccip/src/v0.8/shared/access/ConfirmedOwnerWithProposal.sol\":684:710  pendingOwner != address(0) */\n  0xffffffffffffffffffffffffffffffffffffffff\n  and\n    /* \"@chainlink/contracts-ccip/src/v0.8/shared/access/ConfirmedOwnerWithProposal.sol\":684:696  pendingOwner */\n  dup2\n    /* \"@chainlink/contracts-ccip/src/v0.8/shared/access/ConfirmedOwnerWithProposal.sol\":684:710  pendingOwner != address(0) */\n  0xffffffffffffffffffffffffffffffffffffffff\n  and\n  eq\n    /* \"@chainlink/contracts-ccip/src/v0.8/shared/access/ConfirmedOwnerWithProposal.sol\":680:759  if (pendingOwner != address(0)) {... */\n  tag_17\n  jumpi\n    /* \"@chainlink/contracts-ccip/src/v0.8/shared/access/ConfirmedOwnerWithProposal.sol\":720:752  _transferOwnership(pendingOwner) */\n  tag_18\n    /* \"@chainlink/contracts-ccip/src/v0.8/shared/access/ConfirmedOwnerWithProposal.sol\":739:751  pendingOwner */\n  dup2\n    /* \"@chainlink/contracts-ccip/src/v0.8/shared/access/ConfirmedOwnerWithProposal.sol\":720:738  _transferOwnership */\n  shl(0x20, tag_19)\n    /* \"@chainlink/contracts-ccip/src/v0.8/shared/access/ConfirmedOwnerWithProposal.sol\":720:752  _transferOwnership(pendingOwner) */\n  0x20\n  shr\n  jump\t// in\ntag_18:\n    /* \"@chainlink/contracts-ccip/src/v0.8/shared/access/ConfirmedOwnerWithProposal.sol\":680:759  if (pendingOwner != address(0)) {... */\ntag_17:\n    /* \"@chainlink/contracts-ccip/src/v0.8/shared/access/ConfirmedOwnerWithProposal.sol\":481:763  constructor(address newOwner, address pendingOwner) {... */\n  pop\n  pop\n    /* \"@chainlink/contracts-ccip/src/v0.8/shared/access/ConfirmedOwner.sol\":298:379  constructor(address newOwner) ConfirmedOwnerWithProposal(newOwner, address(0)) {} */\n  pop\n    /* \"contracts/NFTLockAndRelease.sol\":3530:3535  _link */\n  dup1\n    /* \"contracts/NFTLockAndRelease.sol\":3509:3520  s_linkToken */\n  0x07\n  0x00\n    /* \"contracts/NFTLockAndRelease.sol\":3509:3536  s_linkToken = IERC20(_link) */\n  0x0100\n  exp\n  dup2\n  sload\n  dup2\n  0xffffffffffffffffffffffffffffffffffffffff\n  mul\n  not\n  and\n  swap1\n  dup4\n  0xffffffffffffffffffffffffffffffffffffffff\n  and\n  mul\n  or\n  swap1\n  sstore\n  pop\n    /* \"contracts/NFTLockAndRelease.sol\":3432:3544  constructor(address _router, address _link) CCIPReceiver(_router) {... */\n  pop\n  pop\n    /* \"contracts/NFTLockAndRelease.sol\":722:10871  contract Messenger is CCIPReceiver, OwnerIsCreator {... */\n  jump(tag_23)\n    /* \"@chainlink/contracts-ccip/src/v0.8/shared/access/ConfirmedOwnerWithProposal.sol\":1536:1775  function _transferOwnership(address to) private {... */\ntag_19:\n    /* \"@chainlink/contracts-ccip/src/v0.8/shared/access/ConfirmedOwnerWithProposal.sol\":1655:1665  msg.sender */\n  caller\n    /* \"@chainlink/contracts-ccip/src/v0.8/shared/access/ConfirmedOwnerWithProposal.sol\":1649:1665  to != msg.sender */\n  0xffffffffffffffffffffffffffffffffffffffff\n  and\n    /* \"@chainlink/contracts-ccip/src/v0.8/shared/access/ConfirmedOwnerWithProposal.sol\":1649:1651  to */\n  dup2\n    /* \"@chainlink/contracts-ccip/src/v0.8/shared/access/ConfirmedOwnerWithProposal.sol\":1649:1665  to != msg.sender */\n  0xffffffffffffffffffffffffffffffffffffffff\n  and\n  sub\n    /* \"@chainlink/contracts-ccip/src/v0.8/shared/access/ConfirmedOwnerWithProposal.sol\":1641:1693  require(to != msg.sender, \"Cannot transfer to self\") */\n  tag_25\n  jumpi\n  mload(0x40)\n  0x08c379a000000000000000000000000000000000000000000000000000000000\n  dup2\n  mstore\n  0x04\n  add\n  tag_26\n  swap1\n  tag_27\n  jump\t// in\ntag_26:\n  mload(0x40)\n  dup1\n  swap2\n  sub\n  swap1\n  revert\ntag_25:\n    /* \"@chainlink/contracts-ccip/src/v0.8/shared/access/ConfirmedOwnerWithProposal.sol\":1717:1719  to */\n  dup1\n    /* \"@chainlink/contracts-ccip/src/v0.8/shared/access/ConfirmedOwnerWithProposal.sol\":1700:1714  s_pendingOwner */\n  0x01\n  0x00\n    /* \"@chainlink/contracts-ccip/src/v0.8/shared/access/ConfirmedOwnerWithProposal.sol\":1700:1719  s_pendingOwner = to */\n  0x0100\n  exp\n  dup2\n  sload\n  dup2\n  0xffffffffffffffffffffffffffffffffffffffff\n  mul\n  not\n  and\n  swap1\n  dup4\n  0xffffffffffffffffffffffffffffffffffffffff\n  and\n  mul\n  or\n  swap1\n  sstore\n  pop\n    /* \"@chainlink/contracts-ccip/src/v0.8/shared/access/ConfirmedOwnerWithProposal.sol\":1767:1769  to */\n  dup1\n    /* \"@chainlink/contracts-ccip/src/v0.8/shared/access/ConfirmedOwnerWithProposal.sol\":1731:1770  OwnershipTransferRequested(s_owner, to) */\n  0xffffffffffffffffffffffffffffffffffffffff\n  and\n    /* \"@chainlink/contracts-ccip/src/v0.8/shared/access/ConfirmedOwnerWithProposal.sol\":1758:1765  s_owner */\n  0x00\n  dup1\n  sload\n  swap1\n  0x0100\n  exp\n  swap1\n  div\n  0xffffffffffffffffffffffffffffffffffffffff\n  and\n    /* \"@chainlink/contracts-ccip/src/v0.8/shared/access/ConfirmedOwnerWithProposal.sol\":1731:1770  OwnershipTransferRequested(s_owner, to) */\n  0xffffffffffffffffffffffffffffffffffffffff\n  and\n  0xed8889f560326eb138920d842192f0eb3dd22b4f139c87a2c57538e05bae1278\n  mload(0x40)\n  mload(0x40)\n  dup1\n  swap2\n  sub\n  swap1\n  log3\n    /* \"@chainlink/contracts-ccip/src/v0.8/shared/access/ConfirmedOwnerWithProposal.sol\":1536:1775  function _transferOwnership(address to) private {... */\n  pop\n  jump\t// out\n    /* \"#utility.yul\":88:205   */\ntag_29:\n    /* \"#utility.yul\":197:198   */\n  0x00\n    /* \"#utility.yul\":194:195   */\n  dup1\n    /* \"#utility.yul\":187:199   */\n  revert\n    /* \"#utility.yul\":334:460   */\ntag_31:\n    /* \"#utility.yul\":371:378   */\n  0x00\n    /* \"#utility.yul\":411:453   */\n  0xffffffffffffffffffffffffffffffffffffffff\n    /* \"#utility.yul\":404:409   */\n  dup3\n    /* \"#utility.yul\":400:454   */\n  and\n    /* \"#utility.yul\":389:454   */\n  swap1\n  pop\n    /* \"#utility.yul\":334:460   */\n  swap2\n  swap1\n  pop\n  jump\t// out\n    /* \"#utility.yul\":466:562   */\ntag_32:\n    /* \"#utility.yul\":503:510   */\n  0x00\n    /* \"#utility.yul\":532:556   */\n  tag_47\n    /* \"#utility.yul\":550:555   */\n  dup3\n    /* \"#utility.yul\":532:556   */\n  tag_31\n  jump\t// in\ntag_47:\n    /* \"#utility.yul\":521:556   */\n  swap1\n  pop\n    /* \"#utility.yul\":466:562   */\n  swap2\n  swap1\n  pop\n  jump\t// out\n    /* \"#utility.yul\":568:690   */\ntag_33:\n    /* \"#utility.yul\":641:665   */\n  tag_49\n    /* \"#utility.yul\":659:664   */\n  dup2\n    /* \"#utility.yul\":641:665   */\n  tag_32\n  jump\t// in\ntag_49:\n    /* \"#utility.yul\":634:639   */\n  dup2\n    /* \"#utility.yul\":631:666   */\n  eq\n    /* \"#utility.yul\":621:684   */\n  tag_50\n  jumpi\n    /* \"#utility.yul\":680:681   */\n  0x00\n    /* \"#utility.yul\":677:678   */\n  dup1\n    /* \"#utility.yul\":670:682   */\n  revert\n    /* \"#utility.yul\":621:684   */\ntag_50:\n    /* \"#utility.yul\":568:690   */\n  pop\n  jump\t// out\n    /* \"#utility.yul\":696:839   */\ntag_34:\n    /* \"#utility.yul\":753:758   */\n  0x00\n    /* \"#utility.yul\":784:790   */\n  dup2\n    /* \"#utility.yul\":778:791   */\n  mload\n    /* \"#utility.yul\":769:791   */\n  swap1\n  pop\n    /* \"#utility.yul\":800:833   */\n  tag_52\n    /* \"#utility.yul\":827:832   */\n  dup2\n    /* \"#utility.yul\":800:833   */\n  tag_33\n  jump\t// in\ntag_52:\n    /* \"#utility.yul\":696:839   */\n  swap3\n  swap2\n  pop\n  pop\n  jump\t// out\n    /* \"#utility.yul\":845:1352   */\ntag_3:\n    /* \"#utility.yul\":924:930   */\n  0x00\n    /* \"#utility.yul\":932:938   */\n  dup1\n    /* \"#utility.yul\":981:983   */\n  0x40\n    /* \"#utility.yul\":969:978   */\n  dup4\n    /* \"#utility.yul\":960:967   */\n  dup6\n    /* \"#utility.yul\":956:979   */\n  sub\n    /* \"#utility.yul\":952:984   */\n  slt\n    /* \"#utility.yul\":949:1068   */\n  iszero\n  tag_54\n  jumpi\n    /* \"#utility.yul\":987:1066   */\n  tag_55\n  tag_29\n  jump\t// in\ntag_55:\n    /* \"#utility.yul\":949:1068   */\ntag_54:\n    /* \"#utility.yul\":1107:1108   */\n  0x00\n    /* \"#utility.yul\":1132:1196   */\n  tag_56\n    /* \"#utility.yul\":1188:1195   */\n  dup6\n    /* \"#utility.yul\":1179:1185   */\n  dup3\n    /* \"#utility.yul\":1168:1177   */\n  dup7\n    /* \"#utility.yul\":1164:1186   */\n  add\n    /* \"#utility.yul\":1132:1196   */\n  tag_34\n  jump\t// in\ntag_56:\n    /* \"#utility.yul\":1122:1196   */\n  swap3\n  pop\n    /* \"#utility.yul\":1078:1206   */\n  pop\n    /* \"#utility.yul\":1245:1247   */\n  0x20\n    /* \"#utility.yul\":1271:1335   */\n  tag_57\n    /* \"#utility.yul\":1327:1334   */\n  dup6\n    /* \"#utility.yul\":1318:1324   */\n  dup3\n    /* \"#utility.yul\":1307:1316   */\n  dup7\n    /* \"#utility.yul\":1303:1325   */\n  add\n    /* \"#utility.yul\":1271:1335   */\n  tag_34\n  jump\t// in\ntag_57:\n    /* \"#utility.yul\":1261:1335   */\n  swap2\n  pop\n    /* \"#utility.yul\":1216:1345   */\n  pop\n    /* \"#utility.yul\":845:1352   */\n  swap3\n  pop\n  swap3\n  swap1\n  pop\n  jump\t// out\n    /* \"#utility.yul\":1358:1476   */\ntag_35:\n    /* \"#utility.yul\":1445:1469   */\n  tag_59\n    /* \"#utility.yul\":1463:1468   */\n  dup2\n    /* \"#utility.yul\":1445:1469   */\n  tag_32\n  jump\t// in\ntag_59:\n    /* \"#utility.yul\":1440:1443   */\n  dup3\n    /* \"#utility.yul\":1433:1470   */\n  mstore\n    /* \"#utility.yul\":1358:1476   */\n  pop\n  pop\n  jump\t// out\n    /* \"#utility.yul\":1482:1704   */\ntag_12:\n    /* \"#utility.yul\":1575:1579   */\n  0x00\n    /* \"#utility.yul\":1613:1615   */\n  0x20\n    /* \"#utility.yul\":1602:1611   */\n  dup3\n    /* \"#utility.yul\":1598:1616   */\n  add\n    /* \"#utility.yul\":1590:1616   */\n  swap1\n  pop\n    /* \"#utility.yul\":1626:1697   */\n  tag_61\n    /* \"#utility.yul\":1694:1695   */\n  0x00\n    /* \"#utility.yul\":1683:1692   */\n  dup4\n    /* \"#utility.yul\":1679:1696   */\n  add\n    /* \"#utility.yul\":1670:1676   */\n  dup5\n    /* \"#utility.yul\":1626:1697   */\n  tag_35\n  jump\t// in\ntag_61:\n    /* \"#utility.yul\":1482:1704   */\n  swap3\n  swap2\n  pop\n  pop\n  jump\t// out\n    /* \"#utility.yul\":1710:1879   */\ntag_36:\n    /* \"#utility.yul\":1794:1805   */\n  0x00\n    /* \"#utility.yul\":1828:1834   */\n  dup3\n    /* \"#utility.yul\":1823:1826   */\n  dup3\n    /* \"#utility.yul\":1816:1835   */\n  mstore\n    /* \"#utility.yul\":1868:1872   */\n  0x20\n    /* \"#utility.yul\":1863:1866   */\n  dup3\n    /* \"#utility.yul\":1859:1873   */\n  add\n    /* \"#utility.yul\":1844:1873   */\n  swap1\n  pop\n    /* \"#utility.yul\":1710:1879   */\n  swap3\n  swap2\n  pop\n  pop\n  jump\t// out\n    /* \"#utility.yul\":1885:2059   */\ntag_37:\n    /* \"#utility.yul\":2025:2051   */\n  0x43616e6e6f7420736574206f776e657220746f207a65726f0000000000000000\n    /* \"#utility.yul\":2021:2022   */\n  0x00\n    /* \"#utility.yul\":2013:2019   */\n  dup3\n    /* \"#utility.yul\":2009:2023   */\n  add\n    /* \"#utility.yul\":2002:2052   */\n  mstore\n    /* \"#utility.yul\":1885:2059   */\n  pop\n  jump\t// out\n    /* \"#utility.yul\":2065:2431   */\ntag_38:\n    /* \"#utility.yul\":2207:2210   */\n  0x00\n    /* \"#utility.yul\":2228:2295   */\n  tag_65\n    /* \"#utility.yul\":2292:2294   */\n  0x18\n    /* \"#utility.yul\":2287:2290   */\n  dup4\n    /* \"#utility.yul\":2228:2295   */\n  tag_36\n  jump\t// in\ntag_65:\n    /* \"#utility.yul\":2221:2295   */\n  swap2\n  pop\n    /* \"#utility.yul\":2304:2397   */\n  tag_66\n    /* \"#utility.yul\":2393:2396   */\n  dup3\n    /* \"#utility.yul\":2304:2397   */\n  tag_37\n  jump\t// in\ntag_66:\n    /* \"#utility.yul\":2422:2424   */\n  0x20\n    /* \"#utility.yul\":2417:2420   */\n  dup3\n    /* \"#utility.yul\":2413:2425   */\n  add\n    /* \"#utility.yul\":2406:2425   */\n  swap1\n  pop\n    /* \"#utility.yul\":2065:2431   */\n  swap2\n  swap1\n  pop\n  jump\t// out\n    /* \"#utility.yul\":2437:2856   */\ntag_16:\n    /* \"#utility.yul\":2603:2607   */\n  0x00\n    /* \"#utility.yul\":2641:2643   */\n  0x20\n    /* \"#utility.yul\":2630:2639   */\n  dup3\n    /* \"#utility.yul\":2626:2644   */\n  add\n    /* \"#utility.yul\":2618:2644   */\n  swap1\n  pop\n    /* \"#utility.yul\":2690:2699   */\n  dup2\n    /* \"#utility.yul\":2684:2688   */\n  dup2\n    /* \"#utility.yul\":2680:2700   */\n  sub\n    /* \"#utility.yul\":2676:2677   */\n  0x00\n    /* \"#utility.yul\":2665:2674   */\n  dup4\n    /* \"#utility.yul\":2661:2678   */\n  add\n    /* \"#utility.yul\":2654:2701   */\n  mstore\n    /* \"#utility.yul\":2718:2849   */\n  tag_68\n    /* \"#utility.yul\":2844:2848   */\n  dup2\n    /* \"#utility.yul\":2718:2849   */\n  tag_38\n  jump\t// in\ntag_68:\n    /* \"#utility.yul\":2710:2849   */\n  swap1\n  pop\n    /* \"#utility.yul\":2437:2856   */\n  swap2\n  swap1\n  pop\n  jump\t// out\n    /* \"#utility.yul\":2862:3035   */\ntag_39:\n    /* \"#utility.yul\":3002:3027   */\n  0x43616e6e6f74207472616e7366657220746f2073656c66000000000000000000\n    /* \"#utility.yul\":2998:2999   */\n  0x00\n    /* \"#utility.yul\":2990:2996   */\n  dup3\n    /* \"#utility.yul\":2986:3000   */\n  add\n    /* \"#utility.yul\":2979:3028   */\n  mstore\n    /* \"#utility.yul\":2862:3035   */\n  pop\n  jump\t// out\n    /* \"#utility.yul\":3041:3407   */\ntag_40:\n    /* \"#utility.yul\":3183:3186   */\n  0x00\n    /* \"#utility.yul\":3204:3271   */\n  tag_71\n    /* \"#utility.yul\":3268:3270   */\n  0x17\n    /* \"#utility.yul\":3263:3266   */\n  dup4\n    /* \"#utility.yul\":3204:3271   */\n  tag_36\n  jump\t// in\ntag_71:\n    /* \"#utility.yul\":3197:3271   */\n  swap2\n  pop\n    /* \"#utility.yul\":3280:3373   */\n  tag_72\n    /* \"#utility.yul\":3369:3372   */\n  dup3\n    /* \"#utility.yul\":3280:3373   */\n  tag_39\n  jump\t// in\ntag_72:\n    /* \"#utility.yul\":3398:3400   */\n  0x20\n    /* \"#utility.yul\":3393:3396   */\n  dup3\n    /* \"#utility.yul\":3389:3401   */\n  add\n    /* \"#utility.yul\":3382:3401   */\n  swap1\n  pop\n    /* \"#utility.yul\":3041:3407   */\n  swap2\n  swap1\n  pop\n  jump\t// out\n    /* \"#utility.yul\":3413:3832   */\ntag_27:\n    /* \"#utility.yul\":3579:3583   */\n  0x00\n    /* \"#utility.yul\":3617:3619   */\n  0x20\n    /* \"#utility.yul\":3606:3615   */\n  dup3\n    /* \"#utility.yul\":3602:3620   */\n  add\n    /* \"#utility.yul\":3594:3620   */\n  swap1\n  pop\n    /* \"#utility.yul\":3666:3675   */\n  dup2\n    /* \"#utility.yul\":3660:3664   */\n  dup2\n    /* \"#utility.yul\":3656:3676   */\n  sub\n    /* \"#utility.yul\":3652:3653   */\n  0x00\n    /* \"#utility.yul\":3641:3650   */\n  dup4\n    /* \"#utility.yul\":3637:3654   */\n  add\n    /* \"#utility.yul\":3630:3677   */\n  mstore\n    /* \"#utility.yul\":3694:3825   */\n  tag_74\n    /* \"#utility.yul\":3820:3824   */\n  dup2\n    /* \"#utility.yul\":3694:3825   */\n  tag_40\n  jump\t// in\ntag_74:\n    /* \"#utility.yul\":3686:3825   */\n  swap1\n  pop\n    /* \"#utility.yul\":3413:3832   */\n  swap2\n  swap1\n  pop\n  jump\t// out\n    /* \"contracts/NFTLockAndRelease.sol\":722:10871  contract Messenger is CCIPReceiver, OwnerIsCreator {... */\ntag_23:\n  mload(0x80)\n  codecopy(0x00, dataOffset(sub_0), dataSize(sub_0))\n  0x00\n  assignImmutable(\"0x5c4c6aa067b6f8e6cb38e6ab843832a94d1712d661a04d73c517d6a1931a9e5d\")\n  return(0x00, dataSize(sub_0))\nstop\n\nsub_0: assembly {\n        /* \"contracts/NFTLockAndRelease.sol\":722:10871  contract Messenger is CCIPReceiver, OwnerIsCreator {... */\n      mstore(0x40, 0x80)\n      callvalue\n      dup1\n      iszero\n      tag_1\n      jumpi\n      0x00\n      dup1\n      revert\n    tag_1:\n      pop\n      jumpi(tag_2, lt(calldatasize, 0x04))\n      shr(0xe0, calldataload(0x00))\n      dup1\n      0x85572ffb\n      gt\n      tag_16\n      jumpi\n      dup1\n      0xb0f479a1\n      gt\n      tag_17\n      jumpi\n      dup1\n      0xb0f479a1\n      eq\n      tag_12\n      jumpi\n      dup1\n      0xdb04fa49\n      eq\n      tag_13\n      jumpi\n      dup1\n      0xeab5b02c\n      eq\n      tag_14\n      jumpi\n      dup1\n      0xf2fde38b\n      eq\n      tag_15\n      jumpi\n      jump(tag_2)\n    tag_17:\n      dup1\n      0x85572ffb\n      eq\n      tag_9\n      jumpi\n      dup1\n      0x8da5cb5b\n      eq\n      tag_10\n      jumpi\n      dup1\n      0x96d3b83d\n      eq\n      tag_11\n      jumpi\n      jump(tag_2)\n    tag_16:\n      dup1\n      0x01ffc9a7\n      eq\n      tag_3\n      jumpi\n      dup1\n      0x4030d521\n      eq\n      tag_4\n      jumpi\n      dup1\n      0x6159ada1\n      eq\n      tag_5\n      jumpi\n      dup1\n      0x75c67c66\n      eq\n      tag_6\n      jumpi\n      dup1\n      0x79ba5097\n      eq\n      tag_7\n      jumpi\n      dup1\n      0x7b77dd04\n      eq\n      tag_8\n      jumpi\n    tag_2:\n      0x00\n      dup1\n      revert\n        /* \"@chainlink/contracts-ccip/src/v0.8/ccip/applications/CCIPReceiver.sol\":1405:1614  function supportsInterface(bytes4 interfaceId) public view virtual override returns (bool) {... */\n    tag_3:\n      tag_18\n      0x04\n      dup1\n      calldatasize\n      sub\n      dup2\n      add\n      swap1\n      tag_19\n      swap2\n      swap1\n      tag_20\n      jump\t// in\n    tag_19:\n      tag_21\n      jump\t// in\n    tag_18:\n      mload(0x40)\n      tag_22\n      swap2\n      swap1\n      tag_23\n      jump\t// in\n    tag_22:\n      mload(0x40)\n      dup1\n      swap2\n      sub\n      swap1\n      return\n        /* \"contracts/NFTLockAndRelease.sol\":3026:3080  mapping(uint64 => bool) public allowlistedSourceChains */\n    tag_4:\n      tag_24\n      0x04\n      dup1\n      calldatasize\n      sub\n      dup2\n      add\n      swap1\n      tag_25\n      swap2\n      swap1\n      tag_26\n      jump\t// in\n    tag_25:\n      tag_27\n      jump\t// in\n    tag_24:\n      mload(0x40)\n      tag_28\n      swap2\n      swap1\n      tag_23\n      jump\t// in\n    tag_28:\n      mload(0x40)\n      dup1\n      swap2\n      sub\n      swap1\n      return\n        /* \"contracts/NFTLockAndRelease.sol\":3143:3193  mapping(address => bool) public allowlistedSenders */\n    tag_5:\n      tag_29\n      0x04\n      dup1\n      calldatasize\n      sub\n      dup2\n      add\n      swap1\n      tag_30\n      swap2\n      swap1\n      tag_31\n      jump\t// in\n    tag_30:\n      tag_32\n      jump\t// in\n    tag_29:\n      mload(0x40)\n      tag_33\n      swap2\n      swap1\n      tag_23\n      jump\t// in\n    tag_33:\n      mload(0x40)\n      dup1\n      swap2\n      sub\n      swap1\n      return\n        /* \"contracts/NFTLockAndRelease.sol\":2898:2957  mapping(uint64 => bool) public allowlistedDestinationChains */\n    tag_6:\n      tag_34\n      0x04\n      dup1\n      calldatasize\n      sub\n      dup2\n      add\n      swap1\n      tag_35\n      swap2\n      swap1\n      tag_26\n      jump\t// in\n    tag_35:\n      tag_36\n      jump\t// in\n    tag_34:\n      mload(0x40)\n      tag_37\n      swap2\n      swap1\n      tag_23\n      jump\t// in\n    tag_37:\n      mload(0x40)\n      dup1\n      swap2\n      sub\n      swap1\n      return\n        /* \"@chainlink/contracts-ccip/src/v0.8/shared/access/ConfirmedOwnerWithProposal.sol\":1026:1342  function acceptOwnership() external override {... */\n    tag_7:\n      tag_38\n      tag_39\n      jump\t// in\n    tag_38:\n      stop\n        /* \"contracts/NFTLockAndRelease.sol\":6074:7773  function sendMessagePayLINK(... */\n    tag_8:\n      tag_40\n      0x04\n      dup1\n      calldatasize\n      sub\n      dup2\n      add\n      swap1\n      tag_41\n      swap2\n      swap1\n      tag_42\n      jump\t// in\n    tag_41:\n      tag_43\n      jump\t// in\n    tag_40:\n      mload(0x40)\n      tag_44\n      swap2\n      swap1\n      tag_45\n      jump\t// in\n    tag_44:\n      mload(0x40)\n      dup1\n      swap2\n      sub\n      swap1\n      return\n        /* \"@chainlink/contracts-ccip/src/v0.8/ccip/applications/CCIPReceiver.sol\":1660:1790  function ccipReceive(Client.Any2EVMMessage calldata message) external virtual override onlyRouter {... */\n    tag_9:\n      tag_46\n      0x04\n      dup1\n      calldatasize\n      sub\n      dup2\n      add\n      swap1\n      tag_47\n      swap2\n      swap1\n      tag_48\n      jump\t// in\n    tag_47:\n      tag_49\n      jump\t// in\n    tag_46:\n      stop\n        /* \"@chainlink/contracts-ccip/src/v0.8/shared/access/ConfirmedOwnerWithProposal.sol\":1382:1463  function owner() public view override returns (address) {... */\n    tag_10:\n      tag_50\n      tag_51\n      jump\t// in\n    tag_50:\n      mload(0x40)\n      tag_52\n      swap2\n      swap1\n      tag_53\n      jump\t// in\n    tag_52:\n      mload(0x40)\n      dup1\n      swap2\n      sub\n      swap1\n      return\n        /* \"contracts/NFTLockAndRelease.sol\":4901:5112  function allowlistDestinationChain(... */\n    tag_11:\n      tag_54\n      0x04\n      dup1\n      calldatasize\n      sub\n      dup2\n      add\n      swap1\n      tag_55\n      swap2\n      swap1\n      tag_56\n      jump\t// in\n    tag_55:\n      tag_57\n      jump\t// in\n    tag_54:\n      stop\n        /* \"@chainlink/contracts-ccip/src/v0.8/ccip/applications/CCIPReceiver.sol\":2205:2303  function getRouter() public view virtual returns (address) {... */\n    tag_12:\n      tag_58\n      tag_59\n      jump\t// in\n    tag_58:\n      mload(0x40)\n      tag_60\n      swap2\n      swap1\n      tag_53\n      jump\t// in\n    tag_60:\n      mload(0x40)\n      dup1\n      swap2\n      sub\n      swap1\n      return\n        /* \"contracts/NFTLockAndRelease.sol\":5199:5390  function allowlistSourceChain(... */\n    tag_13:\n      tag_61\n      0x04\n      dup1\n      calldatasize\n      sub\n      dup2\n      add\n      swap1\n      tag_62\n      swap2\n      swap1\n      tag_56\n      jump\t// in\n    tag_62:\n      tag_63\n      jump\t// in\n    tag_61:\n      stop\n        /* \"contracts/NFTLockAndRelease.sol\":5471:5602  function allowlistSender(address _sender, bool allowed) external onlyOwner {... */\n    tag_14:\n      tag_64\n      0x04\n      dup1\n      calldatasize\n      sub\n      dup2\n      add\n      swap1\n      tag_65\n      swap2\n      swap1\n      tag_66\n      jump\t// in\n    tag_65:\n      tag_67\n      jump\t// in\n    tag_64:\n      stop\n        /* \"@chainlink/contracts-ccip/src/v0.8/shared/access/ConfirmedOwnerWithProposal.sol\":847:945  function transferOwnership(address to) public override onlyOwner {... */\n    tag_15:\n      tag_68\n      0x04\n      dup1\n      calldatasize\n      sub\n      dup2\n      add\n      swap1\n      tag_69\n      swap2\n      swap1\n      tag_31\n      jump\t// in\n    tag_69:\n      tag_70\n      jump\t// in\n    tag_68:\n      stop\n        /* \"@chainlink/contracts-ccip/src/v0.8/ccip/applications/CCIPReceiver.sol\":1405:1614  function supportsInterface(bytes4 interfaceId) public view virtual override returns (bool) {... */\n    tag_21:\n        /* \"@chainlink/contracts-ccip/src/v0.8/ccip/applications/CCIPReceiver.sol\":1490:1494  bool */\n      0x00\n        /* \"@chainlink/contracts-ccip/src/v0.8/ccip/applications/CCIPReceiver.sol\":1524:1565  type(IAny2EVMMessageReceiver).interfaceId */\n      0x85572ffb00000000000000000000000000000000000000000000000000000000\n        /* \"@chainlink/contracts-ccip/src/v0.8/ccip/applications/CCIPReceiver.sol\":1509:1565  interfaceId == type(IAny2EVMMessageReceiver).interfaceId */\n      not(0xffffffffffffffffffffffffffffffffffffffffffffffffffffffff)\n      and\n        /* \"@chainlink/contracts-ccip/src/v0.8/ccip/applications/CCIPReceiver.sol\":1509:1520  interfaceId */\n      dup3\n        /* \"@chainlink/contracts-ccip/src/v0.8/ccip/applications/CCIPReceiver.sol\":1509:1565  interfaceId == type(IAny2EVMMessageReceiver).interfaceId */\n      not(0xffffffffffffffffffffffffffffffffffffffffffffffffffffffff)\n      and\n      eq\n        /* \"@chainlink/contracts-ccip/src/v0.8/ccip/applications/CCIPReceiver.sol\":1509:1609  interfaceId == type(IAny2EVMMessageReceiver).interfaceId || interfaceId == type(IERC165).interfaceId */\n      dup1\n      tag_72\n      jumpi\n      pop\n        /* \"@chainlink/contracts-ccip/src/v0.8/ccip/applications/CCIPReceiver.sol\":1584:1609  type(IERC165).interfaceId */\n      0x01ffc9a700000000000000000000000000000000000000000000000000000000\n        /* \"@chainlink/contracts-ccip/src/v0.8/ccip/applications/CCIPReceiver.sol\":1569:1609  interfaceId == type(IERC165).interfaceId */\n      not(0xffffffffffffffffffffffffffffffffffffffffffffffffffffffff)\n      and\n        /* \"@chainlink/contracts-ccip/src/v0.8/ccip/applications/CCIPReceiver.sol\":1569:1580  interfaceId */\n      dup3\n        /* \"@chainlink/contracts-ccip/src/v0.8/ccip/applications/CCIPReceiver.sol\":1569:1609  interfaceId == type(IERC165).interfaceId */\n      not(0xffffffffffffffffffffffffffffffffffffffffffffffffffffffff)\n      and\n      eq\n        /* \"@chainlink/contracts-ccip/src/v0.8/ccip/applications/CCIPReceiver.sol\":1509:1609  interfaceId == type(IAny2EVMMessageReceiver).interfaceId || interfaceId == type(IERC165).interfaceId */\n    tag_72:\n        /* \"@chainlink/contracts-ccip/src/v0.8/ccip/applications/CCIPReceiver.sol\":1502:1609  return interfaceId == type(IAny2EVMMessageReceiver).interfaceId || interfaceId == type(IERC165).interfaceId */\n      swap1\n      pop\n        /* \"@chainlink/contracts-ccip/src/v0.8/ccip/applications/CCIPReceiver.sol\":1405:1614  function supportsInterface(bytes4 interfaceId) public view virtual override returns (bool) {... */\n      swap2\n      swap1\n      pop\n      jump\t// out\n        /* \"contracts/NFTLockAndRelease.sol\":3026:3080  mapping(uint64 => bool) public allowlistedSourceChains */\n    tag_27:\n      mstore(0x20, 0x05)\n      dup1\n      0x00\n      mstore\n      keccak256(0x00, 0x40)\n      0x00\n      swap2\n      pop\n      sload\n      swap1\n      0x0100\n      exp\n      swap1\n      div\n      0xff\n      and\n      dup2\n      jump\t// out\n        /* \"contracts/NFTLockAndRelease.sol\":3143:3193  mapping(address => bool) public allowlistedSenders */\n    tag_32:\n      mstore(0x20, 0x06)\n      dup1\n      0x00\n      mstore\n      keccak256(0x00, 0x40)\n      0x00\n      swap2\n      pop\n      sload\n      swap1\n      0x0100\n      exp\n      swap1\n      div\n      0xff\n      and\n      dup2\n      jump\t// out\n        /* \"contracts/NFTLockAndRelease.sol\":2898:2957  mapping(uint64 => bool) public allowlistedDestinationChains */\n    tag_36:\n      mstore(0x20, 0x04)\n      dup1\n      0x00\n      mstore\n      keccak256(0x00, 0x40)\n      0x00\n      swap2\n      pop\n      sload\n      swap1\n      0x0100\n      exp\n      swap1\n      div\n      0xff\n      and\n      dup2\n      jump\t// out\n        /* \"@chainlink/contracts-ccip/src/v0.8/shared/access/ConfirmedOwnerWithProposal.sol\":1026:1342  function acceptOwnership() external override {... */\n    tag_39:\n        /* \"@chainlink/contracts-ccip/src/v0.8/shared/access/ConfirmedOwnerWithProposal.sol\":1150:1164  s_pendingOwner */\n      0x01\n      0x00\n      swap1\n      sload\n      swap1\n      0x0100\n      exp\n      swap1\n      div\n      0xffffffffffffffffffffffffffffffffffffffff\n      and\n        /* \"@chainlink/contracts-ccip/src/v0.8/shared/access/ConfirmedOwnerWithProposal.sol\":1136:1164  msg.sender == s_pendingOwner */\n      0xffffffffffffffffffffffffffffffffffffffff\n      and\n        /* \"@chainlink/contracts-ccip/src/v0.8/shared/access/ConfirmedOwnerWithProposal.sol\":1136:1146  msg.sender */\n      caller\n        /* \"@chainlink/contracts-ccip/src/v0.8/shared/access/ConfirmedOwnerWithProposal.sol\":1136:1164  msg.sender == s_pendingOwner */\n      0xffffffffffffffffffffffffffffffffffffffff\n      and\n      eq\n        /* \"@chainlink/contracts-ccip/src/v0.8/shared/access/ConfirmedOwnerWithProposal.sol\":1128:1191  require(msg.sender == s_pendingOwner, \"Must be proposed owner\") */\n      tag_74\n      jumpi\n      mload(0x40)\n      0x08c379a000000000000000000000000000000000000000000000000000000000\n      dup2\n      mstore\n      0x04\n      add\n      tag_75\n      swap1\n      tag_76\n      jump\t// in\n    tag_75:\n      mload(0x40)\n      dup1\n      swap2\n      sub\n      swap1\n      revert\n    tag_74:\n        /* \"@chainlink/contracts-ccip/src/v0.8/shared/access/ConfirmedOwnerWithProposal.sol\":1198:1214  address oldOwner */\n      0x00\n        /* \"@chainlink/contracts-ccip/src/v0.8/shared/access/ConfirmedOwnerWithProposal.sol\":1217:1224  s_owner */\n      dup1\n      0x00\n      swap1\n      sload\n      swap1\n      0x0100\n      exp\n      swap1\n      div\n      0xffffffffffffffffffffffffffffffffffffffff\n      and\n        /* \"@chainlink/contracts-ccip/src/v0.8/shared/access/ConfirmedOwnerWithProposal.sol\":1198:1224  address oldOwner = s_owner */\n      swap1\n      pop\n        /* \"@chainlink/contracts-ccip/src/v0.8/shared/access/ConfirmedOwnerWithProposal.sol\":1240:1250  msg.sender */\n      caller\n        /* \"@chainlink/contracts-ccip/src/v0.8/shared/access/ConfirmedOwnerWithProposal.sol\":1230:1237  s_owner */\n      0x00\n      dup1\n        /* \"@chainlink/contracts-ccip/src/v0.8/shared/access/ConfirmedOwnerWithProposal.sol\":1230:1250  s_owner = msg.sender */\n      0x0100\n      exp\n      dup2\n      sload\n      dup2\n      0xffffffffffffffffffffffffffffffffffffffff\n      mul\n      not\n      and\n      swap1\n      dup4\n      0xffffffffffffffffffffffffffffffffffffffff\n      and\n      mul\n      or\n      swap1\n      sstore\n      pop\n        /* \"@chainlink/contracts-ccip/src/v0.8/shared/access/ConfirmedOwnerWithProposal.sol\":1281:1282  0 */\n      0x00\n        /* \"@chainlink/contracts-ccip/src/v0.8/shared/access/ConfirmedOwnerWithProposal.sol\":1256:1270  s_pendingOwner */\n      0x01\n      0x00\n        /* \"@chainlink/contracts-ccip/src/v0.8/shared/access/ConfirmedOwnerWithProposal.sol\":1256:1283  s_pendingOwner = address(0) */\n      0x0100\n      exp\n      dup2\n      sload\n      dup2\n      0xffffffffffffffffffffffffffffffffffffffff\n      mul\n      not\n      and\n      swap1\n      dup4\n      0xffffffffffffffffffffffffffffffffffffffff\n      and\n      mul\n      or\n      swap1\n      sstore\n      pop\n        /* \"@chainlink/contracts-ccip/src/v0.8/shared/access/ConfirmedOwnerWithProposal.sol\":1326:1336  msg.sender */\n      caller\n        /* \"@chainlink/contracts-ccip/src/v0.8/shared/access/ConfirmedOwnerWithProposal.sol\":1295:1337  OwnershipTransferred(oldOwner, msg.sender) */\n      0xffffffffffffffffffffffffffffffffffffffff\n      and\n        /* \"@chainlink/contracts-ccip/src/v0.8/shared/access/ConfirmedOwnerWithProposal.sol\":1316:1324  oldOwner */\n      dup2\n        /* \"@chainlink/contracts-ccip/src/v0.8/shared/access/ConfirmedOwnerWithProposal.sol\":1295:1337  OwnershipTransferred(oldOwner, msg.sender) */\n      0xffffffffffffffffffffffffffffffffffffffff\n      and\n      0x8be0079c531659141344cd1fd0a4f28419497f9722a3daafe3b4186f6b6457e0\n      mload(0x40)\n      mload(0x40)\n      dup1\n      swap2\n      sub\n      swap1\n      log3\n        /* \"@chainlink/contracts-ccip/src/v0.8/shared/access/ConfirmedOwnerWithProposal.sol\":1071:1342  {... */\n      pop\n        /* \"@chainlink/contracts-ccip/src/v0.8/shared/access/ConfirmedOwnerWithProposal.sol\":1026:1342  function acceptOwnership() external override {... */\n      jump\t// out\n        /* \"contracts/NFTLockAndRelease.sol\":6074:7773  function sendMessagePayLINK(... */\n    tag_43:\n        /* \"contracts/NFTLockAndRelease.sol\":6372:6389  bytes32 messageId */\n      0x00\n        /* \"@chainlink/contracts-ccip/src/v0.8/shared/access/ConfirmedOwnerWithProposal.sol\":2075:2095  _validateOwnership() */\n      tag_78\n        /* \"@chainlink/contracts-ccip/src/v0.8/shared/access/ConfirmedOwnerWithProposal.sol\":2075:2093  _validateOwnership */\n      tag_79\n        /* \"@chainlink/contracts-ccip/src/v0.8/shared/access/ConfirmedOwnerWithProposal.sol\":2075:2095  _validateOwnership() */\n      jump\t// in\n    tag_78:\n        /* \"contracts/NFTLockAndRelease.sol\":6290:6315  _destinationChainSelector */\n      dup5\n        /* \"contracts/NFTLockAndRelease.sol\":3828:3856  allowlistedDestinationChains */\n      0x04\n        /* \"contracts/NFTLockAndRelease.sol\":3828:3883  allowlistedDestinationChains[_destinationChainSelector] */\n      0x00\n        /* \"contracts/NFTLockAndRelease.sol\":3857:3882  _destinationChainSelector */\n      dup3\n        /* \"contracts/NFTLockAndRelease.sol\":3828:3883  allowlistedDestinationChains[_destinationChainSelector] */\n      0xffffffffffffffff\n      and\n      0xffffffffffffffff\n      and\n      dup2\n      mstore\n      0x20\n      add\n      swap1\n      dup2\n      mstore\n      0x20\n      add\n      0x00\n      keccak256\n      0x00\n      swap1\n      sload\n      swap1\n      0x0100\n      exp\n      swap1\n      div\n      0xff\n      and\n        /* \"contracts/NFTLockAndRelease.sol\":3823:3962  if (!allowlistedDestinationChains[_destinationChainSelector])... */\n      tag_81\n      jumpi\n        /* \"contracts/NFTLockAndRelease.sol\":3936:3961  _destinationChainSelector */\n      dup1\n        /* \"contracts/NFTLockAndRelease.sol\":3905:3962  DestinationChainNotAllowlisted(_destinationChainSelector) */\n      mload(0x40)\n      0x0a503cdb00000000000000000000000000000000000000000000000000000000\n      dup2\n      mstore\n      0x04\n      add\n      tag_82\n      swap2\n      swap1\n      tag_83\n      jump\t// in\n    tag_82:\n      mload(0x40)\n      dup1\n      swap2\n      sub\n      swap1\n      revert\n        /* \"contracts/NFTLockAndRelease.sol\":3823:3962  if (!allowlistedDestinationChains[_destinationChainSelector])... */\n    tag_81:\n        /* \"contracts/NFTLockAndRelease.sol\":6343:6352  _receiver */\n      dup5\n        /* \"contracts/NFTLockAndRelease.sol\":4754:4755  0 */\n      0x00\n        /* \"contracts/NFTLockAndRelease.sol\":4733:4756  _receiver == address(0) */\n      0xffffffffffffffffffffffffffffffffffffffff\n      and\n        /* \"contracts/NFTLockAndRelease.sol\":4733:4742  _receiver */\n      dup2\n        /* \"contracts/NFTLockAndRelease.sol\":4733:4756  _receiver == address(0) */\n      0xffffffffffffffffffffffffffffffffffffffff\n      and\n      sub\n        /* \"contracts/NFTLockAndRelease.sol\":4729:4789  if (_receiver == address(0)) revert InvalidReceiverAddress() */\n      tag_85\n      jumpi\n        /* \"contracts/NFTLockAndRelease.sol\":4765:4789  InvalidReceiverAddress() */\n      mload(0x40)\n      0xa05ff47e00000000000000000000000000000000000000000000000000000000\n      dup2\n      mstore\n      0x04\n      add\n      mload(0x40)\n      dup1\n      swap2\n      sub\n      swap1\n      revert\n        /* \"contracts/NFTLockAndRelease.sol\":4729:4789  if (_receiver == address(0)) revert InvalidReceiverAddress() */\n    tag_85:\n        /* \"contracts/NFTLockAndRelease.sol\":6522:6565  Client.EVM2AnyMessage memory evm2AnyMessage */\n      0x00\n        /* \"contracts/NFTLockAndRelease.sol\":6568:6675  _buildCCIPMessage(... */\n      tag_87\n        /* \"contracts/NFTLockAndRelease.sol\":6600:6609  _receiver */\n      dup8\n        /* \"contracts/NFTLockAndRelease.sol\":6624:6629  _text */\n      dup8\n      dup8\n        /* \"contracts/NFTLockAndRelease.sol\":6652:6663  s_linkToken */\n      0x07\n      0x00\n      swap1\n      sload\n      swap1\n      0x0100\n      exp\n      swap1\n      div\n      0xffffffffffffffffffffffffffffffffffffffff\n      and\n        /* \"contracts/NFTLockAndRelease.sol\":6568:6585  _buildCCIPMessage */\n      tag_88\n        /* \"contracts/NFTLockAndRelease.sol\":6568:6675  _buildCCIPMessage(... */\n      jump\t// in\n    tag_87:\n        /* \"contracts/NFTLockAndRelease.sol\":6522:6675  Client.EVM2AnyMessage memory evm2AnyMessage = _buildCCIPMessage(... */\n      swap1\n      pop\n        /* \"contracts/NFTLockAndRelease.sol\":6772:6792  IRouterClient router */\n      0x00\n        /* \"contracts/NFTLockAndRelease.sol\":6809:6813  this */\n      address\n        /* \"contracts/NFTLockAndRelease.sol\":6809:6823  this.getRouter */\n      0xffffffffffffffffffffffffffffffffffffffff\n      and\n      0xb0f479a1\n        /* \"contracts/NFTLockAndRelease.sol\":6809:6825  this.getRouter() */\n      mload(0x40)\n      dup2\n      0xffffffff\n      and\n      0xe0\n      shl\n      dup2\n      mstore\n      0x04\n      add\n      0x20\n      mload(0x40)\n      dup1\n      dup4\n      sub\n      dup2\n      dup7\n      gas\n      staticcall\n      iszero\n      dup1\n      iszero\n      tag_90\n      jumpi\n      returndatasize\n      0x00\n      dup1\n      returndatacopy\n      revert(0x00, returndatasize)\n    tag_90:\n      pop\n      pop\n      pop\n      pop\n      mload(0x40)\n      returndatasize\n      not(0x1f)\n      0x1f\n      dup3\n      add\n      and\n      dup3\n      add\n      dup1\n      0x40\n      mstore\n      pop\n      dup2\n      add\n      swap1\n      tag_91\n      swap2\n      swap1\n      tag_92\n      jump\t// in\n    tag_91:\n        /* \"contracts/NFTLockAndRelease.sol\":6772:6826  IRouterClient router = IRouterClient(this.getRouter()) */\n      swap1\n      pop\n        /* \"contracts/NFTLockAndRelease.sol\":6897:6909  uint256 fees */\n      0x00\n        /* \"contracts/NFTLockAndRelease.sol\":6912:6918  router */\n      dup2\n        /* \"contracts/NFTLockAndRelease.sol\":6912:6925  router.getFee */\n      0xffffffffffffffffffffffffffffffffffffffff\n      and\n      0x20487ded\n        /* \"contracts/NFTLockAndRelease.sol\":6926:6951  _destinationChainSelector */\n      dup12\n        /* \"contracts/NFTLockAndRelease.sol\":6953:6967  evm2AnyMessage */\n      dup6\n        /* \"contracts/NFTLockAndRelease.sol\":6912:6968  router.getFee(_destinationChainSelector, evm2AnyMessage) */\n      mload(0x40)\n      dup4\n      0xffffffff\n      and\n      0xe0\n      shl\n      dup2\n      mstore\n      0x04\n      add\n      tag_93\n      swap3\n      swap2\n      swap1\n      tag_94\n      jump\t// in\n    tag_93:\n      0x20\n      mload(0x40)\n      dup1\n      dup4\n      sub\n      dup2\n      dup7\n      gas\n      staticcall\n      iszero\n      dup1\n      iszero\n      tag_96\n      jumpi\n      returndatasize\n      0x00\n      dup1\n      returndatacopy\n      revert(0x00, returndatasize)\n    tag_96:\n      pop\n      pop\n      pop\n      pop\n      mload(0x40)\n      returndatasize\n      not(0x1f)\n      0x1f\n      dup3\n      add\n      and\n      dup3\n      add\n      dup1\n      0x40\n      mstore\n      pop\n      dup2\n      add\n      swap1\n      tag_97\n      swap2\n      swap1\n      tag_98\n      jump\t// in\n    tag_97:\n        /* \"contracts/NFTLockAndRelease.sol\":6897:6968  uint256 fees = router.getFee(_destinationChainSelector, evm2AnyMessage) */\n      swap1\n      pop\n        /* \"contracts/NFTLockAndRelease.sol\":6992:7003  s_linkToken */\n      0x07\n      0x00\n      swap1\n      sload\n      swap1\n      0x0100\n      exp\n      swap1\n      div\n      0xffffffffffffffffffffffffffffffffffffffff\n      and\n        /* \"contracts/NFTLockAndRelease.sol\":6992:7013  s_linkToken.balanceOf */\n      0xffffffffffffffffffffffffffffffffffffffff\n      and\n      0x70a08231\n        /* \"contracts/NFTLockAndRelease.sol\":7022:7026  this */\n      address\n        /* \"contracts/NFTLockAndRelease.sol\":6992:7028  s_linkToken.balanceOf(address(this)) */\n      mload(0x40)\n      dup3\n      0xffffffff\n      and\n      0xe0\n      shl\n      dup2\n      mstore\n      0x04\n      add\n      tag_99\n      swap2\n      swap1\n      tag_53\n      jump\t// in\n    tag_99:\n      0x20\n      mload(0x40)\n      dup1\n      dup4\n      sub\n      dup2\n      dup7\n      gas\n      staticcall\n      iszero\n      dup1\n      iszero\n      tag_101\n      jumpi\n      returndatasize\n      0x00\n      dup1\n      returndatacopy\n      revert(0x00, returndatasize)\n    tag_101:\n      pop\n      pop\n      pop\n      pop\n      mload(0x40)\n      returndatasize\n      not(0x1f)\n      0x1f\n      dup3\n      add\n      and\n      dup3\n      add\n      dup1\n      0x40\n      mstore\n      pop\n      dup2\n      add\n      swap1\n      tag_102\n      swap2\n      swap1\n      tag_98\n      jump\t// in\n    tag_102:\n        /* \"contracts/NFTLockAndRelease.sol\":6985:6989  fees */\n      dup2\n        /* \"contracts/NFTLockAndRelease.sol\":6985:7028  fees > s_linkToken.balanceOf(address(this)) */\n      gt\n        /* \"contracts/NFTLockAndRelease.sol\":6981:7110  if (fees > s_linkToken.balanceOf(address(this)))... */\n      iszero\n      tag_103\n      jumpi\n        /* \"contracts/NFTLockAndRelease.sol\":7067:7078  s_linkToken */\n      0x07\n      0x00\n      swap1\n      sload\n      swap1\n      0x0100\n      exp\n      swap1\n      div\n      0xffffffffffffffffffffffffffffffffffffffff\n      and\n        /* \"contracts/NFTLockAndRelease.sol\":7067:7088  s_linkToken.balanceOf */\n      0xffffffffffffffffffffffffffffffffffffffff\n      and\n      0x70a08231\n        /* \"contracts/NFTLockAndRelease.sol\":7097:7101  this */\n      address\n        /* \"contracts/NFTLockAndRelease.sol\":7067:7103  s_linkToken.balanceOf(address(this)) */\n      mload(0x40)\n      dup3\n      0xffffffff\n      and\n      0xe0\n      shl\n      dup2\n      mstore\n      0x04\n      add\n      tag_104\n      swap2\n      swap1\n      tag_53\n      jump\t// in\n    tag_104:\n      0x20\n      mload(0x40)\n      dup1\n      dup4\n      sub\n      dup2\n      dup7\n      gas\n      staticcall\n      iszero\n      dup1\n      iszero\n      tag_106\n      jumpi\n      returndatasize\n      0x00\n      dup1\n      returndatacopy\n      revert(0x00, returndatasize)\n    tag_106:\n      pop\n      pop\n      pop\n      pop\n      mload(0x40)\n      returndatasize\n      not(0x1f)\n      0x1f\n      dup3\n      add\n      and\n      dup3\n      add\n      dup1\n      0x40\n      mstore\n      pop\n      dup2\n      add\n      swap1\n      tag_107\n      swap2\n      swap1\n      tag_98\n      jump\t// in\n    tag_107:\n        /* \"contracts/NFTLockAndRelease.sol\":7105:7109  fees */\n      dup2\n        /* \"contracts/NFTLockAndRelease.sol\":7050:7110  NotEnoughBalance(s_linkToken.balanceOf(address(this)), fees) */\n      mload(0x40)\n      0x8f0f420600000000000000000000000000000000000000000000000000000000\n      dup2\n      mstore\n      0x04\n      add\n      tag_108\n      swap3\n      swap2\n      swap1\n      tag_109\n      jump\t// in\n    tag_108:\n      mload(0x40)\n      dup1\n      swap2\n      sub\n      swap1\n      revert\n        /* \"contracts/NFTLockAndRelease.sol\":6981:7110  if (fees > s_linkToken.balanceOf(address(this)))... */\n    tag_103:\n        /* \"contracts/NFTLockAndRelease.sol\":7231:7242  s_linkToken */\n      0x07\n      0x00\n      swap1\n      sload\n      swap1\n      0x0100\n      exp\n      swap1\n      div\n      0xffffffffffffffffffffffffffffffffffffffff\n      and\n        /* \"contracts/NFTLockAndRelease.sol\":7231:7250  s_linkToken.approve */\n      0xffffffffffffffffffffffffffffffffffffffff\n      and\n      0x095ea7b3\n        /* \"contracts/NFTLockAndRelease.sol\":7259:7265  router */\n      dup4\n        /* \"contracts/NFTLockAndRelease.sol\":7268:7272  fees */\n      dup4\n        /* \"contracts/NFTLockAndRelease.sol\":7231:7273  s_linkToken.approve(address(router), fees) */\n      mload(0x40)\n      dup4\n      0xffffffff\n      and\n      0xe0\n      shl\n      dup2\n      mstore\n      0x04\n      add\n      tag_110\n      swap3\n      swap2\n      swap1\n      tag_111\n      jump\t// in\n    tag_110:\n      0x20\n      mload(0x40)\n      dup1\n      dup4\n      sub\n      dup2\n      0x00\n      dup8\n      gas\n      call\n      iszero\n      dup1\n      iszero\n      tag_113\n      jumpi\n      returndatasize\n      0x00\n      dup1\n      returndatacopy\n      revert(0x00, returndatasize)\n    tag_113:\n      pop\n      pop\n      pop\n      pop\n      mload(0x40)\n      returndatasize\n      not(0x1f)\n      0x1f\n      dup3\n      add\n      and\n      dup3\n      add\n      dup1\n      0x40\n      mstore\n      pop\n      dup2\n      add\n      swap1\n      tag_114\n      swap2\n      swap1\n      tag_115\n      jump\t// in\n    tag_114:\n      pop\n        /* \"contracts/NFTLockAndRelease.sol\":7390:7396  router */\n      dup2\n        /* \"contracts/NFTLockAndRelease.sol\":7390:7405  router.ccipSend */\n      0xffffffffffffffffffffffffffffffffffffffff\n      and\n      0x96f4e9f9\n        /* \"contracts/NFTLockAndRelease.sol\":7406:7431  _destinationChainSelector */\n      dup12\n        /* \"contracts/NFTLockAndRelease.sol\":7433:7447  evm2AnyMessage */\n      dup6\n        /* \"contracts/NFTLockAndRelease.sol\":7390:7448  router.ccipSend(_destinationChainSelector, evm2AnyMessage) */\n      mload(0x40)\n      dup4\n      0xffffffff\n      and\n      0xe0\n      shl\n      dup2\n      mstore\n      0x04\n      add\n      tag_116\n      swap3\n      swap2\n      swap1\n      tag_94\n      jump\t// in\n    tag_116:\n      0x20\n      mload(0x40)\n      dup1\n      dup4\n      sub\n      dup2\n      0x00\n      dup8\n      gas\n      call\n      iszero\n      dup1\n      iszero\n      tag_118\n      jumpi\n      returndatasize\n      0x00\n      dup1\n      returndatacopy\n      revert(0x00, returndatasize)\n    tag_118:\n      pop\n      pop\n      pop\n      pop\n      mload(0x40)\n      returndatasize\n      not(0x1f)\n      0x1f\n      dup3\n      add\n      and\n      dup3\n      add\n      dup1\n      0x40\n      mstore\n      pop\n      dup2\n      add\n      swap1\n      tag_119\n      swap2\n      swap1\n      tag_120\n      jump\t// in\n    tag_119:\n        /* \"contracts/NFTLockAndRelease.sol\":7378:7448  messageId = router.ccipSend(_destinationChainSelector, evm2AnyMessage) */\n      swap6\n      pop\n        /* \"contracts/NFTLockAndRelease.sol\":7563:7588  _destinationChainSelector */\n      dup10\n        /* \"contracts/NFTLockAndRelease.sol\":7513:7697  MessageSent(... */\n      0xffffffffffffffff\n      and\n        /* \"contracts/NFTLockAndRelease.sol\":7539:7548  messageId */\n      dup7\n        /* \"contracts/NFTLockAndRelease.sol\":7513:7697  MessageSent(... */\n      0xd36445359b3c6e26c120659aef090ce0f2eb005cf9af450d11aa1225609b4f4d\n        /* \"contracts/NFTLockAndRelease.sol\":7603:7612  _receiver */\n      dup12\n        /* \"contracts/NFTLockAndRelease.sol\":7627:7632  _text */\n      dup12\n      dup12\n        /* \"contracts/NFTLockAndRelease.sol\":7655:7666  s_linkToken */\n      0x07\n      0x00\n      swap1\n      sload\n      swap1\n      0x0100\n      exp\n      swap1\n      div\n      0xffffffffffffffffffffffffffffffffffffffff\n      and\n        /* \"contracts/NFTLockAndRelease.sol\":7682:7686  fees */\n      dup8\n        /* \"contracts/NFTLockAndRelease.sol\":7513:7697  MessageSent(... */\n      mload(0x40)\n      tag_121\n      swap6\n      swap5\n      swap4\n      swap3\n      swap2\n      swap1\n      tag_122\n      jump\t// in\n    tag_121:\n      mload(0x40)\n      dup1\n      swap2\n      sub\n      swap1\n      log3\n        /* \"contracts/NFTLockAndRelease.sol\":7749:7765  return messageId */\n      pop\n      pop\n      pop\n        /* \"contracts/NFTLockAndRelease.sol\":3973:3974  _ */\n      pop\n        /* \"@chainlink/contracts-ccip/src/v0.8/shared/access/ConfirmedOwnerWithProposal.sol\":2101:2102  _ */\n      pop\n        /* \"contracts/NFTLockAndRelease.sol\":6074:7773  function sendMessagePayLINK(... */\n      swap5\n      swap4\n      pop\n      pop\n      pop\n      pop\n      jump\t// out\n        /* \"@chainlink/contracts-ccip/src/v0.8/ccip/applications/CCIPReceiver.sol\":1660:1790  function ccipReceive(Client.Any2EVMMessage calldata message) external virtual override onlyRouter {... */\n    tag_49:\n        /* \"@chainlink/contracts-ccip/src/v0.8/ccip/applications/CCIPReceiver.sol\":2449:2460  getRouter() */\n      tag_124\n        /* \"@chainlink/contracts-ccip/src/v0.8/ccip/applications/CCIPReceiver.sol\":2449:2458  getRouter */\n      tag_59\n        /* \"@chainlink/contracts-ccip/src/v0.8/ccip/applications/CCIPReceiver.sol\":2449:2460  getRouter() */\n      jump\t// in\n    tag_124:\n        /* \"@chainlink/contracts-ccip/src/v0.8/ccip/applications/CCIPReceiver.sol\":2435:2460  msg.sender != getRouter() */\n      0xffffffffffffffffffffffffffffffffffffffff\n      and\n        /* \"@chainlink/contracts-ccip/src/v0.8/ccip/applications/CCIPReceiver.sol\":2435:2445  msg.sender */\n      caller\n        /* \"@chainlink/contracts-ccip/src/v0.8/ccip/applications/CCIPReceiver.sol\":2435:2460  msg.sender != getRouter() */\n      0xffffffffffffffffffffffffffffffffffffffff\n      and\n      eq\n        /* \"@chainlink/contracts-ccip/src/v0.8/ccip/applications/CCIPReceiver.sol\":2431:2494  if (msg.sender != getRouter()) revert InvalidRouter(msg.sender) */\n      tag_125\n      jumpi\n        /* \"@chainlink/contracts-ccip/src/v0.8/ccip/applications/CCIPReceiver.sol\":2483:2493  msg.sender */\n      caller\n        /* \"@chainlink/contracts-ccip/src/v0.8/ccip/applications/CCIPReceiver.sol\":2469:2494  InvalidRouter(msg.sender) */\n      mload(0x40)\n      0xd7f7333400000000000000000000000000000000000000000000000000000000\n      dup2\n      mstore\n      0x04\n      add\n      tag_126\n      swap2\n      swap1\n      tag_53\n      jump\t// in\n    tag_126:\n      mload(0x40)\n      dup1\n      swap2\n      sub\n      swap1\n      revert\n        /* \"@chainlink/contracts-ccip/src/v0.8/ccip/applications/CCIPReceiver.sol\":2431:2494  if (msg.sender != getRouter()) revert InvalidRouter(msg.sender) */\n    tag_125:\n        /* \"@chainlink/contracts-ccip/src/v0.8/ccip/applications/CCIPReceiver.sol\":1764:1785  _ccipReceive(message) */\n      tag_128\n        /* \"@chainlink/contracts-ccip/src/v0.8/ccip/applications/CCIPReceiver.sol\":1777:1784  message */\n      dup2\n        /* \"@chainlink/contracts-ccip/src/v0.8/ccip/applications/CCIPReceiver.sol\":1764:1785  _ccipReceive(message) */\n      tag_129\n      swap1\n      tag_130\n      jump\t// in\n    tag_129:\n        /* \"@chainlink/contracts-ccip/src/v0.8/ccip/applications/CCIPReceiver.sol\":1764:1776  _ccipReceive */\n      tag_131\n        /* \"@chainlink/contracts-ccip/src/v0.8/ccip/applications/CCIPReceiver.sol\":1764:1785  _ccipReceive(message) */\n      jump\t// in\n    tag_128:\n        /* \"@chainlink/contracts-ccip/src/v0.8/ccip/applications/CCIPReceiver.sol\":1660:1790  function ccipReceive(Client.Any2EVMMessage calldata message) external virtual override onlyRouter {... */\n      pop\n      jump\t// out\n        /* \"@chainlink/contracts-ccip/src/v0.8/shared/access/ConfirmedOwnerWithProposal.sol\":1382:1463  function owner() public view override returns (address) {... */\n    tag_51:\n        /* \"@chainlink/contracts-ccip/src/v0.8/shared/access/ConfirmedOwnerWithProposal.sol\":1429:1436  address */\n      0x00\n        /* \"@chainlink/contracts-ccip/src/v0.8/shared/access/ConfirmedOwnerWithProposal.sol\":1451:1458  s_owner */\n      dup1\n      0x00\n      swap1\n      sload\n      swap1\n      0x0100\n      exp\n      swap1\n      div\n      0xffffffffffffffffffffffffffffffffffffffff\n      and\n        /* \"@chainlink/contracts-ccip/src/v0.8/shared/access/ConfirmedOwnerWithProposal.sol\":1444:1458  return s_owner */\n      swap1\n      pop\n        /* \"@chainlink/contracts-ccip/src/v0.8/shared/access/ConfirmedOwnerWithProposal.sol\":1382:1463  function owner() public view override returns (address) {... */\n      swap1\n      jump\t// out\n        /* \"contracts/NFTLockAndRelease.sol\":4901:5112  function allowlistDestinationChain(... */\n    tag_57:\n        /* \"@chainlink/contracts-ccip/src/v0.8/shared/access/ConfirmedOwnerWithProposal.sol\":2075:2095  _validateOwnership() */\n      tag_134\n        /* \"@chainlink/contracts-ccip/src/v0.8/shared/access/ConfirmedOwnerWithProposal.sol\":2075:2093  _validateOwnership */\n      tag_79\n        /* \"@chainlink/contracts-ccip/src/v0.8/shared/access/ConfirmedOwnerWithProposal.sol\":2075:2095  _validateOwnership() */\n      jump\t// in\n    tag_134:\n        /* \"contracts/NFTLockAndRelease.sol\":5097:5104  allowed */\n      dup1\n        /* \"contracts/NFTLockAndRelease.sol\":5039:5067  allowlistedDestinationChains */\n      0x04\n        /* \"contracts/NFTLockAndRelease.sol\":5039:5094  allowlistedDestinationChains[_destinationChainSelector] */\n      0x00\n        /* \"contracts/NFTLockAndRelease.sol\":5068:5093  _destinationChainSelector */\n      dup5\n        /* \"contracts/NFTLockAndRelease.sol\":5039:5094  allowlistedDestinationChains[_destinationChainSelector] */\n      0xffffffffffffffff\n      and\n      0xffffffffffffffff\n      and\n      dup2\n      mstore\n      0x20\n      add\n      swap1\n      dup2\n      mstore\n      0x20\n      add\n      0x00\n      keccak256\n      0x00\n        /* \"contracts/NFTLockAndRelease.sol\":5039:5104  allowlistedDestinationChains[_destinationChainSelector] = allowed */\n      0x0100\n      exp\n      dup2\n      sload\n      dup2\n      0xff\n      mul\n      not\n      and\n      swap1\n      dup4\n      iszero\n      iszero\n      mul\n      or\n      swap1\n      sstore\n      pop\n        /* \"contracts/NFTLockAndRelease.sol\":4901:5112  function allowlistDestinationChain(... */\n      pop\n      pop\n      jump\t// out\n        /* \"@chainlink/contracts-ccip/src/v0.8/ccip/applications/CCIPReceiver.sol\":2205:2303  function getRouter() public view virtual returns (address) {... */\n    tag_59:\n        /* \"@chainlink/contracts-ccip/src/v0.8/ccip/applications/CCIPReceiver.sol\":2255:2262  address */\n      0x00\n        /* \"@chainlink/contracts-ccip/src/v0.8/ccip/applications/CCIPReceiver.sol\":2285:2297  i_ccipRouter */\n      immutable(\"0x5c4c6aa067b6f8e6cb38e6ab843832a94d1712d661a04d73c517d6a1931a9e5d\")\n        /* \"@chainlink/contracts-ccip/src/v0.8/ccip/applications/CCIPReceiver.sol\":2270:2298  return address(i_ccipRouter) */\n      swap1\n      pop\n        /* \"@chainlink/contracts-ccip/src/v0.8/ccip/applications/CCIPReceiver.sol\":2205:2303  function getRouter() public view virtual returns (address) {... */\n      swap1\n      jump\t// out\n        /* \"contracts/NFTLockAndRelease.sol\":5199:5390  function allowlistSourceChain(... */\n    tag_63:\n        /* \"@chainlink/contracts-ccip/src/v0.8/shared/access/ConfirmedOwnerWithProposal.sol\":2075:2095  _validateOwnership() */\n      tag_138\n        /* \"@chainlink/contracts-ccip/src/v0.8/shared/access/ConfirmedOwnerWithProposal.sol\":2075:2093  _validateOwnership */\n      tag_79\n        /* \"@chainlink/contracts-ccip/src/v0.8/shared/access/ConfirmedOwnerWithProposal.sol\":2075:2095  _validateOwnership() */\n      jump\t// in\n    tag_138:\n        /* \"contracts/NFTLockAndRelease.sol\":5375:5382  allowed */\n      dup1\n        /* \"contracts/NFTLockAndRelease.sol\":5327:5350  allowlistedSourceChains */\n      0x05\n        /* \"contracts/NFTLockAndRelease.sol\":5327:5372  allowlistedSourceChains[_sourceChainSelector] */\n      0x00\n        /* \"contracts/NFTLockAndRelease.sol\":5351:5371  _sourceChainSelector */\n      dup5\n        /* \"contracts/NFTLockAndRelease.sol\":5327:5372  allowlistedSourceChains[_sourceChainSelector] */\n      0xffffffffffffffff\n      and\n      0xffffffffffffffff\n      and\n      dup2\n      mstore\n      0x20\n      add\n      swap1\n      dup2\n      mstore\n      0x20\n      add\n      0x00\n      keccak256\n      0x00\n        /* \"contracts/NFTLockAndRelease.sol\":5327:5382  allowlistedSourceChains[_sourceChainSelector] = allowed */\n      0x0100\n      exp\n      dup2\n      sload\n      dup2\n      0xff\n      mul\n      not\n      and\n      swap1\n      dup4\n      iszero\n      iszero\n      mul\n      or\n      swap1\n      sstore\n      pop\n        /* \"contracts/NFTLockAndRelease.sol\":5199:5390  function allowlistSourceChain(... */\n      pop\n      pop\n      jump\t// out\n        /* \"contracts/NFTLockAndRelease.sol\":5471:5602  function allowlistSender(address _sender, bool allowed) external onlyOwner {... */\n    tag_67:\n        /* \"@chainlink/contracts-ccip/src/v0.8/shared/access/ConfirmedOwnerWithProposal.sol\":2075:2095  _validateOwnership() */\n      tag_141\n        /* \"@chainlink/contracts-ccip/src/v0.8/shared/access/ConfirmedOwnerWithProposal.sol\":2075:2093  _validateOwnership */\n      tag_79\n        /* \"@chainlink/contracts-ccip/src/v0.8/shared/access/ConfirmedOwnerWithProposal.sol\":2075:2095  _validateOwnership() */\n      jump\t// in\n    tag_141:\n        /* \"contracts/NFTLockAndRelease.sol\":5587:5594  allowed */\n      dup1\n        /* \"contracts/NFTLockAndRelease.sol\":5557:5575  allowlistedSenders */\n      0x06\n        /* \"contracts/NFTLockAndRelease.sol\":5557:5584  allowlistedSenders[_sender] */\n      0x00\n        /* \"contracts/NFTLockAndRelease.sol\":5576:5583  _sender */\n      dup5\n        /* \"contracts/NFTLockAndRelease.sol\":5557:5584  allowlistedSenders[_sender] */\n      0xffffffffffffffffffffffffffffffffffffffff\n      and\n      0xffffffffffffffffffffffffffffffffffffffff\n      and\n      dup2\n      mstore\n      0x20\n      add\n      swap1\n      dup2\n      mstore\n      0x20\n      add\n      0x00\n      keccak256\n      0x00\n        /* \"contracts/NFTLockAndRelease.sol\":5557:5594  allowlistedSenders[_sender] = allowed */\n      0x0100\n      exp\n      dup2\n      sload\n      dup2\n      0xff\n      mul\n      not\n      and\n      swap1\n      dup4\n      iszero\n      iszero\n      mul\n      or\n      swap1\n      sstore\n      pop\n        /* \"contracts/NFTLockAndRelease.sol\":5471:5602  function allowlistSender(address _sender, bool allowed) external onlyOwner {... */\n      pop\n      pop\n      jump\t// out\n        /* \"@chainlink/contracts-ccip/src/v0.8/shared/access/ConfirmedOwnerWithProposal.sol\":847:945  function transferOwnership(address to) public override onlyOwner {... */\n    tag_70:\n        /* \"@chainlink/contracts-ccip/src/v0.8/shared/access/ConfirmedOwnerWithProposal.sol\":2075:2095  _validateOwnership() */\n      tag_144\n        /* \"@chainlink/contracts-ccip/src/v0.8/shared/access/ConfirmedOwnerWithProposal.sol\":2075:2093  _validateOwnership */\n      tag_79\n        /* \"@chainlink/contracts-ccip/src/v0.8/shared/access/ConfirmedOwnerWithProposal.sol\":2075:2095  _validateOwnership() */\n      jump\t// in\n    tag_144:\n        /* \"@chainlink/contracts-ccip/src/v0.8/shared/access/ConfirmedOwnerWithProposal.sol\":918:940  _transferOwnership(to) */\n      tag_146\n        /* \"@chainlink/contracts-ccip/src/v0.8/shared/access/ConfirmedOwnerWithProposal.sol\":937:939  to */\n      dup2\n        /* \"@chainlink/contracts-ccip/src/v0.8/shared/access/ConfirmedOwnerWithProposal.sol\":918:936  _transferOwnership */\n      tag_147\n        /* \"@chainlink/contracts-ccip/src/v0.8/shared/access/ConfirmedOwnerWithProposal.sol\":918:940  _transferOwnership(to) */\n      jump\t// in\n    tag_146:\n        /* \"@chainlink/contracts-ccip/src/v0.8/shared/access/ConfirmedOwnerWithProposal.sol\":847:945  function transferOwnership(address to) public override onlyOwner {... */\n      pop\n      jump\t// out\n        /* \"@chainlink/contracts-ccip/src/v0.8/shared/access/ConfirmedOwnerWithProposal.sol\":1809:1971  function _validateOwnership() internal view {... */\n    tag_79:\n        /* \"@chainlink/contracts-ccip/src/v0.8/shared/access/ConfirmedOwnerWithProposal.sol\":1932:1939  s_owner */\n      0x00\n      dup1\n      sload\n      swap1\n      0x0100\n      exp\n      swap1\n      div\n      0xffffffffffffffffffffffffffffffffffffffff\n      and\n        /* \"@chainlink/contracts-ccip/src/v0.8/shared/access/ConfirmedOwnerWithProposal.sol\":1918:1939  msg.sender == s_owner */\n      0xffffffffffffffffffffffffffffffffffffffff\n      and\n        /* \"@chainlink/contracts-ccip/src/v0.8/shared/access/ConfirmedOwnerWithProposal.sol\":1918:1928  msg.sender */\n      caller\n        /* \"@chainlink/contracts-ccip/src/v0.8/shared/access/ConfirmedOwnerWithProposal.sol\":1918:1939  msg.sender == s_owner */\n      0xffffffffffffffffffffffffffffffffffffffff\n      and\n      eq\n        /* \"@chainlink/contracts-ccip/src/v0.8/shared/access/ConfirmedOwnerWithProposal.sol\":1910:1966  require(msg.sender == s_owner, \"Only callable by owner\") */\n      tag_149\n      jumpi\n      mload(0x40)\n      0x08c379a000000000000000000000000000000000000000000000000000000000\n      dup2\n      mstore\n      0x04\n      add\n      tag_150\n      swap1\n      tag_151\n      jump\t// in\n    tag_150:\n      mload(0x40)\n      dup1\n      swap2\n      sub\n      swap1\n      revert\n    tag_149:\n        /* \"@chainlink/contracts-ccip/src/v0.8/shared/access/ConfirmedOwnerWithProposal.sol\":1809:1971  function _validateOwnership() internal view {... */\n      jump\t// out\n        /* \"contracts/NFTLockAndRelease.sol\":9180:10866  function _buildCCIPMessage(... */\n    tag_88:\n        /* \"contracts/NFTLockAndRelease.sol\":9331:9359  Client.EVM2AnyMessage memory */\n      tag_152\n      tag_153\n      jump\t// in\n    tag_152:\n        /* \"contracts/NFTLockAndRelease.sol\":9507:10858  Client.EVM2AnyMessage({... */\n      mload(0x40)\n      dup1\n      0xa0\n      add\n      0x40\n      mstore\n      dup1\n        /* \"contracts/NFTLockAndRelease.sol\":9569:9578  _receiver */\n      dup7\n        /* \"contracts/NFTLockAndRelease.sol\":9558:9579  abi.encode(_receiver) */\n      add(0x20, mload(0x40))\n      tag_155\n      swap2\n      swap1\n      tag_53\n      jump\t// in\n    tag_155:\n      mload(0x40)\n      0x20\n      dup2\n      dup4\n      sub\n      sub\n      dup2\n      mstore\n      swap1\n      0x40\n      mstore\n        /* \"contracts/NFTLockAndRelease.sol\":9507:10858  Client.EVM2AnyMessage({... */\n      dup2\n      mstore\n      0x20\n      add\n        /* \"contracts/NFTLockAndRelease.sol\":9647:9652  _text */\n      dup6\n      dup6\n        /* \"contracts/NFTLockAndRelease.sol\":9636:9653  abi.encode(_text) */\n      add(0x20, mload(0x40))\n      tag_156\n      swap3\n      swap2\n      swap1\n      tag_157\n      jump\t// in\n    tag_156:\n      mload(0x40)\n      0x20\n      dup2\n      dup4\n      sub\n      sub\n      dup2\n      mstore\n      swap1\n      0x40\n      mstore\n        /* \"contracts/NFTLockAndRelease.sol\":9507:10858  Client.EVM2AnyMessage({... */\n      dup2\n      mstore\n      0x20\n      add\n        /* \"contracts/NFTLockAndRelease.sol\":9736:9737  0 */\n      0x00\n        /* \"contracts/NFTLockAndRelease.sol\":9708:9738  new Client.EVMTokenAmount[](0) */\n      0xffffffffffffffff\n      dup2\n      gt\n      iszero\n      tag_158\n      jumpi\n      tag_159\n      tag_160\n      jump\t// in\n    tag_159:\n    tag_158:\n      mload(0x40)\n      swap1\n      dup1\n      dup3\n      mstore\n      dup1\n      0x20\n      mul\n      0x20\n      add\n      dup3\n      add\n      0x40\n      mstore\n      dup1\n      iszero\n      tag_161\n      jumpi\n      dup2\n      0x20\n      add\n    tag_162:\n      tag_163\n      tag_164\n      jump\t// in\n    tag_163:\n      dup2\n      mstore\n      0x20\n      add\n      swap1\n      0x01\n      swap1\n      sub\n      swap1\n      dup2\n      tag_162\n      jumpi\n      swap1\n      pop\n    tag_161:\n      pop\n        /* \"contracts/NFTLockAndRelease.sol\":9507:10858  Client.EVM2AnyMessage({... */\n      dup2\n      mstore\n      0x20\n      add\n        /* \"contracts/NFTLockAndRelease.sol\":10826:10842  _feeTokenAddress */\n      dup4\n        /* \"contracts/NFTLockAndRelease.sol\":9507:10858  Client.EVM2AnyMessage({... */\n      0xffffffffffffffffffffffffffffffffffffffff\n      and\n      dup2\n      mstore\n      0x20\n      add\n        /* \"contracts/NFTLockAndRelease.sol\":9812:10690  Client._argsToBytes(... */\n      tag_165\n        /* \"contracts/NFTLockAndRelease.sol\":10371:10671  Client.EVMExtraArgsV2({... */\n      mload(0x40)\n      dup1\n      0x40\n      add\n      0x40\n      mstore\n      dup1\n        /* \"contracts/NFTLockAndRelease.sol\":10430:10437  200_000 */\n      0x030d40\n        /* \"contracts/NFTLockAndRelease.sol\":10371:10671  Client.EVMExtraArgsV2({... */\n      dup2\n      mstore\n      0x20\n      add\n        /* \"contracts/NFTLockAndRelease.sol\":10545:10549  true */\n      0x01\n        /* \"contracts/NFTLockAndRelease.sol\":10371:10671  Client.EVMExtraArgsV2({... */\n      iszero\n      iszero\n      dup2\n      mstore\n      pop\n        /* \"contracts/NFTLockAndRelease.sol\":9812:9831  Client._argsToBytes */\n      tag_166\n        /* \"contracts/NFTLockAndRelease.sol\":9812:10690  Client._argsToBytes(... */\n      jump\t// in\n    tag_165:\n        /* \"contracts/NFTLockAndRelease.sol\":9507:10858  Client.EVM2AnyMessage({... */\n      dup2\n      mstore\n      pop\n        /* \"contracts/NFTLockAndRelease.sol\":9487:10858  return... */\n      swap1\n      pop\n        /* \"contracts/NFTLockAndRelease.sol\":9180:10866  function _buildCCIPMessage(... */\n      swap5\n      swap4\n      pop\n      pop\n      pop\n      pop\n      jump\t// out\n        /* \"contracts/NFTLockAndRelease.sol\":7816:8673  function _ccipReceive(... */\n    tag_131:\n        /* \"contracts/NFTLockAndRelease.sol\":7974:7988  any2EvmMessage */\n      dup1\n        /* \"contracts/NFTLockAndRelease.sol\":7974:8008  any2EvmMessage.sourceChainSelector */\n      0x20\n      add\n      mload\n        /* \"contracts/NFTLockAndRelease.sol\":8034:8048  any2EvmMessage */\n      dup2\n        /* \"contracts/NFTLockAndRelease.sol\":8034:8055  any2EvmMessage.sender */\n      0x40\n      add\n      mload\n        /* \"contracts/NFTLockAndRelease.sol\":8023:8067  abi.decode(any2EvmMessage.sender, (address)) */\n      dup1\n      0x20\n      add\n      swap1\n      mload\n      dup2\n      add\n      swap1\n      tag_167\n      swap2\n      swap1\n      tag_168\n      jump\t// in\n    tag_167:\n        /* \"contracts/NFTLockAndRelease.sol\":4336:4359  allowlistedSourceChains */\n      0x05\n        /* \"contracts/NFTLockAndRelease.sol\":4336:4381  allowlistedSourceChains[_sourceChainSelector] */\n      0x00\n        /* \"contracts/NFTLockAndRelease.sol\":4360:4380  _sourceChainSelector */\n      dup4\n        /* \"contracts/NFTLockAndRelease.sol\":4336:4381  allowlistedSourceChains[_sourceChainSelector] */\n      0xffffffffffffffff\n      and\n      0xffffffffffffffff\n      and\n      dup2\n      mstore\n      0x20\n      add\n      swap1\n      dup2\n      mstore\n      0x20\n      add\n      0x00\n      keccak256\n      0x00\n      swap1\n      sload\n      swap1\n      0x0100\n      exp\n      swap1\n      div\n      0xff\n      and\n        /* \"contracts/NFTLockAndRelease.sol\":4331:4450  if (!allowlistedSourceChains[_sourceChainSelector])... */\n      tag_170\n      jumpi\n        /* \"contracts/NFTLockAndRelease.sol\":4429:4449  _sourceChainSelector */\n      dup2\n        /* \"contracts/NFTLockAndRelease.sol\":4403:4450  SourceChainNotAllowlisted(_sourceChainSelector) */\n      mload(0x40)\n      0x9afeb64400000000000000000000000000000000000000000000000000000000\n      dup2\n      mstore\n      0x04\n      add\n      tag_171\n      swap2\n      swap1\n      tag_83\n      jump\t// in\n    tag_171:\n      mload(0x40)\n      dup1\n      swap2\n      sub\n      swap1\n      revert\n        /* \"contracts/NFTLockAndRelease.sol\":4331:4450  if (!allowlistedSourceChains[_sourceChainSelector])... */\n    tag_170:\n        /* \"contracts/NFTLockAndRelease.sol\":4466:4484  allowlistedSenders */\n      0x06\n        /* \"contracts/NFTLockAndRelease.sol\":4466:4493  allowlistedSenders[_sender] */\n      0x00\n        /* \"contracts/NFTLockAndRelease.sol\":4485:4492  _sender */\n      dup3\n        /* \"contracts/NFTLockAndRelease.sol\":4466:4493  allowlistedSenders[_sender] */\n      0xffffffffffffffffffffffffffffffffffffffff\n      and\n      0xffffffffffffffffffffffffffffffffffffffff\n      and\n      dup2\n      mstore\n      0x20\n      add\n      swap1\n      dup2\n      mstore\n      0x20\n      add\n      0x00\n      keccak256\n      0x00\n      swap1\n      sload\n      swap1\n      0x0100\n      exp\n      swap1\n      div\n      0xff\n      and\n        /* \"contracts/NFTLockAndRelease.sol\":4461:4531  if (!allowlistedSenders[_sender]) revert SenderNotAllowlisted(_sender) */\n      tag_172\n      jumpi\n        /* \"contracts/NFTLockAndRelease.sol\":4523:4530  _sender */\n      dup1\n        /* \"contracts/NFTLockAndRelease.sol\":4502:4531  SenderNotAllowlisted(_sender) */\n      mload(0x40)\n      0x71811df200000000000000000000000000000000000000000000000000000000\n      dup2\n      mstore\n      0x04\n      add\n      tag_173\n      swap2\n      swap1\n      tag_53\n      jump\t// in\n    tag_173:\n      mload(0x40)\n      dup1\n      swap2\n      sub\n      swap1\n      revert\n        /* \"contracts/NFTLockAndRelease.sol\":4461:4531  if (!allowlistedSenders[_sender]) revert SenderNotAllowlisted(_sender) */\n    tag_172:\n        /* \"contracts/NFTLockAndRelease.sol\":8174:8188  any2EvmMessage */\n      dup3\n        /* \"contracts/NFTLockAndRelease.sol\":8174:8198  any2EvmMessage.messageId */\n      0x00\n      add\n      mload\n        /* \"contracts/NFTLockAndRelease.sol\":8148:8171  s_lastReceivedMessageId */\n      0x02\n        /* \"contracts/NFTLockAndRelease.sol\":8148:8198  s_lastReceivedMessageId = any2EvmMessage.messageId */\n      dup2\n      swap1\n      sstore\n      pop\n        /* \"contracts/NFTLockAndRelease.sol\":8264:8278  any2EvmMessage */\n      dup3\n        /* \"contracts/NFTLockAndRelease.sol\":8264:8283  any2EvmMessage.data */\n      0x60\n      add\n      mload\n        /* \"contracts/NFTLockAndRelease.sol\":8253:8294  abi.decode(any2EvmMessage.data, (string)) */\n      dup1\n      0x20\n      add\n      swap1\n      mload\n      dup2\n      add\n      swap1\n      tag_175\n      swap2\n      swap1\n      tag_176\n      jump\t// in\n    tag_175:\n        /* \"contracts/NFTLockAndRelease.sol\":8232:8250  s_lastReceivedText */\n      0x03\n        /* \"contracts/NFTLockAndRelease.sol\":8232:8294  s_lastReceivedText = abi.decode(any2EvmMessage.data, (string)) */\n      swap1\n      dup2\n      tag_177\n      swap2\n      swap1\n      tag_178\n      jump\t// in\n    tag_177:\n      pop\n        /* \"contracts/NFTLockAndRelease.sol\":8414:8428  any2EvmMessage */\n      dup3\n        /* \"contracts/NFTLockAndRelease.sol\":8414:8448  any2EvmMessage.sourceChainSelector */\n      0x20\n      add\n      mload\n        /* \"contracts/NFTLockAndRelease.sol\":8345:8665  MessageReceived(... */\n      0xffffffffffffffff\n      and\n        /* \"contracts/NFTLockAndRelease.sol\":8375:8389  any2EvmMessage */\n      dup4\n        /* \"contracts/NFTLockAndRelease.sol\":8375:8399  any2EvmMessage.messageId */\n      0x00\n      add\n      mload\n        /* \"contracts/NFTLockAndRelease.sol\":8345:8665  MessageReceived(... */\n      0xb1e312a29937cc11967b0e4a346fef1ae132424ebaba9dc6d90249dba053e87c\n        /* \"contracts/NFTLockAndRelease.sol\":8526:8540  any2EvmMessage */\n      dup6\n        /* \"contracts/NFTLockAndRelease.sol\":8526:8547  any2EvmMessage.sender */\n      0x40\n      add\n      mload\n        /* \"contracts/NFTLockAndRelease.sol\":8515:8559  abi.decode(any2EvmMessage.sender, (address)) */\n      dup1\n      0x20\n      add\n      swap1\n      mload\n      dup2\n      add\n      swap1\n      tag_179\n      swap2\n      swap1\n      tag_168\n      jump\t// in\n    tag_179:\n        /* \"contracts/NFTLockAndRelease.sol\":8624:8638  any2EvmMessage */\n      dup7\n        /* \"contracts/NFTLockAndRelease.sol\":8624:8643  any2EvmMessage.data */\n      0x60\n      add\n      mload\n        /* \"contracts/NFTLockAndRelease.sol\":8613:8654  abi.decode(any2EvmMessage.data, (string)) */\n      dup1\n      0x20\n      add\n      swap1\n      mload\n      dup2\n      add\n      swap1\n      tag_180\n      swap2\n      swap1\n      tag_176\n      jump\t// in\n    tag_180:\n        /* \"contracts/NFTLockAndRelease.sol\":8345:8665  MessageReceived(... */\n      mload(0x40)\n      tag_181\n      swap3\n      swap2\n      swap1\n      tag_182\n      jump\t// in\n    tag_181:\n      mload(0x40)\n      dup1\n      swap2\n      sub\n      swap1\n      log3\n        /* \"contracts/NFTLockAndRelease.sol\":7816:8673  function _ccipReceive(... */\n      pop\n      pop\n      pop\n      jump\t// out\n        /* \"@chainlink/contracts-ccip/src/v0.8/shared/access/ConfirmedOwnerWithProposal.sol\":1536:1775  function _transferOwnership(address to) private {... */\n    tag_147:\n        /* \"@chainlink/contracts-ccip/src/v0.8/shared/access/ConfirmedOwnerWithProposal.sol\":1655:1665  msg.sender */\n      caller\n        /* \"@chainlink/contracts-ccip/src/v0.8/shared/access/ConfirmedOwnerWithProposal.sol\":1649:1665  to != msg.sender */\n      0xffffffffffffffffffffffffffffffffffffffff\n      and\n        /* \"@chainlink/contracts-ccip/src/v0.8/shared/access/ConfirmedOwnerWithProposal.sol\":1649:1651  to */\n      dup2\n        /* \"@chainlink/contracts-ccip/src/v0.8/shared/access/ConfirmedOwnerWithProposal.sol\":1649:1665  to != msg.sender */\n      0xffffffffffffffffffffffffffffffffffffffff\n      and\n      sub\n        /* \"@chainlink/contracts-ccip/src/v0.8/shared/access/ConfirmedOwnerWithProposal.sol\":1641:1693  require(to != msg.sender, \"Cannot transfer to self\") */\n      tag_184\n      jumpi\n      mload(0x40)\n      0x08c379a000000000000000000000000000000000000000000000000000000000\n      dup2\n      mstore\n      0x04\n      add\n      tag_185\n      swap1\n      tag_186\n      jump\t// in\n    tag_185:\n      mload(0x40)\n      dup1\n      swap2\n      sub\n      swap1\n      revert\n    tag_184:\n        /* \"@chainlink/contracts-ccip/src/v0.8/shared/access/ConfirmedOwnerWithProposal.sol\":1717:1719  to */\n      dup1\n        /* \"@chainlink/contracts-ccip/src/v0.8/shared/access/ConfirmedOwnerWithProposal.sol\":1700:1714  s_pendingOwner */\n      0x01\n      0x00\n        /* \"@chainlink/contracts-ccip/src/v0.8/shared/access/ConfirmedOwnerWithProposal.sol\":1700:1719  s_pendingOwner = to */\n      0x0100\n      exp\n      dup2\n      sload\n      dup2\n      0xffffffffffffffffffffffffffffffffffffffff\n      mul\n      not\n      and\n      swap1\n      dup4\n      0xffffffffffffffffffffffffffffffffffffffff\n      and\n      mul\n      or\n      swap1\n      sstore\n      pop\n        /* \"@chainlink/contracts-ccip/src/v0.8/shared/access/ConfirmedOwnerWithProposal.sol\":1767:1769  to */\n      dup1\n        /* \"@chainlink/contracts-ccip/src/v0.8/shared/access/ConfirmedOwnerWithProposal.sol\":1731:1770  OwnershipTransferRequested(s_owner, to) */\n      0xffffffffffffffffffffffffffffffffffffffff\n      and\n        /* \"@chainlink/contracts-ccip/src/v0.8/shared/access/ConfirmedOwnerWithProposal.sol\":1758:1765  s_owner */\n      0x00\n      dup1\n      sload\n      swap1\n      0x0100\n      exp\n      swap1\n      div\n      0xffffffffffffffffffffffffffffffffffffffff\n      and\n        /* \"@chainlink/contracts-ccip/src/v0.8/shared/access/ConfirmedOwnerWithProposal.sol\":1731:1770  OwnershipTransferRequested(s_owner, to) */\n      0xffffffffffffffffffffffffffffffffffffffff\n      and\n      0xed8889f560326eb138920d842192f0eb3dd22b4f139c87a2c57538e05bae1278\n      mload(0x40)\n      mload(0x40)\n      dup1\n      swap2\n      sub\n      swap1\n      log3\n        /* \"@chainlink/contracts-ccip/src/v0.8/shared/access/ConfirmedOwnerWithProposal.sol\":1536:1775  function _transferOwnership(address to) private {... */\n      pop\n      jump\t// out\n        /* \"@chainlink/contracts-ccip/src/v0.8/ccip/libraries/Client.sol\":2062:2232  function _argsToBytes(EVMExtraArgsV2 memory extraArgs) internal pure returns (bytes memory bts) {... */\n    tag_166:\n        /* \"@chainlink/contracts-ccip/src/v0.8/ccip/libraries/Client.sol\":2140:2156  bytes memory bts */\n      0x60\n        /* \"@chainlink/contracts-ccip/src/v0.8/ccip/libraries/Client.sol\":1554:1564  0x181dcf10 */\n      0x181dcf10\n        /* \"@chainlink/contracts-ccip/src/v0.8/ccip/libraries/Client.sol\":2194:2215  EVM_EXTRA_ARGS_V2_TAG */\n      0xe0\n      shl\n        /* \"@chainlink/contracts-ccip/src/v0.8/ccip/libraries/Client.sol\":2217:2226  extraArgs */\n      dup3\n        /* \"@chainlink/contracts-ccip/src/v0.8/ccip/libraries/Client.sol\":2171:2227  abi.encodeWithSelector(EVM_EXTRA_ARGS_V2_TAG, extraArgs) */\n      add(0x24, mload(0x40))\n      tag_188\n      swap2\n      swap1\n      tag_189\n      jump\t// in\n    tag_188:\n      mload(0x40)\n      0x20\n      dup2\n      dup4\n      sub\n      sub\n      dup2\n      mstore\n      swap1\n      0x40\n      mstore\n      swap1\n      not(0xffffffffffffffffffffffffffffffffffffffffffffffffffffffff)\n      and\n      0x20\n      dup3\n      add\n      dup1\n      mload\n      0xffffffffffffffffffffffffffffffffffffffffffffffffffffffff\n      dup4\n      dup2\n      dup4\n      and\n      or\n      dup4\n      mstore\n      pop\n      pop\n      pop\n      pop\n        /* \"@chainlink/contracts-ccip/src/v0.8/ccip/libraries/Client.sol\":2164:2227  return abi.encodeWithSelector(EVM_EXTRA_ARGS_V2_TAG, extraArgs) */\n      swap1\n      pop\n        /* \"@chainlink/contracts-ccip/src/v0.8/ccip/libraries/Client.sol\":2062:2232  function _argsToBytes(EVMExtraArgsV2 memory extraArgs) internal pure returns (bytes memory bts) {... */\n      swap2\n      swap1\n      pop\n      jump\t// out\n    tag_153:\n      mload(0x40)\n      dup1\n      0xa0\n      add\n      0x40\n      mstore\n      dup1\n      0x60\n      dup2\n      mstore\n      0x20\n      add\n      0x60\n      dup2\n      mstore\n      0x20\n      add\n      0x60\n      dup2\n      mstore\n      0x20\n      add\n      and(0xffffffffffffffffffffffffffffffffffffffff, 0x00)\n      dup2\n      mstore\n      0x20\n      add\n      0x60\n      dup2\n      mstore\n      pop\n      swap1\n      jump\t// out\n    tag_164:\n      mload(0x40)\n      dup1\n      0x40\n      add\n      0x40\n      mstore\n      dup1\n      and(0xffffffffffffffffffffffffffffffffffffffff, 0x00)\n      dup2\n      mstore\n      0x20\n      add\n      0x00\n      dup2\n      mstore\n      pop\n      swap1\n      jump\t// out\n        /* \"#utility.yul\":7:82   */\n    tag_190:\n        /* \"#utility.yul\":40:46   */\n      0x00\n        /* \"#utility.yul\":73:75   */\n      0x40\n        /* \"#utility.yul\":67:76   */\n      mload\n        /* \"#utility.yul\":57:76   */\n      swap1\n      pop\n        /* \"#utility.yul\":7:82   */\n      swap1\n      jump\t// out\n        /* \"#utility.yul\":88:205   */\n    tag_191:\n        /* \"#utility.yul\":197:198   */\n      0x00\n        /* \"#utility.yul\":194:195   */\n      dup1\n        /* \"#utility.yul\":187:199   */\n      revert\n        /* \"#utility.yul\":211:328   */\n    tag_192:\n        /* \"#utility.yul\":320:321   */\n      0x00\n        /* \"#utility.yul\":317:318   */\n      dup1\n        /* \"#utility.yul\":310:322   */\n      revert\n        /* \"#utility.yul\":334:483   */\n    tag_193:\n        /* \"#utility.yul\":370:377   */\n      0x00\n        /* \"#utility.yul\":410:476   */\n      0xffffffff00000000000000000000000000000000000000000000000000000000\n        /* \"#utility.yul\":403:408   */\n      dup3\n        /* \"#utility.yul\":399:477   */\n      and\n        /* \"#utility.yul\":388:477   */\n      swap1\n      pop\n        /* \"#utility.yul\":334:483   */\n      swap2\n      swap1\n      pop\n      jump\t// out\n        /* \"#utility.yul\":489:609   */\n    tag_194:\n        /* \"#utility.yul\":561:584   */\n      tag_301\n        /* \"#utility.yul\":578:583   */\n      dup2\n        /* \"#utility.yul\":561:584   */\n      tag_193\n      jump\t// in\n    tag_301:\n        /* \"#utility.yul\":554:559   */\n      dup2\n        /* \"#utility.yul\":551:585   */\n      eq\n        /* \"#utility.yul\":541:603   */\n      tag_302\n      jumpi\n        /* \"#utility.yul\":599:600   */\n      0x00\n        /* \"#utility.yul\":596:597   */\n      dup1\n        /* \"#utility.yul\":589:601   */\n      revert\n        /* \"#utility.yul\":541:603   */\n    tag_302:\n        /* \"#utility.yul\":489:609   */\n      pop\n      jump\t// out\n        /* \"#utility.yul\":615:752   */\n    tag_195:\n        /* \"#utility.yul\":660:665   */\n      0x00\n        /* \"#utility.yul\":698:704   */\n      dup2\n        /* \"#utility.yul\":685:705   */\n      calldataload\n        /* \"#utility.yul\":676:705   */\n      swap1\n      pop\n        /* \"#utility.yul\":714:746   */\n      tag_304\n        /* \"#utility.yul\":740:745   */\n      dup2\n        /* \"#utility.yul\":714:746   */\n      tag_194\n      jump\t// in\n    tag_304:\n        /* \"#utility.yul\":615:752   */\n      swap3\n      swap2\n      pop\n      pop\n      jump\t// out\n        /* \"#utility.yul\":758:1085   */\n    tag_20:\n        /* \"#utility.yul\":816:822   */\n      0x00\n        /* \"#utility.yul\":865:867   */\n      0x20\n        /* \"#utility.yul\":853:862   */\n      dup3\n        /* \"#utility.yul\":844:851   */\n      dup5\n        /* \"#utility.yul\":840:863   */\n      sub\n        /* \"#utility.yul\":836:868   */\n      slt\n        /* \"#utility.yul\":833:952   */\n      iszero\n      tag_306\n      jumpi\n        /* \"#utility.yul\":871:950   */\n      tag_307\n      tag_191\n      jump\t// in\n    tag_307:\n        /* \"#utility.yul\":833:952   */\n    tag_306:\n        /* \"#utility.yul\":991:992   */\n      0x00\n        /* \"#utility.yul\":1016:1068   */\n      tag_308\n        /* \"#utility.yul\":1060:1067   */\n      dup5\n        /* \"#utility.yul\":1051:1057   */\n      dup3\n        /* \"#utility.yul\":1040:1049   */\n      dup6\n        /* \"#utility.yul\":1036:1058   */\n      add\n        /* \"#utility.yul\":1016:1068   */\n      tag_195\n      jump\t// in\n    tag_308:\n        /* \"#utility.yul\":1006:1068   */\n      swap2\n      pop\n        /* \"#utility.yul\":962:1078   */\n      pop\n        /* \"#utility.yul\":758:1085   */\n      swap3\n      swap2\n      pop\n      pop\n      jump\t// out\n        /* \"#utility.yul\":1091:1181   */\n    tag_196:\n        /* \"#utility.yul\":1125:1132   */\n      0x00\n        /* \"#utility.yul\":1168:1173   */\n      dup2\n        /* \"#utility.yul\":1161:1174   */\n      iszero\n        /* \"#utility.yul\":1154:1175   */\n      iszero\n        /* \"#utility.yul\":1143:1175   */\n      swap1\n      pop\n        /* \"#utility.yul\":1091:1181   */\n      swap2\n      swap1\n      pop\n      jump\t// out\n        /* \"#utility.yul\":1187:1296   */\n    tag_197:\n        /* \"#utility.yul\":1268:1289   */\n      tag_311\n        /* \"#utility.yul\":1283:1288   */\n      dup2\n        /* \"#utility.yul\":1268:1289   */\n      tag_196\n      jump\t// in\n    tag_311:\n        /* \"#utility.yul\":1263:1266   */\n      dup3\n        /* \"#utility.yul\":1256:1290   */\n      mstore\n        /* \"#utility.yul\":1187:1296   */\n      pop\n      pop\n      jump\t// out\n        /* \"#utility.yul\":1302:1512   */\n    tag_23:\n        /* \"#utility.yul\":1389:1393   */\n      0x00\n        /* \"#utility.yul\":1427:1429   */\n      0x20\n        /* \"#utility.yul\":1416:1425   */\n      dup3\n        /* \"#utility.yul\":1412:1430   */\n      add\n        /* \"#utility.yul\":1404:1430   */\n      swap1\n      pop\n        /* \"#utility.yul\":1440:1505   */\n      tag_313\n        /* \"#utility.yul\":1502:1503   */\n      0x00\n        /* \"#utility.yul\":1491:1500   */\n      dup4\n        /* \"#utility.yul\":1487:1504   */\n      add\n        /* \"#utility.yul\":1478:1484   */\n      dup5\n        /* \"#utility.yul\":1440:1505   */\n      tag_197\n      jump\t// in\n    tag_313:\n        /* \"#utility.yul\":1302:1512   */\n      swap3\n      swap2\n      pop\n      pop\n      jump\t// out\n        /* \"#utility.yul\":1518:1619   */\n    tag_198:\n        /* \"#utility.yul\":1554:1561   */\n      0x00\n        /* \"#utility.yul\":1594:1612   */\n      0xffffffffffffffff\n        /* \"#utility.yul\":1587:1592   */\n      dup3\n        /* \"#utility.yul\":1583:1613   */\n      and\n        /* \"#utility.yul\":1572:1613   */\n      swap1\n      pop\n        /* \"#utility.yul\":1518:1619   */\n      swap2\n      swap1\n      pop\n      jump\t// out\n        /* \"#utility.yul\":1625:1745   */\n    tag_199:\n        /* \"#utility.yul\":1697:1720   */\n      tag_316\n        /* \"#utility.yul\":1714:1719   */\n      dup2\n        /* \"#utility.yul\":1697:1720   */\n      tag_198\n      jump\t// in\n    tag_316:\n        /* \"#utility.yul\":1690:1695   */\n      dup2\n        /* \"#utility.yul\":1687:1721   */\n      eq\n        /* \"#utility.yul\":1677:1739   */\n      tag_317\n      jumpi\n        /* \"#utility.yul\":1735:1736   */\n      0x00\n        /* \"#utility.yul\":1732:1733   */\n      dup1\n        /* \"#utility.yul\":1725:1737   */\n      revert\n        /* \"#utility.yul\":1677:1739   */\n    tag_317:\n        /* \"#utility.yul\":1625:1745   */\n      pop\n      jump\t// out\n        /* \"#utility.yul\":1751:1888   */\n    tag_200:\n        /* \"#utility.yul\":1796:1801   */\n      0x00\n        /* \"#utility.yul\":1834:1840   */\n      dup2\n        /* \"#utility.yul\":1821:1841   */\n      calldataload\n        /* \"#utility.yul\":1812:1841   */\n      swap1\n      pop\n        /* \"#utility.yul\":1850:1882   */\n      tag_319\n        /* \"#utility.yul\":1876:1881   */\n      dup2\n        /* \"#utility.yul\":1850:1882   */\n      tag_199\n      jump\t// in\n    tag_319:\n        /* \"#utility.yul\":1751:1888   */\n      swap3\n      swap2\n      pop\n      pop\n      jump\t// out\n        /* \"#utility.yul\":1894:2221   */\n    tag_26:\n        /* \"#utility.yul\":1952:1958   */\n      0x00\n        /* \"#utility.yul\":2001:2003   */\n      0x20\n        /* \"#utility.yul\":1989:1998   */\n      dup3\n        /* \"#utility.yul\":1980:1987   */\n      dup5\n        /* \"#utility.yul\":1976:1999   */\n      sub\n        /* \"#utility.yul\":1972:2004   */\n      slt\n        /* \"#utility.yul\":1969:2088   */\n      iszero\n      tag_321\n      jumpi\n        /* \"#utility.yul\":2007:2086   */\n      tag_322\n      tag_191\n      jump\t// in\n    tag_322:\n        /* \"#utility.yul\":1969:2088   */\n    tag_321:\n        /* \"#utility.yul\":2127:2128   */\n      0x00\n        /* \"#utility.yul\":2152:2204   */\n      tag_323\n        /* \"#utility.yul\":2196:2203   */\n      dup5\n        /* \"#utility.yul\":2187:2193   */\n      dup3\n        /* \"#utility.yul\":2176:2185   */\n      dup6\n        /* \"#utility.yul\":2172:2194   */\n      add\n        /* \"#utility.yul\":2152:2204   */\n      tag_200\n      jump\t// in\n    tag_323:\n        /* \"#utility.yul\":2142:2204   */\n      swap2\n      pop\n        /* \"#utility.yul\":2098:2214   */\n      pop\n        /* \"#utility.yul\":1894:2221   */\n      swap3\n      swap2\n      pop\n      pop\n      jump\t// out\n        /* \"#utility.yul\":2227:2353   */\n    tag_201:\n        /* \"#utility.yul\":2264:2271   */\n      0x00\n        /* \"#utility.yul\":2304:2346   */\n      0xffffffffffffffffffffffffffffffffffffffff\n        /* \"#utility.yul\":2297:2302   */\n      dup3\n        /* \"#utility.yul\":2293:2347   */\n      and\n        /* \"#utility.yul\":2282:2347   */\n      swap1\n      pop\n        /* \"#utility.yul\":2227:2353   */\n      swap2\n      swap1\n      pop\n      jump\t// out\n        /* \"#utility.yul\":2359:2455   */\n    tag_202:\n        /* \"#utility.yul\":2396:2403   */\n      0x00\n        /* \"#utility.yul\":2425:2449   */\n      tag_326\n        /* \"#utility.yul\":2443:2448   */\n      dup3\n        /* \"#utility.yul\":2425:2449   */\n      tag_201\n      jump\t// in\n    tag_326:\n        /* \"#utility.yul\":2414:2449   */\n      swap1\n      pop\n        /* \"#utility.yul\":2359:2455   */\n      swap2\n      swap1\n      pop\n      jump\t// out\n        /* \"#utility.yul\":2461:2583   */\n    tag_203:\n        /* \"#utility.yul\":2534:2558   */\n      tag_328\n        /* \"#utility.yul\":2552:2557   */\n      dup2\n        /* \"#utility.yul\":2534:2558   */\n      tag_202\n      jump\t// in\n    tag_328:\n        /* \"#utility.yul\":2527:2532   */\n      dup2\n        /* \"#utility.yul\":2524:2559   */\n      eq\n        /* \"#utility.yul\":2514:2577   */\n      tag_329\n      jumpi\n        /* \"#utility.yul\":2573:2574   */\n      0x00\n        /* \"#utility.yul\":2570:2571   */\n      dup1\n        /* \"#utility.yul\":2563:2575   */\n      revert\n        /* \"#utility.yul\":2514:2577   */\n    tag_329:\n        /* \"#utility.yul\":2461:2583   */\n      pop\n      jump\t// out\n        /* \"#utility.yul\":2589:2728   */\n    tag_204:\n        /* \"#utility.yul\":2635:2640   */\n      0x00\n        /* \"#utility.yul\":2673:2679   */\n      dup2\n        /* \"#utility.yul\":2660:2680   */\n      calldataload\n        /* \"#utility.yul\":2651:2680   */\n      swap1\n      pop\n        /* \"#utility.yul\":2689:2722   */\n      tag_331\n        /* \"#utility.yul\":2716:2721   */\n      dup2\n        /* \"#utility.yul\":2689:2722   */\n      tag_203\n      jump\t// in\n    tag_331:\n        /* \"#utility.yul\":2589:2728   */\n      swap3\n      swap2\n      pop\n      pop\n      jump\t// out\n        /* \"#utility.yul\":2734:3063   */\n    tag_31:\n        /* \"#utility.yul\":2793:2799   */\n      0x00\n        /* \"#utility.yul\":2842:2844   */\n      0x20\n        /* \"#utility.yul\":2830:2839   */\n      dup3\n        /* \"#utility.yul\":2821:2828   */\n      dup5\n        /* \"#utility.yul\":2817:2840   */\n      sub\n        /* \"#utility.yul\":2813:2845   */\n      slt\n        /* \"#utility.yul\":2810:2929   */\n      iszero\n      tag_333\n      jumpi\n        /* \"#utility.yul\":2848:2927   */\n      tag_334\n      tag_191\n      jump\t// in\n    tag_334:\n        /* \"#utility.yul\":2810:2929   */\n    tag_333:\n        /* \"#utility.yul\":2968:2969   */\n      0x00\n        /* \"#utility.yul\":2993:3046   */\n      tag_335\n        /* \"#utility.yul\":3038:3045   */\n      dup5\n        /* \"#utility.yul\":3029:3035   */\n      dup3\n        /* \"#utility.yul\":3018:3027   */\n      dup6\n        /* \"#utility.yul\":3014:3036   */\n      add\n        /* \"#utility.yul\":2993:3046   */\n      tag_204\n      jump\t// in\n    tag_335:\n        /* \"#utility.yul\":2983:3046   */\n      swap2\n      pop\n        /* \"#utility.yul\":2939:3056   */\n      pop\n        /* \"#utility.yul\":2734:3063   */\n      swap3\n      swap2\n      pop\n      pop\n      jump\t// out\n        /* \"#utility.yul\":3069:3186   */\n    tag_205:\n        /* \"#utility.yul\":3178:3179   */\n      0x00\n        /* \"#utility.yul\":3175:3176   */\n      dup1\n        /* \"#utility.yul\":3168:3180   */\n      revert\n        /* \"#utility.yul\":3192:3309   */\n    tag_206:\n        /* \"#utility.yul\":3301:3302   */\n      0x00\n        /* \"#utility.yul\":3298:3299   */\n      dup1\n        /* \"#utility.yul\":3291:3303   */\n      revert\n        /* \"#utility.yul\":3315:3432   */\n    tag_207:\n        /* \"#utility.yul\":3424:3425   */\n      0x00\n        /* \"#utility.yul\":3421:3422   */\n      dup1\n        /* \"#utility.yul\":3414:3426   */\n      revert\n        /* \"#utility.yul\":3452:4005   */\n    tag_208:\n        /* \"#utility.yul\":3510:3518   */\n      0x00\n        /* \"#utility.yul\":3520:3526   */\n      dup1\n        /* \"#utility.yul\":3570:3573   */\n      dup4\n        /* \"#utility.yul\":3563:3567   */\n      0x1f\n        /* \"#utility.yul\":3555:3561   */\n      dup5\n        /* \"#utility.yul\":3551:3568   */\n      add\n        /* \"#utility.yul\":3547:3574   */\n      slt\n        /* \"#utility.yul\":3537:3659   */\n      tag_340\n      jumpi\n        /* \"#utility.yul\":3578:3657   */\n      tag_341\n      tag_205\n      jump\t// in\n    tag_341:\n        /* \"#utility.yul\":3537:3659   */\n    tag_340:\n        /* \"#utility.yul\":3691:3697   */\n      dup3\n        /* \"#utility.yul\":3678:3698   */\n      calldataload\n        /* \"#utility.yul\":3668:3698   */\n      swap1\n      pop\n        /* \"#utility.yul\":3721:3739   */\n      0xffffffffffffffff\n        /* \"#utility.yul\":3713:3719   */\n      dup2\n        /* \"#utility.yul\":3710:3740   */\n      gt\n        /* \"#utility.yul\":3707:3824   */\n      iszero\n      tag_342\n      jumpi\n        /* \"#utility.yul\":3743:3822   */\n      tag_343\n      tag_206\n      jump\t// in\n    tag_343:\n        /* \"#utility.yul\":3707:3824   */\n    tag_342:\n        /* \"#utility.yul\":3857:3861   */\n      0x20\n        /* \"#utility.yul\":3849:3855   */\n      dup4\n        /* \"#utility.yul\":3845:3862   */\n      add\n        /* \"#utility.yul\":3833:3862   */\n      swap2\n      pop\n        /* \"#utility.yul\":3911:3914   */\n      dup4\n        /* \"#utility.yul\":3903:3907   */\n      0x01\n        /* \"#utility.yul\":3895:3901   */\n      dup3\n        /* \"#utility.yul\":3891:3908   */\n      mul\n        /* \"#utility.yul\":3881:3889   */\n      dup4\n        /* \"#utility.yul\":3877:3909   */\n      add\n        /* \"#utility.yul\":3874:3915   */\n      gt\n        /* \"#utility.yul\":3871:3999   */\n      iszero\n      tag_344\n      jumpi\n        /* \"#utility.yul\":3918:3997   */\n      tag_345\n      tag_207\n      jump\t// in\n    tag_345:\n        /* \"#utility.yul\":3871:3999   */\n    tag_344:\n        /* \"#utility.yul\":3452:4005   */\n      swap3\n      pop\n      swap3\n      swap1\n      pop\n      jump\t// out\n        /* \"#utility.yul\":4011:4828   */\n    tag_42:\n        /* \"#utility.yul\":4099:4105   */\n      0x00\n        /* \"#utility.yul\":4107:4113   */\n      dup1\n        /* \"#utility.yul\":4115:4121   */\n      0x00\n        /* \"#utility.yul\":4123:4129   */\n      dup1\n        /* \"#utility.yul\":4172:4174   */\n      0x60\n        /* \"#utility.yul\":4160:4169   */\n      dup6\n        /* \"#utility.yul\":4151:4158   */\n      dup8\n        /* \"#utility.yul\":4147:4170   */\n      sub\n        /* \"#utility.yul\":4143:4175   */\n      slt\n        /* \"#utility.yul\":4140:4259   */\n      iszero\n      tag_347\n      jumpi\n        /* \"#utility.yul\":4178:4257   */\n      tag_348\n      tag_191\n      jump\t// in\n    tag_348:\n        /* \"#utility.yul\":4140:4259   */\n    tag_347:\n        /* \"#utility.yul\":4298:4299   */\n      0x00\n        /* \"#utility.yul\":4323:4375   */\n      tag_349\n        /* \"#utility.yul\":4367:4374   */\n      dup8\n        /* \"#utility.yul\":4358:4364   */\n      dup3\n        /* \"#utility.yul\":4347:4356   */\n      dup9\n        /* \"#utility.yul\":4343:4365   */\n      add\n        /* \"#utility.yul\":4323:4375   */\n      tag_200\n      jump\t// in\n    tag_349:\n        /* \"#utility.yul\":4313:4375   */\n      swap5\n      pop\n        /* \"#utility.yul\":4269:4385   */\n      pop\n        /* \"#utility.yul\":4424:4426   */\n      0x20\n        /* \"#utility.yul\":4450:4503   */\n      tag_350\n        /* \"#utility.yul\":4495:4502   */\n      dup8\n        /* \"#utility.yul\":4486:4492   */\n      dup3\n        /* \"#utility.yul\":4475:4484   */\n      dup9\n        /* \"#utility.yul\":4471:4493   */\n      add\n        /* \"#utility.yul\":4450:4503   */\n      tag_204\n      jump\t// in\n    tag_350:\n        /* \"#utility.yul\":4440:4503   */\n      swap4\n      pop\n        /* \"#utility.yul\":4395:4513   */\n      pop\n        /* \"#utility.yul\":4580:4582   */\n      0x40\n        /* \"#utility.yul\":4569:4578   */\n      dup6\n        /* \"#utility.yul\":4565:4583   */\n      add\n        /* \"#utility.yul\":4552:4584   */\n      calldataload\n        /* \"#utility.yul\":4611:4629   */\n      0xffffffffffffffff\n        /* \"#utility.yul\":4603:4609   */\n      dup2\n        /* \"#utility.yul\":4600:4630   */\n      gt\n        /* \"#utility.yul\":4597:4714   */\n      iszero\n      tag_351\n      jumpi\n        /* \"#utility.yul\":4633:4712   */\n      tag_352\n      tag_192\n      jump\t// in\n    tag_352:\n        /* \"#utility.yul\":4597:4714   */\n    tag_351:\n        /* \"#utility.yul\":4746:4811   */\n      tag_353\n        /* \"#utility.yul\":4803:4810   */\n      dup8\n        /* \"#utility.yul\":4794:4800   */\n      dup3\n        /* \"#utility.yul\":4783:4792   */\n      dup9\n        /* \"#utility.yul\":4779:4801   */\n      add\n        /* \"#utility.yul\":4746:4811   */\n      tag_208\n      jump\t// in\n    tag_353:\n        /* \"#utility.yul\":4728:4811   */\n      swap3\n      pop\n      swap3\n      pop\n        /* \"#utility.yul\":4523:4821   */\n      pop\n        /* \"#utility.yul\":4011:4828   */\n      swap3\n      swap6\n      swap2\n      swap5\n      pop\n      swap3\n      pop\n      jump\t// out\n        /* \"#utility.yul\":4834:4911   */\n    tag_209:\n        /* \"#utility.yul\":4871:4878   */\n      0x00\n        /* \"#utility.yul\":4900:4905   */\n      dup2\n        /* \"#utility.yul\":4889:4905   */\n      swap1\n      pop\n        /* \"#utility.yul\":4834:4911   */\n      swap2\n      swap1\n      pop\n      jump\t// out\n        /* \"#utility.yul\":4917:5035   */\n    tag_210:\n        /* \"#utility.yul\":5004:5028   */\n      tag_356\n        /* \"#utility.yul\":5022:5027   */\n      dup2\n        /* \"#utility.yul\":5004:5028   */\n      tag_209\n      jump\t// in\n    tag_356:\n        /* \"#utility.yul\":4999:5002   */\n      dup3\n        /* \"#utility.yul\":4992:5029   */\n      mstore\n        /* \"#utility.yul\":4917:5035   */\n      pop\n      pop\n      jump\t// out\n        /* \"#utility.yul\":5041:5263   */\n    tag_45:\n        /* \"#utility.yul\":5134:5138   */\n      0x00\n        /* \"#utility.yul\":5172:5174   */\n      0x20\n        /* \"#utility.yul\":5161:5170   */\n      dup3\n        /* \"#utility.yul\":5157:5175   */\n      add\n        /* \"#utility.yul\":5149:5175   */\n      swap1\n      pop\n        /* \"#utility.yul\":5185:5256   */\n      tag_358\n        /* \"#utility.yul\":5253:5254   */\n      0x00\n        /* \"#utility.yul\":5242:5251   */\n      dup4\n        /* \"#utility.yul\":5238:5255   */\n      add\n        /* \"#utility.yul\":5229:5235   */\n      dup5\n        /* \"#utility.yul\":5185:5256   */\n      tag_210\n      jump\t// in\n    tag_358:\n        /* \"#utility.yul\":5041:5263   */\n      swap3\n      swap2\n      pop\n      pop\n      jump\t// out\n        /* \"#utility.yul\":5269:5386   */\n    tag_211:\n        /* \"#utility.yul\":5378:5379   */\n      0x00\n        /* \"#utility.yul\":5375:5376   */\n      dup1\n        /* \"#utility.yul\":5368:5380   */\n      revert\n        /* \"#utility.yul\":5428:5666   */\n    tag_212:\n        /* \"#utility.yul\":5507:5512   */\n      0x00\n        /* \"#utility.yul\":5548:5551   */\n      0xa0\n        /* \"#utility.yul\":5539:5545   */\n      dup3\n        /* \"#utility.yul\":5534:5537   */\n      dup5\n        /* \"#utility.yul\":5530:5546   */\n      sub\n        /* \"#utility.yul\":5526:5552   */\n      slt\n        /* \"#utility.yul\":5523:5636   */\n      iszero\n      tag_361\n      jumpi\n        /* \"#utility.yul\":5555:5634   */\n      tag_362\n      tag_211\n      jump\t// in\n    tag_362:\n        /* \"#utility.yul\":5523:5636   */\n    tag_361:\n        /* \"#utility.yul\":5654:5660   */\n      dup2\n        /* \"#utility.yul\":5645:5660   */\n      swap1\n      pop\n        /* \"#utility.yul\":5428:5666   */\n      swap3\n      swap2\n      pop\n      pop\n      jump\t// out\n        /* \"#utility.yul\":5672:6227   */\n    tag_48:\n        /* \"#utility.yul\":5764:5770   */\n      0x00\n        /* \"#utility.yul\":5813:5815   */\n      0x20\n        /* \"#utility.yul\":5801:5810   */\n      dup3\n        /* \"#utility.yul\":5792:5799   */\n      dup5\n        /* \"#utility.yul\":5788:5811   */\n      sub\n        /* \"#utility.yul\":5784:5816   */\n      slt\n        /* \"#utility.yul\":5781:5900   */\n      iszero\n      tag_364\n      jumpi\n        /* \"#utility.yul\":5819:5898   */\n      tag_365\n      tag_191\n      jump\t// in\n    tag_365:\n        /* \"#utility.yul\":5781:5900   */\n    tag_364:\n        /* \"#utility.yul\":5967:5968   */\n      0x00\n        /* \"#utility.yul\":5956:5965   */\n      dup3\n        /* \"#utility.yul\":5952:5969   */\n      add\n        /* \"#utility.yul\":5939:5970   */\n      calldataload\n        /* \"#utility.yul\":5997:6015   */\n      0xffffffffffffffff\n        /* \"#utility.yul\":5989:5995   */\n      dup2\n        /* \"#utility.yul\":5986:6016   */\n      gt\n        /* \"#utility.yul\":5983:6100   */\n      iszero\n      tag_366\n      jumpi\n        /* \"#utility.yul\":6019:6098   */\n      tag_367\n      tag_192\n      jump\t// in\n    tag_367:\n        /* \"#utility.yul\":5983:6100   */\n    tag_366:\n        /* \"#utility.yul\":6124:6210   */\n      tag_368\n        /* \"#utility.yul\":6202:6209   */\n      dup5\n        /* \"#utility.yul\":6193:6199   */\n      dup3\n        /* \"#utility.yul\":6182:6191   */\n      dup6\n        /* \"#utility.yul\":6178:6200   */\n      add\n        /* \"#utility.yul\":6124:6210   */\n      tag_212\n      jump\t// in\n    tag_368:\n        /* \"#utility.yul\":6114:6210   */\n      swap2\n      pop\n        /* \"#utility.yul\":5910:6220   */\n      pop\n        /* \"#utility.yul\":5672:6227   */\n      swap3\n      swap2\n      pop\n      pop\n      jump\t// out\n        /* \"#utility.yul\":6233:6351   */\n    tag_213:\n        /* \"#utility.yul\":6320:6344   */\n      tag_370\n        /* \"#utility.yul\":6338:6343   */\n      dup2\n        /* \"#utility.yul\":6320:6344   */\n      tag_202\n      jump\t// in\n    tag_370:\n        /* \"#utility.yul\":6315:6318   */\n      dup3\n        /* \"#utility.yul\":6308:6345   */\n      mstore\n        /* \"#utility.yul\":6233:6351   */\n      pop\n      pop\n      jump\t// out\n        /* \"#utility.yul\":6357:6579   */\n    tag_53:\n        /* \"#utility.yul\":6450:6454   */\n      0x00\n        /* \"#utility.yul\":6488:6490   */\n      0x20\n        /* \"#utility.yul\":6477:6486   */\n      dup3\n        /* \"#utility.yul\":6473:6491   */\n      add\n        /* \"#utility.yul\":6465:6491   */\n      swap1\n      pop\n        /* \"#utility.yul\":6501:6572   */\n      tag_372\n        /* \"#utility.yul\":6569:6570   */\n      0x00\n        /* \"#utility.yul\":6558:6567   */\n      dup4\n        /* \"#utility.yul\":6554:6571   */\n      add\n        /* \"#utility.yul\":6545:6551   */\n      dup5\n        /* \"#utility.yul\":6501:6572   */\n      tag_213\n      jump\t// in\n    tag_372:\n        /* \"#utility.yul\":6357:6579   */\n      swap3\n      swap2\n      pop\n      pop\n      jump\t// out\n        /* \"#utility.yul\":6585:6701   */\n    tag_214:\n        /* \"#utility.yul\":6655:6676   */\n      tag_374\n        /* \"#utility.yul\":6670:6675   */\n      dup2\n        /* \"#utility.yul\":6655:6676   */\n      tag_196\n      jump\t// in\n    tag_374:\n        /* \"#utility.yul\":6648:6653   */\n      dup2\n        /* \"#utility.yul\":6645:6677   */\n      eq\n        /* \"#utility.yul\":6635:6695   */\n      tag_375\n      jumpi\n        /* \"#utility.yul\":6691:6692   */\n      0x00\n        /* \"#utility.yul\":6688:6689   */\n      dup1\n        /* \"#utility.yul\":6681:6693   */\n      revert\n        /* \"#utility.yul\":6635:6695   */\n    tag_375:\n        /* \"#utility.yul\":6585:6701   */\n      pop\n      jump\t// out\n        /* \"#utility.yul\":6707:6840   */\n    tag_215:\n        /* \"#utility.yul\":6750:6755   */\n      0x00\n        /* \"#utility.yul\":6788:6794   */\n      dup2\n        /* \"#utility.yul\":6775:6795   */\n      calldataload\n        /* \"#utility.yul\":6766:6795   */\n      swap1\n      pop\n        /* \"#utility.yul\":6804:6834   */\n      tag_377\n        /* \"#utility.yul\":6828:6833   */\n      dup2\n        /* \"#utility.yul\":6804:6834   */\n      tag_214\n      jump\t// in\n    tag_377:\n        /* \"#utility.yul\":6707:6840   */\n      swap3\n      swap2\n      pop\n      pop\n      jump\t// out\n        /* \"#utility.yul\":6846:7312   */\n    tag_56:\n        /* \"#utility.yul\":6910:6916   */\n      0x00\n        /* \"#utility.yul\":6918:6924   */\n      dup1\n        /* \"#utility.yul\":6967:6969   */\n      0x40\n        /* \"#utility.yul\":6955:6964   */\n      dup4\n        /* \"#utility.yul\":6946:6953   */\n      dup6\n        /* \"#utility.yul\":6942:6965   */\n      sub\n        /* \"#utility.yul\":6938:6970   */\n      slt\n        /* \"#utility.yul\":6935:7054   */\n      iszero\n      tag_379\n      jumpi\n        /* \"#utility.yul\":6973:7052   */\n      tag_380\n      tag_191\n      jump\t// in\n    tag_380:\n        /* \"#utility.yul\":6935:7054   */\n    tag_379:\n        /* \"#utility.yul\":7093:7094   */\n      0x00\n        /* \"#utility.yul\":7118:7170   */\n      tag_381\n        /* \"#utility.yul\":7162:7169   */\n      dup6\n        /* \"#utility.yul\":7153:7159   */\n      dup3\n        /* \"#utility.yul\":7142:7151   */\n      dup7\n        /* \"#utility.yul\":7138:7160   */\n      add\n        /* \"#utility.yul\":7118:7170   */\n      tag_200\n      jump\t// in\n    tag_381:\n        /* \"#utility.yul\":7108:7170   */\n      swap3\n      pop\n        /* \"#utility.yul\":7064:7180   */\n      pop\n        /* \"#utility.yul\":7219:7221   */\n      0x20\n        /* \"#utility.yul\":7245:7295   */\n      tag_382\n        /* \"#utility.yul\":7287:7294   */\n      dup6\n        /* \"#utility.yul\":7278:7284   */\n      dup3\n        /* \"#utility.yul\":7267:7276   */\n      dup7\n        /* \"#utility.yul\":7263:7285   */\n      add\n        /* \"#utility.yul\":7245:7295   */\n      tag_215\n      jump\t// in\n    tag_382:\n        /* \"#utility.yul\":7235:7295   */\n      swap2\n      pop\n        /* \"#utility.yul\":7190:7305   */\n      pop\n        /* \"#utility.yul\":6846:7312   */\n      swap3\n      pop\n      swap3\n      swap1\n      pop\n      jump\t// out\n        /* \"#utility.yul\":7318:7786   */\n    tag_66:\n        /* \"#utility.yul\":7383:7389   */\n      0x00\n        /* \"#utility.yul\":7391:7397   */\n      dup1\n        /* \"#utility.yul\":7440:7442   */\n      0x40\n        /* \"#utility.yul\":7428:7437   */\n      dup4\n        /* \"#utility.yul\":7419:7426   */\n      dup6\n        /* \"#utility.yul\":7415:7438   */\n      sub\n        /* \"#utility.yul\":7411:7443   */\n      slt\n        /* \"#utility.yul\":7408:7527   */\n      iszero\n      tag_384\n      jumpi\n        /* \"#utility.yul\":7446:7525   */\n      tag_385\n      tag_191\n      jump\t// in\n    tag_385:\n        /* \"#utility.yul\":7408:7527   */\n    tag_384:\n        /* \"#utility.yul\":7566:7567   */\n      0x00\n        /* \"#utility.yul\":7591:7644   */\n      tag_386\n        /* \"#utility.yul\":7636:7643   */\n      dup6\n        /* \"#utility.yul\":7627:7633   */\n      dup3\n        /* \"#utility.yul\":7616:7625   */\n      dup7\n        /* \"#utility.yul\":7612:7634   */\n      add\n        /* \"#utility.yul\":7591:7644   */\n      tag_204\n      jump\t// in\n    tag_386:\n        /* \"#utility.yul\":7581:7644   */\n      swap3\n      pop\n        /* \"#utility.yul\":7537:7654   */\n      pop\n        /* \"#utility.yul\":7693:7695   */\n      0x20\n        /* \"#utility.yul\":7719:7769   */\n      tag_387\n        /* \"#utility.yul\":7761:7768   */\n      dup6\n        /* \"#utility.yul\":7752:7758   */\n      dup3\n        /* \"#utility.yul\":7741:7750   */\n      dup7\n        /* \"#utility.yul\":7737:7759   */\n      add\n        /* \"#utility.yul\":7719:7769   */\n      tag_215\n      jump\t// in\n    tag_387:\n        /* \"#utility.yul\":7709:7769   */\n      swap2\n      pop\n        /* \"#utility.yul\":7664:7779   */\n      pop\n        /* \"#utility.yul\":7318:7786   */\n      swap3\n      pop\n      swap3\n      swap1\n      pop\n      jump\t// out\n        /* \"#utility.yul\":7792:7961   */\n    tag_216:\n        /* \"#utility.yul\":7876:7887   */\n      0x00\n        /* \"#utility.yul\":7910:7916   */\n      dup3\n        /* \"#utility.yul\":7905:7908   */\n      dup3\n        /* \"#utility.yul\":7898:7917   */\n      mstore\n        /* \"#utility.yul\":7950:7954   */\n      0x20\n        /* \"#utility.yul\":7945:7948   */\n      dup3\n        /* \"#utility.yul\":7941:7955   */\n      add\n        /* \"#utility.yul\":7926:7955   */\n      swap1\n      pop\n        /* \"#utility.yul\":7792:7961   */\n      swap3\n      swap2\n      pop\n      pop\n      jump\t// out\n        /* \"#utility.yul\":7967:8139   */\n    tag_217:\n        /* \"#utility.yul\":8107:8131   */\n      0x4d7573742062652070726f706f736564206f776e657200000000000000000000\n        /* \"#utility.yul\":8103:8104   */\n      0x00\n        /* \"#utility.yul\":8095:8101   */\n      dup3\n        /* \"#utility.yul\":8091:8105   */\n      add\n        /* \"#utility.yul\":8084:8132   */\n      mstore\n        /* \"#utility.yul\":7967:8139   */\n      pop\n      jump\t// out\n        /* \"#utility.yul\":8145:8511   */\n    tag_218:\n        /* \"#utility.yul\":8287:8290   */\n      0x00\n        /* \"#utility.yul\":8308:8375   */\n      tag_391\n        /* \"#utility.yul\":8372:8374   */\n      0x16\n        /* \"#utility.yul\":8367:8370   */\n      dup4\n        /* \"#utility.yul\":8308:8375   */\n      tag_216\n      jump\t// in\n    tag_391:\n        /* \"#utility.yul\":8301:8375   */\n      swap2\n      pop\n        /* \"#utility.yul\":8384:8477   */\n      tag_392\n        /* \"#utility.yul\":8473:8476   */\n      dup3\n        /* \"#utility.yul\":8384:8477   */\n      tag_217\n      jump\t// in\n    tag_392:\n        /* \"#utility.yul\":8502:8504   */\n      0x20\n        /* \"#utility.yul\":8497:8500   */\n      dup3\n        /* \"#utility.yul\":8493:8505   */\n      add\n        /* \"#utility.yul\":8486:8505   */\n      swap1\n      pop\n        /* \"#utility.yul\":8145:8511   */\n      swap2\n      swap1\n      pop\n      jump\t// out\n        /* \"#utility.yul\":8517:8936   */\n    tag_76:\n        /* \"#utility.yul\":8683:8687   */\n      0x00\n        /* \"#utility.yul\":8721:8723   */\n      0x20\n        /* \"#utility.yul\":8710:8719   */\n      dup3\n        /* \"#utility.yul\":8706:8724   */\n      add\n        /* \"#utility.yul\":8698:8724   */\n      swap1\n      pop\n        /* \"#utility.yul\":8770:8779   */\n      dup2\n        /* \"#utility.yul\":8764:8768   */\n      dup2\n        /* \"#utility.yul\":8760:8780   */\n      sub\n        /* \"#utility.yul\":8756:8757   */\n      0x00\n        /* \"#utility.yul\":8745:8754   */\n      dup4\n        /* \"#utility.yul\":8741:8758   */\n      add\n        /* \"#utility.yul\":8734:8781   */\n      mstore\n        /* \"#utility.yul\":8798:8929   */\n      tag_394\n        /* \"#utility.yul\":8924:8928   */\n      dup2\n        /* \"#utility.yul\":8798:8929   */\n      tag_218\n      jump\t// in\n    tag_394:\n        /* \"#utility.yul\":8790:8929   */\n      swap1\n      pop\n        /* \"#utility.yul\":8517:8936   */\n      swap2\n      swap1\n      pop\n      jump\t// out\n        /* \"#utility.yul\":8942:9057   */\n    tag_219:\n        /* \"#utility.yul\":9027:9050   */\n      tag_396\n        /* \"#utility.yul\":9044:9049   */\n      dup2\n        /* \"#utility.yul\":9027:9050   */\n      tag_198\n      jump\t// in\n    tag_396:\n        /* \"#utility.yul\":9022:9025   */\n      dup3\n        /* \"#utility.yul\":9015:9051   */\n      mstore\n        /* \"#utility.yul\":8942:9057   */\n      pop\n      pop\n      jump\t// out\n        /* \"#utility.yul\":9063:9281   */\n    tag_83:\n        /* \"#utility.yul\":9154:9158   */\n      0x00\n        /* \"#utility.yul\":9192:9194   */\n      0x20\n        /* \"#utility.yul\":9181:9190   */\n      dup3\n        /* \"#utility.yul\":9177:9195   */\n      add\n        /* \"#utility.yul\":9169:9195   */\n      swap1\n      pop\n        /* \"#utility.yul\":9205:9274   */\n      tag_398\n        /* \"#utility.yul\":9271:9272   */\n      0x00\n        /* \"#utility.yul\":9260:9269   */\n      dup4\n        /* \"#utility.yul\":9256:9273   */\n      add\n        /* \"#utility.yul\":9247:9253   */\n      dup5\n        /* \"#utility.yul\":9205:9274   */\n      tag_219\n      jump\t// in\n    tag_398:\n        /* \"#utility.yul\":9063:9281   */\n      swap3\n      swap2\n      pop\n      pop\n      jump\t// out\n        /* \"#utility.yul\":9287:9430   */\n    tag_220:\n        /* \"#utility.yul\":9344:9349   */\n      0x00\n        /* \"#utility.yul\":9375:9381   */\n      dup2\n        /* \"#utility.yul\":9369:9382   */\n      mload\n        /* \"#utility.yul\":9360:9382   */\n      swap1\n      pop\n        /* \"#utility.yul\":9391:9424   */\n      tag_400\n        /* \"#utility.yul\":9418:9423   */\n      dup2\n        /* \"#utility.yul\":9391:9424   */\n      tag_203\n      jump\t// in\n    tag_400:\n        /* \"#utility.yul\":9287:9430   */\n      swap3\n      swap2\n      pop\n      pop\n      jump\t// out\n        /* \"#utility.yul\":9436:9787   */\n    tag_92:\n        /* \"#utility.yul\":9506:9512   */\n      0x00\n        /* \"#utility.yul\":9555:9557   */\n      0x20\n        /* \"#utility.yul\":9543:9552   */\n      dup3\n        /* \"#utility.yul\":9534:9541   */\n      dup5\n        /* \"#utility.yul\":9530:9553   */\n      sub\n        /* \"#utility.yul\":9526:9558   */\n      slt\n        /* \"#utility.yul\":9523:9642   */\n      iszero\n      tag_402\n      jumpi\n        /* \"#utility.yul\":9561:9640   */\n      tag_403\n      tag_191\n      jump\t// in\n    tag_403:\n        /* \"#utility.yul\":9523:9642   */\n    tag_402:\n        /* \"#utility.yul\":9681:9682   */\n      0x00\n        /* \"#utility.yul\":9706:9770   */\n      tag_404\n        /* \"#utility.yul\":9762:9769   */\n      dup5\n        /* \"#utility.yul\":9753:9759   */\n      dup3\n        /* \"#utility.yul\":9742:9751   */\n      dup6\n        /* \"#utility.yul\":9738:9760   */\n      add\n        /* \"#utility.yul\":9706:9770   */\n      tag_220\n      jump\t// in\n    tag_404:\n        /* \"#utility.yul\":9696:9770   */\n      swap2\n      pop\n        /* \"#utility.yul\":9652:9780   */\n      pop\n        /* \"#utility.yul\":9436:9787   */\n      swap3\n      swap2\n      pop\n      pop\n      jump\t// out\n        /* \"#utility.yul\":9793:9891   */\n    tag_221:\n        /* \"#utility.yul\":9844:9850   */\n      0x00\n        /* \"#utility.yul\":9878:9883   */\n      dup2\n        /* \"#utility.yul\":9872:9884   */\n      mload\n        /* \"#utility.yul\":9862:9884   */\n      swap1\n      pop\n        /* \"#utility.yul\":9793:9891   */\n      swap2\n      swap1\n      pop\n      jump\t// out\n        /* \"#utility.yul\":9897:10055   */\n    tag_222:\n        /* \"#utility.yul\":9970:9981   */\n      0x00\n        /* \"#utility.yul\":10004:10010   */\n      dup3\n        /* \"#utility.yul\":9999:10002   */\n      dup3\n        /* \"#utility.yul\":9992:10011   */\n      mstore\n        /* \"#utility.yul\":10044:10048   */\n      0x20\n        /* \"#utility.yul\":10039:10042   */\n      dup3\n        /* \"#utility.yul\":10035:10049   */\n      add\n        /* \"#utility.yul\":10020:10049   */\n      swap1\n      pop\n        /* \"#utility.yul\":9897:10055   */\n      swap3\n      swap2\n      pop\n      pop\n      jump\t// out\n        /* \"#utility.yul\":10061:10200   */\n    tag_223:\n        /* \"#utility.yul\":10150:10156   */\n      dup3\n        /* \"#utility.yul\":10145:10148   */\n      dup2\n        /* \"#utility.yul\":10140:10143   */\n      dup4\n        /* \"#utility.yul\":10134:10157   */\n      mcopy\n        /* \"#utility.yul\":10191:10192   */\n      0x00\n        /* \"#utility.yul\":10182:10188   */\n      dup4\n        /* \"#utility.yul\":10177:10180   */\n      dup4\n        /* \"#utility.yul\":10173:10189   */\n      add\n        /* \"#utility.yul\":10166:10193   */\n      mstore\n        /* \"#utility.yul\":10061:10200   */\n      pop\n      pop\n      pop\n      jump\t// out\n        /* \"#utility.yul\":10206:10308   */\n    tag_224:\n        /* \"#utility.yul\":10247:10253   */\n      0x00\n        /* \"#utility.yul\":10298:10300   */\n      0x1f\n        /* \"#utility.yul\":10294:10301   */\n      not\n        /* \"#utility.yul\":10289:10291   */\n      0x1f\n        /* \"#utility.yul\":10282:10287   */\n      dup4\n        /* \"#utility.yul\":10278:10292   */\n      add\n        /* \"#utility.yul\":10274:10302   */\n      and\n        /* \"#utility.yul\":10264:10302   */\n      swap1\n      pop\n        /* \"#utility.yul\":10206:10308   */\n      swap2\n      swap1\n      pop\n      jump\t// out\n        /* \"#utility.yul\":10314:10667   */\n    tag_225:\n        /* \"#utility.yul\":10390:10393   */\n      0x00\n        /* \"#utility.yul\":10418:10456   */\n      tag_410\n        /* \"#utility.yul\":10450:10455   */\n      dup3\n        /* \"#utility.yul\":10418:10456   */\n      tag_221\n      jump\t// in\n    tag_410:\n        /* \"#utility.yul\":10472:10532   */\n      tag_411\n        /* \"#utility.yul\":10525:10531   */\n      dup2\n        /* \"#utility.yul\":10520:10523   */\n      dup6\n        /* \"#utility.yul\":10472:10532   */\n      tag_222\n      jump\t// in\n    tag_411:\n        /* \"#utility.yul\":10465:10532   */\n      swap4\n      pop\n        /* \"#utility.yul\":10541:10606   */\n      tag_412\n        /* \"#utility.yul\":10599:10605   */\n      dup2\n        /* \"#utility.yul\":10594:10597   */\n      dup6\n        /* \"#utility.yul\":10587:10591   */\n      0x20\n        /* \"#utility.yul\":10580:10585   */\n      dup7\n        /* \"#utility.yul\":10576:10592   */\n      add\n        /* \"#utility.yul\":10541:10606   */\n      tag_223\n      jump\t// in\n    tag_412:\n        /* \"#utility.yul\":10631:10660   */\n      tag_413\n        /* \"#utility.yul\":10653:10659   */\n      dup2\n        /* \"#utility.yul\":10631:10660   */\n      tag_224\n      jump\t// in\n    tag_413:\n        /* \"#utility.yul\":10626:10629   */\n      dup5\n        /* \"#utility.yul\":10622:10661   */\n      add\n        /* \"#utility.yul\":10615:10661   */\n      swap2\n      pop\n        /* \"#utility.yul\":10394:10667   */\n      pop\n        /* \"#utility.yul\":10314:10667   */\n      swap3\n      swap2\n      pop\n      pop\n      jump\t// out\n        /* \"#utility.yul\":10673:10818   */\n    tag_226:\n        /* \"#utility.yul\":10771:10777   */\n      0x00\n        /* \"#utility.yul\":10805:10810   */\n      dup2\n        /* \"#utility.yul\":10799:10811   */\n      mload\n        /* \"#utility.yul\":10789:10811   */\n      swap1\n      pop\n        /* \"#utility.yul\":10673:10818   */\n      swap2\n      swap1\n      pop\n      jump\t// out\n        /* \"#utility.yul\":10824:11029   */\n    tag_227:\n        /* \"#utility.yul\":10944:10955   */\n      0x00\n        /* \"#utility.yul\":10978:10984   */\n      dup3\n        /* \"#utility.yul\":10973:10976   */\n      dup3\n        /* \"#utility.yul\":10966:10985   */\n      mstore\n        /* \"#utility.yul\":11018:11022   */\n      0x20\n        /* \"#utility.yul\":11013:11016   */\n      dup3\n        /* \"#utility.yul\":11009:11023   */\n      add\n        /* \"#utility.yul\":10994:11023   */\n      swap1\n      pop\n        /* \"#utility.yul\":10824:11029   */\n      swap3\n      swap2\n      pop\n      pop\n      jump\t// out\n        /* \"#utility.yul\":11035:11198   */\n    tag_228:\n        /* \"#utility.yul\":11133:11137   */\n      0x00\n        /* \"#utility.yul\":11156:11159   */\n      dup2\n        /* \"#utility.yul\":11148:11159   */\n      swap1\n      pop\n        /* \"#utility.yul\":11186:11190   */\n      0x20\n        /* \"#utility.yul\":11181:11184   */\n      dup3\n        /* \"#utility.yul\":11177:11191   */\n      add\n        /* \"#utility.yul\":11169:11191   */\n      swap1\n      pop\n        /* \"#utility.yul\":11035:11198   */\n      swap2\n      swap1\n      pop\n      jump\t// out\n        /* \"#utility.yul\":11204:11312   */\n    tag_229:\n        /* \"#utility.yul\":11281:11305   */\n      tag_418\n        /* \"#utility.yul\":11299:11304   */\n      dup2\n        /* \"#utility.yul\":11281:11305   */\n      tag_202\n      jump\t// in\n    tag_418:\n        /* \"#utility.yul\":11276:11279   */\n      dup3\n        /* \"#utility.yul\":11269:11306   */\n      mstore\n        /* \"#utility.yul\":11204:11312   */\n      pop\n      pop\n      jump\t// out\n        /* \"#utility.yul\":11318:11395   */\n    tag_230:\n        /* \"#utility.yul\":11355:11362   */\n      0x00\n        /* \"#utility.yul\":11384:11389   */\n      dup2\n        /* \"#utility.yul\":11373:11389   */\n      swap1\n      pop\n        /* \"#utility.yul\":11318:11395   */\n      swap2\n      swap1\n      pop\n      jump\t// out\n        /* \"#utility.yul\":11401:11509   */\n    tag_231:\n        /* \"#utility.yul\":11478:11502   */\n      tag_421\n        /* \"#utility.yul\":11496:11501   */\n      dup2\n        /* \"#utility.yul\":11478:11502   */\n      tag_230\n      jump\t// in\n    tag_421:\n        /* \"#utility.yul\":11473:11476   */\n      dup3\n        /* \"#utility.yul\":11466:11503   */\n      mstore\n        /* \"#utility.yul\":11401:11509   */\n      pop\n      pop\n      jump\t// out\n        /* \"#utility.yul\":11583:12095   */\n    tag_232:\n        /* \"#utility.yul\":11732:11736   */\n      0x40\n        /* \"#utility.yul\":11727:11730   */\n      dup3\n        /* \"#utility.yul\":11723:11737   */\n      add\n        /* \"#utility.yul\":11820:11824   */\n      0x00\n        /* \"#utility.yul\":11813:11818   */\n      dup3\n        /* \"#utility.yul\":11809:11825   */\n      add\n        /* \"#utility.yul\":11803:11826   */\n      mload\n        /* \"#utility.yul\":11839:11902   */\n      tag_423\n        /* \"#utility.yul\":11896:11900   */\n      0x00\n        /* \"#utility.yul\":11891:11894   */\n      dup6\n        /* \"#utility.yul\":11887:11901   */\n      add\n        /* \"#utility.yul\":11873:11885   */\n      dup3\n        /* \"#utility.yul\":11839:11902   */\n      tag_229\n      jump\t// in\n    tag_423:\n        /* \"#utility.yul\":11747:11912   */\n      pop\n        /* \"#utility.yul\":11996:12000   */\n      0x20\n        /* \"#utility.yul\":11989:11994   */\n      dup3\n        /* \"#utility.yul\":11985:12001   */\n      add\n        /* \"#utility.yul\":11979:12002   */\n      mload\n        /* \"#utility.yul\":12015:12078   */\n      tag_424\n        /* \"#utility.yul\":12072:12076   */\n      0x20\n        /* \"#utility.yul\":12067:12070   */\n      dup6\n        /* \"#utility.yul\":12063:12077   */\n      add\n        /* \"#utility.yul\":12049:12061   */\n      dup3\n        /* \"#utility.yul\":12015:12078   */\n      tag_231\n      jump\t// in\n    tag_424:\n        /* \"#utility.yul\":11922:12088   */\n      pop\n        /* \"#utility.yul\":11701:12095   */\n      pop\n        /* \"#utility.yul\":11583:12095   */\n      pop\n      pop\n      jump\t// out\n        /* \"#utility.yul\":12101:12404   */\n    tag_233:\n        /* \"#utility.yul\":12232:12242   */\n      0x00\n        /* \"#utility.yul\":12253:12361   */\n      tag_426\n        /* \"#utility.yul\":12357:12360   */\n      dup4\n        /* \"#utility.yul\":12349:12355   */\n      dup4\n        /* \"#utility.yul\":12253:12361   */\n      tag_232\n      jump\t// in\n    tag_426:\n        /* \"#utility.yul\":12393:12397   */\n      0x40\n        /* \"#utility.yul\":12388:12391   */\n      dup4\n        /* \"#utility.yul\":12384:12398   */\n      add\n        /* \"#utility.yul\":12370:12398   */\n      swap1\n      pop\n        /* \"#utility.yul\":12101:12404   */\n      swap3\n      swap2\n      pop\n      pop\n      jump\t// out\n        /* \"#utility.yul\":12410:12554   */\n    tag_234:\n        /* \"#utility.yul\":12511:12515   */\n      0x00\n        /* \"#utility.yul\":12543:12547   */\n      0x20\n        /* \"#utility.yul\":12538:12541   */\n      dup3\n        /* \"#utility.yul\":12534:12548   */\n      add\n        /* \"#utility.yul\":12526:12548   */\n      swap1\n      pop\n        /* \"#utility.yul\":12410:12554   */\n      swap2\n      swap1\n      pop\n      jump\t// out\n        /* \"#utility.yul\":12632:13592   */\n    tag_235:\n        /* \"#utility.yul\":12803:12806   */\n      0x00\n        /* \"#utility.yul\":12832:12917   */\n      tag_429\n        /* \"#utility.yul\":12911:12916   */\n      dup3\n        /* \"#utility.yul\":12832:12917   */\n      tag_226\n      jump\t// in\n    tag_429:\n        /* \"#utility.yul\":12933:13040   */\n      tag_430\n        /* \"#utility.yul\":13033:13039   */\n      dup2\n        /* \"#utility.yul\":13028:13031   */\n      dup6\n        /* \"#utility.yul\":12933:13040   */\n      tag_227\n      jump\t// in\n    tag_430:\n        /* \"#utility.yul\":12926:13040   */\n      swap4\n      pop\n        /* \"#utility.yul\":13064:13151   */\n      tag_431\n        /* \"#utility.yul\":13145:13150   */\n      dup4\n        /* \"#utility.yul\":13064:13151   */\n      tag_228\n      jump\t// in\n    tag_431:\n        /* \"#utility.yul\":13174:13181   */\n      dup1\n        /* \"#utility.yul\":13205:13206   */\n      0x00\n        /* \"#utility.yul\":13190:13567   */\n    tag_432:\n        /* \"#utility.yul\":13215:13221   */\n      dup4\n        /* \"#utility.yul\":13212:13213   */\n      dup2\n        /* \"#utility.yul\":13209:13222   */\n      lt\n        /* \"#utility.yul\":13190:13567   */\n      iszero\n      tag_434\n      jumpi\n        /* \"#utility.yul\":13291:13297   */\n      dup2\n        /* \"#utility.yul\":13285:13298   */\n      mload\n        /* \"#utility.yul\":13318:13443   */\n      tag_435\n        /* \"#utility.yul\":13439:13442   */\n      dup9\n        /* \"#utility.yul\":13424:13437   */\n      dup3\n        /* \"#utility.yul\":13318:13443   */\n      tag_233\n      jump\t// in\n    tag_435:\n        /* \"#utility.yul\":13311:13443   */\n      swap8\n      pop\n        /* \"#utility.yul\":13466:13557   */\n      tag_436\n        /* \"#utility.yul\":13550:13556   */\n      dup4\n        /* \"#utility.yul\":13466:13557   */\n      tag_234\n      jump\t// in\n    tag_436:\n        /* \"#utility.yul\":13456:13557   */\n      swap3\n      pop\n        /* \"#utility.yul\":13250:13567   */\n      pop\n        /* \"#utility.yul\":13237:13238   */\n      0x01\n        /* \"#utility.yul\":13234:13235   */\n      dup2\n        /* \"#utility.yul\":13230:13239   */\n      add\n        /* \"#utility.yul\":13225:13239   */\n      swap1\n      pop\n        /* \"#utility.yul\":13190:13567   */\n      jump(tag_432)\n    tag_434:\n        /* \"#utility.yul\":13194:13208   */\n      pop\n        /* \"#utility.yul\":13583:13586   */\n      dup6\n        /* \"#utility.yul\":13576:13586   */\n      swap4\n      pop\n        /* \"#utility.yul\":12808:13592   */\n      pop\n      pop\n      pop\n        /* \"#utility.yul\":12632:13592   */\n      swap3\n      swap2\n      pop\n      pop\n      jump\t// out\n        /* \"#utility.yul\":13666:15126   */\n    tag_236:\n        /* \"#utility.yul\":13797:13800   */\n      0x00\n        /* \"#utility.yul\":13833:13837   */\n      0xa0\n        /* \"#utility.yul\":13828:13831   */\n      dup4\n        /* \"#utility.yul\":13824:13838   */\n      add\n        /* \"#utility.yul\":13924:13928   */\n      0x00\n        /* \"#utility.yul\":13917:13922   */\n      dup4\n        /* \"#utility.yul\":13913:13929   */\n      add\n        /* \"#utility.yul\":13907:13930   */\n      mload\n        /* \"#utility.yul\":13977:13980   */\n      dup5\n        /* \"#utility.yul\":13971:13975   */\n      dup3\n        /* \"#utility.yul\":13967:13981   */\n      sub\n        /* \"#utility.yul\":13960:13964   */\n      0x00\n        /* \"#utility.yul\":13955:13958   */\n      dup7\n        /* \"#utility.yul\":13951:13965   */\n      add\n        /* \"#utility.yul\":13944:13982   */\n      mstore\n        /* \"#utility.yul\":14003:14074   */\n      tag_438\n        /* \"#utility.yul\":14069:14073   */\n      dup3\n        /* \"#utility.yul\":14055:14067   */\n      dup3\n        /* \"#utility.yul\":14003:14074   */\n      tag_225\n      jump\t// in\n    tag_438:\n        /* \"#utility.yul\":13995:14074   */\n      swap2\n      pop\n        /* \"#utility.yul\":13848:14085   */\n      pop\n        /* \"#utility.yul\":14167:14171   */\n      0x20\n        /* \"#utility.yul\":14160:14165   */\n      dup4\n        /* \"#utility.yul\":14156:14172   */\n      add\n        /* \"#utility.yul\":14150:14173   */\n      mload\n        /* \"#utility.yul\":14220:14223   */\n      dup5\n        /* \"#utility.yul\":14214:14218   */\n      dup3\n        /* \"#utility.yul\":14210:14224   */\n      sub\n        /* \"#utility.yul\":14203:14207   */\n      0x20\n        /* \"#utility.yul\":14198:14201   */\n      dup7\n        /* \"#utility.yul\":14194:14208   */\n      add\n        /* \"#utility.yul\":14187:14225   */\n      mstore\n        /* \"#utility.yul\":14246:14317   */\n      tag_439\n        /* \"#utility.yul\":14312:14316   */\n      dup3\n        /* \"#utility.yul\":14298:14310   */\n      dup3\n        /* \"#utility.yul\":14246:14317   */\n      tag_225\n      jump\t// in\n    tag_439:\n        /* \"#utility.yul\":14238:14317   */\n      swap2\n      pop\n        /* \"#utility.yul\":14095:14328   */\n      pop\n        /* \"#utility.yul\":14418:14422   */\n      0x40\n        /* \"#utility.yul\":14411:14416   */\n      dup4\n        /* \"#utility.yul\":14407:14423   */\n      add\n        /* \"#utility.yul\":14401:14424   */\n      mload\n        /* \"#utility.yul\":14471:14474   */\n      dup5\n        /* \"#utility.yul\":14465:14469   */\n      dup3\n        /* \"#utility.yul\":14461:14475   */\n      sub\n        /* \"#utility.yul\":14454:14458   */\n      0x40\n        /* \"#utility.yul\":14449:14452   */\n      dup7\n        /* \"#utility.yul\":14445:14459   */\n      add\n        /* \"#utility.yul\":14438:14476   */\n      mstore\n        /* \"#utility.yul\":14497:14662   */\n      tag_440\n        /* \"#utility.yul\":14657:14661   */\n      dup3\n        /* \"#utility.yul\":14643:14655   */\n      dup3\n        /* \"#utility.yul\":14497:14662   */\n      tag_235\n      jump\t// in\n    tag_440:\n        /* \"#utility.yul\":14489:14662   */\n      swap2\n      pop\n        /* \"#utility.yul\":14338:14673   */\n      pop\n        /* \"#utility.yul\":14759:14763   */\n      0x60\n        /* \"#utility.yul\":14752:14757   */\n      dup4\n        /* \"#utility.yul\":14748:14764   */\n      add\n        /* \"#utility.yul\":14742:14765   */\n      mload\n        /* \"#utility.yul\":14778:14841   */\n      tag_441\n        /* \"#utility.yul\":14835:14839   */\n      0x60\n        /* \"#utility.yul\":14830:14833   */\n      dup7\n        /* \"#utility.yul\":14826:14840   */\n      add\n        /* \"#utility.yul\":14812:14824   */\n      dup3\n        /* \"#utility.yul\":14778:14841   */\n      tag_229\n      jump\t// in\n    tag_441:\n        /* \"#utility.yul\":14683:14851   */\n      pop\n        /* \"#utility.yul\":14938:14942   */\n      0x80\n        /* \"#utility.yul\":14931:14936   */\n      dup4\n        /* \"#utility.yul\":14927:14943   */\n      add\n        /* \"#utility.yul\":14921:14944   */\n      mload\n        /* \"#utility.yul\":14991:14994   */\n      dup5\n        /* \"#utility.yul\":14985:14989   */\n      dup3\n        /* \"#utility.yul\":14981:14995   */\n      sub\n        /* \"#utility.yul\":14974:14978   */\n      0x80\n        /* \"#utility.yul\":14969:14972   */\n      dup7\n        /* \"#utility.yul\":14965:14979   */\n      add\n        /* \"#utility.yul\":14958:14996   */\n      mstore\n        /* \"#utility.yul\":15017:15088   */\n      tag_442\n        /* \"#utility.yul\":15083:15087   */\n      dup3\n        /* \"#utility.yul\":15069:15081   */\n      dup3\n        /* \"#utility.yul\":15017:15088   */\n      tag_225\n      jump\t// in\n    tag_442:\n        /* \"#utility.yul\":15009:15088   */\n      swap2\n      pop\n        /* \"#utility.yul\":14861:15099   */\n      pop\n        /* \"#utility.yul\":15116:15120   */\n      dup1\n        /* \"#utility.yul\":15109:15120   */\n      swap2\n      pop\n        /* \"#utility.yul\":13802:15126   */\n      pop\n        /* \"#utility.yul\":13666:15126   */\n      swap3\n      swap2\n      pop\n      pop\n      jump\t// out\n        /* \"#utility.yul\":15132:15635   */\n    tag_94:\n        /* \"#utility.yul\":15313:15317   */\n      0x00\n        /* \"#utility.yul\":15351:15353   */\n      0x40\n        /* \"#utility.yul\":15340:15349   */\n      dup3\n        /* \"#utility.yul\":15336:15354   */\n      add\n        /* \"#utility.yul\":15328:15354   */\n      swap1\n      pop\n        /* \"#utility.yul\":15364:15433   */\n      tag_444\n        /* \"#utility.yul\":15430:15431   */\n      0x00\n        /* \"#utility.yul\":15419:15428   */\n      dup4\n        /* \"#utility.yul\":15415:15432   */\n      add\n        /* \"#utility.yul\":15406:15412   */\n      dup6\n        /* \"#utility.yul\":15364:15433   */\n      tag_219\n      jump\t// in\n    tag_444:\n        /* \"#utility.yul\":15480:15489   */\n      dup2\n        /* \"#utility.yul\":15474:15478   */\n      dup2\n        /* \"#utility.yul\":15470:15490   */\n      sub\n        /* \"#utility.yul\":15465:15467   */\n      0x20\n        /* \"#utility.yul\":15454:15463   */\n      dup4\n        /* \"#utility.yul\":15450:15468   */\n      add\n        /* \"#utility.yul\":15443:15491   */\n      mstore\n        /* \"#utility.yul\":15508:15628   */\n      tag_445\n        /* \"#utility.yul\":15623:15627   */\n      dup2\n        /* \"#utility.yul\":15614:15620   */\n      dup5\n        /* \"#utility.yul\":15508:15628   */\n      tag_236\n      jump\t// in\n    tag_445:\n        /* \"#utility.yul\":15500:15628   */\n      swap1\n      pop\n        /* \"#utility.yul\":15132:15635   */\n      swap4\n      swap3\n      pop\n      pop\n      pop\n      jump\t// out\n        /* \"#utility.yul\":15641:15763   */\n    tag_237:\n        /* \"#utility.yul\":15714:15738   */\n      tag_447\n        /* \"#utility.yul\":15732:15737   */\n      dup2\n        /* \"#utility.yul\":15714:15738   */\n      tag_230\n      jump\t// in\n    tag_447:\n        /* \"#utility.yul\":15707:15712   */\n      dup2\n        /* \"#utility.yul\":15704:15739   */\n      eq\n        /* \"#utility.yul\":15694:15757   */\n      tag_448\n      jumpi\n        /* \"#utility.yul\":15753:15754   */\n      0x00\n        /* \"#utility.yul\":15750:15751   */\n      dup1\n        /* \"#utility.yul\":15743:15755   */\n      revert\n        /* \"#utility.yul\":15694:15757   */\n    tag_448:\n        /* \"#utility.yul\":15641:15763   */\n      pop\n      jump\t// out\n        /* \"#utility.yul\":15769:15912   */\n    tag_238:\n        /* \"#utility.yul\":15826:15831   */\n      0x00\n        /* \"#utility.yul\":15857:15863   */\n      dup2\n        /* \"#utility.yul\":15851:15864   */\n      mload\n        /* \"#utility.yul\":15842:15864   */\n      swap1\n      pop\n        /* \"#utility.yul\":15873:15906   */\n      tag_450\n        /* \"#utility.yul\":15900:15905   */\n      dup2\n        /* \"#utility.yul\":15873:15906   */\n      tag_237\n      jump\t// in\n    tag_450:\n        /* \"#utility.yul\":15769:15912   */\n      swap3\n      swap2\n      pop\n      pop\n      jump\t// out\n        /* \"#utility.yul\":15918:16269   */\n    tag_98:\n        /* \"#utility.yul\":15988:15994   */\n      0x00\n        /* \"#utility.yul\":16037:16039   */\n      0x20\n        /* \"#utility.yul\":16025:16034   */\n      dup3\n        /* \"#utility.yul\":16016:16023   */\n      dup5\n        /* \"#utility.yul\":16012:16035   */\n      sub\n        /* \"#utility.yul\":16008:16040   */\n      slt\n        /* \"#utility.yul\":16005:16124   */\n      iszero\n      tag_452\n      jumpi\n        /* \"#utility.yul\":16043:16122   */\n      tag_453\n      tag_191\n      jump\t// in\n    tag_453:\n        /* \"#utility.yul\":16005:16124   */\n    tag_452:\n        /* \"#utility.yul\":16163:16164   */\n      0x00\n        /* \"#utility.yul\":16188:16252   */\n      tag_454\n        /* \"#utility.yul\":16244:16251   */\n      dup5\n        /* \"#utility.yul\":16235:16241   */\n      dup3\n        /* \"#utility.yul\":16224:16233   */\n      dup6\n        /* \"#utility.yul\":16220:16242   */\n      add\n        /* \"#utility.yul\":16188:16252   */\n      tag_238\n      jump\t// in\n    tag_454:\n        /* \"#utility.yul\":16178:16252   */\n      swap2\n      pop\n        /* \"#utility.yul\":16134:16262   */\n      pop\n        /* \"#utility.yul\":15918:16269   */\n      swap3\n      swap2\n      pop\n      pop\n      jump\t// out\n        /* \"#utility.yul\":16275:16393   */\n    tag_239:\n        /* \"#utility.yul\":16362:16386   */\n      tag_456\n        /* \"#utility.yul\":16380:16385   */\n      dup2\n        /* \"#utility.yul\":16362:16386   */\n      tag_230\n      jump\t// in\n    tag_456:\n        /* \"#utility.yul\":16357:16360   */\n      dup3\n        /* \"#utility.yul\":16350:16387   */\n      mstore\n        /* \"#utility.yul\":16275:16393   */\n      pop\n      pop\n      jump\t// out\n        /* \"#utility.yul\":16399:16731   */\n    tag_109:\n        /* \"#utility.yul\":16520:16524   */\n      0x00\n        /* \"#utility.yul\":16558:16560   */\n      0x40\n        /* \"#utility.yul\":16547:16556   */\n      dup3\n        /* \"#utility.yul\":16543:16561   */\n      add\n        /* \"#utility.yul\":16535:16561   */\n      swap1\n      pop\n        /* \"#utility.yul\":16571:16642   */\n      tag_458\n        /* \"#utility.yul\":16639:16640   */\n      0x00\n        /* \"#utility.yul\":16628:16637   */\n      dup4\n        /* \"#utility.yul\":16624:16641   */\n      add\n        /* \"#utility.yul\":16615:16621   */\n      dup6\n        /* \"#utility.yul\":16571:16642   */\n      tag_239\n      jump\t// in\n    tag_458:\n        /* \"#utility.yul\":16652:16724   */\n      tag_459\n        /* \"#utility.yul\":16720:16722   */\n      0x20\n        /* \"#utility.yul\":16709:16718   */\n      dup4\n        /* \"#utility.yul\":16705:16723   */\n      add\n        /* \"#utility.yul\":16696:16702   */\n      dup5\n        /* \"#utility.yul\":16652:16724   */\n      tag_239\n      jump\t// in\n    tag_459:\n        /* \"#utility.yul\":16399:16731   */\n      swap4\n      swap3\n      pop\n      pop\n      pop\n      jump\t// out\n        /* \"#utility.yul\":16737:17069   */\n    tag_111:\n        /* \"#utility.yul\":16858:16862   */\n      0x00\n        /* \"#utility.yul\":16896:16898   */\n      0x40\n        /* \"#utility.yul\":16885:16894   */\n      dup3\n        /* \"#utility.yul\":16881:16899   */\n      add\n        /* \"#utility.yul\":16873:16899   */\n      swap1\n      pop\n        /* \"#utility.yul\":16909:16980   */\n      tag_461\n        /* \"#utility.yul\":16977:16978   */\n      0x00\n        /* \"#utility.yul\":16966:16975   */\n      dup4\n        /* \"#utility.yul\":16962:16979   */\n      add\n        /* \"#utility.yul\":16953:16959   */\n      dup6\n        /* \"#utility.yul\":16909:16980   */\n      tag_213\n      jump\t// in\n    tag_461:\n        /* \"#utility.yul\":16990:17062   */\n      tag_462\n        /* \"#utility.yul\":17058:17060   */\n      0x20\n        /* \"#utility.yul\":17047:17056   */\n      dup4\n        /* \"#utility.yul\":17043:17061   */\n      add\n        /* \"#utility.yul\":17034:17040   */\n      dup5\n        /* \"#utility.yul\":16990:17062   */\n      tag_239\n      jump\t// in\n    tag_462:\n        /* \"#utility.yul\":16737:17069   */\n      swap4\n      swap3\n      pop\n      pop\n      pop\n      jump\t// out\n        /* \"#utility.yul\":17075:17212   */\n    tag_240:\n        /* \"#utility.yul\":17129:17134   */\n      0x00\n        /* \"#utility.yul\":17160:17166   */\n      dup2\n        /* \"#utility.yul\":17154:17167   */\n      mload\n        /* \"#utility.yul\":17145:17167   */\n      swap1\n      pop\n        /* \"#utility.yul\":17176:17206   */\n      tag_464\n        /* \"#utility.yul\":17200:17205   */\n      dup2\n        /* \"#utility.yul\":17176:17206   */\n      tag_214\n      jump\t// in\n    tag_464:\n        /* \"#utility.yul\":17075:17212   */\n      swap3\n      swap2\n      pop\n      pop\n      jump\t// out\n        /* \"#utility.yul\":17218:17563   */\n    tag_115:\n        /* \"#utility.yul\":17285:17291   */\n      0x00\n        /* \"#utility.yul\":17334:17336   */\n      0x20\n        /* \"#utility.yul\":17322:17331   */\n      dup3\n        /* \"#utility.yul\":17313:17320   */\n      dup5\n        /* \"#utility.yul\":17309:17332   */\n      sub\n        /* \"#utility.yul\":17305:17337   */\n      slt\n        /* \"#utility.yul\":17302:17421   */\n      iszero\n      tag_466\n      jumpi\n        /* \"#utility.yul\":17340:17419   */\n      tag_467\n      tag_191\n      jump\t// in\n    tag_467:\n        /* \"#utility.yul\":17302:17421   */\n    tag_466:\n        /* \"#utility.yul\":17460:17461   */\n      0x00\n        /* \"#utility.yul\":17485:17546   */\n      tag_468\n        /* \"#utility.yul\":17538:17545   */\n      dup5\n        /* \"#utility.yul\":17529:17535   */\n      dup3\n        /* \"#utility.yul\":17518:17527   */\n      dup6\n        /* \"#utility.yul\":17514:17536   */\n      add\n        /* \"#utility.yul\":17485:17546   */\n      tag_240\n      jump\t// in\n    tag_468:\n        /* \"#utility.yul\":17475:17546   */\n      swap2\n      pop\n        /* \"#utility.yul\":17431:17556   */\n      pop\n        /* \"#utility.yul\":17218:17563   */\n      swap3\n      swap2\n      pop\n      pop\n      jump\t// out\n        /* \"#utility.yul\":17569:17691   */\n    tag_241:\n        /* \"#utility.yul\":17642:17666   */\n      tag_470\n        /* \"#utility.yul\":17660:17665   */\n      dup2\n        /* \"#utility.yul\":17642:17666   */\n      tag_209\n      jump\t// in\n    tag_470:\n        /* \"#utility.yul\":17635:17640   */\n      dup2\n        /* \"#utility.yul\":17632:17667   */\n      eq\n        /* \"#utility.yul\":17622:17685   */\n      tag_471\n      jumpi\n        /* \"#utility.yul\":17681:17682   */\n      0x00\n        /* \"#utility.yul\":17678:17679   */\n      dup1\n        /* \"#utility.yul\":17671:17683   */\n      revert\n        /* \"#utility.yul\":17622:17685   */\n    tag_471:\n        /* \"#utility.yul\":17569:17691   */\n      pop\n      jump\t// out\n        /* \"#utility.yul\":17697:17840   */\n    tag_242:\n        /* \"#utility.yul\":17754:17759   */\n      0x00\n        /* \"#utility.yul\":17785:17791   */\n      dup2\n        /* \"#utility.yul\":17779:17792   */\n      mload\n        /* \"#utility.yul\":17770:17792   */\n      swap1\n      pop\n        /* \"#utility.yul\":17801:17834   */\n      tag_473\n        /* \"#utility.yul\":17828:17833   */\n      dup2\n        /* \"#utility.yul\":17801:17834   */\n      tag_241\n      jump\t// in\n    tag_473:\n        /* \"#utility.yul\":17697:17840   */\n      swap3\n      swap2\n      pop\n      pop\n      jump\t// out\n        /* \"#utility.yul\":17846:18197   */\n    tag_120:\n        /* \"#utility.yul\":17916:17922   */\n      0x00\n        /* \"#utility.yul\":17965:17967   */\n      0x20\n        /* \"#utility.yul\":17953:17962   */\n      dup3\n        /* \"#utility.yul\":17944:17951   */\n      dup5\n        /* \"#utility.yul\":17940:17963   */\n      sub\n        /* \"#utility.yul\":17936:17968   */\n      slt\n        /* \"#utility.yul\":17933:18052   */\n      iszero\n      tag_475\n      jumpi\n        /* \"#utility.yul\":17971:18050   */\n      tag_476\n      tag_191\n      jump\t// in\n    tag_476:\n        /* \"#utility.yul\":17933:18052   */\n    tag_475:\n        /* \"#utility.yul\":18091:18092   */\n      0x00\n        /* \"#utility.yul\":18116:18180   */\n      tag_477\n        /* \"#utility.yul\":18172:18179   */\n      dup5\n        /* \"#utility.yul\":18163:18169   */\n      dup3\n        /* \"#utility.yul\":18152:18161   */\n      dup6\n        /* \"#utility.yul\":18148:18170   */\n      add\n        /* \"#utility.yul\":18116:18180   */\n      tag_242\n      jump\t// in\n    tag_477:\n        /* \"#utility.yul\":18106:18180   */\n      swap2\n      pop\n        /* \"#utility.yul\":18062:18190   */\n      pop\n        /* \"#utility.yul\":17846:18197   */\n      swap3\n      swap2\n      pop\n      pop\n      jump\t// out\n        /* \"#utility.yul\":18203:18351   */\n    tag_243:\n        /* \"#utility.yul\":18301:18307   */\n      dup3\n        /* \"#utility.yul\":18296:18299   */\n      dup2\n        /* \"#utility.yul\":18291:18294   */\n      dup4\n        /* \"#utility.yul\":18278:18308   */\n      calldatacopy\n        /* \"#utility.yul\":18342:18343   */\n      0x00\n        /* \"#utility.yul\":18333:18339   */\n      dup4\n        /* \"#utility.yul\":18328:18331   */\n      dup4\n        /* \"#utility.yul\":18324:18340   */\n      add\n        /* \"#utility.yul\":18317:18344   */\n      mstore\n        /* \"#utility.yul\":18203:18351   */\n      pop\n      pop\n      pop\n      jump\t// out\n        /* \"#utility.yul\":18381:18698   */\n    tag_244:\n        /* \"#utility.yul\":18479:18482   */\n      0x00\n        /* \"#utility.yul\":18500:18571   */\n      tag_480\n        /* \"#utility.yul\":18564:18570   */\n      dup4\n        /* \"#utility.yul\":18559:18562   */\n      dup6\n        /* \"#utility.yul\":18500:18571   */\n      tag_216\n      jump\t// in\n    tag_480:\n        /* \"#utility.yul\":18493:18571   */\n      swap4\n      pop\n        /* \"#utility.yul\":18581:18637   */\n      tag_481\n        /* \"#utility.yul\":18630:18636   */\n      dup4\n        /* \"#utility.yul\":18625:18628   */\n      dup6\n        /* \"#utility.yul\":18618:18623   */\n      dup5\n        /* \"#utility.yul\":18581:18637   */\n      tag_243\n      jump\t// in\n    tag_481:\n        /* \"#utility.yul\":18662:18691   */\n      tag_482\n        /* \"#utility.yul\":18684:18690   */\n      dup4\n        /* \"#utility.yul\":18662:18691   */\n      tag_224\n      jump\t// in\n    tag_482:\n        /* \"#utility.yul\":18657:18660   */\n      dup5\n        /* \"#utility.yul\":18653:18692   */\n      add\n        /* \"#utility.yul\":18646:18692   */\n      swap1\n      pop\n        /* \"#utility.yul\":18381:18698   */\n      swap4\n      swap3\n      pop\n      pop\n      pop\n      jump\t// out\n        /* \"#utility.yul\":18704:19368   */\n    tag_122:\n        /* \"#utility.yul\":18911:18915   */\n      0x00\n        /* \"#utility.yul\":18949:18952   */\n      0x80\n        /* \"#utility.yul\":18938:18947   */\n      dup3\n        /* \"#utility.yul\":18934:18953   */\n      add\n        /* \"#utility.yul\":18926:18953   */\n      swap1\n      pop\n        /* \"#utility.yul\":18963:19034   */\n      tag_484\n        /* \"#utility.yul\":19031:19032   */\n      0x00\n        /* \"#utility.yul\":19020:19029   */\n      dup4\n        /* \"#utility.yul\":19016:19033   */\n      add\n        /* \"#utility.yul\":19007:19013   */\n      dup9\n        /* \"#utility.yul\":18963:19034   */\n      tag_213\n      jump\t// in\n    tag_484:\n        /* \"#utility.yul\":19081:19090   */\n      dup2\n        /* \"#utility.yul\":19075:19079   */\n      dup2\n        /* \"#utility.yul\":19071:19091   */\n      sub\n        /* \"#utility.yul\":19066:19068   */\n      0x20\n        /* \"#utility.yul\":19055:19064   */\n      dup4\n        /* \"#utility.yul\":19051:19069   */\n      add\n        /* \"#utility.yul\":19044:19092   */\n      mstore\n        /* \"#utility.yul\":19109:19197   */\n      tag_485\n        /* \"#utility.yul\":19192:19196   */\n      dup2\n        /* \"#utility.yul\":19183:19189   */\n      dup7\n        /* \"#utility.yul\":19175:19181   */\n      dup9\n        /* \"#utility.yul\":19109:19197   */\n      tag_244\n      jump\t// in\n    tag_485:\n        /* \"#utility.yul\":19101:19197   */\n      swap1\n      pop\n        /* \"#utility.yul\":19207:19279   */\n      tag_486\n        /* \"#utility.yul\":19275:19277   */\n      0x40\n        /* \"#utility.yul\":19264:19273   */\n      dup4\n        /* \"#utility.yul\":19260:19278   */\n      add\n        /* \"#utility.yul\":19251:19257   */\n      dup6\n        /* \"#utility.yul\":19207:19279   */\n      tag_213\n      jump\t// in\n    tag_486:\n        /* \"#utility.yul\":19289:19361   */\n      tag_487\n        /* \"#utility.yul\":19357:19359   */\n      0x60\n        /* \"#utility.yul\":19346:19355   */\n      dup4\n        /* \"#utility.yul\":19342:19360   */\n      add\n        /* \"#utility.yul\":19333:19339   */\n      dup5\n        /* \"#utility.yul\":19289:19361   */\n      tag_239\n      jump\t// in\n    tag_487:\n        /* \"#utility.yul\":18704:19368   */\n      swap7\n      swap6\n      pop\n      pop\n      pop\n      pop\n      pop\n      pop\n      jump\t// out\n        /* \"#utility.yul\":19374:19491   */\n    tag_245:\n        /* \"#utility.yul\":19483:19484   */\n      0x00\n        /* \"#utility.yul\":19480:19481   */\n      dup1\n        /* \"#utility.yul\":19473:19485   */\n      revert\n        /* \"#utility.yul\":19497:19677   */\n    tag_160:\n        /* \"#utility.yul\":19545:19622   */\n      0x4e487b7100000000000000000000000000000000000000000000000000000000\n        /* \"#utility.yul\":19542:19543   */\n      0x00\n        /* \"#utility.yul\":19535:19623   */\n      mstore\n        /* \"#utility.yul\":19642:19646   */\n      0x41\n        /* \"#utility.yul\":19639:19640   */\n      0x04\n        /* \"#utility.yul\":19632:19647   */\n      mstore\n        /* \"#utility.yul\":19666:19670   */\n      0x24\n        /* \"#utility.yul\":19663:19664   */\n      0x00\n        /* \"#utility.yul\":19656:19671   */\n      revert\n        /* \"#utility.yul\":19683:19964   */\n    tag_246:\n        /* \"#utility.yul\":19766:19793   */\n      tag_491\n        /* \"#utility.yul\":19788:19792   */\n      dup3\n        /* \"#utility.yul\":19766:19793   */\n      tag_224\n      jump\t// in\n    tag_491:\n        /* \"#utility.yul\":19758:19764   */\n      dup2\n        /* \"#utility.yul\":19754:19794   */\n      add\n        /* \"#utility.yul\":19896:19902   */\n      dup2\n        /* \"#utility.yul\":19884:19894   */\n      dup2\n        /* \"#utility.yul\":19881:19903   */\n      lt\n        /* \"#utility.yul\":19860:19878   */\n      0xffffffffffffffff\n        /* \"#utility.yul\":19848:19858   */\n      dup3\n        /* \"#utility.yul\":19845:19879   */\n      gt\n        /* \"#utility.yul\":19842:19904   */\n      or\n        /* \"#utility.yul\":19839:19927   */\n      iszero\n      tag_492\n      jumpi\n        /* \"#utility.yul\":19907:19925   */\n      tag_493\n      tag_160\n      jump\t// in\n    tag_493:\n        /* \"#utility.yul\":19839:19927   */\n    tag_492:\n        /* \"#utility.yul\":19947:19957   */\n      dup1\n        /* \"#utility.yul\":19943:19945   */\n      0x40\n        /* \"#utility.yul\":19936:19958   */\n      mstore\n        /* \"#utility.yul\":19726:19964   */\n      pop\n        /* \"#utility.yul\":19683:19964   */\n      pop\n      pop\n      jump\t// out\n        /* \"#utility.yul\":19970:20099   */\n    tag_247:\n        /* \"#utility.yul\":20004:20010   */\n      0x00\n        /* \"#utility.yul\":20031:20051   */\n      tag_495\n      tag_190\n      jump\t// in\n    tag_495:\n        /* \"#utility.yul\":20021:20051   */\n      swap1\n      pop\n        /* \"#utility.yul\":20060:20093   */\n      tag_496\n        /* \"#utility.yul\":20088:20092   */\n      dup3\n        /* \"#utility.yul\":20080:20086   */\n      dup3\n        /* \"#utility.yul\":20060:20093   */\n      tag_246\n      jump\t// in\n    tag_496:\n        /* \"#utility.yul\":19970:20099   */\n      swap2\n      swap1\n      pop\n      jump\t// out\n        /* \"#utility.yul\":20105:20222   */\n    tag_248:\n        /* \"#utility.yul\":20214:20215   */\n      0x00\n        /* \"#utility.yul\":20211:20212   */\n      dup1\n        /* \"#utility.yul\":20204:20216   */\n      revert\n        /* \"#utility.yul\":20228:20367   */\n    tag_249:\n        /* \"#utility.yul\":20274:20279   */\n      0x00\n        /* \"#utility.yul\":20312:20318   */\n      dup2\n        /* \"#utility.yul\":20299:20319   */\n      calldataload\n        /* \"#utility.yul\":20290:20319   */\n      swap1\n      pop\n        /* \"#utility.yul\":20328:20361   */\n      tag_499\n        /* \"#utility.yul\":20355:20360   */\n      dup2\n        /* \"#utility.yul\":20328:20361   */\n      tag_241\n      jump\t// in\n    tag_499:\n        /* \"#utility.yul\":20228:20367   */\n      swap3\n      swap2\n      pop\n      pop\n      jump\t// out\n        /* \"#utility.yul\":20373:20490   */\n    tag_250:\n        /* \"#utility.yul\":20482:20483   */\n      0x00\n        /* \"#utility.yul\":20479:20480   */\n      dup1\n        /* \"#utility.yul\":20472:20484   */\n      revert\n        /* \"#utility.yul\":20496:20803   */\n    tag_251:\n        /* \"#utility.yul\":20557:20561   */\n      0x00\n        /* \"#utility.yul\":20647:20665   */\n      0xffffffffffffffff\n        /* \"#utility.yul\":20639:20645   */\n      dup3\n        /* \"#utility.yul\":20636:20666   */\n      gt\n        /* \"#utility.yul\":20633:20689   */\n      iszero\n      tag_502\n      jumpi\n        /* \"#utility.yul\":20669:20687   */\n      tag_503\n      tag_160\n      jump\t// in\n    tag_503:\n        /* \"#utility.yul\":20633:20689   */\n    tag_502:\n        /* \"#utility.yul\":20707:20736   */\n      tag_504\n        /* \"#utility.yul\":20729:20735   */\n      dup3\n        /* \"#utility.yul\":20707:20736   */\n      tag_224\n      jump\t// in\n    tag_504:\n        /* \"#utility.yul\":20699:20736   */\n      swap1\n      pop\n        /* \"#utility.yul\":20791:20795   */\n      0x20\n        /* \"#utility.yul\":20785:20789   */\n      dup2\n        /* \"#utility.yul\":20781:20796   */\n      add\n        /* \"#utility.yul\":20773:20796   */\n      swap1\n      pop\n        /* \"#utility.yul\":20496:20803   */\n      swap2\n      swap1\n      pop\n      jump\t// out\n        /* \"#utility.yul\":20809:21232   */\n    tag_252:\n        /* \"#utility.yul\":20886:20891   */\n      0x00\n        /* \"#utility.yul\":20911:20976   */\n      tag_506\n        /* \"#utility.yul\":20927:20975   */\n      tag_507\n        /* \"#utility.yul\":20968:20974   */\n      dup5\n        /* \"#utility.yul\":20927:20975   */\n      tag_251\n      jump\t// in\n    tag_507:\n        /* \"#utility.yul\":20911:20976   */\n      tag_247\n      jump\t// in\n    tag_506:\n        /* \"#utility.yul\":20902:20976   */\n      swap1\n      pop\n        /* \"#utility.yul\":20999:21005   */\n      dup3\n        /* \"#utility.yul\":20992:20997   */\n      dup2\n        /* \"#utility.yul\":20985:21006   */\n      mstore\n        /* \"#utility.yul\":21037:21041   */\n      0x20\n        /* \"#utility.yul\":21030:21035   */\n      dup2\n        /* \"#utility.yul\":21026:21042   */\n      add\n        /* \"#utility.yul\":21075:21078   */\n      dup5\n        /* \"#utility.yul\":21066:21072   */\n      dup5\n        /* \"#utility.yul\":21061:21064   */\n      dup5\n        /* \"#utility.yul\":21057:21073   */\n      add\n        /* \"#utility.yul\":21054:21079   */\n      gt\n        /* \"#utility.yul\":21051:21163   */\n      iszero\n      tag_508\n      jumpi\n        /* \"#utility.yul\":21082:21161   */\n      tag_509\n      tag_250\n      jump\t// in\n    tag_509:\n        /* \"#utility.yul\":21051:21163   */\n    tag_508:\n        /* \"#utility.yul\":21172:21226   */\n      tag_510\n        /* \"#utility.yul\":21219:21225   */\n      dup5\n        /* \"#utility.yul\":21214:21217   */\n      dup3\n        /* \"#utility.yul\":21209:21212   */\n      dup6\n        /* \"#utility.yul\":21172:21226   */\n      tag_243\n      jump\t// in\n    tag_510:\n        /* \"#utility.yul\":20892:21232   */\n      pop\n        /* \"#utility.yul\":20809:21232   */\n      swap4\n      swap3\n      pop\n      pop\n      pop\n      jump\t// out\n        /* \"#utility.yul\":21251:21589   */\n    tag_253:\n        /* \"#utility.yul\":21306:21311   */\n      0x00\n        /* \"#utility.yul\":21355:21358   */\n      dup3\n        /* \"#utility.yul\":21348:21352   */\n      0x1f\n        /* \"#utility.yul\":21340:21346   */\n      dup4\n        /* \"#utility.yul\":21336:21353   */\n      add\n        /* \"#utility.yul\":21332:21359   */\n      slt\n        /* \"#utility.yul\":21322:21444   */\n      tag_512\n      jumpi\n        /* \"#utility.yul\":21363:21442   */\n      tag_513\n      tag_205\n      jump\t// in\n    tag_513:\n        /* \"#utility.yul\":21322:21444   */\n    tag_512:\n        /* \"#utility.yul\":21480:21486   */\n      dup2\n        /* \"#utility.yul\":21467:21487   */\n      calldataload\n        /* \"#utility.yul\":21505:21583   */\n      tag_514\n        /* \"#utility.yul\":21579:21582   */\n      dup5\n        /* \"#utility.yul\":21571:21577   */\n      dup3\n        /* \"#utility.yul\":21564:21568   */\n      0x20\n        /* \"#utility.yul\":21556:21562   */\n      dup7\n        /* \"#utility.yul\":21552:21569   */\n      add\n        /* \"#utility.yul\":21505:21583   */\n      tag_252\n      jump\t// in\n    tag_514:\n        /* \"#utility.yul\":21496:21583   */\n      swap2\n      pop\n        /* \"#utility.yul\":21312:21589   */\n      pop\n        /* \"#utility.yul\":21251:21589   */\n      swap3\n      swap2\n      pop\n      pop\n      jump\t// out\n        /* \"#utility.yul\":21595:21937   */\n    tag_254:\n        /* \"#utility.yul\":21703:21707   */\n      0x00\n        /* \"#utility.yul\":21793:21811   */\n      0xffffffffffffffff\n        /* \"#utility.yul\":21785:21791   */\n      dup3\n        /* \"#utility.yul\":21782:21812   */\n      gt\n        /* \"#utility.yul\":21779:21835   */\n      iszero\n      tag_516\n      jumpi\n        /* \"#utility.yul\":21815:21833   */\n      tag_517\n      tag_160\n      jump\t// in\n    tag_517:\n        /* \"#utility.yul\":21779:21835   */\n    tag_516:\n        /* \"#utility.yul\":21865:21869   */\n      0x20\n        /* \"#utility.yul\":21857:21863   */\n      dup3\n        /* \"#utility.yul\":21853:21870   */\n      mul\n        /* \"#utility.yul\":21845:21870   */\n      swap1\n      pop\n        /* \"#utility.yul\":21925:21929   */\n      0x20\n        /* \"#utility.yul\":21919:21923   */\n      dup2\n        /* \"#utility.yul\":21915:21930   */\n      add\n        /* \"#utility.yul\":21907:21930   */\n      swap1\n      pop\n        /* \"#utility.yul\":21595:21937   */\n      swap2\n      swap1\n      pop\n      jump\t// out\n        /* \"#utility.yul\":21943:22082   */\n    tag_255:\n        /* \"#utility.yul\":21989:21994   */\n      0x00\n        /* \"#utility.yul\":22027:22033   */\n      dup2\n        /* \"#utility.yul\":22014:22034   */\n      calldataload\n        /* \"#utility.yul\":22005:22034   */\n      swap1\n      pop\n        /* \"#utility.yul\":22043:22076   */\n      tag_519\n        /* \"#utility.yul\":22070:22075   */\n      dup2\n        /* \"#utility.yul\":22043:22076   */\n      tag_237\n      jump\t// in\n    tag_519:\n        /* \"#utility.yul\":21943:22082   */\n      swap3\n      swap2\n      pop\n      pop\n      jump\t// out\n        /* \"#utility.yul\":22124:22707   */\n    tag_256:\n        /* \"#utility.yul\":22204:22209   */\n      0x00\n        /* \"#utility.yul\":22248:22252   */\n      0x40\n        /* \"#utility.yul\":22236:22245   */\n      dup3\n        /* \"#utility.yul\":22231:22234   */\n      dup5\n        /* \"#utility.yul\":22227:22246   */\n      sub\n        /* \"#utility.yul\":22223:22253   */\n      slt\n        /* \"#utility.yul\":22220:22337   */\n      iszero\n      tag_521\n      jumpi\n        /* \"#utility.yul\":22256:22335   */\n      tag_522\n      tag_245\n      jump\t// in\n    tag_522:\n        /* \"#utility.yul\":22220:22337   */\n    tag_521:\n        /* \"#utility.yul\":22355:22376   */\n      tag_523\n        /* \"#utility.yul\":22371:22375   */\n      0x40\n        /* \"#utility.yul\":22355:22376   */\n      tag_247\n      jump\t// in\n    tag_523:\n        /* \"#utility.yul\":22346:22376   */\n      swap1\n      pop\n        /* \"#utility.yul\":22436:22437   */\n      0x00\n        /* \"#utility.yul\":22476:22525   */\n      tag_524\n        /* \"#utility.yul\":22521:22524   */\n      dup5\n        /* \"#utility.yul\":22512:22518   */\n      dup3\n        /* \"#utility.yul\":22501:22510   */\n      dup6\n        /* \"#utility.yul\":22497:22519   */\n      add\n        /* \"#utility.yul\":22476:22525   */\n      tag_204\n      jump\t// in\n    tag_524:\n        /* \"#utility.yul\":22469:22473   */\n      0x00\n        /* \"#utility.yul\":22462:22467   */\n      dup4\n        /* \"#utility.yul\":22458:22474   */\n      add\n        /* \"#utility.yul\":22451:22526   */\n      mstore\n        /* \"#utility.yul\":22386:22537   */\n      pop\n        /* \"#utility.yul\":22598:22600   */\n      0x20\n        /* \"#utility.yul\":22639:22688   */\n      tag_525\n        /* \"#utility.yul\":22684:22687   */\n      dup5\n        /* \"#utility.yul\":22675:22681   */\n      dup3\n        /* \"#utility.yul\":22664:22673   */\n      dup6\n        /* \"#utility.yul\":22660:22682   */\n      add\n        /* \"#utility.yul\":22639:22688   */\n      tag_255\n      jump\t// in\n    tag_525:\n        /* \"#utility.yul\":22632:22636   */\n      0x20\n        /* \"#utility.yul\":22625:22630   */\n      dup4\n        /* \"#utility.yul\":22621:22637   */\n      add\n        /* \"#utility.yul\":22614:22689   */\n      mstore\n        /* \"#utility.yul\":22547:22700   */\n      pop\n        /* \"#utility.yul\":22124:22707   */\n      swap3\n      swap2\n      pop\n      pop\n      jump\t// out\n        /* \"#utility.yul\":22751:23554   */\n    tag_257:\n        /* \"#utility.yul\":22878:22883   */\n      0x00\n        /* \"#utility.yul\":22903:23015   */\n      tag_527\n        /* \"#utility.yul\":22919:23014   */\n      tag_528\n        /* \"#utility.yul\":23007:23013   */\n      dup5\n        /* \"#utility.yul\":22919:23014   */\n      tag_254\n      jump\t// in\n    tag_528:\n        /* \"#utility.yul\":22903:23015   */\n      tag_247\n      jump\t// in\n    tag_527:\n        /* \"#utility.yul\":22894:23015   */\n      swap1\n      pop\n        /* \"#utility.yul\":23035:23040   */\n      dup1\n        /* \"#utility.yul\":23064:23070   */\n      dup4\n        /* \"#utility.yul\":23057:23062   */\n      dup3\n        /* \"#utility.yul\":23050:23071   */\n      mstore\n        /* \"#utility.yul\":23098:23102   */\n      0x20\n        /* \"#utility.yul\":23091:23096   */\n      dup3\n        /* \"#utility.yul\":23087:23103   */\n      add\n        /* \"#utility.yul\":23080:23103   */\n      swap1\n      pop\n        /* \"#utility.yul\":23151:23155   */\n      0x40\n        /* \"#utility.yul\":23143:23149   */\n      dup5\n        /* \"#utility.yul\":23139:23156   */\n      mul\n        /* \"#utility.yul\":23131:23137   */\n      dup4\n        /* \"#utility.yul\":23127:23157   */\n      add\n        /* \"#utility.yul\":23180:23183   */\n      dup6\n        /* \"#utility.yul\":23172:23178   */\n      dup2\n        /* \"#utility.yul\":23169:23184   */\n      gt\n        /* \"#utility.yul\":23166:23288   */\n      iszero\n      tag_529\n      jumpi\n        /* \"#utility.yul\":23199:23278   */\n      tag_530\n      tag_207\n      jump\t// in\n    tag_530:\n        /* \"#utility.yul\":23166:23288   */\n    tag_529:\n        /* \"#utility.yul\":23314:23320   */\n      dup4\n        /* \"#utility.yul\":23297:23548   */\n    tag_531:\n        /* \"#utility.yul\":23331:23337   */\n      dup2\n        /* \"#utility.yul\":23326:23329   */\n      dup2\n        /* \"#utility.yul\":23323:23338   */\n      lt\n        /* \"#utility.yul\":23297:23548   */\n      iszero\n      tag_533\n      jumpi\n        /* \"#utility.yul\":23406:23409   */\n      dup1\n        /* \"#utility.yul\":23435:23503   */\n      tag_534\n        /* \"#utility.yul\":23499:23502   */\n      dup9\n        /* \"#utility.yul\":23487:23497   */\n      dup3\n        /* \"#utility.yul\":23435:23503   */\n      tag_256\n      jump\t// in\n    tag_534:\n        /* \"#utility.yul\":23430:23433   */\n      dup5\n        /* \"#utility.yul\":23423:23504   */\n      mstore\n        /* \"#utility.yul\":23533:23537   */\n      0x20\n        /* \"#utility.yul\":23528:23531   */\n      dup5\n        /* \"#utility.yul\":23524:23538   */\n      add\n        /* \"#utility.yul\":23517:23538   */\n      swap4\n      pop\n        /* \"#utility.yul\":23373:23548   */\n      pop\n        /* \"#utility.yul\":23357:23361   */\n      0x40\n        /* \"#utility.yul\":23352:23355   */\n      dup2\n        /* \"#utility.yul\":23348:23362   */\n      add\n        /* \"#utility.yul\":23341:23362   */\n      swap1\n      pop\n        /* \"#utility.yul\":23297:23548   */\n      jump(tag_531)\n    tag_533:\n        /* \"#utility.yul\":23301:23322   */\n      pop\n        /* \"#utility.yul\":22884:23554   */\n      pop\n      pop\n        /* \"#utility.yul\":22751:23554   */\n      swap4\n      swap3\n      pop\n      pop\n      pop\n      jump\t// out\n        /* \"#utility.yul\":23598:24030   */\n    tag_258:\n        /* \"#utility.yul\":23700:23705   */\n      0x00\n        /* \"#utility.yul\":23749:23752   */\n      dup3\n        /* \"#utility.yul\":23742:23746   */\n      0x1f\n        /* \"#utility.yul\":23734:23740   */\n      dup4\n        /* \"#utility.yul\":23730:23747   */\n      add\n        /* \"#utility.yul\":23726:23753   */\n      slt\n        /* \"#utility.yul\":23716:23838   */\n      tag_536\n      jumpi\n        /* \"#utility.yul\":23757:23836   */\n      tag_537\n      tag_205\n      jump\t// in\n    tag_537:\n        /* \"#utility.yul\":23716:23838   */\n    tag_536:\n        /* \"#utility.yul\":23874:23880   */\n      dup2\n        /* \"#utility.yul\":23861:23881   */\n      calldataload\n        /* \"#utility.yul\":23899:24024   */\n      tag_538\n        /* \"#utility.yul\":24020:24023   */\n      dup5\n        /* \"#utility.yul\":24012:24018   */\n      dup3\n        /* \"#utility.yul\":24005:24009   */\n      0x20\n        /* \"#utility.yul\":23997:24003   */\n      dup7\n        /* \"#utility.yul\":23993:24010   */\n      add\n        /* \"#utility.yul\":23899:24024   */\n      tag_257\n      jump\t// in\n    tag_538:\n        /* \"#utility.yul\":23890:24024   */\n      swap2\n      pop\n        /* \"#utility.yul\":23706:24030   */\n      pop\n        /* \"#utility.yul\":23598:24030   */\n      swap3\n      swap2\n      pop\n      pop\n      jump\t// out\n        /* \"#utility.yul\":24072:25723   */\n    tag_259:\n        /* \"#utility.yul\":24152:24157   */\n      0x00\n        /* \"#utility.yul\":24196:24200   */\n      0xa0\n        /* \"#utility.yul\":24184:24193   */\n      dup3\n        /* \"#utility.yul\":24179:24182   */\n      dup5\n        /* \"#utility.yul\":24175:24194   */\n      sub\n        /* \"#utility.yul\":24171:24201   */\n      slt\n        /* \"#utility.yul\":24168:24285   */\n      iszero\n      tag_540\n      jumpi\n        /* \"#utility.yul\":24204:24283   */\n      tag_541\n      tag_245\n      jump\t// in\n    tag_541:\n        /* \"#utility.yul\":24168:24285   */\n    tag_540:\n        /* \"#utility.yul\":24303:24324   */\n      tag_542\n        /* \"#utility.yul\":24319:24323   */\n      0xa0\n        /* \"#utility.yul\":24303:24324   */\n      tag_247\n      jump\t// in\n    tag_542:\n        /* \"#utility.yul\":24294:24324   */\n      swap1\n      pop\n        /* \"#utility.yul\":24388:24389   */\n      0x00\n        /* \"#utility.yul\":24428:24477   */\n      tag_543\n        /* \"#utility.yul\":24473:24476   */\n      dup5\n        /* \"#utility.yul\":24464:24470   */\n      dup3\n        /* \"#utility.yul\":24453:24462   */\n      dup6\n        /* \"#utility.yul\":24449:24471   */\n      add\n        /* \"#utility.yul\":24428:24477   */\n      tag_249\n      jump\t// in\n    tag_543:\n        /* \"#utility.yul\":24421:24425   */\n      0x00\n        /* \"#utility.yul\":24414:24419   */\n      dup4\n        /* \"#utility.yul\":24410:24426   */\n      add\n        /* \"#utility.yul\":24403:24478   */\n      mstore\n        /* \"#utility.yul\":24334:24489   */\n      pop\n        /* \"#utility.yul\":24563:24565   */\n      0x20\n        /* \"#utility.yul\":24604:24652   */\n      tag_544\n        /* \"#utility.yul\":24648:24651   */\n      dup5\n        /* \"#utility.yul\":24639:24645   */\n      dup3\n        /* \"#utility.yul\":24628:24637   */\n      dup6\n        /* \"#utility.yul\":24624:24646   */\n      add\n        /* \"#utility.yul\":24604:24652   */\n      tag_200\n      jump\t// in\n    tag_544:\n        /* \"#utility.yul\":24597:24601   */\n      0x20\n        /* \"#utility.yul\":24590:24595   */\n      dup4\n        /* \"#utility.yul\":24586:24602   */\n      add\n        /* \"#utility.yul\":24579:24653   */\n      mstore\n        /* \"#utility.yul\":24499:24664   */\n      pop\n        /* \"#utility.yul\":24753:24755   */\n      0x40\n        /* \"#utility.yul\":24742:24751   */\n      dup3\n        /* \"#utility.yul\":24738:24756   */\n      add\n        /* \"#utility.yul\":24725:24757   */\n      calldataload\n        /* \"#utility.yul\":24784:24802   */\n      0xffffffffffffffff\n        /* \"#utility.yul\":24776:24782   */\n      dup2\n        /* \"#utility.yul\":24773:24803   */\n      gt\n        /* \"#utility.yul\":24770:24887   */\n      iszero\n      tag_545\n      jumpi\n        /* \"#utility.yul\":24806:24885   */\n      tag_546\n      tag_248\n      jump\t// in\n    tag_546:\n        /* \"#utility.yul\":24770:24887   */\n    tag_545:\n        /* \"#utility.yul\":24926:24984   */\n      tag_547\n        /* \"#utility.yul\":24980:24983   */\n      dup5\n        /* \"#utility.yul\":24971:24977   */\n      dup3\n        /* \"#utility.yul\":24960:24969   */\n      dup6\n        /* \"#utility.yul\":24956:24978   */\n      add\n        /* \"#utility.yul\":24926:24984   */\n      tag_253\n      jump\t// in\n    tag_547:\n        /* \"#utility.yul\":24919:24923   */\n      0x40\n        /* \"#utility.yul\":24912:24917   */\n      dup4\n        /* \"#utility.yul\":24908:24924   */\n      add\n        /* \"#utility.yul\":24901:24985   */\n      mstore\n        /* \"#utility.yul\":24674:24996   */\n      pop\n        /* \"#utility.yul\":25083:25085   */\n      0x60\n        /* \"#utility.yul\":25072:25081   */\n      dup3\n        /* \"#utility.yul\":25068:25086   */\n      add\n        /* \"#utility.yul\":25055:25087   */\n      calldataload\n        /* \"#utility.yul\":25114:25132   */\n      0xffffffffffffffff\n        /* \"#utility.yul\":25106:25112   */\n      dup2\n        /* \"#utility.yul\":25103:25133   */\n      gt\n        /* \"#utility.yul\":25100:25217   */\n      iszero\n      tag_548\n      jumpi\n        /* \"#utility.yul\":25136:25215   */\n      tag_549\n      tag_248\n      jump\t// in\n    tag_549:\n        /* \"#utility.yul\":25100:25217   */\n    tag_548:\n        /* \"#utility.yul\":25256:25314   */\n      tag_550\n        /* \"#utility.yul\":25310:25313   */\n      dup5\n        /* \"#utility.yul\":25301:25307   */\n      dup3\n        /* \"#utility.yul\":25290:25299   */\n      dup6\n        /* \"#utility.yul\":25286:25308   */\n      add\n        /* \"#utility.yul\":25256:25314   */\n      tag_253\n      jump\t// in\n    tag_550:\n        /* \"#utility.yul\":25249:25253   */\n      0x60\n        /* \"#utility.yul\":25242:25247   */\n      dup4\n        /* \"#utility.yul\":25238:25254   */\n      add\n        /* \"#utility.yul\":25231:25315   */\n      mstore\n        /* \"#utility.yul\":25006:25326   */\n      pop\n        /* \"#utility.yul\":25425:25428   */\n      0x80\n        /* \"#utility.yul\":25414:25423   */\n      dup3\n        /* \"#utility.yul\":25410:25429   */\n      add\n        /* \"#utility.yul\":25397:25430   */\n      calldataload\n        /* \"#utility.yul\":25457:25475   */\n      0xffffffffffffffff\n        /* \"#utility.yul\":25449:25455   */\n      dup2\n        /* \"#utility.yul\":25446:25476   */\n      gt\n        /* \"#utility.yul\":25443:25560   */\n      iszero\n      tag_551\n      jumpi\n        /* \"#utility.yul\":25479:25558   */\n      tag_552\n      tag_248\n      jump\t// in\n    tag_552:\n        /* \"#utility.yul\":25443:25560   */\n    tag_551:\n        /* \"#utility.yul\":25599:25704   */\n      tag_553\n        /* \"#utility.yul\":25700:25703   */\n      dup5\n        /* \"#utility.yul\":25691:25697   */\n      dup3\n        /* \"#utility.yul\":25680:25689   */\n      dup6\n        /* \"#utility.yul\":25676:25698   */\n      add\n        /* \"#utility.yul\":25599:25704   */\n      tag_258\n      jump\t// in\n    tag_553:\n        /* \"#utility.yul\":25592:25596   */\n      0x80\n        /* \"#utility.yul\":25585:25590   */\n      dup4\n        /* \"#utility.yul\":25581:25597   */\n      add\n        /* \"#utility.yul\":25574:25705   */\n      mstore\n        /* \"#utility.yul\":25336:25716   */\n      pop\n        /* \"#utility.yul\":24072:25723   */\n      swap3\n      swap2\n      pop\n      pop\n      jump\t// out\n        /* \"#utility.yul\":25729:25958   */\n    tag_130:\n        /* \"#utility.yul\":25843:25852   */\n      0x00\n        /* \"#utility.yul\":25877:25951   */\n      tag_555\n        /* \"#utility.yul\":25936:25950   */\n      calldatasize\n        /* \"#utility.yul\":25929:25934   */\n      dup4\n        /* \"#utility.yul\":25877:25951   */\n      tag_259\n      jump\t// in\n    tag_555:\n        /* \"#utility.yul\":25864:25951   */\n      swap1\n      pop\n        /* \"#utility.yul\":25729:25958   */\n      swap2\n      swap1\n      pop\n      jump\t// out\n        /* \"#utility.yul\":25964:26136   */\n    tag_260:\n        /* \"#utility.yul\":26104:26128   */\n      0x4f6e6c792063616c6c61626c65206279206f776e657200000000000000000000\n        /* \"#utility.yul\":26100:26101   */\n      0x00\n        /* \"#utility.yul\":26092:26098   */\n      dup3\n        /* \"#utility.yul\":26088:26102   */\n      add\n        /* \"#utility.yul\":26081:26129   */\n      mstore\n        /* \"#utility.yul\":25964:26136   */\n      pop\n      jump\t// out\n        /* \"#utility.yul\":26142:26508   */\n    tag_261:\n        /* \"#utility.yul\":26284:26287   */\n      0x00\n        /* \"#utility.yul\":26305:26372   */\n      tag_558\n        /* \"#utility.yul\":26369:26371   */\n      0x16\n        /* \"#utility.yul\":26364:26367   */\n      dup4\n        /* \"#utility.yul\":26305:26372   */\n      tag_216\n      jump\t// in\n    tag_558:\n        /* \"#utility.yul\":26298:26372   */\n      swap2\n      pop\n        /* \"#utility.yul\":26381:26474   */\n      tag_559\n        /* \"#utility.yul\":26470:26473   */\n      dup3\n        /* \"#utility.yul\":26381:26474   */\n      tag_260\n      jump\t// in\n    tag_559:\n        /* \"#utility.yul\":26499:26501   */\n      0x20\n        /* \"#utility.yul\":26494:26497   */\n      dup3\n        /* \"#utility.yul\":26490:26502   */\n      add\n        /* \"#utility.yul\":26483:26502   */\n      swap1\n      pop\n        /* \"#utility.yul\":26142:26508   */\n      swap2\n      swap1\n      pop\n      jump\t// out\n        /* \"#utility.yul\":26514:26933   */\n    tag_151:\n        /* \"#utility.yul\":26680:26684   */\n      0x00\n        /* \"#utility.yul\":26718:26720   */\n      0x20\n        /* \"#utility.yul\":26707:26716   */\n      dup3\n        /* \"#utility.yul\":26703:26721   */\n      add\n        /* \"#utility.yul\":26695:26721   */\n      swap1\n      pop\n        /* \"#utility.yul\":26767:26776   */\n      dup2\n        /* \"#utility.yul\":26761:26765   */\n      dup2\n        /* \"#utility.yul\":26757:26777   */\n      sub\n        /* \"#utility.yul\":26753:26754   */\n      0x00\n        /* \"#utility.yul\":26742:26751   */\n      dup4\n        /* \"#utility.yul\":26738:26755   */\n      add\n        /* \"#utility.yul\":26731:26778   */\n      mstore\n        /* \"#utility.yul\":26795:26926   */\n      tag_561\n        /* \"#utility.yul\":26921:26925   */\n      dup2\n        /* \"#utility.yul\":26795:26926   */\n      tag_261\n      jump\t// in\n    tag_561:\n        /* \"#utility.yul\":26787:26926   */\n      swap1\n      pop\n        /* \"#utility.yul\":26514:26933   */\n      swap2\n      swap1\n      pop\n      jump\t// out\n        /* \"#utility.yul\":26939:27272   */\n    tag_157:\n        /* \"#utility.yul\":27062:27066   */\n      0x00\n        /* \"#utility.yul\":27100:27102   */\n      0x20\n        /* \"#utility.yul\":27089:27098   */\n      dup3\n        /* \"#utility.yul\":27085:27103   */\n      add\n        /* \"#utility.yul\":27077:27103   */\n      swap1\n      pop\n        /* \"#utility.yul\":27149:27158   */\n      dup2\n        /* \"#utility.yul\":27143:27147   */\n      dup2\n        /* \"#utility.yul\":27139:27159   */\n      sub\n        /* \"#utility.yul\":27135:27136   */\n      0x00\n        /* \"#utility.yul\":27124:27133   */\n      dup4\n        /* \"#utility.yul\":27120:27137   */\n      add\n        /* \"#utility.yul\":27113:27160   */\n      mstore\n        /* \"#utility.yul\":27177:27265   */\n      tag_563\n        /* \"#utility.yul\":27260:27264   */\n      dup2\n        /* \"#utility.yul\":27251:27257   */\n      dup5\n        /* \"#utility.yul\":27243:27249   */\n      dup7\n        /* \"#utility.yul\":27177:27265   */\n      tag_244\n      jump\t// in\n    tag_563:\n        /* \"#utility.yul\":27169:27265   */\n      swap1\n      pop\n        /* \"#utility.yul\":26939:27272   */\n      swap4\n      swap3\n      pop\n      pop\n      pop\n      jump\t// out\n        /* \"#utility.yul\":27278:27382   */\n    tag_262:\n        /* \"#utility.yul\":27323:27330   */\n      0x00\n        /* \"#utility.yul\":27352:27376   */\n      tag_565\n        /* \"#utility.yul\":27370:27375   */\n      dup3\n        /* \"#utility.yul\":27352:27376   */\n      tag_201\n      jump\t// in\n    tag_565:\n        /* \"#utility.yul\":27341:27376   */\n      swap1\n      pop\n        /* \"#utility.yul\":27278:27382   */\n      swap2\n      swap1\n      pop\n      jump\t// out\n        /* \"#utility.yul\":27388:27526   */\n    tag_263:\n        /* \"#utility.yul\":27469:27501   */\n      tag_567\n        /* \"#utility.yul\":27495:27500   */\n      dup2\n        /* \"#utility.yul\":27469:27501   */\n      tag_262\n      jump\t// in\n    tag_567:\n        /* \"#utility.yul\":27462:27467   */\n      dup2\n        /* \"#utility.yul\":27459:27502   */\n      eq\n        /* \"#utility.yul\":27449:27520   */\n      tag_568\n      jumpi\n        /* \"#utility.yul\":27516:27517   */\n      0x00\n        /* \"#utility.yul\":27513:27514   */\n      dup1\n        /* \"#utility.yul\":27506:27518   */\n      revert\n        /* \"#utility.yul\":27449:27520   */\n    tag_568:\n        /* \"#utility.yul\":27388:27526   */\n      pop\n      jump\t// out\n        /* \"#utility.yul\":27532:27691   */\n    tag_264:\n        /* \"#utility.yul\":27597:27602   */\n      0x00\n        /* \"#utility.yul\":27628:27634   */\n      dup2\n        /* \"#utility.yul\":27622:27635   */\n      mload\n        /* \"#utility.yul\":27613:27635   */\n      swap1\n      pop\n        /* \"#utility.yul\":27644:27685   */\n      tag_570\n        /* \"#utility.yul\":27679:27684   */\n      dup2\n        /* \"#utility.yul\":27644:27685   */\n      tag_263\n      jump\t// in\n    tag_570:\n        /* \"#utility.yul\":27532:27691   */\n      swap3\n      swap2\n      pop\n      pop\n      jump\t// out\n        /* \"#utility.yul\":27697:28064   */\n    tag_168:\n        /* \"#utility.yul\":27775:27781   */\n      0x00\n        /* \"#utility.yul\":27824:27826   */\n      0x20\n        /* \"#utility.yul\":27812:27821   */\n      dup3\n        /* \"#utility.yul\":27803:27810   */\n      dup5\n        /* \"#utility.yul\":27799:27822   */\n      sub\n        /* \"#utility.yul\":27795:27827   */\n      slt\n        /* \"#utility.yul\":27792:27911   */\n      iszero\n      tag_572\n      jumpi\n        /* \"#utility.yul\":27830:27909   */\n      tag_573\n      tag_191\n      jump\t// in\n    tag_573:\n        /* \"#utility.yul\":27792:27911   */\n    tag_572:\n        /* \"#utility.yul\":27950:27951   */\n      0x00\n        /* \"#utility.yul\":27975:28047   */\n      tag_574\n        /* \"#utility.yul\":28039:28046   */\n      dup5\n        /* \"#utility.yul\":28030:28036   */\n      dup3\n        /* \"#utility.yul\":28019:28028   */\n      dup6\n        /* \"#utility.yul\":28015:28037   */\n      add\n        /* \"#utility.yul\":27975:28047   */\n      tag_264\n      jump\t// in\n    tag_574:\n        /* \"#utility.yul\":27965:28047   */\n      swap2\n      pop\n        /* \"#utility.yul\":27921:28057   */\n      pop\n        /* \"#utility.yul\":27697:28064   */\n      swap3\n      swap2\n      pop\n      pop\n      jump\t// out\n        /* \"#utility.yul\":28070:28378   */\n    tag_265:\n        /* \"#utility.yul\":28132:28136   */\n      0x00\n        /* \"#utility.yul\":28222:28240   */\n      0xffffffffffffffff\n        /* \"#utility.yul\":28214:28220   */\n      dup3\n        /* \"#utility.yul\":28211:28241   */\n      gt\n        /* \"#utility.yul\":28208:28264   */\n      iszero\n      tag_576\n      jumpi\n        /* \"#utility.yul\":28244:28262   */\n      tag_577\n      tag_160\n      jump\t// in\n    tag_577:\n        /* \"#utility.yul\":28208:28264   */\n    tag_576:\n        /* \"#utility.yul\":28282:28311   */\n      tag_578\n        /* \"#utility.yul\":28304:28310   */\n      dup3\n        /* \"#utility.yul\":28282:28311   */\n      tag_224\n      jump\t// in\n    tag_578:\n        /* \"#utility.yul\":28274:28311   */\n      swap1\n      pop\n        /* \"#utility.yul\":28366:28370   */\n      0x20\n        /* \"#utility.yul\":28360:28364   */\n      dup2\n        /* \"#utility.yul\":28356:28371   */\n      add\n        /* \"#utility.yul\":28348:28371   */\n      swap1\n      pop\n        /* \"#utility.yul\":28070:28378   */\n      swap2\n      swap1\n      pop\n      jump\t// out\n        /* \"#utility.yul\":28384:28818   */\n    tag_266:\n        /* \"#utility.yul\":28473:28478   */\n      0x00\n        /* \"#utility.yul\":28498:28564   */\n      tag_580\n        /* \"#utility.yul\":28514:28563   */\n      tag_581\n        /* \"#utility.yul\":28556:28562   */\n      dup5\n        /* \"#utility.yul\":28514:28563   */\n      tag_265\n      jump\t// in\n    tag_581:\n        /* \"#utility.yul\":28498:28564   */\n      tag_247\n      jump\t// in\n    tag_580:\n        /* \"#utility.yul\":28489:28564   */\n      swap1\n      pop\n        /* \"#utility.yul\":28587:28593   */\n      dup3\n        /* \"#utility.yul\":28580:28585   */\n      dup2\n        /* \"#utility.yul\":28573:28594   */\n      mstore\n        /* \"#utility.yul\":28625:28629   */\n      0x20\n        /* \"#utility.yul\":28618:28623   */\n      dup2\n        /* \"#utility.yul\":28614:28630   */\n      add\n        /* \"#utility.yul\":28663:28666   */\n      dup5\n        /* \"#utility.yul\":28654:28660   */\n      dup5\n        /* \"#utility.yul\":28649:28652   */\n      dup5\n        /* \"#utility.yul\":28645:28661   */\n      add\n        /* \"#utility.yul\":28642:28667   */\n      gt\n        /* \"#utility.yul\":28639:28751   */\n      iszero\n      tag_582\n      jumpi\n        /* \"#utility.yul\":28670:28749   */\n      tag_583\n      tag_250\n      jump\t// in\n    tag_583:\n        /* \"#utility.yul\":28639:28751   */\n    tag_582:\n        /* \"#utility.yul\":28760:28812   */\n      tag_584\n        /* \"#utility.yul\":28805:28811   */\n      dup5\n        /* \"#utility.yul\":28800:28803   */\n      dup3\n        /* \"#utility.yul\":28795:28798   */\n      dup6\n        /* \"#utility.yul\":28760:28812   */\n      tag_223\n      jump\t// in\n    tag_584:\n        /* \"#utility.yul\":28479:28818   */\n      pop\n        /* \"#utility.yul\":28384:28818   */\n      swap4\n      swap3\n      pop\n      pop\n      pop\n      jump\t// out\n        /* \"#utility.yul\":28838:29193   */\n    tag_267:\n        /* \"#utility.yul\":28905:28910   */\n      0x00\n        /* \"#utility.yul\":28954:28957   */\n      dup3\n        /* \"#utility.yul\":28947:28951   */\n      0x1f\n        /* \"#utility.yul\":28939:28945   */\n      dup4\n        /* \"#utility.yul\":28935:28952   */\n      add\n        /* \"#utility.yul\":28931:28958   */\n      slt\n        /* \"#utility.yul\":28921:29043   */\n      tag_586\n      jumpi\n        /* \"#utility.yul\":28962:29041   */\n      tag_587\n      tag_205\n      jump\t// in\n    tag_587:\n        /* \"#utility.yul\":28921:29043   */\n    tag_586:\n        /* \"#utility.yul\":29072:29078   */\n      dup2\n        /* \"#utility.yul\":29066:29079   */\n      mload\n        /* \"#utility.yul\":29097:29187   */\n      tag_588\n        /* \"#utility.yul\":29183:29186   */\n      dup5\n        /* \"#utility.yul\":29175:29181   */\n      dup3\n        /* \"#utility.yul\":29168:29172   */\n      0x20\n        /* \"#utility.yul\":29160:29166   */\n      dup7\n        /* \"#utility.yul\":29156:29173   */\n      add\n        /* \"#utility.yul\":29097:29187   */\n      tag_266\n      jump\t// in\n    tag_588:\n        /* \"#utility.yul\":29088:29187   */\n      swap2\n      pop\n        /* \"#utility.yul\":28911:29193   */\n      pop\n        /* \"#utility.yul\":28838:29193   */\n      swap3\n      swap2\n      pop\n      pop\n      jump\t// out\n        /* \"#utility.yul\":29199:29723   */\n    tag_176:\n        /* \"#utility.yul\":29279:29285   */\n      0x00\n        /* \"#utility.yul\":29328:29330   */\n      0x20\n        /* \"#utility.yul\":29316:29325   */\n      dup3\n        /* \"#utility.yul\":29307:29314   */\n      dup5\n        /* \"#utility.yul\":29303:29326   */\n      sub\n        /* \"#utility.yul\":29299:29331   */\n      slt\n        /* \"#utility.yul\":29296:29415   */\n      iszero\n      tag_590\n      jumpi\n        /* \"#utility.yul\":29334:29413   */\n      tag_591\n      tag_191\n      jump\t// in\n    tag_591:\n        /* \"#utility.yul\":29296:29415   */\n    tag_590:\n        /* \"#utility.yul\":29475:29476   */\n      0x00\n        /* \"#utility.yul\":29464:29473   */\n      dup3\n        /* \"#utility.yul\":29460:29477   */\n      add\n        /* \"#utility.yul\":29454:29478   */\n      mload\n        /* \"#utility.yul\":29505:29523   */\n      0xffffffffffffffff\n        /* \"#utility.yul\":29497:29503   */\n      dup2\n        /* \"#utility.yul\":29494:29524   */\n      gt\n        /* \"#utility.yul\":29491:29608   */\n      iszero\n      tag_592\n      jumpi\n        /* \"#utility.yul\":29527:29606   */\n      tag_593\n      tag_192\n      jump\t// in\n    tag_593:\n        /* \"#utility.yul\":29491:29608   */\n    tag_592:\n        /* \"#utility.yul\":29632:29706   */\n      tag_594\n        /* \"#utility.yul\":29698:29705   */\n      dup5\n        /* \"#utility.yul\":29689:29695   */\n      dup3\n        /* \"#utility.yul\":29678:29687   */\n      dup6\n        /* \"#utility.yul\":29674:29696   */\n      add\n        /* \"#utility.yul\":29632:29706   */\n      tag_267\n      jump\t// in\n    tag_594:\n        /* \"#utility.yul\":29622:29706   */\n      swap2\n      pop\n        /* \"#utility.yul\":29425:29716   */\n      pop\n        /* \"#utility.yul\":29199:29723   */\n      swap3\n      swap2\n      pop\n      pop\n      jump\t// out\n        /* \"#utility.yul\":29729:29828   */\n    tag_268:\n        /* \"#utility.yul\":29781:29787   */\n      0x00\n        /* \"#utility.yul\":29815:29820   */\n      dup2\n        /* \"#utility.yul\":29809:29821   */\n      mload\n        /* \"#utility.yul\":29799:29821   */\n      swap1\n      pop\n        /* \"#utility.yul\":29729:29828   */\n      swap2\n      swap1\n      pop\n      jump\t// out\n        /* \"#utility.yul\":29834:30014   */\n    tag_269:\n        /* \"#utility.yul\":29882:29959   */\n      0x4e487b7100000000000000000000000000000000000000000000000000000000\n        /* \"#utility.yul\":29879:29880   */\n      0x00\n        /* \"#utility.yul\":29872:29960   */\n      mstore\n        /* \"#utility.yul\":29979:29983   */\n      0x22\n        /* \"#utility.yul\":29976:29977   */\n      0x04\n        /* \"#utility.yul\":29969:29984   */\n      mstore\n        /* \"#utility.yul\":30003:30007   */\n      0x24\n        /* \"#utility.yul\":30000:30001   */\n      0x00\n        /* \"#utility.yul\":29993:30008   */\n      revert\n        /* \"#utility.yul\":30020:30340   */\n    tag_270:\n        /* \"#utility.yul\":30064:30070   */\n      0x00\n        /* \"#utility.yul\":30101:30102   */\n      0x02\n        /* \"#utility.yul\":30095:30099   */\n      dup3\n        /* \"#utility.yul\":30091:30103   */\n      div\n        /* \"#utility.yul\":30081:30103   */\n      swap1\n      pop\n        /* \"#utility.yul\":30148:30149   */\n      0x01\n        /* \"#utility.yul\":30142:30146   */\n      dup3\n        /* \"#utility.yul\":30138:30150   */\n      and\n        /* \"#utility.yul\":30169:30187   */\n      dup1\n        /* \"#utility.yul\":30159:30240   */\n      tag_598\n      jumpi\n        /* \"#utility.yul\":30225:30229   */\n      0x7f\n        /* \"#utility.yul\":30217:30223   */\n      dup3\n        /* \"#utility.yul\":30213:30230   */\n      and\n        /* \"#utility.yul\":30203:30230   */\n      swap2\n      pop\n        /* \"#utility.yul\":30159:30240   */\n    tag_598:\n        /* \"#utility.yul\":30287:30289   */\n      0x20\n        /* \"#utility.yul\":30279:30285   */\n      dup3\n        /* \"#utility.yul\":30276:30290   */\n      lt\n        /* \"#utility.yul\":30256:30274   */\n      dup2\n        /* \"#utility.yul\":30253:30291   */\n      sub\n        /* \"#utility.yul\":30250:30334   */\n      tag_599\n      jumpi\n        /* \"#utility.yul\":30306:30324   */\n      tag_600\n      tag_269\n      jump\t// in\n    tag_600:\n        /* \"#utility.yul\":30250:30334   */\n    tag_599:\n        /* \"#utility.yul\":30071:30340   */\n      pop\n        /* \"#utility.yul\":30020:30340   */\n      swap2\n      swap1\n      pop\n      jump\t// out\n        /* \"#utility.yul\":30346:30487   */\n    tag_271:\n        /* \"#utility.yul\":30395:30399   */\n      0x00\n        /* \"#utility.yul\":30418:30421   */\n      dup2\n        /* \"#utility.yul\":30410:30421   */\n      swap1\n      pop\n        /* \"#utility.yul\":30441:30444   */\n      dup2\n        /* \"#utility.yul\":30438:30439   */\n      0x00\n        /* \"#utility.yul\":30431:30445   */\n      mstore\n        /* \"#utility.yul\":30475:30479   */\n      0x20\n        /* \"#utility.yul\":30472:30473   */\n      0x00\n        /* \"#utility.yul\":30462:30480   */\n      keccak256\n        /* \"#utility.yul\":30454:30480   */\n      swap1\n      pop\n        /* \"#utility.yul\":30346:30487   */\n      swap2\n      swap1\n      pop\n      jump\t// out\n        /* \"#utility.yul\":30493:30586   */\n    tag_272:\n        /* \"#utility.yul\":30530:30536   */\n      0x00\n        /* \"#utility.yul\":30577:30579   */\n      0x20\n        /* \"#utility.yul\":30572:30574   */\n      0x1f\n        /* \"#utility.yul\":30565:30570   */\n      dup4\n        /* \"#utility.yul\":30561:30575   */\n      add\n        /* \"#utility.yul\":30557:30580   */\n      div\n        /* \"#utility.yul\":30547:30580   */\n      swap1\n      pop\n        /* \"#utility.yul\":30493:30586   */\n      swap2\n      swap1\n      pop\n      jump\t// out\n        /* \"#utility.yul\":30592:30699   */\n    tag_273:\n        /* \"#utility.yul\":30636:30644   */\n      0x00\n        /* \"#utility.yul\":30686:30691   */\n      dup3\n        /* \"#utility.yul\":30680:30684   */\n      dup3\n        /* \"#utility.yul\":30676:30692   */\n      shl\n        /* \"#utility.yul\":30655:30692   */\n      swap1\n      pop\n        /* \"#utility.yul\":30592:30699   */\n      swap3\n      swap2\n      pop\n      pop\n      jump\t// out\n        /* \"#utility.yul\":30705:31098   */\n    tag_274:\n        /* \"#utility.yul\":30774:30780   */\n      0x00\n        /* \"#utility.yul\":30824:30825   */\n      0x08\n        /* \"#utility.yul\":30812:30822   */\n      dup4\n        /* \"#utility.yul\":30808:30826   */\n      mul\n        /* \"#utility.yul\":30847:30944   */\n      tag_605\n        /* \"#utility.yul\":30877:30943   */\n      0xffffffffffffffffffffffffffffffffffffffffffffffffffffffffffffffff\n        /* \"#utility.yul\":30866:30875   */\n      dup3\n        /* \"#utility.yul\":30847:30944   */\n      tag_273\n      jump\t// in\n    tag_605:\n        /* \"#utility.yul\":30965:31004   */\n      tag_606\n        /* \"#utility.yul\":30995:31003   */\n      dup7\n        /* \"#utility.yul\":30984:30993   */\n      dup4\n        /* \"#utility.yul\":30965:31004   */\n      tag_273\n      jump\t// in\n    tag_606:\n        /* \"#utility.yul\":30953:31004   */\n      swap6\n      pop\n        /* \"#utility.yul\":31037:31041   */\n      dup1\n        /* \"#utility.yul\":31033:31042   */\n      not\n        /* \"#utility.yul\":31026:31031   */\n      dup5\n        /* \"#utility.yul\":31022:31043   */\n      and\n        /* \"#utility.yul\":31013:31043   */\n      swap4\n      pop\n        /* \"#utility.yul\":31086:31090   */\n      dup1\n        /* \"#utility.yul\":31076:31084   */\n      dup7\n        /* \"#utility.yul\":31072:31091   */\n      and\n        /* \"#utility.yul\":31065:31070   */\n      dup5\n        /* \"#utility.yul\":31062:31092   */\n      or\n        /* \"#utility.yul\":31052:31092   */\n      swap3\n      pop\n        /* \"#utility.yul\":30781:31098   */\n      pop\n      pop\n        /* \"#utility.yul\":30705:31098   */\n      swap4\n      swap3\n      pop\n      pop\n      pop\n      jump\t// out\n        /* \"#utility.yul\":31104:31164   */\n    tag_275:\n        /* \"#utility.yul\":31132:31135   */\n      0x00\n        /* \"#utility.yul\":31153:31158   */\n      dup2\n        /* \"#utility.yul\":31146:31158   */\n      swap1\n      pop\n        /* \"#utility.yul\":31104:31164   */\n      swap2\n      swap1\n      pop\n      jump\t// out\n        /* \"#utility.yul\":31170:31312   */\n    tag_276:\n        /* \"#utility.yul\":31220:31229   */\n      0x00\n        /* \"#utility.yul\":31253:31306   */\n      tag_609\n        /* \"#utility.yul\":31271:31305   */\n      tag_610\n        /* \"#utility.yul\":31280:31304   */\n      tag_611\n        /* \"#utility.yul\":31298:31303   */\n      dup5\n        /* \"#utility.yul\":31280:31304   */\n      tag_230\n      jump\t// in\n    tag_611:\n        /* \"#utility.yul\":31271:31305   */\n      tag_275\n      jump\t// in\n    tag_610:\n        /* \"#utility.yul\":31253:31306   */\n      tag_230\n      jump\t// in\n    tag_609:\n        /* \"#utility.yul\":31240:31306   */\n      swap1\n      pop\n        /* \"#utility.yul\":31170:31312   */\n      swap2\n      swap1\n      pop\n      jump\t// out\n        /* \"#utility.yul\":31318:31393   */\n    tag_277:\n        /* \"#utility.yul\":31361:31364   */\n      0x00\n        /* \"#utility.yul\":31382:31387   */\n      dup2\n        /* \"#utility.yul\":31375:31387   */\n      swap1\n      pop\n        /* \"#utility.yul\":31318:31393   */\n      swap2\n      swap1\n      pop\n      jump\t// out\n        /* \"#utility.yul\":31399:31668   */\n    tag_278:\n        /* \"#utility.yul\":31509:31548   */\n      tag_614\n        /* \"#utility.yul\":31540:31547   */\n      dup4\n        /* \"#utility.yul\":31509:31548   */\n      tag_276\n      jump\t// in\n    tag_614:\n        /* \"#utility.yul\":31570:31661   */\n      tag_615\n        /* \"#utility.yul\":31619:31660   */\n      tag_616\n        /* \"#utility.yul\":31643:31659   */\n      dup3\n        /* \"#utility.yul\":31619:31660   */\n      tag_277\n      jump\t// in\n    tag_616:\n        /* \"#utility.yul\":31611:31617   */\n      dup5\n        /* \"#utility.yul\":31604:31608   */\n      dup5\n        /* \"#utility.yul\":31598:31609   */\n      sload\n        /* \"#utility.yul\":31570:31661   */\n      tag_274\n      jump\t// in\n    tag_615:\n        /* \"#utility.yul\":31564:31568   */\n      dup3\n        /* \"#utility.yul\":31557:31662   */\n      sstore\n        /* \"#utility.yul\":31475:31668   */\n      pop\n        /* \"#utility.yul\":31399:31668   */\n      pop\n      pop\n      pop\n      jump\t// out\n        /* \"#utility.yul\":31674:31747   */\n    tag_279:\n        /* \"#utility.yul\":31719:31722   */\n      0x00\n        /* \"#utility.yul\":31674:31747   */\n      swap1\n      jump\t// out\n        /* \"#utility.yul\":31753:31942   */\n    tag_280:\n        /* \"#utility.yul\":31830:31862   */\n      tag_619\n      tag_279\n      jump\t// in\n    tag_619:\n        /* \"#utility.yul\":31871:31936   */\n      tag_620\n        /* \"#utility.yul\":31929:31935   */\n      dup2\n        /* \"#utility.yul\":31921:31927   */\n      dup5\n        /* \"#utility.yul\":31915:31919   */\n      dup5\n        /* \"#utility.yul\":31871:31936   */\n      tag_278\n      jump\t// in\n    tag_620:\n        /* \"#utility.yul\":31806:31942   */\n      pop\n        /* \"#utility.yul\":31753:31942   */\n      pop\n      pop\n      jump\t// out\n        /* \"#utility.yul\":31948:32134   */\n    tag_281:\n        /* \"#utility.yul\":32008:32128   */\n    tag_622:\n        /* \"#utility.yul\":32025:32028   */\n      dup2\n        /* \"#utility.yul\":32018:32023   */\n      dup2\n        /* \"#utility.yul\":32015:32029   */\n      lt\n        /* \"#utility.yul\":32008:32128   */\n      iszero\n      tag_624\n      jumpi\n        /* \"#utility.yul\":32079:32118   */\n      tag_625\n        /* \"#utility.yul\":32116:32117   */\n      0x00\n        /* \"#utility.yul\":32109:32114   */\n      dup3\n        /* \"#utility.yul\":32079:32118   */\n      tag_280\n      jump\t// in\n    tag_625:\n        /* \"#utility.yul\":32052:32053   */\n      0x01\n        /* \"#utility.yul\":32045:32050   */\n      dup2\n        /* \"#utility.yul\":32041:32054   */\n      add\n        /* \"#utility.yul\":32032:32054   */\n      swap1\n      pop\n        /* \"#utility.yul\":32008:32128   */\n      jump(tag_622)\n    tag_624:\n        /* \"#utility.yul\":31948:32134   */\n      pop\n      pop\n      jump\t// out\n        /* \"#utility.yul\":32140:32683   */\n    tag_282:\n        /* \"#utility.yul\":32241:32243   */\n      0x1f\n        /* \"#utility.yul\":32236:32239   */\n      dup3\n        /* \"#utility.yul\":32233:32244   */\n      gt\n        /* \"#utility.yul\":32230:32676   */\n      iszero\n      tag_627\n      jumpi\n        /* \"#utility.yul\":32275:32313   */\n      tag_628\n        /* \"#utility.yul\":32307:32312   */\n      dup2\n        /* \"#utility.yul\":32275:32313   */\n      tag_271\n      jump\t// in\n    tag_628:\n        /* \"#utility.yul\":32359:32388   */\n      tag_629\n        /* \"#utility.yul\":32377:32387   */\n      dup5\n        /* \"#utility.yul\":32359:32388   */\n      tag_272\n      jump\t// in\n    tag_629:\n        /* \"#utility.yul\":32349:32357   */\n      dup2\n        /* \"#utility.yul\":32345:32389   */\n      add\n        /* \"#utility.yul\":32542:32544   */\n      0x20\n        /* \"#utility.yul\":32530:32540   */\n      dup6\n        /* \"#utility.yul\":32527:32545   */\n      lt\n        /* \"#utility.yul\":32524:32573   */\n      iszero\n      tag_630\n      jumpi\n        /* \"#utility.yul\":32563:32571   */\n      dup2\n        /* \"#utility.yul\":32548:32571   */\n      swap1\n      pop\n        /* \"#utility.yul\":32524:32573   */\n    tag_630:\n        /* \"#utility.yul\":32586:32666   */\n      tag_631\n        /* \"#utility.yul\":32642:32664   */\n      tag_632\n        /* \"#utility.yul\":32660:32663   */\n      dup6\n        /* \"#utility.yul\":32642:32664   */\n      tag_272\n      jump\t// in\n    tag_632:\n        /* \"#utility.yul\":32632:32640   */\n      dup4\n        /* \"#utility.yul\":32628:32665   */\n      add\n        /* \"#utility.yul\":32615:32626   */\n      dup3\n        /* \"#utility.yul\":32586:32666   */\n      tag_281\n      jump\t// in\n    tag_631:\n        /* \"#utility.yul\":32245:32676   */\n      pop\n      pop\n        /* \"#utility.yul\":32230:32676   */\n    tag_627:\n        /* \"#utility.yul\":32140:32683   */\n      pop\n      pop\n      pop\n      jump\t// out\n        /* \"#utility.yul\":32689:32806   */\n    tag_283:\n        /* \"#utility.yul\":32743:32751   */\n      0x00\n        /* \"#utility.yul\":32793:32798   */\n      dup3\n        /* \"#utility.yul\":32787:32791   */\n      dup3\n        /* \"#utility.yul\":32783:32799   */\n      shr\n        /* \"#utility.yul\":32762:32799   */\n      swap1\n      pop\n        /* \"#utility.yul\":32689:32806   */\n      swap3\n      swap2\n      pop\n      pop\n      jump\t// out\n        /* \"#utility.yul\":32812:32981   */\n    tag_284:\n        /* \"#utility.yul\":32856:32862   */\n      0x00\n        /* \"#utility.yul\":32889:32940   */\n      tag_635\n        /* \"#utility.yul\":32937:32938   */\n      0x00\n        /* \"#utility.yul\":32933:32939   */\n      not\n        /* \"#utility.yul\":32925:32930   */\n      dup5\n        /* \"#utility.yul\":32922:32923   */\n      0x08\n        /* \"#utility.yul\":32918:32931   */\n      mul\n        /* \"#utility.yul\":32889:32940   */\n      tag_283\n      jump\t// in\n    tag_635:\n        /* \"#utility.yul\":32885:32941   */\n      not\n        /* \"#utility.yul\":32970:32974   */\n      dup1\n        /* \"#utility.yul\":32964:32968   */\n      dup4\n        /* \"#utility.yul\":32960:32975   */\n      and\n        /* \"#utility.yul\":32950:32975   */\n      swap2\n      pop\n        /* \"#utility.yul\":32863:32981   */\n      pop\n        /* \"#utility.yul\":32812:32981   */\n      swap3\n      swap2\n      pop\n      pop\n      jump\t// out\n        /* \"#utility.yul\":32986:33281   */\n    tag_285:\n        /* \"#utility.yul\":33062:33066   */\n      0x00\n        /* \"#utility.yul\":33208:33237   */\n      tag_637\n        /* \"#utility.yul\":33233:33236   */\n      dup4\n        /* \"#utility.yul\":33227:33231   */\n      dup4\n        /* \"#utility.yul\":33208:33237   */\n      tag_284\n      jump\t// in\n    tag_637:\n        /* \"#utility.yul\":33200:33237   */\n      swap2\n      pop\n        /* \"#utility.yul\":33270:33273   */\n      dup3\n        /* \"#utility.yul\":33267:33268   */\n      0x02\n        /* \"#utility.yul\":33263:33274   */\n      mul\n        /* \"#utility.yul\":33257:33261   */\n      dup3\n        /* \"#utility.yul\":33254:33275   */\n      or\n        /* \"#utility.yul\":33246:33275   */\n      swap1\n      pop\n        /* \"#utility.yul\":32986:33281   */\n      swap3\n      swap2\n      pop\n      pop\n      jump\t// out\n        /* \"#utility.yul\":33286:34681   */\n    tag_178:\n        /* \"#utility.yul\":33403:33440   */\n      tag_639\n        /* \"#utility.yul\":33436:33439   */\n      dup3\n        /* \"#utility.yul\":33403:33440   */\n      tag_268\n      jump\t// in\n    tag_639:\n        /* \"#utility.yul\":33505:33523   */\n      0xffffffffffffffff\n        /* \"#utility.yul\":33497:33503   */\n      dup2\n        /* \"#utility.yul\":33494:33524   */\n      gt\n        /* \"#utility.yul\":33491:33547   */\n      iszero\n      tag_640\n      jumpi\n        /* \"#utility.yul\":33527:33545   */\n      tag_641\n      tag_160\n      jump\t// in\n    tag_641:\n        /* \"#utility.yul\":33491:33547   */\n    tag_640:\n        /* \"#utility.yul\":33571:33609   */\n      tag_642\n        /* \"#utility.yul\":33603:33607   */\n      dup3\n        /* \"#utility.yul\":33597:33608   */\n      sload\n        /* \"#utility.yul\":33571:33609   */\n      tag_270\n      jump\t// in\n    tag_642:\n        /* \"#utility.yul\":33656:33723   */\n      tag_643\n        /* \"#utility.yul\":33716:33722   */\n      dup3\n        /* \"#utility.yul\":33708:33714   */\n      dup3\n        /* \"#utility.yul\":33702:33706   */\n      dup6\n        /* \"#utility.yul\":33656:33723   */\n      tag_282\n      jump\t// in\n    tag_643:\n        /* \"#utility.yul\":33750:33751   */\n      0x00\n        /* \"#utility.yul\":33774:33778   */\n      0x20\n        /* \"#utility.yul\":33761:33778   */\n      swap1\n      pop\n        /* \"#utility.yul\":33806:33808   */\n      0x1f\n        /* \"#utility.yul\":33798:33804   */\n      dup4\n        /* \"#utility.yul\":33795:33809   */\n      gt\n        /* \"#utility.yul\":33823:33824   */\n      0x01\n        /* \"#utility.yul\":33818:34436   */\n      dup2\n      eq\n      tag_645\n      jumpi\n        /* \"#utility.yul\":34480:34481   */\n      0x00\n        /* \"#utility.yul\":34497:34503   */\n      dup5\n        /* \"#utility.yul\":34494:34571   */\n      iszero\n      tag_646\n      jumpi\n        /* \"#utility.yul\":34546:34555   */\n      dup3\n        /* \"#utility.yul\":34541:34544   */\n      dup8\n        /* \"#utility.yul\":34537:34556   */\n      add\n        /* \"#utility.yul\":34531:34557   */\n      mload\n        /* \"#utility.yul\":34522:34557   */\n      swap1\n      pop\n        /* \"#utility.yul\":34494:34571   */\n    tag_646:\n        /* \"#utility.yul\":34597:34664   */\n      tag_647\n        /* \"#utility.yul\":34657:34663   */\n      dup6\n        /* \"#utility.yul\":34650:34655   */\n      dup3\n        /* \"#utility.yul\":34597:34664   */\n      tag_285\n      jump\t// in\n    tag_647:\n        /* \"#utility.yul\":34591:34595   */\n      dup7\n        /* \"#utility.yul\":34584:34665   */\n      sstore\n        /* \"#utility.yul\":34453:34675   */\n      pop\n        /* \"#utility.yul\":33788:34675   */\n      jump(tag_644)\n        /* \"#utility.yul\":33818:34436   */\n    tag_645:\n        /* \"#utility.yul\":33870:33874   */\n      0x1f\n        /* \"#utility.yul\":33866:33875   */\n      not\n        /* \"#utility.yul\":33858:33864   */\n      dup5\n        /* \"#utility.yul\":33854:33876   */\n      and\n        /* \"#utility.yul\":33904:33941   */\n      tag_648\n        /* \"#utility.yul\":33936:33940   */\n      dup7\n        /* \"#utility.yul\":33904:33941   */\n      tag_271\n      jump\t// in\n    tag_648:\n        /* \"#utility.yul\":33963:33964   */\n      0x00\n        /* \"#utility.yul\":33977:34185   */\n    tag_649:\n        /* \"#utility.yul\":33991:33998   */\n      dup3\n        /* \"#utility.yul\":33988:33989   */\n      dup2\n        /* \"#utility.yul\":33985:33999   */\n      lt\n        /* \"#utility.yul\":33977:34185   */\n      iszero\n      tag_651\n      jumpi\n        /* \"#utility.yul\":34070:34079   */\n      dup5\n        /* \"#utility.yul\":34065:34068   */\n      dup10\n        /* \"#utility.yul\":34061:34080   */\n      add\n        /* \"#utility.yul\":34055:34081   */\n      mload\n        /* \"#utility.yul\":34047:34053   */\n      dup3\n        /* \"#utility.yul\":34040:34082   */\n      sstore\n        /* \"#utility.yul\":34121:34122   */\n      0x01\n        /* \"#utility.yul\":34113:34119   */\n      dup3\n        /* \"#utility.yul\":34109:34123   */\n      add\n        /* \"#utility.yul\":34099:34123   */\n      swap2\n      pop\n        /* \"#utility.yul\":34168:34170   */\n      0x20\n        /* \"#utility.yul\":34157:34166   */\n      dup6\n        /* \"#utility.yul\":34153:34171   */\n      add\n        /* \"#utility.yul\":34140:34171   */\n      swap5\n      pop\n        /* \"#utility.yul\":34014:34018   */\n      0x20\n        /* \"#utility.yul\":34011:34012   */\n      dup2\n        /* \"#utility.yul\":34007:34019   */\n      add\n        /* \"#utility.yul\":34002:34019   */\n      swap1\n      pop\n        /* \"#utility.yul\":33977:34185   */\n      jump(tag_649)\n    tag_651:\n        /* \"#utility.yul\":34213:34219   */\n      dup7\n        /* \"#utility.yul\":34204:34211   */\n      dup4\n        /* \"#utility.yul\":34201:34220   */\n      lt\n        /* \"#utility.yul\":34198:34377   */\n      iszero\n      tag_652\n      jumpi\n        /* \"#utility.yul\":34271:34280   */\n      dup5\n        /* \"#utility.yul\":34266:34269   */\n      dup10\n        /* \"#utility.yul\":34262:34281   */\n      add\n        /* \"#utility.yul\":34256:34282   */\n      mload\n        /* \"#utility.yul\":34314:34362   */\n      tag_653\n        /* \"#utility.yul\":34356:34360   */\n      0x1f\n        /* \"#utility.yul\":34348:34354   */\n      dup10\n        /* \"#utility.yul\":34344:34361   */\n      and\n        /* \"#utility.yul\":34333:34342   */\n      dup3\n        /* \"#utility.yul\":34314:34362   */\n      tag_284\n      jump\t// in\n    tag_653:\n        /* \"#utility.yul\":34306:34312   */\n      dup4\n        /* \"#utility.yul\":34299:34363   */\n      sstore\n        /* \"#utility.yul\":34221:34377   */\n      pop\n        /* \"#utility.yul\":34198:34377   */\n    tag_652:\n        /* \"#utility.yul\":34423:34424   */\n      0x01\n        /* \"#utility.yul\":34419:34420   */\n      0x02\n        /* \"#utility.yul\":34411:34417   */\n      dup9\n        /* \"#utility.yul\":34407:34421   */\n      mul\n        /* \"#utility.yul\":34403:34425   */\n      add\n        /* \"#utility.yul\":34397:34401   */\n      dup9\n        /* \"#utility.yul\":34390:34426   */\n      sstore\n        /* \"#utility.yul\":33825:34436   */\n      pop\n      pop\n      pop\n        /* \"#utility.yul\":33788:34675   */\n    tag_644:\n      pop\n        /* \"#utility.yul\":33378:34681   */\n      pop\n      pop\n      pop\n        /* \"#utility.yul\":33286:34681   */\n      pop\n      pop\n      jump\t// out\n        /* \"#utility.yul\":34687:34829   */\n    tag_286:\n        /* \"#utility.yul\":34737:34746   */\n      0x00\n        /* \"#utility.yul\":34770:34823   */\n      tag_655\n        /* \"#utility.yul\":34788:34822   */\n      tag_656\n        /* \"#utility.yul\":34797:34821   */\n      tag_657\n        /* \"#utility.yul\":34815:34820   */\n      dup5\n        /* \"#utility.yul\":34797:34821   */\n      tag_201\n      jump\t// in\n    tag_657:\n        /* \"#utility.yul\":34788:34822   */\n      tag_275\n      jump\t// in\n    tag_656:\n        /* \"#utility.yul\":34770:34823   */\n      tag_201\n      jump\t// in\n    tag_655:\n        /* \"#utility.yul\":34757:34823   */\n      swap1\n      pop\n        /* \"#utility.yul\":34687:34829   */\n      swap2\n      swap1\n      pop\n      jump\t// out\n        /* \"#utility.yul\":34835:34961   */\n    tag_287:\n        /* \"#utility.yul\":34885:34894   */\n      0x00\n        /* \"#utility.yul\":34918:34955   */\n      tag_659\n        /* \"#utility.yul\":34949:34954   */\n      dup3\n        /* \"#utility.yul\":34918:34955   */\n      tag_286\n      jump\t// in\n    tag_659:\n        /* \"#utility.yul\":34905:34955   */\n      swap1\n      pop\n        /* \"#utility.yul\":34835:34961   */\n      swap2\n      swap1\n      pop\n      jump\t// out\n        /* \"#utility.yul\":34967:35101   */\n    tag_288:\n        /* \"#utility.yul\":35025:35034   */\n      0x00\n        /* \"#utility.yul\":35058:35095   */\n      tag_661\n        /* \"#utility.yul\":35089:35094   */\n      dup3\n        /* \"#utility.yul\":35058:35095   */\n      tag_287\n      jump\t// in\n    tag_661:\n        /* \"#utility.yul\":35045:35095   */\n      swap1\n      pop\n        /* \"#utility.yul\":34967:35101   */\n      swap2\n      swap1\n      pop\n      jump\t// out\n        /* \"#utility.yul\":35107:35254   */\n    tag_289:\n        /* \"#utility.yul\":35202:35247   */\n      tag_663\n        /* \"#utility.yul\":35241:35246   */\n      dup2\n        /* \"#utility.yul\":35202:35247   */\n      tag_288\n      jump\t// in\n    tag_663:\n        /* \"#utility.yul\":35197:35200   */\n      dup3\n        /* \"#utility.yul\":35190:35248   */\n      mstore\n        /* \"#utility.yul\":35107:35254   */\n      pop\n      pop\n      jump\t// out\n        /* \"#utility.yul\":35260:35637   */\n    tag_290:\n        /* \"#utility.yul\":35348:35351   */\n      0x00\n        /* \"#utility.yul\":35376:35415   */\n      tag_665\n        /* \"#utility.yul\":35409:35414   */\n      dup3\n        /* \"#utility.yul\":35376:35415   */\n      tag_268\n      jump\t// in\n    tag_665:\n        /* \"#utility.yul\":35431:35502   */\n      tag_666\n        /* \"#utility.yul\":35495:35501   */\n      dup2\n        /* \"#utility.yul\":35490:35493   */\n      dup6\n        /* \"#utility.yul\":35431:35502   */\n      tag_216\n      jump\t// in\n    tag_666:\n        /* \"#utility.yul\":35424:35502   */\n      swap4\n      pop\n        /* \"#utility.yul\":35511:35576   */\n      tag_667\n        /* \"#utility.yul\":35569:35575   */\n      dup2\n        /* \"#utility.yul\":35564:35567   */\n      dup6\n        /* \"#utility.yul\":35557:35561   */\n      0x20\n        /* \"#utility.yul\":35550:35555   */\n      dup7\n        /* \"#utility.yul\":35546:35562   */\n      add\n        /* \"#utility.yul\":35511:35576   */\n      tag_223\n      jump\t// in\n    tag_667:\n        /* \"#utility.yul\":35601:35630   */\n      tag_668\n        /* \"#utility.yul\":35623:35629   */\n      dup2\n        /* \"#utility.yul\":35601:35630   */\n      tag_224\n      jump\t// in\n    tag_668:\n        /* \"#utility.yul\":35596:35599   */\n      dup5\n        /* \"#utility.yul\":35592:35631   */\n      add\n        /* \"#utility.yul\":35585:35631   */\n      swap2\n      pop\n        /* \"#utility.yul\":35352:35637   */\n      pop\n        /* \"#utility.yul\":35260:35637   */\n      swap3\n      swap2\n      pop\n      pop\n      jump\t// out\n        /* \"#utility.yul\":35643:36082   */\n    tag_182:\n        /* \"#utility.yul\":35792:35796   */\n      0x00\n        /* \"#utility.yul\":35830:35832   */\n      0x40\n        /* \"#utility.yul\":35819:35828   */\n      dup3\n        /* \"#utility.yul\":35815:35833   */\n      add\n        /* \"#utility.yul\":35807:35833   */\n      swap1\n      pop\n        /* \"#utility.yul\":35843:35922   */\n      tag_670\n        /* \"#utility.yul\":35919:35920   */\n      0x00\n        /* \"#utility.yul\":35908:35917   */\n      dup4\n        /* \"#utility.yul\":35904:35921   */\n      add\n        /* \"#utility.yul\":35895:35901   */\n      dup6\n        /* \"#utility.yul\":35843:35922   */\n      tag_289\n      jump\t// in\n    tag_670:\n        /* \"#utility.yul\":35969:35978   */\n      dup2\n        /* \"#utility.yul\":35963:35967   */\n      dup2\n        /* \"#utility.yul\":35959:35979   */\n      sub\n        /* \"#utility.yul\":35954:35956   */\n      0x20\n        /* \"#utility.yul\":35943:35952   */\n      dup4\n        /* \"#utility.yul\":35939:35957   */\n      add\n        /* \"#utility.yul\":35932:35980   */\n      mstore\n        /* \"#utility.yul\":35997:36075   */\n      tag_671\n        /* \"#utility.yul\":36070:36074   */\n      dup2\n        /* \"#utility.yul\":36061:36067   */\n      dup5\n        /* \"#utility.yul\":35997:36075   */\n      tag_290\n      jump\t// in\n    tag_671:\n        /* \"#utility.yul\":35989:36075   */\n      swap1\n      pop\n        /* \"#utility.yul\":35643:36082   */\n      swap4\n      swap3\n      pop\n      pop\n      pop\n      jump\t// out\n        /* \"#utility.yul\":36088:36261   */\n    tag_291:\n        /* \"#utility.yul\":36228:36253   */\n      0x43616e6e6f74207472616e7366657220746f2073656c66000000000000000000\n        /* \"#utility.yul\":36224:36225   */\n      0x00\n        /* \"#utility.yul\":36216:36222   */\n      dup3\n        /* \"#utility.yul\":36212:36226   */\n      add\n        /* \"#utility.yul\":36205:36254   */\n      mstore\n        /* \"#utility.yul\":36088:36261   */\n      pop\n      jump\t// out\n        /* \"#utility.yul\":36267:36633   */\n    tag_292:\n        /* \"#utility.yul\":36409:36412   */\n      0x00\n        /* \"#utility.yul\":36430:36497   */\n      tag_674\n        /* \"#utility.yul\":36494:36496   */\n      0x17\n        /* \"#utility.yul\":36489:36492   */\n      dup4\n        /* \"#utility.yul\":36430:36497   */\n      tag_216\n      jump\t// in\n    tag_674:\n        /* \"#utility.yul\":36423:36497   */\n      swap2\n      pop\n        /* \"#utility.yul\":36506:36599   */\n      tag_675\n        /* \"#utility.yul\":36595:36598   */\n      dup3\n        /* \"#utility.yul\":36506:36599   */\n      tag_291\n      jump\t// in\n    tag_675:\n        /* \"#utility.yul\":36624:36626   */\n      0x20\n        /* \"#utility.yul\":36619:36622   */\n      dup3\n        /* \"#utility.yul\":36615:36627   */\n      add\n        /* \"#utility.yul\":36608:36627   */\n      swap1\n      pop\n        /* \"#utility.yul\":36267:36633   */\n      swap2\n      swap1\n      pop\n      jump\t// out\n        /* \"#utility.yul\":36639:37058   */\n    tag_186:\n        /* \"#utility.yul\":36805:36809   */\n      0x00\n        /* \"#utility.yul\":36843:36845   */\n      0x20\n        /* \"#utility.yul\":36832:36841   */\n      dup3\n        /* \"#utility.yul\":36828:36846   */\n      add\n        /* \"#utility.yul\":36820:36846   */\n      swap1\n      pop\n        /* \"#utility.yul\":36892:36901   */\n      dup2\n        /* \"#utility.yul\":36886:36890   */\n      dup2\n        /* \"#utility.yul\":36882:36902   */\n      sub\n        /* \"#utility.yul\":36878:36879   */\n      0x00\n        /* \"#utility.yul\":36867:36876   */\n      dup4\n        /* \"#utility.yul\":36863:36880   */\n      add\n        /* \"#utility.yul\":36856:36903   */\n      mstore\n        /* \"#utility.yul\":36920:37051   */\n      tag_677\n        /* \"#utility.yul\":37046:37050   */\n      dup2\n        /* \"#utility.yul\":36920:37051   */\n      tag_292\n      jump\t// in\n    tag_677:\n        /* \"#utility.yul\":36912:37051   */\n      swap1\n      pop\n        /* \"#utility.yul\":36639:37058   */\n      swap2\n      swap1\n      pop\n      jump\t// out\n        /* \"#utility.yul\":37064:37163   */\n    tag_293:\n        /* \"#utility.yul\":37135:37156   */\n      tag_679\n        /* \"#utility.yul\":37150:37155   */\n      dup2\n        /* \"#utility.yul\":37135:37156   */\n      tag_196\n      jump\t// in\n    tag_679:\n        /* \"#utility.yul\":37130:37133   */\n      dup3\n        /* \"#utility.yul\":37123:37157   */\n      mstore\n        /* \"#utility.yul\":37064:37163   */\n      pop\n      pop\n      jump\t// out\n        /* \"#utility.yul\":37237:37774   */\n    tag_294:\n        /* \"#utility.yul\":37396:37400   */\n      0x40\n        /* \"#utility.yul\":37391:37394   */\n      dup3\n        /* \"#utility.yul\":37387:37401   */\n      add\n        /* \"#utility.yul\":37487:37491   */\n      0x00\n        /* \"#utility.yul\":37480:37485   */\n      dup3\n        /* \"#utility.yul\":37476:37492   */\n      add\n        /* \"#utility.yul\":37470:37493   */\n      mload\n        /* \"#utility.yul\":37506:37569   */\n      tag_681\n        /* \"#utility.yul\":37563:37567   */\n      0x00\n        /* \"#utility.yul\":37558:37561   */\n      dup6\n        /* \"#utility.yul\":37554:37568   */\n      add\n        /* \"#utility.yul\":37540:37552   */\n      dup3\n        /* \"#utility.yul\":37506:37569   */\n      tag_231\n      jump\t// in\n    tag_681:\n        /* \"#utility.yul\":37411:37579   */\n      pop\n        /* \"#utility.yul\":37681:37685   */\n      0x20\n        /* \"#utility.yul\":37674:37679   */\n      dup3\n        /* \"#utility.yul\":37670:37686   */\n      add\n        /* \"#utility.yul\":37664:37687   */\n      mload\n        /* \"#utility.yul\":37700:37757   */\n      tag_682\n        /* \"#utility.yul\":37751:37755   */\n      0x20\n        /* \"#utility.yul\":37746:37749   */\n      dup6\n        /* \"#utility.yul\":37742:37756   */\n      add\n        /* \"#utility.yul\":37728:37740   */\n      dup3\n        /* \"#utility.yul\":37700:37757   */\n      tag_293\n      jump\t// in\n    tag_682:\n        /* \"#utility.yul\":37589:37767   */\n      pop\n        /* \"#utility.yul\":37365:37774   */\n      pop\n        /* \"#utility.yul\":37237:37774   */\n      pop\n      pop\n      jump\t// out\n        /* \"#utility.yul\":37780:38126   */\n    tag_189:\n        /* \"#utility.yul\":37935:37939   */\n      0x00\n        /* \"#utility.yul\":37973:37975   */\n      0x40\n        /* \"#utility.yul\":37962:37971   */\n      dup3\n        /* \"#utility.yul\":37958:37976   */\n      add\n        /* \"#utility.yul\":37950:37976   */\n      swap1\n      pop\n        /* \"#utility.yul\":37986:38119   */\n      tag_684\n        /* \"#utility.yul\":38116:38117   */\n      0x00\n        /* \"#utility.yul\":38105:38114   */\n      dup4\n        /* \"#utility.yul\":38101:38118   */\n      add\n        /* \"#utility.yul\":38092:38098   */\n      dup5\n        /* \"#utility.yul\":37986:38119   */\n      tag_294\n      jump\t// in\n    tag_684:\n        /* \"#utility.yul\":37780:38126   */\n      swap3\n      swap2\n      pop\n      pop\n      jump\t// out\n\n    auxdata: 0xa26469706673582212208e7dda7d52a59278711bf96fff986017c7fc56516cab1fd92a25137506712da964736f6c634300081a0033\n}\n",
				"bytecode": {
					"linkReferences": {},
					"object": "60a060405234801561000f575f80fd5b506040516128f63803806128f68339818101604052810190610031919061039c565b33805f845f73ffffffffffffffffffffffffffffffffffffffff168173ffffffffffffffffffffffffffffffffffffffff16036100a5575f6040517fd7f7333400000000000000000000000000000000000000000000000000000000815260040161009c91906103e9565b60405180910390fd5b8073ffffffffffffffffffffffffffffffffffffffff1660808173ffffffffffffffffffffffffffffffffffffffff1681525050505f73ffffffffffffffffffffffffffffffffffffffff168273ffffffffffffffffffffffffffffffffffffffff1603610148576040517f08c379a000000000000000000000000000000000000000000000000000000000815260040161013f9061045c565b60405180910390fd5b815f806101000a81548173ffffffffffffffffffffffffffffffffffffffff021916908373ffffffffffffffffffffffffffffffffffffffff1602179055505f73ffffffffffffffffffffffffffffffffffffffff168173ffffffffffffffffffffffffffffffffffffffff16146101ca576101c98161021460201b60201c565b5b5050508060075f6101000a81548173ffffffffffffffffffffffffffffffffffffffff021916908373ffffffffffffffffffffffffffffffffffffffff16021790555050506104e2565b3373ffffffffffffffffffffffffffffffffffffffff168173ffffffffffffffffffffffffffffffffffffffff1603610282576040517f08c379a0000000000000000000000000000000000000000000000000000000008152600401610279906104c4565b60405180910390fd5b8060015f6101000a81548173ffffffffffffffffffffffffffffffffffffffff021916908373ffffffffffffffffffffffffffffffffffffffff1602179055508073ffffffffffffffffffffffffffffffffffffffff165f8054906101000a900473ffffffffffffffffffffffffffffffffffffffff1673ffffffffffffffffffffffffffffffffffffffff167fed8889f560326eb138920d842192f0eb3dd22b4f139c87a2c57538e05bae127860405160405180910390a350565b5f80fd5b5f73ffffffffffffffffffffffffffffffffffffffff82169050919050565b5f61036b82610342565b9050919050565b61037b81610361565b8114610385575f80fd5b50565b5f8151905061039681610372565b92915050565b5f80604083850312156103b2576103b161033e565b5b5f6103bf85828601610388565b92505060206103d085828601610388565b9150509250929050565b6103e381610361565b82525050565b5f6020820190506103fc5f8301846103da565b92915050565b5f82825260208201905092915050565b7f43616e6e6f7420736574206f776e657220746f207a65726f00000000000000005f82015250565b5f610446601883610402565b915061045182610412565b602082019050919050565b5f6020820190508181035f8301526104738161043a565b9050919050565b7f43616e6e6f74207472616e7366657220746f2073656c660000000000000000005f82015250565b5f6104ae601783610402565b91506104b98261047a565b602082019050919050565b5f6020820190508181035f8301526104db816104a2565b9050919050565b6080516123fc6104fa5f395f610b5201526123fc5ff3fe608060405234801561000f575f80fd5b50600436106100cd575f3560e01c806385572ffb1161008a578063b0f479a111610064578063b0f479a114610221578063db04fa491461023f578063eab5b02c1461025b578063f2fde38b14610277576100cd565b806385572ffb146101cb5780638da5cb5b146101e757806396d3b83d14610205576100cd565b806301ffc9a7146100d15780634030d521146101015780636159ada11461013157806375c67c661461016157806379ba5097146101915780637b77dd041461019b575b5f80fd5b6100eb60048036038101906100e69190611211565b610293565b6040516100f89190611256565b60405180910390f35b61011b600480360381019061011691906112ac565b610364565b6040516101289190611256565b60405180910390f35b61014b60048036038101906101469190611331565b610381565b6040516101589190611256565b60405180910390f35b61017b600480360381019061017691906112ac565b61039e565b6040516101889190611256565b60405180910390f35b6101996103bb565b005b6101b560048036038101906101b091906113bd565b61054a565b6040516101c29190611446565b60405180910390f35b6101e560048036038101906101e09190611481565b610a54565b005b6101ef610ae0565b6040516101fc91906114d7565b60405180910390f35b61021f600480360381019061021a919061151a565b610b07565b005b610229610b4f565b60405161023691906114d7565b60405180910390f35b6102596004803603810190610254919061151a565b610b76565b005b61027560048036038101906102709190611558565b610bbe565b005b610291600480360381019061028c9190611331565b610c1e565b005b5f7f85572ffb000000000000000000000000000000000000000000000000000000007bffffffffffffffffffffffffffffffffffffffffffffffffffffffff1916827bffffffffffffffffffffffffffffffffffffffffffffffffffffffff1916148061035d57507f01ffc9a7000000000000000000000000000000000000000000000000000000007bffffffffffffffffffffffffffffffffffffffffffffffffffffffff1916827bffffffffffffffffffffffffffffffffffffffffffffffffffffffff1916145b9050919050565b6005602052805f5260405f205f915054906101000a900460ff1681565b6006602052805f5260405f205f915054906101000a900460ff1681565b6004602052805f5260405f205f915054906101000a900460ff1681565b60015f9054906101000a900473ffffffffffffffffffffffffffffffffffffffff1673ffffffffffffffffffffffffffffffffffffffff163373ffffffffffffffffffffffffffffffffffffffff161461044a576040517f08c379a0000000000000000000000000000000000000000000000000000000008152600401610441906115f0565b60405180910390fd5b5f805f9054906101000a900473ffffffffffffffffffffffffffffffffffffffff169050335f806101000a81548173ffffffffffffffffffffffffffffffffffffffff021916908373ffffffffffffffffffffffffffffffffffffffff1602179055505f60015f6101000a81548173ffffffffffffffffffffffffffffffffffffffff021916908373ffffffffffffffffffffffffffffffffffffffff1602179055503373ffffffffffffffffffffffffffffffffffffffff168173ffffffffffffffffffffffffffffffffffffffff167f8be0079c531659141344cd1fd0a4f28419497f9722a3daafe3b4186f6b6457e060405160405180910390a350565b5f610553610c32565b8460045f8267ffffffffffffffff1667ffffffffffffffff1681526020019081526020015f205f9054906101000a900460ff166105c757806040517f0a503cdb0000000000000000000000000000000000000000000000000000000081526004016105be919061161d565b60405180910390fd5b845f73ffffffffffffffffffffffffffffffffffffffff168173ffffffffffffffffffffffffffffffffffffffff160361062d576040517fa05ff47e00000000000000000000000000000000000000000000000000000000815260040160405180910390fd5b5f61065b87878760075f9054906101000a900473ffffffffffffffffffffffffffffffffffffffff16610cc1565b90505f3073ffffffffffffffffffffffffffffffffffffffff1663b0f479a16040518163ffffffff1660e01b8152600401602060405180830381865afa1580156106a7573d5f803e3d5ffd5b505050506040513d601f19601f820116820180604052508101906106cb919061164a565b90505f8173ffffffffffffffffffffffffffffffffffffffff166320487ded8b856040518363ffffffff1660e01b8152600401610709929190611869565b602060405180830381865afa158015610724573d5f803e3d5ffd5b505050506040513d601f19601f8201168201806040525081019061074891906118c1565b905060075f9054906101000a900473ffffffffffffffffffffffffffffffffffffffff1673ffffffffffffffffffffffffffffffffffffffff166370a08231306040518263ffffffff1660e01b81526004016107a491906114d7565b602060405180830381865afa1580156107bf573d5f803e3d5ffd5b505050506040513d601f19601f820116820180604052508101906107e391906118c1565b8111156108c15760075f9054906101000a900473ffffffffffffffffffffffffffffffffffffffff1673ffffffffffffffffffffffffffffffffffffffff166370a08231306040518263ffffffff1660e01b815260040161084491906114d7565b602060405180830381865afa15801561085f573d5f803e3d5ffd5b505050506040513d601f19601f8201168201806040525081019061088391906118c1565b816040517f8f0f42060000000000000000000000000000000000000000000000000000000081526004016108b89291906118fb565b60405180910390fd5b60075f9054906101000a900473ffffffffffffffffffffffffffffffffffffffff1673ffffffffffffffffffffffffffffffffffffffff1663095ea7b383836040518363ffffffff1660e01b815260040161091d929190611922565b6020604051808303815f875af1158015610939573d5f803e3d5ffd5b505050506040513d601f19601f8201168201806040525081019061095d919061195d565b508173ffffffffffffffffffffffffffffffffffffffff166396f4e9f98b856040518363ffffffff1660e01b8152600401610999929190611869565b6020604051808303815f875af11580156109b5573d5f803e3d5ffd5b505050506040513d601f19601f820116820180604052508101906109d991906119b2565b95508967ffffffffffffffff16867fd36445359b3c6e26c120659aef090ce0f2eb005cf9af450d11aa1225609b4f4d8b8b8b60075f9054906101000a900473ffffffffffffffffffffffffffffffffffffffff1687604051610a3f959493929190611a17565b60405180910390a35050505050949350505050565b610a5c610b4f565b73ffffffffffffffffffffffffffffffffffffffff163373ffffffffffffffffffffffffffffffffffffffff1614610acb57336040517fd7f73334000000000000000000000000000000000000000000000000000000008152600401610ac291906114d7565b60405180910390fd5b610add81610ad890611d97565b610dc5565b50565b5f805f9054906101000a900473ffffffffffffffffffffffffffffffffffffffff16905090565b610b0f610c32565b8060045f8467ffffffffffffffff1667ffffffffffffffff1681526020019081526020015f205f6101000a81548160ff0219169083151502179055505050565b5f7f0000000000000000000000000000000000000000000000000000000000000000905090565b610b7e610c32565b8060055f8467ffffffffffffffff1667ffffffffffffffff1681526020019081526020015f205f6101000a81548160ff0219169083151502179055505050565b610bc6610c32565b8060065f8473ffffffffffffffffffffffffffffffffffffffff1673ffffffffffffffffffffffffffffffffffffffff1681526020019081526020015f205f6101000a81548160ff0219169083151502179055505050565b610c26610c32565b610c2f81610f90565b50565b5f8054906101000a900473ffffffffffffffffffffffffffffffffffffffff1673ffffffffffffffffffffffffffffffffffffffff163373ffffffffffffffffffffffffffffffffffffffff1614610cbf576040517f08c379a0000000000000000000000000000000000000000000000000000000008152600401610cb690611df3565b60405180910390fd5b565b610cc9611139565b6040518060a0016040528086604051602001610ce591906114d7565b60405160208183030381529060405281526020018585604051602001610d0c929190611e11565b60405160208183030381529060405281526020015f67ffffffffffffffff811115610d3a57610d39611a67565b5b604051908082528060200260200182016040528015610d7357816020015b610d6061117d565b815260200190600190039081610d585790505b5081526020018373ffffffffffffffffffffffffffffffffffffffff168152602001610db8604051806040016040528062030d408152602001600115158152506110ba565b8152509050949350505050565b80602001518160400151806020019051810190610de29190611e6e565b60055f8367ffffffffffffffff1667ffffffffffffffff1681526020019081526020015f205f9054906101000a900460ff16610e5557816040517f9afeb644000000000000000000000000000000000000000000000000000000008152600401610e4c919061161d565b60405180910390fd5b60065f8273ffffffffffffffffffffffffffffffffffffffff1673ffffffffffffffffffffffffffffffffffffffff1681526020019081526020015f205f9054906101000a900460ff16610ee057806040517f71811df2000000000000000000000000000000000000000000000000000000008152600401610ed791906114d7565b60405180910390fd5b825f01516002819055508260600151806020019051810190610f029190611f37565b60039081610f109190612182565b50826020015167ffffffffffffffff16835f01517fb1e312a29937cc11967b0e4a346fef1ae132424ebaba9dc6d90249dba053e87c8560400151806020019051810190610f5d9190611e6e565b8660600151806020019051810190610f759190611f37565b604051610f839291906122db565b60405180910390a3505050565b3373ffffffffffffffffffffffffffffffffffffffff168173ffffffffffffffffffffffffffffffffffffffff1603610ffe576040517f08c379a0000000000000000000000000000000000000000000000000000000008152600401610ff590612353565b60405180910390fd5b8060015f6101000a81548173ffffffffffffffffffffffffffffffffffffffff021916908373ffffffffffffffffffffffffffffffffffffffff1602179055508073ffffffffffffffffffffffffffffffffffffffff165f8054906101000a900473ffffffffffffffffffffffffffffffffffffffff1673ffffffffffffffffffffffffffffffffffffffff167fed8889f560326eb138920d842192f0eb3dd22b4f139c87a2c57538e05bae127860405160405180910390a350565b606063181dcf1060e01b826040516024016110d591906123ad565b604051602081830303815290604052907bffffffffffffffffffffffffffffffffffffffffffffffffffffffff19166020820180517bffffffffffffffffffffffffffffffffffffffffffffffffffffffff83818316178352505050509050919050565b6040518060a001604052806060815260200160608152602001606081526020015f73ffffffffffffffffffffffffffffffffffffffff168152602001606081525090565b60405180604001604052805f73ffffffffffffffffffffffffffffffffffffffff1681526020015f81525090565b5f604051905090565b5f80fd5b5f80fd5b5f7fffffffff0000000000000000000000000000000000000000000000000000000082169050919050565b6111f0816111bc565b81146111fa575f80fd5b50565b5f8135905061120b816111e7565b92915050565b5f60208284031215611226576112256111b4565b5b5f611233848285016111fd565b91505092915050565b5f8115159050919050565b6112508161123c565b82525050565b5f6020820190506112695f830184611247565b92915050565b5f67ffffffffffffffff82169050919050565b61128b8161126f565b8114611295575f80fd5b50565b5f813590506112a681611282565b92915050565b5f602082840312156112c1576112c06111b4565b5b5f6112ce84828501611298565b91505092915050565b5f73ffffffffffffffffffffffffffffffffffffffff82169050919050565b5f611300826112d7565b9050919050565b611310816112f6565b811461131a575f80fd5b50565b5f8135905061132b81611307565b92915050565b5f60208284031215611346576113456111b4565b5b5f6113538482850161131d565b91505092915050565b5f80fd5b5f80fd5b5f80fd5b5f8083601f84011261137d5761137c61135c565b5b8235905067ffffffffffffffff81111561139a57611399611360565b5b6020830191508360018202830111156113b6576113b5611364565b5b9250929050565b5f805f80606085870312156113d5576113d46111b4565b5b5f6113e287828801611298565b94505060206113f38782880161131d565b935050604085013567ffffffffffffffff811115611414576114136111b8565b5b61142087828801611368565b925092505092959194509250565b5f819050919050565b6114408161142e565b82525050565b5f6020820190506114595f830184611437565b92915050565b5f80fd5b5f60a082840312156114785761147761145f565b5b81905092915050565b5f60208284031215611496576114956111b4565b5b5f82013567ffffffffffffffff8111156114b3576114b26111b8565b5b6114bf84828501611463565b91505092915050565b6114d1816112f6565b82525050565b5f6020820190506114ea5f8301846114c8565b92915050565b6114f98161123c565b8114611503575f80fd5b50565b5f81359050611514816114f0565b92915050565b5f80604083850312156115305761152f6111b4565b5b5f61153d85828601611298565b925050602061154e85828601611506565b9150509250929050565b5f806040838503121561156e5761156d6111b4565b5b5f61157b8582860161131d565b925050602061158c85828601611506565b9150509250929050565b5f82825260208201905092915050565b7f4d7573742062652070726f706f736564206f776e6572000000000000000000005f82015250565b5f6115da601683611596565b91506115e5826115a6565b602082019050919050565b5f6020820190508181035f830152611607816115ce565b9050919050565b6116178161126f565b82525050565b5f6020820190506116305f83018461160e565b92915050565b5f8151905061164481611307565b92915050565b5f6020828403121561165f5761165e6111b4565b5b5f61166c84828501611636565b91505092915050565b5f81519050919050565b5f82825260208201905092915050565b8281835e5f83830152505050565b5f601f19601f8301169050919050565b5f6116b782611675565b6116c1818561167f565b93506116d181856020860161168f565b6116da8161169d565b840191505092915050565b5f81519050919050565b5f82825260208201905092915050565b5f819050602082019050919050565b611717816112f6565b82525050565b5f819050919050565b61172f8161171d565b82525050565b604082015f8201516117495f85018261170e565b50602082015161175c6020850182611726565b50505050565b5f61176d8383611735565b60408301905092915050565b5f602082019050919050565b5f61178f826116e5565b61179981856116ef565b93506117a4836116ff565b805f5b838110156117d45781516117bb8882611762565b97506117c683611779565b9250506001810190506117a7565b5085935050505092915050565b5f60a083015f8301518482035f8601526117fb82826116ad565b9150506020830151848203602086015261181582826116ad565b9150506040830151848203604086015261182f8282611785565b9150506060830151611844606086018261170e565b506080830151848203608086015261185c82826116ad565b9150508091505092915050565b5f60408201905061187c5f83018561160e565b818103602083015261188e81846117e1565b90509392505050565b6118a08161171d565b81146118aa575f80fd5b50565b5f815190506118bb81611897565b92915050565b5f602082840312156118d6576118d56111b4565b5b5f6118e3848285016118ad565b91505092915050565b6118f58161171d565b82525050565b5f60408201905061190e5f8301856118ec565b61191b60208301846118ec565b9392505050565b5f6040820190506119355f8301856114c8565b61194260208301846118ec565b9392505050565b5f81519050611957816114f0565b92915050565b5f60208284031215611972576119716111b4565b5b5f61197f84828501611949565b91505092915050565b6119918161142e565b811461199b575f80fd5b50565b5f815190506119ac81611988565b92915050565b5f602082840312156119c7576119c66111b4565b5b5f6119d48482850161199e565b91505092915050565b828183375f83830152505050565b5f6119f68385611596565b9350611a038385846119dd565b611a0c8361169d565b840190509392505050565b5f608082019050611a2a5f8301886114c8565b8181036020830152611a3d8186886119eb565b9050611a4c60408301856114c8565b611a5960608301846118ec565b9695505050505050565b5f80fd5b7f4e487b71000000000000000000000000000000000000000000000000000000005f52604160045260245ffd5b611a9d8261169d565b810181811067ffffffffffffffff82111715611abc57611abb611a67565b5b80604052505050565b5f611ace6111ab565b9050611ada8282611a94565b919050565b5f80fd5b5f81359050611af181611988565b92915050565b5f80fd5b5f67ffffffffffffffff821115611b1557611b14611a67565b5b611b1e8261169d565b9050602081019050919050565b5f611b3d611b3884611afb565b611ac5565b905082815260208101848484011115611b5957611b58611af7565b5b611b648482856119dd565b509392505050565b5f82601f830112611b8057611b7f61135c565b5b8135611b90848260208601611b2b565b91505092915050565b5f67ffffffffffffffff821115611bb357611bb2611a67565b5b602082029050602081019050919050565b5f81359050611bd281611897565b92915050565b5f60408284031215611bed57611bec611a63565b5b611bf76040611ac5565b90505f611c068482850161131d565b5f830152506020611c1984828501611bc4565b60208301525092915050565b5f611c37611c3284611b99565b611ac5565b90508083825260208201905060408402830185811115611c5a57611c59611364565b5b835b81811015611c835780611c6f8882611bd8565b845260208401935050604081019050611c5c565b5050509392505050565b5f82601f830112611ca157611ca061135c565b5b8135611cb1848260208601611c25565b91505092915050565b5f60a08284031215611ccf57611cce611a63565b5b611cd960a0611ac5565b90505f611ce884828501611ae3565b5f830152506020611cfb84828501611298565b602083015250604082013567ffffffffffffffff811115611d1f57611d1e611adf565b5b611d2b84828501611b6c565b604083015250606082013567ffffffffffffffff811115611d4f57611d4e611adf565b5b611d5b84828501611b6c565b606083015250608082013567ffffffffffffffff811115611d7f57611d7e611adf565b5b611d8b84828501611c8d565b60808301525092915050565b5f611da23683611cba565b9050919050565b7f4f6e6c792063616c6c61626c65206279206f776e6572000000000000000000005f82015250565b5f611ddd601683611596565b9150611de882611da9565b602082019050919050565b5f6020820190508181035f830152611e0a81611dd1565b9050919050565b5f6020820190508181035f830152611e2a8184866119eb565b90509392505050565b5f611e3d826112d7565b9050919050565b611e4d81611e33565b8114611e57575f80fd5b50565b5f81519050611e6881611e44565b92915050565b5f60208284031215611e8357611e826111b4565b5b5f611e9084828501611e5a565b91505092915050565b5f67ffffffffffffffff821115611eb357611eb2611a67565b5b611ebc8261169d565b9050602081019050919050565b5f611edb611ed684611e99565b611ac5565b905082815260208101848484011115611ef757611ef6611af7565b5b611f0284828561168f565b509392505050565b5f82601f830112611f1e57611f1d61135c565b5b8151611f2e848260208601611ec9565b91505092915050565b5f60208284031215611f4c57611f4b6111b4565b5b5f82015167ffffffffffffffff811115611f6957611f686111b8565b5b611f7584828501611f0a565b91505092915050565b5f81519050919050565b7f4e487b71000000000000000000000000000000000000000000000000000000005f52602260045260245ffd5b5f6002820490506001821680611fcc57607f821691505b602082108103611fdf57611fde611f88565b5b50919050565b5f819050815f5260205f209050919050565b5f6020601f8301049050919050565b5f82821b905092915050565b5f600883026120417fffffffffffffffffffffffffffffffffffffffffffffffffffffffffffffffff82612006565b61204b8683612006565b95508019841693508086168417925050509392505050565b5f819050919050565b5f61208661208161207c8461171d565b612063565b61171d565b9050919050565b5f819050919050565b61209f8361206c565b6120b36120ab8261208d565b848454612012565b825550505050565b5f90565b6120c76120bb565b6120d2818484612096565b505050565b5b818110156120f5576120ea5f826120bf565b6001810190506120d8565b5050565b601f82111561213a5761210b81611fe5565b61211484611ff7565b81016020851015612123578190505b61213761212f85611ff7565b8301826120d7565b50505b505050565b5f82821c905092915050565b5f61215a5f198460080261213f565b1980831691505092915050565b5f612172838361214b565b9150826002028217905092915050565b61218b82611f7e565b67ffffffffffffffff8111156121a4576121a3611a67565b5b6121ae8254611fb5565b6121b98282856120f9565b5f60209050601f8311600181146121ea575f84156121d8578287015190505b6121e28582612167565b865550612249565b601f1984166121f886611fe5565b5f5b8281101561221f578489015182556001820191506020850194506020810190506121fa565b8683101561223c5784890151612238601f89168261214b565b8355505b6001600288020188555050505b505050505050565b5f61226b612266612261846112d7565b612063565b6112d7565b9050919050565b5f61227c82612251565b9050919050565b5f61228d82612272565b9050919050565b61229d81612283565b82525050565b5f6122ad82611f7e565b6122b78185611596565b93506122c781856020860161168f565b6122d08161169d565b840191505092915050565b5f6040820190506122ee5f830185612294565b818103602083015261230081846122a3565b90509392505050565b7f43616e6e6f74207472616e7366657220746f2073656c660000000000000000005f82015250565b5f61233d601783611596565b915061234882612309565b602082019050919050565b5f6020820190508181035f83015261236a81612331565b9050919050565b61237a8161123c565b82525050565b604082015f8201516123945f850182611726565b5060208201516123a76020850182612371565b50505050565b5f6040820190506123c05f830184612380565b9291505056fea26469706673582212208e7dda7d52a59278711bf96fff986017c7fc56516cab1fd92a25137506712da964736f6c634300081a0033",
					"opcodes": "PUSH1 0xA0 PUSH1 0x40 MSTORE CALLVALUE DUP1 ISZERO PUSH2 0xF JUMPI PUSH0 DUP1 REVERT JUMPDEST POP PUSH1 0x40 MLOAD PUSH2 0x28F6 CODESIZE SUB DUP1 PUSH2 0x28F6 DUP4 CODECOPY DUP2 DUP2 ADD PUSH1 0x40 MSTORE DUP2 ADD SWAP1 PUSH2 0x31 SWAP2 SWAP1 PUSH2 0x39C JUMP JUMPDEST CALLER DUP1 PUSH0 DUP5 PUSH0 PUSH20 0xFFFFFFFFFFFFFFFFFFFFFFFFFFFFFFFFFFFFFFFF AND DUP2 PUSH20 0xFFFFFFFFFFFFFFFFFFFFFFFFFFFFFFFFFFFFFFFF AND SUB PUSH2 0xA5 JUMPI PUSH0 PUSH1 0x40 MLOAD PUSH32 0xD7F7333400000000000000000000000000000000000000000000000000000000 DUP2 MSTORE PUSH1 0x4 ADD PUSH2 0x9C SWAP2 SWAP1 PUSH2 0x3E9 JUMP JUMPDEST PUSH1 0x40 MLOAD DUP1 SWAP2 SUB SWAP1 REVERT JUMPDEST DUP1 PUSH20 0xFFFFFFFFFFFFFFFFFFFFFFFFFFFFFFFFFFFFFFFF AND PUSH1 0x80 DUP2 PUSH20 0xFFFFFFFFFFFFFFFFFFFFFFFFFFFFFFFFFFFFFFFF AND DUP2 MSTORE POP POP POP PUSH0 PUSH20 0xFFFFFFFFFFFFFFFFFFFFFFFFFFFFFFFFFFFFFFFF AND DUP3 PUSH20 0xFFFFFFFFFFFFFFFFFFFFFFFFFFFFFFFFFFFFFFFF AND SUB PUSH2 0x148 JUMPI PUSH1 0x40 MLOAD PUSH32 0x8C379A000000000000000000000000000000000000000000000000000000000 DUP2 MSTORE PUSH1 0x4 ADD PUSH2 0x13F SWAP1 PUSH2 0x45C JUMP JUMPDEST PUSH1 0x40 MLOAD DUP1 SWAP2 SUB SWAP1 REVERT JUMPDEST DUP2 PUSH0 DUP1 PUSH2 0x100 EXP DUP2 SLOAD DUP2 PUSH20 0xFFFFFFFFFFFFFFFFFFFFFFFFFFFFFFFFFFFFFFFF MUL NOT AND SWAP1 DUP4 PUSH20 0xFFFFFFFFFFFFFFFFFFFFFFFFFFFFFFFFFFFFFFFF AND MUL OR SWAP1 SSTORE POP PUSH0 PUSH20 0xFFFFFFFFFFFFFFFFFFFFFFFFFFFFFFFFFFFFFFFF AND DUP2 PUSH20 0xFFFFFFFFFFFFFFFFFFFFFFFFFFFFFFFFFFFFFFFF AND EQ PUSH2 0x1CA JUMPI PUSH2 0x1C9 DUP2 PUSH2 0x214 PUSH1 0x20 SHL PUSH1 0x20 SHR JUMP JUMPDEST JUMPDEST POP POP POP DUP1 PUSH1 0x7 PUSH0 PUSH2 0x100 EXP DUP2 SLOAD DUP2 PUSH20 0xFFFFFFFFFFFFFFFFFFFFFFFFFFFFFFFFFFFFFFFF MUL NOT AND SWAP1 DUP4 PUSH20 0xFFFFFFFFFFFFFFFFFFFFFFFFFFFFFFFFFFFFFFFF AND MUL OR SWAP1 SSTORE POP POP POP PUSH2 0x4E2 JUMP JUMPDEST CALLER PUSH20 0xFFFFFFFFFFFFFFFFFFFFFFFFFFFFFFFFFFFFFFFF AND DUP2 PUSH20 0xFFFFFFFFFFFFFFFFFFFFFFFFFFFFFFFFFFFFFFFF AND SUB PUSH2 0x282 JUMPI PUSH1 0x40 MLOAD PUSH32 0x8C379A000000000000000000000000000000000000000000000000000000000 DUP2 MSTORE PUSH1 0x4 ADD PUSH2 0x279 SWAP1 PUSH2 0x4C4 JUMP JUMPDEST PUSH1 0x40 MLOAD DUP1 SWAP2 SUB SWAP1 REVERT JUMPDEST DUP1 PUSH1 0x1 PUSH0 PUSH2 0x100 EXP DUP2 SLOAD DUP2 PUSH20 0xFFFFFFFFFFFFFFFFFFFFFFFFFFFFFFFFFFFFFFFF MUL NOT AND SWAP1 DUP4 PUSH20 0xFFFFFFFFFFFFFFFFFFFFFFFFFFFFFFFFFFFFFFFF AND MUL OR SWAP1 SSTORE POP DUP1 PUSH20 0xFFFFFFFFFFFFFFFFFFFFFFFFFFFFFFFFFFFFFFFF AND PUSH0 DUP1 SLOAD SWAP1 PUSH2 0x100 EXP SWAP1 DIV PUSH20 0xFFFFFFFFFFFFFFFFFFFFFFFFFFFFFFFFFFFFFFFF AND PUSH20 0xFFFFFFFFFFFFFFFFFFFFFFFFFFFFFFFFFFFFFFFF AND PUSH32 0xED8889F560326EB138920D842192F0EB3DD22B4F139C87A2C57538E05BAE1278 PUSH1 0x40 MLOAD PUSH1 0x40 MLOAD DUP1 SWAP2 SUB SWAP1 LOG3 POP JUMP JUMPDEST PUSH0 DUP1 REVERT JUMPDEST PUSH0 PUSH20 0xFFFFFFFFFFFFFFFFFFFFFFFFFFFFFFFFFFFFFFFF DUP3 AND SWAP1 POP SWAP2 SWAP1 POP JUMP JUMPDEST PUSH0 PUSH2 0x36B DUP3 PUSH2 0x342 JUMP JUMPDEST SWAP1 POP SWAP2 SWAP1 POP JUMP JUMPDEST PUSH2 0x37B DUP2 PUSH2 0x361 JUMP JUMPDEST DUP2 EQ PUSH2 0x385 JUMPI PUSH0 DUP1 REVERT JUMPDEST POP JUMP JUMPDEST PUSH0 DUP2 MLOAD SWAP1 POP PUSH2 0x396 DUP2 PUSH2 0x372 JUMP JUMPDEST SWAP3 SWAP2 POP POP JUMP JUMPDEST PUSH0 DUP1 PUSH1 0x40 DUP4 DUP6 SUB SLT ISZERO PUSH2 0x3B2 JUMPI PUSH2 0x3B1 PUSH2 0x33E JUMP JUMPDEST JUMPDEST PUSH0 PUSH2 0x3BF DUP6 DUP3 DUP7 ADD PUSH2 0x388 JUMP JUMPDEST SWAP3 POP POP PUSH1 0x20 PUSH2 0x3D0 DUP6 DUP3 DUP7 ADD PUSH2 0x388 JUMP JUMPDEST SWAP2 POP POP SWAP3 POP SWAP3 SWAP1 POP JUMP JUMPDEST PUSH2 0x3E3 DUP2 PUSH2 0x361 JUMP JUMPDEST DUP3 MSTORE POP POP JUMP JUMPDEST PUSH0 PUSH1 0x20 DUP3 ADD SWAP1 POP PUSH2 0x3FC PUSH0 DUP4 ADD DUP5 PUSH2 0x3DA JUMP JUMPDEST SWAP3 SWAP2 POP POP JUMP JUMPDEST PUSH0 DUP3 DUP3 MSTORE PUSH1 0x20 DUP3 ADD SWAP1 POP SWAP3 SWAP2 POP POP JUMP JUMPDEST PUSH32 0x43616E6E6F7420736574206F776E657220746F207A65726F0000000000000000 PUSH0 DUP3 ADD MSTORE POP JUMP JUMPDEST PUSH0 PUSH2 0x446 PUSH1 0x18 DUP4 PUSH2 0x402 JUMP JUMPDEST SWAP2 POP PUSH2 0x451 DUP3 PUSH2 0x412 JUMP JUMPDEST PUSH1 0x20 DUP3 ADD SWAP1 POP SWAP2 SWAP1 POP JUMP JUMPDEST PUSH0 PUSH1 0x20 DUP3 ADD SWAP1 POP DUP2 DUP2 SUB PUSH0 DUP4 ADD MSTORE PUSH2 0x473 DUP2 PUSH2 0x43A JUMP JUMPDEST SWAP1 POP SWAP2 SWAP1 POP JUMP JUMPDEST PUSH32 0x43616E6E6F74207472616E7366657220746F2073656C66000000000000000000 PUSH0 DUP3 ADD MSTORE POP JUMP JUMPDEST PUSH0 PUSH2 0x4AE PUSH1 0x17 DUP4 PUSH2 0x402 JUMP JUMPDEST SWAP2 POP PUSH2 0x4B9 DUP3 PUSH2 0x47A JUMP JUMPDEST PUSH1 0x20 DUP3 ADD SWAP1 POP SWAP2 SWAP1 POP JUMP JUMPDEST PUSH0 PUSH1 0x20 DUP3 ADD SWAP1 POP DUP2 DUP2 SUB PUSH0 DUP4 ADD MSTORE PUSH2 0x4DB DUP2 PUSH2 0x4A2 JUMP JUMPDEST SWAP1 POP SWAP2 SWAP1 POP JUMP JUMPDEST PUSH1 0x80 MLOAD PUSH2 0x23FC PUSH2 0x4FA PUSH0 CODECOPY PUSH0 PUSH2 0xB52 ADD MSTORE PUSH2 0x23FC PUSH0 RETURN INVALID PUSH1 0x80 PUSH1 0x40 MSTORE CALLVALUE DUP1 ISZERO PUSH2 0xF JUMPI PUSH0 DUP1 REVERT JUMPDEST POP PUSH1 0x4 CALLDATASIZE LT PUSH2 0xCD JUMPI PUSH0 CALLDATALOAD PUSH1 0xE0 SHR DUP1 PUSH4 0x85572FFB GT PUSH2 0x8A JUMPI DUP1 PUSH4 0xB0F479A1 GT PUSH2 0x64 JUMPI DUP1 PUSH4 0xB0F479A1 EQ PUSH2 0x221 JUMPI DUP1 PUSH4 0xDB04FA49 EQ PUSH2 0x23F JUMPI DUP1 PUSH4 0xEAB5B02C EQ PUSH2 0x25B JUMPI DUP1 PUSH4 0xF2FDE38B EQ PUSH2 0x277 JUMPI PUSH2 0xCD JUMP JUMPDEST DUP1 PUSH4 0x85572FFB EQ PUSH2 0x1CB JUMPI DUP1 PUSH4 0x8DA5CB5B EQ PUSH2 0x1E7 JUMPI DUP1 PUSH4 0x96D3B83D EQ PUSH2 0x205 JUMPI PUSH2 0xCD JUMP JUMPDEST DUP1 PUSH4 0x1FFC9A7 EQ PUSH2 0xD1 JUMPI DUP1 PUSH4 0x4030D521 EQ PUSH2 0x101 JUMPI DUP1 PUSH4 0x6159ADA1 EQ PUSH2 0x131 JUMPI DUP1 PUSH4 0x75C67C66 EQ PUSH2 0x161 JUMPI DUP1 PUSH4 0x79BA5097 EQ PUSH2 0x191 JUMPI DUP1 PUSH4 0x7B77DD04 EQ PUSH2 0x19B JUMPI JUMPDEST PUSH0 DUP1 REVERT JUMPDEST PUSH2 0xEB PUSH1 0x4 DUP1 CALLDATASIZE SUB DUP2 ADD SWAP1 PUSH2 0xE6 SWAP2 SWAP1 PUSH2 0x1211 JUMP JUMPDEST PUSH2 0x293 JUMP JUMPDEST PUSH1 0x40 MLOAD PUSH2 0xF8 SWAP2 SWAP1 PUSH2 0x1256 JUMP JUMPDEST PUSH1 0x40 MLOAD DUP1 SWAP2 SUB SWAP1 RETURN JUMPDEST PUSH2 0x11B PUSH1 0x4 DUP1 CALLDATASIZE SUB DUP2 ADD SWAP1 PUSH2 0x116 SWAP2 SWAP1 PUSH2 0x12AC JUMP JUMPDEST PUSH2 0x364 JUMP JUMPDEST PUSH1 0x40 MLOAD PUSH2 0x128 SWAP2 SWAP1 PUSH2 0x1256 JUMP JUMPDEST PUSH1 0x40 MLOAD DUP1 SWAP2 SUB SWAP1 RETURN JUMPDEST PUSH2 0x14B PUSH1 0x4 DUP1 CALLDATASIZE SUB DUP2 ADD SWAP1 PUSH2 0x146 SWAP2 SWAP1 PUSH2 0x1331 JUMP JUMPDEST PUSH2 0x381 JUMP JUMPDEST PUSH1 0x40 MLOAD PUSH2 0x158 SWAP2 SWAP1 PUSH2 0x1256 JUMP JUMPDEST PUSH1 0x40 MLOAD DUP1 SWAP2 SUB SWAP1 RETURN JUMPDEST PUSH2 0x17B PUSH1 0x4 DUP1 CALLDATASIZE SUB DUP2 ADD SWAP1 PUSH2 0x176 SWAP2 SWAP1 PUSH2 0x12AC JUMP JUMPDEST PUSH2 0x39E JUMP JUMPDEST PUSH1 0x40 MLOAD PUSH2 0x188 SWAP2 SWAP1 PUSH2 0x1256 JUMP JUMPDEST PUSH1 0x40 MLOAD DUP1 SWAP2 SUB SWAP1 RETURN JUMPDEST PUSH2 0x199 PUSH2 0x3BB JUMP JUMPDEST STOP JUMPDEST PUSH2 0x1B5 PUSH1 0x4 DUP1 CALLDATASIZE SUB DUP2 ADD SWAP1 PUSH2 0x1B0 SWAP2 SWAP1 PUSH2 0x13BD JUMP JUMPDEST PUSH2 0x54A JUMP JUMPDEST PUSH1 0x40 MLOAD PUSH2 0x1C2 SWAP2 SWAP1 PUSH2 0x1446 JUMP JUMPDEST PUSH1 0x40 MLOAD DUP1 SWAP2 SUB SWAP1 RETURN JUMPDEST PUSH2 0x1E5 PUSH1 0x4 DUP1 CALLDATASIZE SUB DUP2 ADD SWAP1 PUSH2 0x1E0 SWAP2 SWAP1 PUSH2 0x1481 JUMP JUMPDEST PUSH2 0xA54 JUMP JUMPDEST STOP JUMPDEST PUSH2 0x1EF PUSH2 0xAE0 JUMP JUMPDEST PUSH1 0x40 MLOAD PUSH2 0x1FC SWAP2 SWAP1 PUSH2 0x14D7 JUMP JUMPDEST PUSH1 0x40 MLOAD DUP1 SWAP2 SUB SWAP1 RETURN JUMPDEST PUSH2 0x21F PUSH1 0x4 DUP1 CALLDATASIZE SUB DUP2 ADD SWAP1 PUSH2 0x21A SWAP2 SWAP1 PUSH2 0x151A JUMP JUMPDEST PUSH2 0xB07 JUMP JUMPDEST STOP JUMPDEST PUSH2 0x229 PUSH2 0xB4F JUMP JUMPDEST PUSH1 0x40 MLOAD PUSH2 0x236 SWAP2 SWAP1 PUSH2 0x14D7 JUMP JUMPDEST PUSH1 0x40 MLOAD DUP1 SWAP2 SUB SWAP1 RETURN JUMPDEST PUSH2 0x259 PUSH1 0x4 DUP1 CALLDATASIZE SUB DUP2 ADD SWAP1 PUSH2 0x254 SWAP2 SWAP1 PUSH2 0x151A JUMP JUMPDEST PUSH2 0xB76 JUMP JUMPDEST STOP JUMPDEST PUSH2 0x275 PUSH1 0x4 DUP1 CALLDATASIZE SUB DUP2 ADD SWAP1 PUSH2 0x270 SWAP2 SWAP1 PUSH2 0x1558 JUMP JUMPDEST PUSH2 0xBBE JUMP JUMPDEST STOP JUMPDEST PUSH2 0x291 PUSH1 0x4 DUP1 CALLDATASIZE SUB DUP2 ADD SWAP1 PUSH2 0x28C SWAP2 SWAP1 PUSH2 0x1331 JUMP JUMPDEST PUSH2 0xC1E JUMP JUMPDEST STOP JUMPDEST PUSH0 PUSH32 0x85572FFB00000000000000000000000000000000000000000000000000000000 PUSH28 0xFFFFFFFFFFFFFFFFFFFFFFFFFFFFFFFFFFFFFFFFFFFFFFFFFFFFFFFF NOT AND DUP3 PUSH28 0xFFFFFFFFFFFFFFFFFFFFFFFFFFFFFFFFFFFFFFFFFFFFFFFFFFFFFFFF NOT AND EQ DUP1 PUSH2 0x35D JUMPI POP PUSH32 0x1FFC9A700000000000000000000000000000000000000000000000000000000 PUSH28 0xFFFFFFFFFFFFFFFFFFFFFFFFFFFFFFFFFFFFFFFFFFFFFFFFFFFFFFFF NOT AND DUP3 PUSH28 0xFFFFFFFFFFFFFFFFFFFFFFFFFFFFFFFFFFFFFFFFFFFFFFFFFFFFFFFF NOT AND EQ JUMPDEST SWAP1 POP SWAP2 SWAP1 POP JUMP JUMPDEST PUSH1 0x5 PUSH1 0x20 MSTORE DUP1 PUSH0 MSTORE PUSH1 0x40 PUSH0 KECCAK256 PUSH0 SWAP2 POP SLOAD SWAP1 PUSH2 0x100 EXP SWAP1 DIV PUSH1 0xFF AND DUP2 JUMP JUMPDEST PUSH1 0x6 PUSH1 0x20 MSTORE DUP1 PUSH0 MSTORE PUSH1 0x40 PUSH0 KECCAK256 PUSH0 SWAP2 POP SLOAD SWAP1 PUSH2 0x100 EXP SWAP1 DIV PUSH1 0xFF AND DUP2 JUMP JUMPDEST PUSH1 0x4 PUSH1 0x20 MSTORE DUP1 PUSH0 MSTORE PUSH1 0x40 PUSH0 KECCAK256 PUSH0 SWAP2 POP SLOAD SWAP1 PUSH2 0x100 EXP SWAP1 DIV PUSH1 0xFF AND DUP2 JUMP JUMPDEST PUSH1 0x1 PUSH0 SWAP1 SLOAD SWAP1 PUSH2 0x100 EXP SWAP1 DIV PUSH20 0xFFFFFFFFFFFFFFFFFFFFFFFFFFFFFFFFFFFFFFFF AND PUSH20 0xFFFFFFFFFFFFFFFFFFFFFFFFFFFFFFFFFFFFFFFF AND CALLER PUSH20 0xFFFFFFFFFFFFFFFFFFFFFFFFFFFFFFFFFFFFFFFF AND EQ PUSH2 0x44A JUMPI PUSH1 0x40 MLOAD PUSH32 0x8C379A000000000000000000000000000000000000000000000000000000000 DUP2 MSTORE PUSH1 0x4 ADD PUSH2 0x441 SWAP1 PUSH2 0x15F0 JUMP JUMPDEST PUSH1 0x40 MLOAD DUP1 SWAP2 SUB SWAP1 REVERT JUMPDEST PUSH0 DUP1 PUSH0 SWAP1 SLOAD SWAP1 PUSH2 0x100 EXP SWAP1 DIV PUSH20 0xFFFFFFFFFFFFFFFFFFFFFFFFFFFFFFFFFFFFFFFF AND SWAP1 POP CALLER PUSH0 DUP1 PUSH2 0x100 EXP DUP2 SLOAD DUP2 PUSH20 0xFFFFFFFFFFFFFFFFFFFFFFFFFFFFFFFFFFFFFFFF MUL NOT AND SWAP1 DUP4 PUSH20 0xFFFFFFFFFFFFFFFFFFFFFFFFFFFFFFFFFFFFFFFF AND MUL OR SWAP1 SSTORE POP PUSH0 PUSH1 0x1 PUSH0 PUSH2 0x100 EXP DUP2 SLOAD DUP2 PUSH20 0xFFFFFFFFFFFFFFFFFFFFFFFFFFFFFFFFFFFFFFFF MUL NOT AND SWAP1 DUP4 PUSH20 0xFFFFFFFFFFFFFFFFFFFFFFFFFFFFFFFFFFFFFFFF AND MUL OR SWAP1 SSTORE POP CALLER PUSH20 0xFFFFFFFFFFFFFFFFFFFFFFFFFFFFFFFFFFFFFFFF AND DUP2 PUSH20 0xFFFFFFFFFFFFFFFFFFFFFFFFFFFFFFFFFFFFFFFF AND PUSH32 0x8BE0079C531659141344CD1FD0A4F28419497F9722A3DAAFE3B4186F6B6457E0 PUSH1 0x40 MLOAD PUSH1 0x40 MLOAD DUP1 SWAP2 SUB SWAP1 LOG3 POP JUMP JUMPDEST PUSH0 PUSH2 0x553 PUSH2 0xC32 JUMP JUMPDEST DUP5 PUSH1 0x4 PUSH0 DUP3 PUSH8 0xFFFFFFFFFFFFFFFF AND PUSH8 0xFFFFFFFFFFFFFFFF AND DUP2 MSTORE PUSH1 0x20 ADD SWAP1 DUP2 MSTORE PUSH1 0x20 ADD PUSH0 KECCAK256 PUSH0 SWAP1 SLOAD SWAP1 PUSH2 0x100 EXP SWAP1 DIV PUSH1 0xFF AND PUSH2 0x5C7 JUMPI DUP1 PUSH1 0x40 MLOAD PUSH32 0xA503CDB00000000000000000000000000000000000000000000000000000000 DUP2 MSTORE PUSH1 0x4 ADD PUSH2 0x5BE SWAP2 SWAP1 PUSH2 0x161D JUMP JUMPDEST PUSH1 0x40 MLOAD DUP1 SWAP2 SUB SWAP1 REVERT JUMPDEST DUP5 PUSH0 PUSH20 0xFFFFFFFFFFFFFFFFFFFFFFFFFFFFFFFFFFFFFFFF AND DUP2 PUSH20 0xFFFFFFFFFFFFFFFFFFFFFFFFFFFFFFFFFFFFFFFF AND SUB PUSH2 0x62D JUMPI PUSH1 0x40 MLOAD PUSH32 0xA05FF47E00000000000000000000000000000000000000000000000000000000 DUP2 MSTORE PUSH1 0x4 ADD PUSH1 0x40 MLOAD DUP1 SWAP2 SUB SWAP1 REVERT JUMPDEST PUSH0 PUSH2 0x65B DUP8 DUP8 DUP8 PUSH1 0x7 PUSH0 SWAP1 SLOAD SWAP1 PUSH2 0x100 EXP SWAP1 DIV PUSH20 0xFFFFFFFFFFFFFFFFFFFFFFFFFFFFFFFFFFFFFFFF AND PUSH2 0xCC1 JUMP JUMPDEST SWAP1 POP PUSH0 ADDRESS PUSH20 0xFFFFFFFFFFFFFFFFFFFFFFFFFFFFFFFFFFFFFFFF AND PUSH4 0xB0F479A1 PUSH1 0x40 MLOAD DUP2 PUSH4 0xFFFFFFFF AND PUSH1 0xE0 SHL DUP2 MSTORE PUSH1 0x4 ADD PUSH1 0x20 PUSH1 0x40 MLOAD DUP1 DUP4 SUB DUP2 DUP7 GAS STATICCALL ISZERO DUP1 ISZERO PUSH2 0x6A7 JUMPI RETURNDATASIZE PUSH0 DUP1 RETURNDATACOPY RETURNDATASIZE PUSH0 REVERT JUMPDEST POP POP POP POP PUSH1 0x40 MLOAD RETURNDATASIZE PUSH1 0x1F NOT PUSH1 0x1F DUP3 ADD AND DUP3 ADD DUP1 PUSH1 0x40 MSTORE POP DUP2 ADD SWAP1 PUSH2 0x6CB SWAP2 SWAP1 PUSH2 0x164A JUMP JUMPDEST SWAP1 POP PUSH0 DUP2 PUSH20 0xFFFFFFFFFFFFFFFFFFFFFFFFFFFFFFFFFFFFFFFF AND PUSH4 0x20487DED DUP12 DUP6 PUSH1 0x40 MLOAD DUP4 PUSH4 0xFFFFFFFF AND PUSH1 0xE0 SHL DUP2 MSTORE PUSH1 0x4 ADD PUSH2 0x709 SWAP3 SWAP2 SWAP1 PUSH2 0x1869 JUMP JUMPDEST PUSH1 0x20 PUSH1 0x40 MLOAD DUP1 DUP4 SUB DUP2 DUP7 GAS STATICCALL ISZERO DUP1 ISZERO PUSH2 0x724 JUMPI RETURNDATASIZE PUSH0 DUP1 RETURNDATACOPY RETURNDATASIZE PUSH0 REVERT JUMPDEST POP POP POP POP PUSH1 0x40 MLOAD RETURNDATASIZE PUSH1 0x1F NOT PUSH1 0x1F DUP3 ADD AND DUP3 ADD DUP1 PUSH1 0x40 MSTORE POP DUP2 ADD SWAP1 PUSH2 0x748 SWAP2 SWAP1 PUSH2 0x18C1 JUMP JUMPDEST SWAP1 POP PUSH1 0x7 PUSH0 SWAP1 SLOAD SWAP1 PUSH2 0x100 EXP SWAP1 DIV PUSH20 0xFFFFFFFFFFFFFFFFFFFFFFFFFFFFFFFFFFFFFFFF AND PUSH20 0xFFFFFFFFFFFFFFFFFFFFFFFFFFFFFFFFFFFFFFFF AND PUSH4 0x70A08231 ADDRESS PUSH1 0x40 MLOAD DUP3 PUSH4 0xFFFFFFFF AND PUSH1 0xE0 SHL DUP2 MSTORE PUSH1 0x4 ADD PUSH2 0x7A4 SWAP2 SWAP1 PUSH2 0x14D7 JUMP JUMPDEST PUSH1 0x20 PUSH1 0x40 MLOAD DUP1 DUP4 SUB DUP2 DUP7 GAS STATICCALL ISZERO DUP1 ISZERO PUSH2 0x7BF JUMPI RETURNDATASIZE PUSH0 DUP1 RETURNDATACOPY RETURNDATASIZE PUSH0 REVERT JUMPDEST POP POP POP POP PUSH1 0x40 MLOAD RETURNDATASIZE PUSH1 0x1F NOT PUSH1 0x1F DUP3 ADD AND DUP3 ADD DUP1 PUSH1 0x40 MSTORE POP DUP2 ADD SWAP1 PUSH2 0x7E3 SWAP2 SWAP1 PUSH2 0x18C1 JUMP JUMPDEST DUP2 GT ISZERO PUSH2 0x8C1 JUMPI PUSH1 0x7 PUSH0 SWAP1 SLOAD SWAP1 PUSH2 0x100 EXP SWAP1 DIV PUSH20 0xFFFFFFFFFFFFFFFFFFFFFFFFFFFFFFFFFFFFFFFF AND PUSH20 0xFFFFFFFFFFFFFFFFFFFFFFFFFFFFFFFFFFFFFFFF AND PUSH4 0x70A08231 ADDRESS PUSH1 0x40 MLOAD DUP3 PUSH4 0xFFFFFFFF AND PUSH1 0xE0 SHL DUP2 MSTORE PUSH1 0x4 ADD PUSH2 0x844 SWAP2 SWAP1 PUSH2 0x14D7 JUMP JUMPDEST PUSH1 0x20 PUSH1 0x40 MLOAD DUP1 DUP4 SUB DUP2 DUP7 GAS STATICCALL ISZERO DUP1 ISZERO PUSH2 0x85F JUMPI RETURNDATASIZE PUSH0 DUP1 RETURNDATACOPY RETURNDATASIZE PUSH0 REVERT JUMPDEST POP POP POP POP PUSH1 0x40 MLOAD RETURNDATASIZE PUSH1 0x1F NOT PUSH1 0x1F DUP3 ADD AND DUP3 ADD DUP1 PUSH1 0x40 MSTORE POP DUP2 ADD SWAP1 PUSH2 0x883 SWAP2 SWAP1 PUSH2 0x18C1 JUMP JUMPDEST DUP2 PUSH1 0x40 MLOAD PUSH32 0x8F0F420600000000000000000000000000000000000000000000000000000000 DUP2 MSTORE PUSH1 0x4 ADD PUSH2 0x8B8 SWAP3 SWAP2 SWAP1 PUSH2 0x18FB JUMP JUMPDEST PUSH1 0x40 MLOAD DUP1 SWAP2 SUB SWAP1 REVERT JUMPDEST PUSH1 0x7 PUSH0 SWAP1 SLOAD SWAP1 PUSH2 0x100 EXP SWAP1 DIV PUSH20 0xFFFFFFFFFFFFFFFFFFFFFFFFFFFFFFFFFFFFFFFF AND PUSH20 0xFFFFFFFFFFFFFFFFFFFFFFFFFFFFFFFFFFFFFFFF AND PUSH4 0x95EA7B3 DUP4 DUP4 PUSH1 0x40 MLOAD DUP4 PUSH4 0xFFFFFFFF AND PUSH1 0xE0 SHL DUP2 MSTORE PUSH1 0x4 ADD PUSH2 0x91D SWAP3 SWAP2 SWAP1 PUSH2 0x1922 JUMP JUMPDEST PUSH1 0x20 PUSH1 0x40 MLOAD DUP1 DUP4 SUB DUP2 PUSH0 DUP8 GAS CALL ISZERO DUP1 ISZERO PUSH2 0x939 JUMPI RETURNDATASIZE PUSH0 DUP1 RETURNDATACOPY RETURNDATASIZE PUSH0 REVERT JUMPDEST POP POP POP POP PUSH1 0x40 MLOAD RETURNDATASIZE PUSH1 0x1F NOT PUSH1 0x1F DUP3 ADD AND DUP3 ADD DUP1 PUSH1 0x40 MSTORE POP DUP2 ADD SWAP1 PUSH2 0x95D SWAP2 SWAP1 PUSH2 0x195D JUMP JUMPDEST POP DUP2 PUSH20 0xFFFFFFFFFFFFFFFFFFFFFFFFFFFFFFFFFFFFFFFF AND PUSH4 0x96F4E9F9 DUP12 DUP6 PUSH1 0x40 MLOAD DUP4 PUSH4 0xFFFFFFFF AND PUSH1 0xE0 SHL DUP2 MSTORE PUSH1 0x4 ADD PUSH2 0x999 SWAP3 SWAP2 SWAP1 PUSH2 0x1869 JUMP JUMPDEST PUSH1 0x20 PUSH1 0x40 MLOAD DUP1 DUP4 SUB DUP2 PUSH0 DUP8 GAS CALL ISZERO DUP1 ISZERO PUSH2 0x9B5 JUMPI RETURNDATASIZE PUSH0 DUP1 RETURNDATACOPY RETURNDATASIZE PUSH0 REVERT JUMPDEST POP POP POP POP PUSH1 0x40 MLOAD RETURNDATASIZE PUSH1 0x1F NOT PUSH1 0x1F DUP3 ADD AND DUP3 ADD DUP1 PUSH1 0x40 MSTORE POP DUP2 ADD SWAP1 PUSH2 0x9D9 SWAP2 SWAP1 PUSH2 0x19B2 JUMP JUMPDEST SWAP6 POP DUP10 PUSH8 0xFFFFFFFFFFFFFFFF AND DUP7 PUSH32 0xD36445359B3C6E26C120659AEF090CE0F2EB005CF9AF450D11AA1225609B4F4D DUP12 DUP12 DUP12 PUSH1 0x7 PUSH0 SWAP1 SLOAD SWAP1 PUSH2 0x100 EXP SWAP1 DIV PUSH20 0xFFFFFFFFFFFFFFFFFFFFFFFFFFFFFFFFFFFFFFFF AND DUP8 PUSH1 0x40 MLOAD PUSH2 0xA3F SWAP6 SWAP5 SWAP4 SWAP3 SWAP2 SWAP1 PUSH2 0x1A17 JUMP JUMPDEST PUSH1 0x40 MLOAD DUP1 SWAP2 SUB SWAP1 LOG3 POP POP POP POP POP SWAP5 SWAP4 POP POP POP POP JUMP JUMPDEST PUSH2 0xA5C PUSH2 0xB4F JUMP JUMPDEST PUSH20 0xFFFFFFFFFFFFFFFFFFFFFFFFFFFFFFFFFFFFFFFF AND CALLER PUSH20 0xFFFFFFFFFFFFFFFFFFFFFFFFFFFFFFFFFFFFFFFF AND EQ PUSH2 0xACB JUMPI CALLER PUSH1 0x40 MLOAD PUSH32 0xD7F7333400000000000000000000000000000000000000000000000000000000 DUP2 MSTORE PUSH1 0x4 ADD PUSH2 0xAC2 SWAP2 SWAP1 PUSH2 0x14D7 JUMP JUMPDEST PUSH1 0x40 MLOAD DUP1 SWAP2 SUB SWAP1 REVERT JUMPDEST PUSH2 0xADD DUP2 PUSH2 0xAD8 SWAP1 PUSH2 0x1D97 JUMP JUMPDEST PUSH2 0xDC5 JUMP JUMPDEST POP JUMP JUMPDEST PUSH0 DUP1 PUSH0 SWAP1 SLOAD SWAP1 PUSH2 0x100 EXP SWAP1 DIV PUSH20 0xFFFFFFFFFFFFFFFFFFFFFFFFFFFFFFFFFFFFFFFF AND SWAP1 POP SWAP1 JUMP JUMPDEST PUSH2 0xB0F PUSH2 0xC32 JUMP JUMPDEST DUP1 PUSH1 0x4 PUSH0 DUP5 PUSH8 0xFFFFFFFFFFFFFFFF AND PUSH8 0xFFFFFFFFFFFFFFFF AND DUP2 MSTORE PUSH1 0x20 ADD SWAP1 DUP2 MSTORE PUSH1 0x20 ADD PUSH0 KECCAK256 PUSH0 PUSH2 0x100 EXP DUP2 SLOAD DUP2 PUSH1 0xFF MUL NOT AND SWAP1 DUP4 ISZERO ISZERO MUL OR SWAP1 SSTORE POP POP POP JUMP JUMPDEST PUSH0 PUSH32 0x0 SWAP1 POP SWAP1 JUMP JUMPDEST PUSH2 0xB7E PUSH2 0xC32 JUMP JUMPDEST DUP1 PUSH1 0x5 PUSH0 DUP5 PUSH8 0xFFFFFFFFFFFFFFFF AND PUSH8 0xFFFFFFFFFFFFFFFF AND DUP2 MSTORE PUSH1 0x20 ADD SWAP1 DUP2 MSTORE PUSH1 0x20 ADD PUSH0 KECCAK256 PUSH0 PUSH2 0x100 EXP DUP2 SLOAD DUP2 PUSH1 0xFF MUL NOT AND SWAP1 DUP4 ISZERO ISZERO MUL OR SWAP1 SSTORE POP POP POP JUMP JUMPDEST PUSH2 0xBC6 PUSH2 0xC32 JUMP JUMPDEST DUP1 PUSH1 0x6 PUSH0 DUP5 PUSH20 0xFFFFFFFFFFFFFFFFFFFFFFFFFFFFFFFFFFFFFFFF AND PUSH20 0xFFFFFFFFFFFFFFFFFFFFFFFFFFFFFFFFFFFFFFFF AND DUP2 MSTORE PUSH1 0x20 ADD SWAP1 DUP2 MSTORE PUSH1 0x20 ADD PUSH0 KECCAK256 PUSH0 PUSH2 0x100 EXP DUP2 SLOAD DUP2 PUSH1 0xFF MUL NOT AND SWAP1 DUP4 ISZERO ISZERO MUL OR SWAP1 SSTORE POP POP POP JUMP JUMPDEST PUSH2 0xC26 PUSH2 0xC32 JUMP JUMPDEST PUSH2 0xC2F DUP2 PUSH2 0xF90 JUMP JUMPDEST POP JUMP JUMPDEST PUSH0 DUP1 SLOAD SWAP1 PUSH2 0x100 EXP SWAP1 DIV PUSH20 0xFFFFFFFFFFFFFFFFFFFFFFFFFFFFFFFFFFFFFFFF AND PUSH20 0xFFFFFFFFFFFFFFFFFFFFFFFFFFFFFFFFFFFFFFFF AND CALLER PUSH20 0xFFFFFFFFFFFFFFFFFFFFFFFFFFFFFFFFFFFFFFFF AND EQ PUSH2 0xCBF JUMPI PUSH1 0x40 MLOAD PUSH32 0x8C379A000000000000000000000000000000000000000000000000000000000 DUP2 MSTORE PUSH1 0x4 ADD PUSH2 0xCB6 SWAP1 PUSH2 0x1DF3 JUMP JUMPDEST PUSH1 0x40 MLOAD DUP1 SWAP2 SUB SWAP1 REVERT JUMPDEST JUMP JUMPDEST PUSH2 0xCC9 PUSH2 0x1139 JUMP JUMPDEST PUSH1 0x40 MLOAD DUP1 PUSH1 0xA0 ADD PUSH1 0x40 MSTORE DUP1 DUP7 PUSH1 0x40 MLOAD PUSH1 0x20 ADD PUSH2 0xCE5 SWAP2 SWAP1 PUSH2 0x14D7 JUMP JUMPDEST PUSH1 0x40 MLOAD PUSH1 0x20 DUP2 DUP4 SUB SUB DUP2 MSTORE SWAP1 PUSH1 0x40 MSTORE DUP2 MSTORE PUSH1 0x20 ADD DUP6 DUP6 PUSH1 0x40 MLOAD PUSH1 0x20 ADD PUSH2 0xD0C SWAP3 SWAP2 SWAP1 PUSH2 0x1E11 JUMP JUMPDEST PUSH1 0x40 MLOAD PUSH1 0x20 DUP2 DUP4 SUB SUB DUP2 MSTORE SWAP1 PUSH1 0x40 MSTORE DUP2 MSTORE PUSH1 0x20 ADD PUSH0 PUSH8 0xFFFFFFFFFFFFFFFF DUP2 GT ISZERO PUSH2 0xD3A JUMPI PUSH2 0xD39 PUSH2 0x1A67 JUMP JUMPDEST JUMPDEST PUSH1 0x40 MLOAD SWAP1 DUP1 DUP3 MSTORE DUP1 PUSH1 0x20 MUL PUSH1 0x20 ADD DUP3 ADD PUSH1 0x40 MSTORE DUP1 ISZERO PUSH2 0xD73 JUMPI DUP2 PUSH1 0x20 ADD JUMPDEST PUSH2 0xD60 PUSH2 0x117D JUMP JUMPDEST DUP2 MSTORE PUSH1 0x20 ADD SWAP1 PUSH1 0x1 SWAP1 SUB SWAP1 DUP2 PUSH2 0xD58 JUMPI SWAP1 POP JUMPDEST POP DUP2 MSTORE PUSH1 0x20 ADD DUP4 PUSH20 0xFFFFFFFFFFFFFFFFFFFFFFFFFFFFFFFFFFFFFFFF AND DUP2 MSTORE PUSH1 0x20 ADD PUSH2 0xDB8 PUSH1 0x40 MLOAD DUP1 PUSH1 0x40 ADD PUSH1 0x40 MSTORE DUP1 PUSH3 0x30D40 DUP2 MSTORE PUSH1 0x20 ADD PUSH1 0x1 ISZERO ISZERO DUP2 MSTORE POP PUSH2 0x10BA JUMP JUMPDEST DUP2 MSTORE POP SWAP1 POP SWAP5 SWAP4 POP POP POP POP JUMP JUMPDEST DUP1 PUSH1 0x20 ADD MLOAD DUP2 PUSH1 0x40 ADD MLOAD DUP1 PUSH1 0x20 ADD SWAP1 MLOAD DUP2 ADD SWAP1 PUSH2 0xDE2 SWAP2 SWAP1 PUSH2 0x1E6E JUMP JUMPDEST PUSH1 0x5 PUSH0 DUP4 PUSH8 0xFFFFFFFFFFFFFFFF AND PUSH8 0xFFFFFFFFFFFFFFFF AND DUP2 MSTORE PUSH1 0x20 ADD SWAP1 DUP2 MSTORE PUSH1 0x20 ADD PUSH0 KECCAK256 PUSH0 SWAP1 SLOAD SWAP1 PUSH2 0x100 EXP SWAP1 DIV PUSH1 0xFF AND PUSH2 0xE55 JUMPI DUP2 PUSH1 0x40 MLOAD PUSH32 0x9AFEB64400000000000000000000000000000000000000000000000000000000 DUP2 MSTORE PUSH1 0x4 ADD PUSH2 0xE4C SWAP2 SWAP1 PUSH2 0x161D JUMP JUMPDEST PUSH1 0x40 MLOAD DUP1 SWAP2 SUB SWAP1 REVERT JUMPDEST PUSH1 0x6 PUSH0 DUP3 PUSH20 0xFFFFFFFFFFFFFFFFFFFFFFFFFFFFFFFFFFFFFFFF AND PUSH20 0xFFFFFFFFFFFFFFFFFFFFFFFFFFFFFFFFFFFFFFFF AND DUP2 MSTORE PUSH1 0x20 ADD SWAP1 DUP2 MSTORE PUSH1 0x20 ADD PUSH0 KECCAK256 PUSH0 SWAP1 SLOAD SWAP1 PUSH2 0x100 EXP SWAP1 DIV PUSH1 0xFF AND PUSH2 0xEE0 JUMPI DUP1 PUSH1 0x40 MLOAD PUSH32 0x71811DF200000000000000000000000000000000000000000000000000000000 DUP2 MSTORE PUSH1 0x4 ADD PUSH2 0xED7 SWAP2 SWAP1 PUSH2 0x14D7 JUMP JUMPDEST PUSH1 0x40 MLOAD DUP1 SWAP2 SUB SWAP1 REVERT JUMPDEST DUP3 PUSH0 ADD MLOAD PUSH1 0x2 DUP2 SWAP1 SSTORE POP DUP3 PUSH1 0x60 ADD MLOAD DUP1 PUSH1 0x20 ADD SWAP1 MLOAD DUP2 ADD SWAP1 PUSH2 0xF02 SWAP2 SWAP1 PUSH2 0x1F37 JUMP JUMPDEST PUSH1 0x3 SWAP1 DUP2 PUSH2 0xF10 SWAP2 SWAP1 PUSH2 0x2182 JUMP JUMPDEST POP DUP3 PUSH1 0x20 ADD MLOAD PUSH8 0xFFFFFFFFFFFFFFFF AND DUP4 PUSH0 ADD MLOAD PUSH32 0xB1E312A29937CC11967B0E4A346FEF1AE132424EBABA9DC6D90249DBA053E87C DUP6 PUSH1 0x40 ADD MLOAD DUP1 PUSH1 0x20 ADD SWAP1 MLOAD DUP2 ADD SWAP1 PUSH2 0xF5D SWAP2 SWAP1 PUSH2 0x1E6E JUMP JUMPDEST DUP7 PUSH1 0x60 ADD MLOAD DUP1 PUSH1 0x20 ADD SWAP1 MLOAD DUP2 ADD SWAP1 PUSH2 0xF75 SWAP2 SWAP1 PUSH2 0x1F37 JUMP JUMPDEST PUSH1 0x40 MLOAD PUSH2 0xF83 SWAP3 SWAP2 SWAP1 PUSH2 0x22DB JUMP JUMPDEST PUSH1 0x40 MLOAD DUP1 SWAP2 SUB SWAP1 LOG3 POP POP POP JUMP JUMPDEST CALLER PUSH20 0xFFFFFFFFFFFFFFFFFFFFFFFFFFFFFFFFFFFFFFFF AND DUP2 PUSH20 0xFFFFFFFFFFFFFFFFFFFFFFFFFFFFFFFFFFFFFFFF AND SUB PUSH2 0xFFE JUMPI PUSH1 0x40 MLOAD PUSH32 0x8C379A000000000000000000000000000000000000000000000000000000000 DUP2 MSTORE PUSH1 0x4 ADD PUSH2 0xFF5 SWAP1 PUSH2 0x2353 JUMP JUMPDEST PUSH1 0x40 MLOAD DUP1 SWAP2 SUB SWAP1 REVERT JUMPDEST DUP1 PUSH1 0x1 PUSH0 PUSH2 0x100 EXP DUP2 SLOAD DUP2 PUSH20 0xFFFFFFFFFFFFFFFFFFFFFFFFFFFFFFFFFFFFFFFF MUL NOT AND SWAP1 DUP4 PUSH20 0xFFFFFFFFFFFFFFFFFFFFFFFFFFFFFFFFFFFFFFFF AND MUL OR SWAP1 SSTORE POP DUP1 PUSH20 0xFFFFFFFFFFFFFFFFFFFFFFFFFFFFFFFFFFFFFFFF AND PUSH0 DUP1 SLOAD SWAP1 PUSH2 0x100 EXP SWAP1 DIV PUSH20 0xFFFFFFFFFFFFFFFFFFFFFFFFFFFFFFFFFFFFFFFF AND PUSH20 0xFFFFFFFFFFFFFFFFFFFFFFFFFFFFFFFFFFFFFFFF AND PUSH32 0xED8889F560326EB138920D842192F0EB3DD22B4F139C87A2C57538E05BAE1278 PUSH1 0x40 MLOAD PUSH1 0x40 MLOAD DUP1 SWAP2 SUB SWAP1 LOG3 POP JUMP JUMPDEST PUSH1 0x60 PUSH4 0x181DCF10 PUSH1 0xE0 SHL DUP3 PUSH1 0x40 MLOAD PUSH1 0x24 ADD PUSH2 0x10D5 SWAP2 SWAP1 PUSH2 0x23AD JUMP JUMPDEST PUSH1 0x40 MLOAD PUSH1 0x20 DUP2 DUP4 SUB SUB DUP2 MSTORE SWAP1 PUSH1 0x40 MSTORE SWAP1 PUSH28 0xFFFFFFFFFFFFFFFFFFFFFFFFFFFFFFFFFFFFFFFFFFFFFFFFFFFFFFFF NOT AND PUSH1 0x20 DUP3 ADD DUP1 MLOAD PUSH28 0xFFFFFFFFFFFFFFFFFFFFFFFFFFFFFFFFFFFFFFFFFFFFFFFFFFFFFFFF DUP4 DUP2 DUP4 AND OR DUP4 MSTORE POP POP POP POP SWAP1 POP SWAP2 SWAP1 POP JUMP JUMPDEST PUSH1 0x40 MLOAD DUP1 PUSH1 0xA0 ADD PUSH1 0x40 MSTORE DUP1 PUSH1 0x60 DUP2 MSTORE PUSH1 0x20 ADD PUSH1 0x60 DUP2 MSTORE PUSH1 0x20 ADD PUSH1 0x60 DUP2 MSTORE PUSH1 0x20 ADD PUSH0 PUSH20 0xFFFFFFFFFFFFFFFFFFFFFFFFFFFFFFFFFFFFFFFF AND DUP2 MSTORE PUSH1 0x20 ADD PUSH1 0x60 DUP2 MSTORE POP SWAP1 JUMP JUMPDEST PUSH1 0x40 MLOAD DUP1 PUSH1 0x40 ADD PUSH1 0x40 MSTORE DUP1 PUSH0 PUSH20 0xFFFFFFFFFFFFFFFFFFFFFFFFFFFFFFFFFFFFFFFF AND DUP2 MSTORE PUSH1 0x20 ADD PUSH0 DUP2 MSTORE POP SWAP1 JUMP JUMPDEST PUSH0 PUSH1 0x40 MLOAD SWAP1 POP SWAP1 JUMP JUMPDEST PUSH0 DUP1 REVERT JUMPDEST PUSH0 DUP1 REVERT JUMPDEST PUSH0 PUSH32 0xFFFFFFFF00000000000000000000000000000000000000000000000000000000 DUP3 AND SWAP1 POP SWAP2 SWAP1 POP JUMP JUMPDEST PUSH2 0x11F0 DUP2 PUSH2 0x11BC JUMP JUMPDEST DUP2 EQ PUSH2 0x11FA JUMPI PUSH0 DUP1 REVERT JUMPDEST POP JUMP JUMPDEST PUSH0 DUP2 CALLDATALOAD SWAP1 POP PUSH2 0x120B DUP2 PUSH2 0x11E7 JUMP JUMPDEST SWAP3 SWAP2 POP POP JUMP JUMPDEST PUSH0 PUSH1 0x20 DUP3 DUP5 SUB SLT ISZERO PUSH2 0x1226 JUMPI PUSH2 0x1225 PUSH2 0x11B4 JUMP JUMPDEST JUMPDEST PUSH0 PUSH2 0x1233 DUP5 DUP3 DUP6 ADD PUSH2 0x11FD JUMP JUMPDEST SWAP2 POP POP SWAP3 SWAP2 POP POP JUMP JUMPDEST PUSH0 DUP2 ISZERO ISZERO SWAP1 POP SWAP2 SWAP1 POP JUMP JUMPDEST PUSH2 0x1250 DUP2 PUSH2 0x123C JUMP JUMPDEST DUP3 MSTORE POP POP JUMP JUMPDEST PUSH0 PUSH1 0x20 DUP3 ADD SWAP1 POP PUSH2 0x1269 PUSH0 DUP4 ADD DUP5 PUSH2 0x1247 JUMP JUMPDEST SWAP3 SWAP2 POP POP JUMP JUMPDEST PUSH0 PUSH8 0xFFFFFFFFFFFFFFFF DUP3 AND SWAP1 POP SWAP2 SWAP1 POP JUMP JUMPDEST PUSH2 0x128B DUP2 PUSH2 0x126F JUMP JUMPDEST DUP2 EQ PUSH2 0x1295 JUMPI PUSH0 DUP1 REVERT JUMPDEST POP JUMP JUMPDEST PUSH0 DUP2 CALLDATALOAD SWAP1 POP PUSH2 0x12A6 DUP2 PUSH2 0x1282 JUMP JUMPDEST SWAP3 SWAP2 POP POP JUMP JUMPDEST PUSH0 PUSH1 0x20 DUP3 DUP5 SUB SLT ISZERO PUSH2 0x12C1 JUMPI PUSH2 0x12C0 PUSH2 0x11B4 JUMP JUMPDEST JUMPDEST PUSH0 PUSH2 0x12CE DUP5 DUP3 DUP6 ADD PUSH2 0x1298 JUMP JUMPDEST SWAP2 POP POP SWAP3 SWAP2 POP POP JUMP JUMPDEST PUSH0 PUSH20 0xFFFFFFFFFFFFFFFFFFFFFFFFFFFFFFFFFFFFFFFF DUP3 AND SWAP1 POP SWAP2 SWAP1 POP JUMP JUMPDEST PUSH0 PUSH2 0x1300 DUP3 PUSH2 0x12D7 JUMP JUMPDEST SWAP1 POP SWAP2 SWAP1 POP JUMP JUMPDEST PUSH2 0x1310 DUP2 PUSH2 0x12F6 JUMP JUMPDEST DUP2 EQ PUSH2 0x131A JUMPI PUSH0 DUP1 REVERT JUMPDEST POP JUMP JUMPDEST PUSH0 DUP2 CALLDATALOAD SWAP1 POP PUSH2 0x132B DUP2 PUSH2 0x1307 JUMP JUMPDEST SWAP3 SWAP2 POP POP JUMP JUMPDEST PUSH0 PUSH1 0x20 DUP3 DUP5 SUB SLT ISZERO PUSH2 0x1346 JUMPI PUSH2 0x1345 PUSH2 0x11B4 JUMP JUMPDEST JUMPDEST PUSH0 PUSH2 0x1353 DUP5 DUP3 DUP6 ADD PUSH2 0x131D JUMP JUMPDEST SWAP2 POP POP SWAP3 SWAP2 POP POP JUMP JUMPDEST PUSH0 DUP1 REVERT JUMPDEST PUSH0 DUP1 REVERT JUMPDEST PUSH0 DUP1 REVERT JUMPDEST PUSH0 DUP1 DUP4 PUSH1 0x1F DUP5 ADD SLT PUSH2 0x137D JUMPI PUSH2 0x137C PUSH2 0x135C JUMP JUMPDEST JUMPDEST DUP3 CALLDATALOAD SWAP1 POP PUSH8 0xFFFFFFFFFFFFFFFF DUP2 GT ISZERO PUSH2 0x139A JUMPI PUSH2 0x1399 PUSH2 0x1360 JUMP JUMPDEST JUMPDEST PUSH1 0x20 DUP4 ADD SWAP2 POP DUP4 PUSH1 0x1 DUP3 MUL DUP4 ADD GT ISZERO PUSH2 0x13B6 JUMPI PUSH2 0x13B5 PUSH2 0x1364 JUMP JUMPDEST JUMPDEST SWAP3 POP SWAP3 SWAP1 POP JUMP JUMPDEST PUSH0 DUP1 PUSH0 DUP1 PUSH1 0x60 DUP6 DUP8 SUB SLT ISZERO PUSH2 0x13D5 JUMPI PUSH2 0x13D4 PUSH2 0x11B4 JUMP JUMPDEST JUMPDEST PUSH0 PUSH2 0x13E2 DUP8 DUP3 DUP9 ADD PUSH2 0x1298 JUMP JUMPDEST SWAP5 POP POP PUSH1 0x20 PUSH2 0x13F3 DUP8 DUP3 DUP9 ADD PUSH2 0x131D JUMP JUMPDEST SWAP4 POP POP PUSH1 0x40 DUP6 ADD CALLDATALOAD PUSH8 0xFFFFFFFFFFFFFFFF DUP2 GT ISZERO PUSH2 0x1414 JUMPI PUSH2 0x1413 PUSH2 0x11B8 JUMP JUMPDEST JUMPDEST PUSH2 0x1420 DUP8 DUP3 DUP9 ADD PUSH2 0x1368 JUMP JUMPDEST SWAP3 POP SWAP3 POP POP SWAP3 SWAP6 SWAP2 SWAP5 POP SWAP3 POP JUMP JUMPDEST PUSH0 DUP2 SWAP1 POP SWAP2 SWAP1 POP JUMP JUMPDEST PUSH2 0x1440 DUP2 PUSH2 0x142E JUMP JUMPDEST DUP3 MSTORE POP POP JUMP JUMPDEST PUSH0 PUSH1 0x20 DUP3 ADD SWAP1 POP PUSH2 0x1459 PUSH0 DUP4 ADD DUP5 PUSH2 0x1437 JUMP JUMPDEST SWAP3 SWAP2 POP POP JUMP JUMPDEST PUSH0 DUP1 REVERT JUMPDEST PUSH0 PUSH1 0xA0 DUP3 DUP5 SUB SLT ISZERO PUSH2 0x1478 JUMPI PUSH2 0x1477 PUSH2 0x145F JUMP JUMPDEST JUMPDEST DUP2 SWAP1 POP SWAP3 SWAP2 POP POP JUMP JUMPDEST PUSH0 PUSH1 0x20 DUP3 DUP5 SUB SLT ISZERO PUSH2 0x1496 JUMPI PUSH2 0x1495 PUSH2 0x11B4 JUMP JUMPDEST JUMPDEST PUSH0 DUP3 ADD CALLDATALOAD PUSH8 0xFFFFFFFFFFFFFFFF DUP2 GT ISZERO PUSH2 0x14B3 JUMPI PUSH2 0x14B2 PUSH2 0x11B8 JUMP JUMPDEST JUMPDEST PUSH2 0x14BF DUP5 DUP3 DUP6 ADD PUSH2 0x1463 JUMP JUMPDEST SWAP2 POP POP SWAP3 SWAP2 POP POP JUMP JUMPDEST PUSH2 0x14D1 DUP2 PUSH2 0x12F6 JUMP JUMPDEST DUP3 MSTORE POP POP JUMP JUMPDEST PUSH0 PUSH1 0x20 DUP3 ADD SWAP1 POP PUSH2 0x14EA PUSH0 DUP4 ADD DUP5 PUSH2 0x14C8 JUMP JUMPDEST SWAP3 SWAP2 POP POP JUMP JUMPDEST PUSH2 0x14F9 DUP2 PUSH2 0x123C JUMP JUMPDEST DUP2 EQ PUSH2 0x1503 JUMPI PUSH0 DUP1 REVERT JUMPDEST POP JUMP JUMPDEST PUSH0 DUP2 CALLDATALOAD SWAP1 POP PUSH2 0x1514 DUP2 PUSH2 0x14F0 JUMP JUMPDEST SWAP3 SWAP2 POP POP JUMP JUMPDEST PUSH0 DUP1 PUSH1 0x40 DUP4 DUP6 SUB SLT ISZERO PUSH2 0x1530 JUMPI PUSH2 0x152F PUSH2 0x11B4 JUMP JUMPDEST JUMPDEST PUSH0 PUSH2 0x153D DUP6 DUP3 DUP7 ADD PUSH2 0x1298 JUMP JUMPDEST SWAP3 POP POP PUSH1 0x20 PUSH2 0x154E DUP6 DUP3 DUP7 ADD PUSH2 0x1506 JUMP JUMPDEST SWAP2 POP POP SWAP3 POP SWAP3 SWAP1 POP JUMP JUMPDEST PUSH0 DUP1 PUSH1 0x40 DUP4 DUP6 SUB SLT ISZERO PUSH2 0x156E JUMPI PUSH2 0x156D PUSH2 0x11B4 JUMP JUMPDEST JUMPDEST PUSH0 PUSH2 0x157B DUP6 DUP3 DUP7 ADD PUSH2 0x131D JUMP JUMPDEST SWAP3 POP POP PUSH1 0x20 PUSH2 0x158C DUP6 DUP3 DUP7 ADD PUSH2 0x1506 JUMP JUMPDEST SWAP2 POP POP SWAP3 POP SWAP3 SWAP1 POP JUMP JUMPDEST PUSH0 DUP3 DUP3 MSTORE PUSH1 0x20 DUP3 ADD SWAP1 POP SWAP3 SWAP2 POP POP JUMP JUMPDEST PUSH32 0x4D7573742062652070726F706F736564206F776E657200000000000000000000 PUSH0 DUP3 ADD MSTORE POP JUMP JUMPDEST PUSH0 PUSH2 0x15DA PUSH1 0x16 DUP4 PUSH2 0x1596 JUMP JUMPDEST SWAP2 POP PUSH2 0x15E5 DUP3 PUSH2 0x15A6 JUMP JUMPDEST PUSH1 0x20 DUP3 ADD SWAP1 POP SWAP2 SWAP1 POP JUMP JUMPDEST PUSH0 PUSH1 0x20 DUP3 ADD SWAP1 POP DUP2 DUP2 SUB PUSH0 DUP4 ADD MSTORE PUSH2 0x1607 DUP2 PUSH2 0x15CE JUMP JUMPDEST SWAP1 POP SWAP2 SWAP1 POP JUMP JUMPDEST PUSH2 0x1617 DUP2 PUSH2 0x126F JUMP JUMPDEST DUP3 MSTORE POP POP JUMP JUMPDEST PUSH0 PUSH1 0x20 DUP3 ADD SWAP1 POP PUSH2 0x1630 PUSH0 DUP4 ADD DUP5 PUSH2 0x160E JUMP JUMPDEST SWAP3 SWAP2 POP POP JUMP JUMPDEST PUSH0 DUP2 MLOAD SWAP1 POP PUSH2 0x1644 DUP2 PUSH2 0x1307 JUMP JUMPDEST SWAP3 SWAP2 POP POP JUMP JUMPDEST PUSH0 PUSH1 0x20 DUP3 DUP5 SUB SLT ISZERO PUSH2 0x165F JUMPI PUSH2 0x165E PUSH2 0x11B4 JUMP JUMPDEST JUMPDEST PUSH0 PUSH2 0x166C DUP5 DUP3 DUP6 ADD PUSH2 0x1636 JUMP JUMPDEST SWAP2 POP POP SWAP3 SWAP2 POP POP JUMP JUMPDEST PUSH0 DUP2 MLOAD SWAP1 POP SWAP2 SWAP1 POP JUMP JUMPDEST PUSH0 DUP3 DUP3 MSTORE PUSH1 0x20 DUP3 ADD SWAP1 POP SWAP3 SWAP2 POP POP JUMP JUMPDEST DUP3 DUP2 DUP4 MCOPY PUSH0 DUP4 DUP4 ADD MSTORE POP POP POP JUMP JUMPDEST PUSH0 PUSH1 0x1F NOT PUSH1 0x1F DUP4 ADD AND SWAP1 POP SWAP2 SWAP1 POP JUMP JUMPDEST PUSH0 PUSH2 0x16B7 DUP3 PUSH2 0x1675 JUMP JUMPDEST PUSH2 0x16C1 DUP2 DUP6 PUSH2 0x167F JUMP JUMPDEST SWAP4 POP PUSH2 0x16D1 DUP2 DUP6 PUSH1 0x20 DUP7 ADD PUSH2 0x168F JUMP JUMPDEST PUSH2 0x16DA DUP2 PUSH2 0x169D JUMP JUMPDEST DUP5 ADD SWAP2 POP POP SWAP3 SWAP2 POP POP JUMP JUMPDEST PUSH0 DUP2 MLOAD SWAP1 POP SWAP2 SWAP1 POP JUMP JUMPDEST PUSH0 DUP3 DUP3 MSTORE PUSH1 0x20 DUP3 ADD SWAP1 POP SWAP3 SWAP2 POP POP JUMP JUMPDEST PUSH0 DUP2 SWAP1 POP PUSH1 0x20 DUP3 ADD SWAP1 POP SWAP2 SWAP1 POP JUMP JUMPDEST PUSH2 0x1717 DUP2 PUSH2 0x12F6 JUMP JUMPDEST DUP3 MSTORE POP POP JUMP JUMPDEST PUSH0 DUP2 SWAP1 POP SWAP2 SWAP1 POP JUMP JUMPDEST PUSH2 0x172F DUP2 PUSH2 0x171D JUMP JUMPDEST DUP3 MSTORE POP POP JUMP JUMPDEST PUSH1 0x40 DUP3 ADD PUSH0 DUP3 ADD MLOAD PUSH2 0x1749 PUSH0 DUP6 ADD DUP3 PUSH2 0x170E JUMP JUMPDEST POP PUSH1 0x20 DUP3 ADD MLOAD PUSH2 0x175C PUSH1 0x20 DUP6 ADD DUP3 PUSH2 0x1726 JUMP JUMPDEST POP POP POP POP JUMP JUMPDEST PUSH0 PUSH2 0x176D DUP4 DUP4 PUSH2 0x1735 JUMP JUMPDEST PUSH1 0x40 DUP4 ADD SWAP1 POP SWAP3 SWAP2 POP POP JUMP JUMPDEST PUSH0 PUSH1 0x20 DUP3 ADD SWAP1 POP SWAP2 SWAP1 POP JUMP JUMPDEST PUSH0 PUSH2 0x178F DUP3 PUSH2 0x16E5 JUMP JUMPDEST PUSH2 0x1799 DUP2 DUP6 PUSH2 0x16EF JUMP JUMPDEST SWAP4 POP PUSH2 0x17A4 DUP4 PUSH2 0x16FF JUMP JUMPDEST DUP1 PUSH0 JUMPDEST DUP4 DUP2 LT ISZERO PUSH2 0x17D4 JUMPI DUP2 MLOAD PUSH2 0x17BB DUP9 DUP3 PUSH2 0x1762 JUMP JUMPDEST SWAP8 POP PUSH2 0x17C6 DUP4 PUSH2 0x1779 JUMP JUMPDEST SWAP3 POP POP PUSH1 0x1 DUP2 ADD SWAP1 POP PUSH2 0x17A7 JUMP JUMPDEST POP DUP6 SWAP4 POP POP POP POP SWAP3 SWAP2 POP POP JUMP JUMPDEST PUSH0 PUSH1 0xA0 DUP4 ADD PUSH0 DUP4 ADD MLOAD DUP5 DUP3 SUB PUSH0 DUP7 ADD MSTORE PUSH2 0x17FB DUP3 DUP3 PUSH2 0x16AD JUMP JUMPDEST SWAP2 POP POP PUSH1 0x20 DUP4 ADD MLOAD DUP5 DUP3 SUB PUSH1 0x20 DUP7 ADD MSTORE PUSH2 0x1815 DUP3 DUP3 PUSH2 0x16AD JUMP JUMPDEST SWAP2 POP POP PUSH1 0x40 DUP4 ADD MLOAD DUP5 DUP3 SUB PUSH1 0x40 DUP7 ADD MSTORE PUSH2 0x182F DUP3 DUP3 PUSH2 0x1785 JUMP JUMPDEST SWAP2 POP POP PUSH1 0x60 DUP4 ADD MLOAD PUSH2 0x1844 PUSH1 0x60 DUP7 ADD DUP3 PUSH2 0x170E JUMP JUMPDEST POP PUSH1 0x80 DUP4 ADD MLOAD DUP5 DUP3 SUB PUSH1 0x80 DUP7 ADD MSTORE PUSH2 0x185C DUP3 DUP3 PUSH2 0x16AD JUMP JUMPDEST SWAP2 POP POP DUP1 SWAP2 POP POP SWAP3 SWAP2 POP POP JUMP JUMPDEST PUSH0 PUSH1 0x40 DUP3 ADD SWAP1 POP PUSH2 0x187C PUSH0 DUP4 ADD DUP6 PUSH2 0x160E JUMP JUMPDEST DUP2 DUP2 SUB PUSH1 0x20 DUP4 ADD MSTORE PUSH2 0x188E DUP2 DUP5 PUSH2 0x17E1 JUMP JUMPDEST SWAP1 POP SWAP4 SWAP3 POP POP POP JUMP JUMPDEST PUSH2 0x18A0 DUP2 PUSH2 0x171D JUMP JUMPDEST DUP2 EQ PUSH2 0x18AA JUMPI PUSH0 DUP1 REVERT JUMPDEST POP JUMP JUMPDEST PUSH0 DUP2 MLOAD SWAP1 POP PUSH2 0x18BB DUP2 PUSH2 0x1897 JUMP JUMPDEST SWAP3 SWAP2 POP POP JUMP JUMPDEST PUSH0 PUSH1 0x20 DUP3 DUP5 SUB SLT ISZERO PUSH2 0x18D6 JUMPI PUSH2 0x18D5 PUSH2 0x11B4 JUMP JUMPDEST JUMPDEST PUSH0 PUSH2 0x18E3 DUP5 DUP3 DUP6 ADD PUSH2 0x18AD JUMP JUMPDEST SWAP2 POP POP SWAP3 SWAP2 POP POP JUMP JUMPDEST PUSH2 0x18F5 DUP2 PUSH2 0x171D JUMP JUMPDEST DUP3 MSTORE POP POP JUMP JUMPDEST PUSH0 PUSH1 0x40 DUP3 ADD SWAP1 POP PUSH2 0x190E PUSH0 DUP4 ADD DUP6 PUSH2 0x18EC JUMP JUMPDEST PUSH2 0x191B PUSH1 0x20 DUP4 ADD DUP5 PUSH2 0x18EC JUMP JUMPDEST SWAP4 SWAP3 POP POP POP JUMP JUMPDEST PUSH0 PUSH1 0x40 DUP3 ADD SWAP1 POP PUSH2 0x1935 PUSH0 DUP4 ADD DUP6 PUSH2 0x14C8 JUMP JUMPDEST PUSH2 0x1942 PUSH1 0x20 DUP4 ADD DUP5 PUSH2 0x18EC JUMP JUMPDEST SWAP4 SWAP3 POP POP POP JUMP JUMPDEST PUSH0 DUP2 MLOAD SWAP1 POP PUSH2 0x1957 DUP2 PUSH2 0x14F0 JUMP JUMPDEST SWAP3 SWAP2 POP POP JUMP JUMPDEST PUSH0 PUSH1 0x20 DUP3 DUP5 SUB SLT ISZERO PUSH2 0x1972 JUMPI PUSH2 0x1971 PUSH2 0x11B4 JUMP JUMPDEST JUMPDEST PUSH0 PUSH2 0x197F DUP5 DUP3 DUP6 ADD PUSH2 0x1949 JUMP JUMPDEST SWAP2 POP POP SWAP3 SWAP2 POP POP JUMP JUMPDEST PUSH2 0x1991 DUP2 PUSH2 0x142E JUMP JUMPDEST DUP2 EQ PUSH2 0x199B JUMPI PUSH0 DUP1 REVERT JUMPDEST POP JUMP JUMPDEST PUSH0 DUP2 MLOAD SWAP1 POP PUSH2 0x19AC DUP2 PUSH2 0x1988 JUMP JUMPDEST SWAP3 SWAP2 POP POP JUMP JUMPDEST PUSH0 PUSH1 0x20 DUP3 DUP5 SUB SLT ISZERO PUSH2 0x19C7 JUMPI PUSH2 0x19C6 PUSH2 0x11B4 JUMP JUMPDEST JUMPDEST PUSH0 PUSH2 0x19D4 DUP5 DUP3 DUP6 ADD PUSH2 0x199E JUMP JUMPDEST SWAP2 POP POP SWAP3 SWAP2 POP POP JUMP JUMPDEST DUP3 DUP2 DUP4 CALLDATACOPY PUSH0 DUP4 DUP4 ADD MSTORE POP POP POP JUMP JUMPDEST PUSH0 PUSH2 0x19F6 DUP4 DUP6 PUSH2 0x1596 JUMP JUMPDEST SWAP4 POP PUSH2 0x1A03 DUP4 DUP6 DUP5 PUSH2 0x19DD JUMP JUMPDEST PUSH2 0x1A0C DUP4 PUSH2 0x169D JUMP JUMPDEST DUP5 ADD SWAP1 POP SWAP4 SWAP3 POP POP POP JUMP JUMPDEST PUSH0 PUSH1 0x80 DUP3 ADD SWAP1 POP PUSH2 0x1A2A PUSH0 DUP4 ADD DUP9 PUSH2 0x14C8 JUMP JUMPDEST DUP2 DUP2 SUB PUSH1 0x20 DUP4 ADD MSTORE PUSH2 0x1A3D DUP2 DUP7 DUP9 PUSH2 0x19EB JUMP JUMPDEST SWAP1 POP PUSH2 0x1A4C PUSH1 0x40 DUP4 ADD DUP6 PUSH2 0x14C8 JUMP JUMPDEST PUSH2 0x1A59 PUSH1 0x60 DUP4 ADD DUP5 PUSH2 0x18EC JUMP JUMPDEST SWAP7 SWAP6 POP POP POP POP POP POP JUMP JUMPDEST PUSH0 DUP1 REVERT JUMPDEST PUSH32 0x4E487B7100000000000000000000000000000000000000000000000000000000 PUSH0 MSTORE PUSH1 0x41 PUSH1 0x4 MSTORE PUSH1 0x24 PUSH0 REVERT JUMPDEST PUSH2 0x1A9D DUP3 PUSH2 0x169D JUMP JUMPDEST DUP2 ADD DUP2 DUP2 LT PUSH8 0xFFFFFFFFFFFFFFFF DUP3 GT OR ISZERO PUSH2 0x1ABC JUMPI PUSH2 0x1ABB PUSH2 0x1A67 JUMP JUMPDEST JUMPDEST DUP1 PUSH1 0x40 MSTORE POP POP POP JUMP JUMPDEST PUSH0 PUSH2 0x1ACE PUSH2 0x11AB JUMP JUMPDEST SWAP1 POP PUSH2 0x1ADA DUP3 DUP3 PUSH2 0x1A94 JUMP JUMPDEST SWAP2 SWAP1 POP JUMP JUMPDEST PUSH0 DUP1 REVERT JUMPDEST PUSH0 DUP2 CALLDATALOAD SWAP1 POP PUSH2 0x1AF1 DUP2 PUSH2 0x1988 JUMP JUMPDEST SWAP3 SWAP2 POP POP JUMP JUMPDEST PUSH0 DUP1 REVERT JUMPDEST PUSH0 PUSH8 0xFFFFFFFFFFFFFFFF DUP3 GT ISZERO PUSH2 0x1B15 JUMPI PUSH2 0x1B14 PUSH2 0x1A67 JUMP JUMPDEST JUMPDEST PUSH2 0x1B1E DUP3 PUSH2 0x169D JUMP JUMPDEST SWAP1 POP PUSH1 0x20 DUP2 ADD SWAP1 POP SWAP2 SWAP1 POP JUMP JUMPDEST PUSH0 PUSH2 0x1B3D PUSH2 0x1B38 DUP5 PUSH2 0x1AFB JUMP JUMPDEST PUSH2 0x1AC5 JUMP JUMPDEST SWAP1 POP DUP3 DUP2 MSTORE PUSH1 0x20 DUP2 ADD DUP5 DUP5 DUP5 ADD GT ISZERO PUSH2 0x1B59 JUMPI PUSH2 0x1B58 PUSH2 0x1AF7 JUMP JUMPDEST JUMPDEST PUSH2 0x1B64 DUP5 DUP3 DUP6 PUSH2 0x19DD JUMP JUMPDEST POP SWAP4 SWAP3 POP POP POP JUMP JUMPDEST PUSH0 DUP3 PUSH1 0x1F DUP4 ADD SLT PUSH2 0x1B80 JUMPI PUSH2 0x1B7F PUSH2 0x135C JUMP JUMPDEST JUMPDEST DUP2 CALLDATALOAD PUSH2 0x1B90 DUP5 DUP3 PUSH1 0x20 DUP7 ADD PUSH2 0x1B2B JUMP JUMPDEST SWAP2 POP POP SWAP3 SWAP2 POP POP JUMP JUMPDEST PUSH0 PUSH8 0xFFFFFFFFFFFFFFFF DUP3 GT ISZERO PUSH2 0x1BB3 JUMPI PUSH2 0x1BB2 PUSH2 0x1A67 JUMP JUMPDEST JUMPDEST PUSH1 0x20 DUP3 MUL SWAP1 POP PUSH1 0x20 DUP2 ADD SWAP1 POP SWAP2 SWAP1 POP JUMP JUMPDEST PUSH0 DUP2 CALLDATALOAD SWAP1 POP PUSH2 0x1BD2 DUP2 PUSH2 0x1897 JUMP JUMPDEST SWAP3 SWAP2 POP POP JUMP JUMPDEST PUSH0 PUSH1 0x40 DUP3 DUP5 SUB SLT ISZERO PUSH2 0x1BED JUMPI PUSH2 0x1BEC PUSH2 0x1A63 JUMP JUMPDEST JUMPDEST PUSH2 0x1BF7 PUSH1 0x40 PUSH2 0x1AC5 JUMP JUMPDEST SWAP1 POP PUSH0 PUSH2 0x1C06 DUP5 DUP3 DUP6 ADD PUSH2 0x131D JUMP JUMPDEST PUSH0 DUP4 ADD MSTORE POP PUSH1 0x20 PUSH2 0x1C19 DUP5 DUP3 DUP6 ADD PUSH2 0x1BC4 JUMP JUMPDEST PUSH1 0x20 DUP4 ADD MSTORE POP SWAP3 SWAP2 POP POP JUMP JUMPDEST PUSH0 PUSH2 0x1C37 PUSH2 0x1C32 DUP5 PUSH2 0x1B99 JUMP JUMPDEST PUSH2 0x1AC5 JUMP JUMPDEST SWAP1 POP DUP1 DUP4 DUP3 MSTORE PUSH1 0x20 DUP3 ADD SWAP1 POP PUSH1 0x40 DUP5 MUL DUP4 ADD DUP6 DUP2 GT ISZERO PUSH2 0x1C5A JUMPI PUSH2 0x1C59 PUSH2 0x1364 JUMP JUMPDEST JUMPDEST DUP4 JUMPDEST DUP2 DUP2 LT ISZERO PUSH2 0x1C83 JUMPI DUP1 PUSH2 0x1C6F DUP9 DUP3 PUSH2 0x1BD8 JUMP JUMPDEST DUP5 MSTORE PUSH1 0x20 DUP5 ADD SWAP4 POP POP PUSH1 0x40 DUP2 ADD SWAP1 POP PUSH2 0x1C5C JUMP JUMPDEST POP POP POP SWAP4 SWAP3 POP POP POP JUMP JUMPDEST PUSH0 DUP3 PUSH1 0x1F DUP4 ADD SLT PUSH2 0x1CA1 JUMPI PUSH2 0x1CA0 PUSH2 0x135C JUMP JUMPDEST JUMPDEST DUP2 CALLDATALOAD PUSH2 0x1CB1 DUP5 DUP3 PUSH1 0x20 DUP7 ADD PUSH2 0x1C25 JUMP JUMPDEST SWAP2 POP POP SWAP3 SWAP2 POP POP JUMP JUMPDEST PUSH0 PUSH1 0xA0 DUP3 DUP5 SUB SLT ISZERO PUSH2 0x1CCF JUMPI PUSH2 0x1CCE PUSH2 0x1A63 JUMP JUMPDEST JUMPDEST PUSH2 0x1CD9 PUSH1 0xA0 PUSH2 0x1AC5 JUMP JUMPDEST SWAP1 POP PUSH0 PUSH2 0x1CE8 DUP5 DUP3 DUP6 ADD PUSH2 0x1AE3 JUMP JUMPDEST PUSH0 DUP4 ADD MSTORE POP PUSH1 0x20 PUSH2 0x1CFB DUP5 DUP3 DUP6 ADD PUSH2 0x1298 JUMP JUMPDEST PUSH1 0x20 DUP4 ADD MSTORE POP PUSH1 0x40 DUP3 ADD CALLDATALOAD PUSH8 0xFFFFFFFFFFFFFFFF DUP2 GT ISZERO PUSH2 0x1D1F JUMPI PUSH2 0x1D1E PUSH2 0x1ADF JUMP JUMPDEST JUMPDEST PUSH2 0x1D2B DUP5 DUP3 DUP6 ADD PUSH2 0x1B6C JUMP JUMPDEST PUSH1 0x40 DUP4 ADD MSTORE POP PUSH1 0x60 DUP3 ADD CALLDATALOAD PUSH8 0xFFFFFFFFFFFFFFFF DUP2 GT ISZERO PUSH2 0x1D4F JUMPI PUSH2 0x1D4E PUSH2 0x1ADF JUMP JUMPDEST JUMPDEST PUSH2 0x1D5B DUP5 DUP3 DUP6 ADD PUSH2 0x1B6C JUMP JUMPDEST PUSH1 0x60 DUP4 ADD MSTORE POP PUSH1 0x80 DUP3 ADD CALLDATALOAD PUSH8 0xFFFFFFFFFFFFFFFF DUP2 GT ISZERO PUSH2 0x1D7F JUMPI PUSH2 0x1D7E PUSH2 0x1ADF JUMP JUMPDEST JUMPDEST PUSH2 0x1D8B DUP5 DUP3 DUP6 ADD PUSH2 0x1C8D JUMP JUMPDEST PUSH1 0x80 DUP4 ADD MSTORE POP SWAP3 SWAP2 POP POP JUMP JUMPDEST PUSH0 PUSH2 0x1DA2 CALLDATASIZE DUP4 PUSH2 0x1CBA JUMP JUMPDEST SWAP1 POP SWAP2 SWAP1 POP JUMP JUMPDEST PUSH32 0x4F6E6C792063616C6C61626C65206279206F776E657200000000000000000000 PUSH0 DUP3 ADD MSTORE POP JUMP JUMPDEST PUSH0 PUSH2 0x1DDD PUSH1 0x16 DUP4 PUSH2 0x1596 JUMP JUMPDEST SWAP2 POP PUSH2 0x1DE8 DUP3 PUSH2 0x1DA9 JUMP JUMPDEST PUSH1 0x20 DUP3 ADD SWAP1 POP SWAP2 SWAP1 POP JUMP JUMPDEST PUSH0 PUSH1 0x20 DUP3 ADD SWAP1 POP DUP2 DUP2 SUB PUSH0 DUP4 ADD MSTORE PUSH2 0x1E0A DUP2 PUSH2 0x1DD1 JUMP JUMPDEST SWAP1 POP SWAP2 SWAP1 POP JUMP JUMPDEST PUSH0 PUSH1 0x20 DUP3 ADD SWAP1 POP DUP2 DUP2 SUB PUSH0 DUP4 ADD MSTORE PUSH2 0x1E2A DUP2 DUP5 DUP7 PUSH2 0x19EB JUMP JUMPDEST SWAP1 POP SWAP4 SWAP3 POP POP POP JUMP JUMPDEST PUSH0 PUSH2 0x1E3D DUP3 PUSH2 0x12D7 JUMP JUMPDEST SWAP1 POP SWAP2 SWAP1 POP JUMP JUMPDEST PUSH2 0x1E4D DUP2 PUSH2 0x1E33 JUMP JUMPDEST DUP2 EQ PUSH2 0x1E57 JUMPI PUSH0 DUP1 REVERT JUMPDEST POP JUMP JUMPDEST PUSH0 DUP2 MLOAD SWAP1 POP PUSH2 0x1E68 DUP2 PUSH2 0x1E44 JUMP JUMPDEST SWAP3 SWAP2 POP POP JUMP JUMPDEST PUSH0 PUSH1 0x20 DUP3 DUP5 SUB SLT ISZERO PUSH2 0x1E83 JUMPI PUSH2 0x1E82 PUSH2 0x11B4 JUMP JUMPDEST JUMPDEST PUSH0 PUSH2 0x1E90 DUP5 DUP3 DUP6 ADD PUSH2 0x1E5A JUMP JUMPDEST SWAP2 POP POP SWAP3 SWAP2 POP POP JUMP JUMPDEST PUSH0 PUSH8 0xFFFFFFFFFFFFFFFF DUP3 GT ISZERO PUSH2 0x1EB3 JUMPI PUSH2 0x1EB2 PUSH2 0x1A67 JUMP JUMPDEST JUMPDEST PUSH2 0x1EBC DUP3 PUSH2 0x169D JUMP JUMPDEST SWAP1 POP PUSH1 0x20 DUP2 ADD SWAP1 POP SWAP2 SWAP1 POP JUMP JUMPDEST PUSH0 PUSH2 0x1EDB PUSH2 0x1ED6 DUP5 PUSH2 0x1E99 JUMP JUMPDEST PUSH2 0x1AC5 JUMP JUMPDEST SWAP1 POP DUP3 DUP2 MSTORE PUSH1 0x20 DUP2 ADD DUP5 DUP5 DUP5 ADD GT ISZERO PUSH2 0x1EF7 JUMPI PUSH2 0x1EF6 PUSH2 0x1AF7 JUMP JUMPDEST JUMPDEST PUSH2 0x1F02 DUP5 DUP3 DUP6 PUSH2 0x168F JUMP JUMPDEST POP SWAP4 SWAP3 POP POP POP JUMP JUMPDEST PUSH0 DUP3 PUSH1 0x1F DUP4 ADD SLT PUSH2 0x1F1E JUMPI PUSH2 0x1F1D PUSH2 0x135C JUMP JUMPDEST JUMPDEST DUP2 MLOAD PUSH2 0x1F2E DUP5 DUP3 PUSH1 0x20 DUP7 ADD PUSH2 0x1EC9 JUMP JUMPDEST SWAP2 POP POP SWAP3 SWAP2 POP POP JUMP JUMPDEST PUSH0 PUSH1 0x20 DUP3 DUP5 SUB SLT ISZERO PUSH2 0x1F4C JUMPI PUSH2 0x1F4B PUSH2 0x11B4 JUMP JUMPDEST JUMPDEST PUSH0 DUP3 ADD MLOAD PUSH8 0xFFFFFFFFFFFFFFFF DUP2 GT ISZERO PUSH2 0x1F69 JUMPI PUSH2 0x1F68 PUSH2 0x11B8 JUMP JUMPDEST JUMPDEST PUSH2 0x1F75 DUP5 DUP3 DUP6 ADD PUSH2 0x1F0A JUMP JUMPDEST SWAP2 POP POP SWAP3 SWAP2 POP POP JUMP JUMPDEST PUSH0 DUP2 MLOAD SWAP1 POP SWAP2 SWAP1 POP JUMP JUMPDEST PUSH32 0x4E487B7100000000000000000000000000000000000000000000000000000000 PUSH0 MSTORE PUSH1 0x22 PUSH1 0x4 MSTORE PUSH1 0x24 PUSH0 REVERT JUMPDEST PUSH0 PUSH1 0x2 DUP3 DIV SWAP1 POP PUSH1 0x1 DUP3 AND DUP1 PUSH2 0x1FCC JUMPI PUSH1 0x7F DUP3 AND SWAP2 POP JUMPDEST PUSH1 0x20 DUP3 LT DUP2 SUB PUSH2 0x1FDF JUMPI PUSH2 0x1FDE PUSH2 0x1F88 JUMP JUMPDEST JUMPDEST POP SWAP2 SWAP1 POP JUMP JUMPDEST PUSH0 DUP2 SWAP1 POP DUP2 PUSH0 MSTORE PUSH1 0x20 PUSH0 KECCAK256 SWAP1 POP SWAP2 SWAP1 POP JUMP JUMPDEST PUSH0 PUSH1 0x20 PUSH1 0x1F DUP4 ADD DIV SWAP1 POP SWAP2 SWAP1 POP JUMP JUMPDEST PUSH0 DUP3 DUP3 SHL SWAP1 POP SWAP3 SWAP2 POP POP JUMP JUMPDEST PUSH0 PUSH1 0x8 DUP4 MUL PUSH2 0x2041 PUSH32 0xFFFFFFFFFFFFFFFFFFFFFFFFFFFFFFFFFFFFFFFFFFFFFFFFFFFFFFFFFFFFFFFF DUP3 PUSH2 0x2006 JUMP JUMPDEST PUSH2 0x204B DUP7 DUP4 PUSH2 0x2006 JUMP JUMPDEST SWAP6 POP DUP1 NOT DUP5 AND SWAP4 POP DUP1 DUP7 AND DUP5 OR SWAP3 POP POP POP SWAP4 SWAP3 POP POP POP JUMP JUMPDEST PUSH0 DUP2 SWAP1 POP SWAP2 SWAP1 POP JUMP JUMPDEST PUSH0 PUSH2 0x2086 PUSH2 0x2081 PUSH2 0x207C DUP5 PUSH2 0x171D JUMP JUMPDEST PUSH2 0x2063 JUMP JUMPDEST PUSH2 0x171D JUMP JUMPDEST SWAP1 POP SWAP2 SWAP1 POP JUMP JUMPDEST PUSH0 DUP2 SWAP1 POP SWAP2 SWAP1 POP JUMP JUMPDEST PUSH2 0x209F DUP4 PUSH2 0x206C JUMP JUMPDEST PUSH2 0x20B3 PUSH2 0x20AB DUP3 PUSH2 0x208D JUMP JUMPDEST DUP5 DUP5 SLOAD PUSH2 0x2012 JUMP JUMPDEST DUP3 SSTORE POP POP POP POP JUMP JUMPDEST PUSH0 SWAP1 JUMP JUMPDEST PUSH2 0x20C7 PUSH2 0x20BB JUMP JUMPDEST PUSH2 0x20D2 DUP2 DUP5 DUP5 PUSH2 0x2096 JUMP JUMPDEST POP POP POP JUMP JUMPDEST JUMPDEST DUP2 DUP2 LT ISZERO PUSH2 0x20F5 JUMPI PUSH2 0x20EA PUSH0 DUP3 PUSH2 0x20BF JUMP JUMPDEST PUSH1 0x1 DUP2 ADD SWAP1 POP PUSH2 0x20D8 JUMP JUMPDEST POP POP JUMP JUMPDEST PUSH1 0x1F DUP3 GT ISZERO PUSH2 0x213A JUMPI PUSH2 0x210B DUP2 PUSH2 0x1FE5 JUMP JUMPDEST PUSH2 0x2114 DUP5 PUSH2 0x1FF7 JUMP JUMPDEST DUP2 ADD PUSH1 0x20 DUP6 LT ISZERO PUSH2 0x2123 JUMPI DUP2 SWAP1 POP JUMPDEST PUSH2 0x2137 PUSH2 0x212F DUP6 PUSH2 0x1FF7 JUMP JUMPDEST DUP4 ADD DUP3 PUSH2 0x20D7 JUMP JUMPDEST POP POP JUMPDEST POP POP POP JUMP JUMPDEST PUSH0 DUP3 DUP3 SHR SWAP1 POP SWAP3 SWAP2 POP POP JUMP JUMPDEST PUSH0 PUSH2 0x215A PUSH0 NOT DUP5 PUSH1 0x8 MUL PUSH2 0x213F JUMP JUMPDEST NOT DUP1 DUP4 AND SWAP2 POP POP SWAP3 SWAP2 POP POP JUMP JUMPDEST PUSH0 PUSH2 0x2172 DUP4 DUP4 PUSH2 0x214B JUMP JUMPDEST SWAP2 POP DUP3 PUSH1 0x2 MUL DUP3 OR SWAP1 POP SWAP3 SWAP2 POP POP JUMP JUMPDEST PUSH2 0x218B DUP3 PUSH2 0x1F7E JUMP JUMPDEST PUSH8 0xFFFFFFFFFFFFFFFF DUP2 GT ISZERO PUSH2 0x21A4 JUMPI PUSH2 0x21A3 PUSH2 0x1A67 JUMP JUMPDEST JUMPDEST PUSH2 0x21AE DUP3 SLOAD PUSH2 0x1FB5 JUMP JUMPDEST PUSH2 0x21B9 DUP3 DUP3 DUP6 PUSH2 0x20F9 JUMP JUMPDEST PUSH0 PUSH1 0x20 SWAP1 POP PUSH1 0x1F DUP4 GT PUSH1 0x1 DUP2 EQ PUSH2 0x21EA JUMPI PUSH0 DUP5 ISZERO PUSH2 0x21D8 JUMPI DUP3 DUP8 ADD MLOAD SWAP1 POP JUMPDEST PUSH2 0x21E2 DUP6 DUP3 PUSH2 0x2167 JUMP JUMPDEST DUP7 SSTORE POP PUSH2 0x2249 JUMP JUMPDEST PUSH1 0x1F NOT DUP5 AND PUSH2 0x21F8 DUP7 PUSH2 0x1FE5 JUMP JUMPDEST PUSH0 JUMPDEST DUP3 DUP2 LT ISZERO PUSH2 0x221F JUMPI DUP5 DUP10 ADD MLOAD DUP3 SSTORE PUSH1 0x1 DUP3 ADD SWAP2 POP PUSH1 0x20 DUP6 ADD SWAP5 POP PUSH1 0x20 DUP2 ADD SWAP1 POP PUSH2 0x21FA JUMP JUMPDEST DUP7 DUP4 LT ISZERO PUSH2 0x223C JUMPI DUP5 DUP10 ADD MLOAD PUSH2 0x2238 PUSH1 0x1F DUP10 AND DUP3 PUSH2 0x214B JUMP JUMPDEST DUP4 SSTORE POP JUMPDEST PUSH1 0x1 PUSH1 0x2 DUP9 MUL ADD DUP9 SSTORE POP POP POP JUMPDEST POP POP POP POP POP POP JUMP JUMPDEST PUSH0 PUSH2 0x226B PUSH2 0x2266 PUSH2 0x2261 DUP5 PUSH2 0x12D7 JUMP JUMPDEST PUSH2 0x2063 JUMP JUMPDEST PUSH2 0x12D7 JUMP JUMPDEST SWAP1 POP SWAP2 SWAP1 POP JUMP JUMPDEST PUSH0 PUSH2 0x227C DUP3 PUSH2 0x2251 JUMP JUMPDEST SWAP1 POP SWAP2 SWAP1 POP JUMP JUMPDEST PUSH0 PUSH2 0x228D DUP3 PUSH2 0x2272 JUMP JUMPDEST SWAP1 POP SWAP2 SWAP1 POP JUMP JUMPDEST PUSH2 0x229D DUP2 PUSH2 0x2283 JUMP JUMPDEST DUP3 MSTORE POP POP JUMP JUMPDEST PUSH0 PUSH2 0x22AD DUP3 PUSH2 0x1F7E JUMP JUMPDEST PUSH2 0x22B7 DUP2 DUP6 PUSH2 0x1596 JUMP JUMPDEST SWAP4 POP PUSH2 0x22C7 DUP2 DUP6 PUSH1 0x20 DUP7 ADD PUSH2 0x168F JUMP JUMPDEST PUSH2 0x22D0 DUP2 PUSH2 0x169D JUMP JUMPDEST DUP5 ADD SWAP2 POP POP SWAP3 SWAP2 POP POP JUMP JUMPDEST PUSH0 PUSH1 0x40 DUP3 ADD SWAP1 POP PUSH2 0x22EE PUSH0 DUP4 ADD DUP6 PUSH2 0x2294 JUMP JUMPDEST DUP2 DUP2 SUB PUSH1 0x20 DUP4 ADD MSTORE PUSH2 0x2300 DUP2 DUP5 PUSH2 0x22A3 JUMP JUMPDEST SWAP1 POP SWAP4 SWAP3 POP POP POP JUMP JUMPDEST PUSH32 0x43616E6E6F74207472616E7366657220746F2073656C66000000000000000000 PUSH0 DUP3 ADD MSTORE POP JUMP JUMPDEST PUSH0 PUSH2 0x233D PUSH1 0x17 DUP4 PUSH2 0x1596 JUMP JUMPDEST SWAP2 POP PUSH2 0x2348 DUP3 PUSH2 0x2309 JUMP JUMPDEST PUSH1 0x20 DUP3 ADD SWAP1 POP SWAP2 SWAP1 POP JUMP JUMPDEST PUSH0 PUSH1 0x20 DUP3 ADD SWAP1 POP DUP2 DUP2 SUB PUSH0 DUP4 ADD MSTORE PUSH2 0x236A DUP2 PUSH2 0x2331 JUMP JUMPDEST SWAP1 POP SWAP2 SWAP1 POP JUMP JUMPDEST PUSH2 0x237A DUP2 PUSH2 0x123C JUMP JUMPDEST DUP3 MSTORE POP POP JUMP JUMPDEST PUSH1 0x40 DUP3 ADD PUSH0 DUP3 ADD MLOAD PUSH2 0x2394 PUSH0 DUP6 ADD DUP3 PUSH2 0x1726 JUMP JUMPDEST POP PUSH1 0x20 DUP3 ADD MLOAD PUSH2 0x23A7 PUSH1 0x20 DUP6 ADD DUP3 PUSH2 0x2371 JUMP JUMPDEST POP POP POP POP JUMP JUMPDEST PUSH0 PUSH1 0x40 DUP3 ADD SWAP1 POP PUSH2 0x23C0 PUSH0 DUP4 ADD DUP5 PUSH2 0x2380 JUMP JUMPDEST SWAP3 SWAP2 POP POP JUMP INVALID LOG2 PUSH5 0x6970667358 0x22 SLT KECCAK256 DUP15 PUSH30 0xDA7D52A59278711BF96FFF986017C7FC56516CAB1FD92A25137506712DA9 PUSH5 0x736F6C6343 STOP ADDMOD BYTE STOP CALLER "
				},
				"gasEstimates": {
					"creation": {
						"codeDepositCost": "1842400",
						"executionCost": "infinite",
						"totalCost": "infinite"
					},
					"external": {
						"acceptOwnership()": "54622",
						"allowlistDestinationChain(uint64,bool)": "27195",
						"allowlistSender(address,bool)": "27236",
						"allowlistSourceChain(uint64,bool)": "27172",
						"allowlistedDestinationChains(uint64)": "2858",
						"allowlistedSenders(address)": "2878",
						"allowlistedSourceChains(uint64)": "2814",
						"ccipReceive((bytes32,uint64,bytes,bytes,(address,uint256)[]))": "infinite",
						"getRouter()": "infinite",
						"owner()": "2560",
						"sendMessagePayLINK(uint64,address,string)": "infinite",
						"supportsInterface(bytes4)": "676",
						"transferOwnership(address)": "30733"
					},
					"internal": {
						"_buildCCIPMessage(address,string calldata,address)": "infinite",
						"_ccipReceive(struct Client.Any2EVMMessage memory)": "infinite"
					}
				},
				"methodIdentifiers": {
					"acceptOwnership()": "79ba5097",
					"allowlistDestinationChain(uint64,bool)": "96d3b83d",
					"allowlistSender(address,bool)": "eab5b02c",
					"allowlistSourceChain(uint64,bool)": "db04fa49",
					"allowlistedDestinationChains(uint64)": "75c67c66",
					"allowlistedSenders(address)": "6159ada1",
					"allowlistedSourceChains(uint64)": "4030d521",
					"ccipReceive((bytes32,uint64,bytes,bytes,(address,uint256)[]))": "85572ffb",
					"getRouter()": "b0f479a1",
					"owner()": "8da5cb5b",
					"sendMessagePayLINK(uint64,address,string)": "7b77dd04",
					"supportsInterface(bytes4)": "01ffc9a7",
					"transferOwnership(address)": "f2fde38b"
				}
			},
			"storageLayout": {
				"storage": [
					{
						"astId": 283,
						"contract": "contracts/NFTLockAndRelease.sol:Messenger",
						"label": "s_owner",
						"offset": 0,
						"slot": "0",
						"type": "t_address"
					},
					{
						"astId": 285,
						"contract": "contracts/NFTLockAndRelease.sol:Messenger",
						"label": "s_pendingOwner",
						"offset": 0,
						"slot": "1",
						"type": "t_address"
					},
					{
						"astId": 1284,
						"contract": "contracts/NFTLockAndRelease.sol:Messenger",
						"label": "s_lastReceivedMessageId",
						"offset": 0,
						"slot": "2",
						"type": "t_bytes32"
					},
					{
						"astId": 1286,
						"contract": "contracts/NFTLockAndRelease.sol:Messenger",
						"label": "s_lastReceivedText",
						"offset": 0,
						"slot": "3",
						"type": "t_string_storage"
					},
					{
						"astId": 1290,
						"contract": "contracts/NFTLockAndRelease.sol:Messenger",
						"label": "allowlistedDestinationChains",
						"offset": 0,
						"slot": "4",
						"type": "t_mapping(t_uint64,t_bool)"
					},
					{
						"astId": 1294,
						"contract": "contracts/NFTLockAndRelease.sol:Messenger",
						"label": "allowlistedSourceChains",
						"offset": 0,
						"slot": "5",
						"type": "t_mapping(t_uint64,t_bool)"
					},
					{
						"astId": 1298,
						"contract": "contracts/NFTLockAndRelease.sol:Messenger",
						"label": "allowlistedSenders",
						"offset": 0,
						"slot": "6",
						"type": "t_mapping(t_address,t_bool)"
					},
					{
						"astId": 1301,
						"contract": "contracts/NFTLockAndRelease.sol:Messenger",
						"label": "s_linkToken",
						"offset": 0,
						"slot": "7",
						"type": "t_contract(IERC20)547"
					}
				],
				"types": {
					"t_address": {
						"encoding": "inplace",
						"label": "address",
						"numberOfBytes": "20"
					},
					"t_bool": {
						"encoding": "inplace",
						"label": "bool",
						"numberOfBytes": "1"
					},
					"t_bytes32": {
						"encoding": "inplace",
						"label": "bytes32",
						"numberOfBytes": "32"
					},
					"t_contract(IERC20)547": {
						"encoding": "inplace",
						"label": "contract IERC20",
						"numberOfBytes": "20"
					},
					"t_mapping(t_address,t_bool)": {
						"encoding": "mapping",
						"key": "t_address",
						"label": "mapping(address => bool)",
						"numberOfBytes": "32",
						"value": "t_bool"
					},
					"t_mapping(t_uint64,t_bool)": {
						"encoding": "mapping",
						"key": "t_uint64",
						"label": "mapping(uint64 => bool)",
						"numberOfBytes": "32",
						"value": "t_bool"
					},
					"t_string_storage": {
						"encoding": "bytes",
						"label": "string",
						"numberOfBytes": "32"
					},
					"t_uint64": {
						"encoding": "inplace",
						"label": "uint64",
						"numberOfBytes": "8"
					}
				}
			},
			"userdoc": {
				"kind": "user",
				"methods": {
					"acceptOwnership()": {
						"notice": "Allows an ownership transfer to be completed by the recipient."
					},
					"ccipReceive((bytes32,uint64,bytes,bytes,(address,uint256)[]))": {
						"notice": "Called by the Router to deliver a message. If this reverts, any token transfers also revert. The message will move to a FAILED state and become available for manual execution."
					},
					"constructor": {
						"notice": "Constructor initializes the contract with the router address."
					},
					"getRouter()": {
						"notice": "Return the current router"
					},
					"owner()": {
						"notice": "Get the current owner"
					},
					"sendMessagePayLINK(uint64,address,string)": {
						"notice": "Sends data to receiver on the destination chain.Pay for fees in LINK."
					},
					"supportsInterface(bytes4)": {
						"notice": "IERC165 supports an interfaceId"
					},
					"transferOwnership(address)": {
						"notice": "Allows an owner to begin transferring ownership to a new address."
					}
				},
				"version": 1
			}
		}
	}
}